:100000000C945E020C947B020C947B020C947B0299
:100010000C947B020C947B020C947B020C947B026C
:100020000C947B020C947B020C942C2C0C94042DCD
:100030000C94E12B0C947B020C947B020C947B02BD
:100040000C947B020C947B020C947B020C947B023C
:100050000C947B020C94082C0C947B020C947B0275
:100060000C947B020C947B020C947B020C947B021C
:100070000C947B020C947B020C947B020C947B020C
:100080000C947B020C947B020C947B020C947B02FC
:100090000C947B020C947B020C947B020C947B02EC
:1000A0000C947B020C947B020C947B0205010902E8
:1000B000A10185020901A1000509190129081500FE
:1000C0002501950875018102050109300931158165
:1000D000257F95027508810609381581257F9501D0
:1000E00075088106050C0A38021581257F95017572
:1000F000088106C0C005010980A101850319012AF4
:10010000B700150126B700950175108100C0050CD8
:100110000901A101850419012AA002150126A002E6
:10012000950175108100C005010906A1018506052C
:100130000719E029E71500250195087501810205D9
:1001400007190029EF1500250195F07501810205B9
:10015000081901290595057501910295017503910D
:1001600001C00660FF0961A1010962150026FF00B8
:100170009520750881020963150026FF00952075FA
:10018000089102C005010906A101050719E029E748
:1001900015002501950875018102950175088101F9
:1001A0000507190029FF150026FF0095067508812F
:1001B000000508190129051500250195057501910E
:1001C00002950175039101C009025B00030100A0C3
:1001D000FA090400000103010100092111010001D5
:1001E00022440007058103080001090401000203FD
:1001F00000000009211101000122220007058203ED
:100200002000010705030320000109040200010387
:1002100000000009211101000122B6000705840336
:100220002000011201000200000008084E084E00E4
:1002300001010200011A036D0061006F005F0030D0
:100240000038002E00670061006D0065007200003C
:10025000000C0343005A004D0041004F0000000411
:1002600003090429003A003B003C003D000000A8BF
:100270000035001E001F0020002100220023002B5B
:100280000014001A000800150017000000390004CF
:10029000001600070009000A000000E1001D001B15
:1002A000000600190005000000E0002152E2002CC9
:1002B00000A900AA000000037C3A003B003C003D7E
:1002C000000000A80035001E001F002000210022B1
:1002D0000023002078277823782578150017000060
:1002E00000217828782478267809000A000000E1A7
:1002F000001100E500010001000100000001000103
:1003000000E2002C00A900AA000000000101010188
:1003100001010101010202020202020202020303C0
:100320000303030303030404040404040405050590
:100330000505060606060607070707070808080852
:10034000090909090A0A0A0B0B0B0C0C0C0D0D0DFF
:100350000E0E0E0F0F0F1010111111121213131495
:1003600014151516161717181819191A1A1B1B1C0D
:100370001D1D1E1E1F202021222223242425262667
:10038000272829292A2B2C2D2D2E2F30313232339C
:100390003435363738393A3B3C3D3E3F40414243A5
:1003A0004445464748494A4C4D4E4F505153545589
:1003B0005658595A5B5D5E5F616264656668696B39
:1003C0006C6D6F7072737577787A7B7D7E808283B7
:1003D0008587888A8C8E8F91939596989A9C9EA0FB
:1003E000A2A3A5A7A9ABADAFB1B3B5B7BABCBEC008
:1003F000C2C4C6C9CBCDCFD1D4D6D8DBDDDFE2E4D1
:10040000E7E9EBEEF0F3F5F8FAFDFF00000000007D
:1004100000000000000000000000000000000000DC
:100420000000000000000000000000000000007E4E
:100430000F00D4FFFFFFC70000007800000000009D
:100440000000002A2B28000000000000000000002F
:1004500000000000000029000000002C1E342021B4
:100460002224342627252E362D3738271E1F2021FB
:1004700022232425263333362E37381F040506075A
:1004800008090A0B0C0D0E0F101112131415161774
:1004900018191A1B1C1D2F3130232D350405060792
:1004A00008090A0B0C0D0E0F101112131415161754
:1004B00018191A1B1C1D2F3130354C0011241FBE7A
:1004C000CFEFDAE0DEBFCDBF12E0A0E0B1E0EAE9B5
:1004D000FEE502C005900D92A035B107D9F724E0E2
:1004E000A0E5B2E001C01D92AA34B207E1F70E9474
:1004F000F9250C946B2E0C940000982F92959F7008
:1005000024E0911102C020E0982F892F86958695CE
:10051000811511F02E5F982F892F8695820F0895EF
:1005200080930304089580930404089521E030E04B
:1005300001C0220F8A95EAF780910404822B0E9461
:100540009302089521E030E0A90102C0440F551F35
:100550008A95E2F7CA0180959091040489230E944C
:1005600093020895292F963090F5873080F590E01A
:1005700037E0239F800D911D1124282F277041E023
:1005800001C0440F2A95EAF723E0969587952A95AE
:10059000E1F7FC01EE0FFF1FE80FF91FE952FC4FD6
:1005A00020E030E070E05191DF01CB01022E02C06B
:1005B000969587950A94E2F7817081958527842323
:1005C00085278E932F5F3F4F2330310561F70895C4
:1005D000292F963078F5873068F590E037E0239F33
:1005E000800D911D1124682F677023E096958795E3
:1005F0002A95E1F7FC01EE0FFF1FE80FF91FE95202
:10060000FC4F40E050E080E0219130E0062E02C037
:10061000369527950A94E2F721703327042E01C0FE
:10062000220F0A94EAF7822B4F5F5F4F4330510548
:1006300059F7089580E008959091040421E030E096
:10064000F90101C0EE0F8A95EAF7D90102C0AA0F9D
:10065000BB1F6A95E2F7EA2B01C0220F4A95EAF721
:10066000892F8E23E81305C0892F822B0E949302C5
:1006700008952095822F8923F9CF80910A049091C3
:100680000904981301C008958F5F8770FACF909185
:1006900005048095892380930504282F2770211154
:1006A0000DC0891759F09091070492FF07C08695F5
:1006B000869586950E94A202109205040895809165
:1006C000000490910804892B50910104511591F078
:1006D00090911701911521F09091060497FD0BC0A0
:1006E00096E024E532E040E0915048F44111109248
:1006F0000104852B08959EE12CE532E0F4CFF90149
:1007000061919F01611581F34F5FEECF982F909516
:100710008091000489238093000408959C01803E09
:10072000910509F448C0D8F48133910509F47DC0DE
:1007300048F48932910509F46DC08A9709F47CC0A8
:10074000C90108958933910551F18238910539F134
:10075000C597B1F78091060485FFF2CF29C0843E8A
:10076000910509F447C048F4823E910599F1833E12
:100770009105A9F121EE30E0E3CF863E910509F421
:1007800044C0873E9105E1F68091060483FD61C077
:100790009091070491FF2BC024EE30E0D1CF8091DF
:1007A00006048370811152C08091070483FFC8CF73
:1007B00029E230E0C5CF8091060480FD33C09091DE
:1007C000070490FFBDCF23EE30E084FFB9CF20E0D7
:1007D00030E0B6CF8091060482FDF5CFB1CF809195
:1007E000060482FD30C09091070490FD2FC084FF65
:1007F000A7CFEDCF8091070481FFA2CF809106049F
:1008000027EE30E084FDE3CF9BCF8091060483FD8B
:10081000F7CF96CF8091060485FD1EC08091070416
:1008200083FF8ECF29E330E08BCF8091060486FFD3
:1008300087CF2AE230E084CF8091060486FF80CF04
:1008400021E330E07DCF22EE30E07ACF20EE30E0C1
:1008500077CF26EE30E074CF25E330E071CF909172
:10086000060492FF10C041E0282F2471243009F0C3
:1008700040E031E0282F2871283009F030E043179C
:1008800011F02CE0822793FF10C041E0282F247143
:10089000243109F040E031E0282F2871283109F097
:1008A00030E0431711F02CE082273091070430FF2D
:1008B00010C051E0282F2171213009F050E041E0B3
:1008C000282F2871283009F040E0541711F029E052
:1008D000822731FF10C041E0282F2171213109F01A
:1008E00040E031E0282F2871283109F030E043172B
:1008F00011F029E0822794FD877E08951F93CF93FE
:10090000DF930E948E03EC01811522E5920708F027
:1009100055C0811540E5940708F0D1C0803E91058F
:1009200020F58D3C910508F0A4C0883A910570F43B
:10093000853A910508F09AC081309105D1F104976C
:10094000813A9105B0F1C0E0D0E033C0885A9109F6
:100950004B97C8F7C85AD0E0CC0FDD1FCC51DE4F03
:100960000990D881C02DD46424C0811550E4950726
:10097000C0F4C11580E2D80708F0B7C0C83ED10561
:10098000C0F0CE019A9581159F41E8F68D2F0E9407
:100990002F04182FCE0199270E948E03EC01D12B32
:1009A00008C099270E948E03CC27DF70C82BD92B53
:1009B000D06ACE01DF91CF911F910895803842E532
:1009C0009407C8F5803652E5950708F05BC0C0343F
:1009D00082E5D807D0F4C03292E5D90708F04BC0C1
:1009E0008C2F8695869520E2829FC0011124C370CA
:1009F00021E030E0A90102C0440F551FCA95E2F77B
:100A0000EA01C82BD92BDD68D4CF8C2F869586952B
:100A1000877050E2859FC0011124C37021E030E04F
:100A2000A90102C0440F551FCA95E2F7EA01C82B7D
:100A3000D92BDC68BECF803C52E5950758F48F7106
:100A4000C03AD245A0F590E0982F8827EC01C46FFA
:100A5000D06AAFCF805C9245809708F074CFDC2FCE
:100A6000CC27CC27DF71C06FD06AA3CFA497D06406
:100A7000A0CFD0659ECFCF71D0E0DC2FCC27C16F47
:100A8000D06A97CF86958695877020E2829FC001B5
:100A90001124C37021E030E0A90102C0440F551FAA
:100AA000CA95E2F7EA01C82BD92BDA6882CF0E94F7
:100AB0002F04C82FD0E0DC2FCC27D0627ACF8F71E3
:100AC0000E942F0493E0CC0FDD1F9A95E1F7CC270D
:100AD000DF70282F30E084FF04C050E1859F900133
:100AE0001124C22BD32BD06964CF8D2F8F710E941C
:100AF0002F04182FCE0199270E948E03EC01D12BD1
:100B0000DCCF80E00895F894E82FE295EF70F0E0F4
:100B100041A18F7021E030E0B90102C0660F771F5C
:100B20008A95E2F7CB01962F9095942391A392A1F9
:100B3000892B82A378940895A0E0B0E0E2EAF5E082
:100B40000C94AE2D372FE82FF0E0E55FFC4F7111CC
:100B50000AC0E4918E2F2E2F6E2F722FCDB7DEB7E5
:100B6000E7E00C94CA2D062F10E0E72EF12CD4906C
:100B70002D2D86E0689FE0011124EFEFF0E0CE011B
:100B8000BF010E944F2D000F111F45E5469FC00178
:100B9000479F900D1124081B190B402F440F400F45
:100BA0008F010E191F09D09ED001D19EB00D1124C6
:100BB0008B2F349F80011124012F11277F01E01A10
:100BC000F10A8701D09E7001D19EF00C11248F0193
:100BD000041B1109A801349F8001359F100D1124B9
:100BE000012F1127E01BF10BDE9EA001DF9E500DAF
:100BF0001124E52F63307105C1F0CC3FD34058F488
:100C000061307105B1F06230710509F0A5CFED2DAD
:100C10002B2F852FA1CF6430710571F066307105DF
:100C200009F49ACFEB2F8F2D97CF2B2F8D2DEF2DF2
:100C300093CFED2D2F2D90CFEB2F8D2D252F8CCFFA
:100C40009C0180E090E0269F812D369F800D911DB4
:100C500011240895AC018230910508F408959FEFA6
:100C6000413E8EE1580740F4CA0125E096958795EC
:100C70002A95E1F798E0980F61E0E62FE90FFF274A
:100C8000FF1F9F0135952795822F229FF001239FFB
:100C9000F00DF00D11244E175F0738F49FEF920FFF
:100CA000961758F78FEF860F08952F3FE9F361E00D
:100CB000620FF6CF409103015091040125E038E026
:100CC000429FC001439F900D529F900D1124875E5B
:100CD000994C9093040180930301890F0895982FF4
:100CE000E82F96FDE0958E2F8F7096FD8F5FE6952D
:100CF000E695E695E670F0E0E15DFE4F2181289FE4
:100D0000202D812D112422952F708295807F282BF4
:100D10008081820F97FD819580580895FC019B0189
:100D2000009719F4832F80780895AC0197FF04C0D1
:100D300044275527481B590BB901640F751F37FD10
:100D40000FC0C901841B950BA5E0880F991FAA95B8
:100D5000E1F70E94632D80E2861BF7FD81950895DF
:100D6000CB0165E0880F991F6A95E1F7BA01621B14
:100D7000730B0E94632D80E6EFCF1F93172F922FE6
:100D8000E42FF0E0EE0FFF1FE259FE4F408124EE0A
:100D9000429F412D1124272F30E050E0445E5F4FE9
:100DA000A92FB0E0FA01E91BF109F7FF03C0FD012B
:100DB000E41BF50B93E0EE0FFF1F9A95E1F72E1B56
:100DC0003F0B37FF02C020E030E0722F719F712D82
:100DD00011241F9108951F93182FE42FF0E0EE0FB8
:100DE000FF1FE259FE4F408134EE439F412D1124F5
:100DF00090E050E0445E5F4FE22FF0E0DA01A21B8A
:100E0000B1099D01B7FF03C09F01241B350B43E0CF
:100E1000220F331F4A95E1F7821B930B97FF02C005
:100E200080E090E0282F219F212D1124822F1F91F7
:100E300008950F931F93CF93DF93D62F172FC82FAB
:100E4000BA01C901212F201B022F0E948E06982F64
:100E5000990F990F782F791B700F719F712D1124A5
:100E60006D2F8C2FDF91CF911F910F910895FF92DD
:100E70000F931F93CF93DF93D62FC72F182FBA014D
:100E8000C901F12EF01A0E948E06982F990F990F22
:100E9000082F091B0F0D019F012D11246D2F7C2F91
:100EA000802FCDB7DEB7E5E00C94CC2DEF920F93F9
:100EB0001F93CF93DF93D62F172FC82FBA01C901E5
:100EC0000E19010F0E948E06702F781B719F712DD5
:100ED00011246D2F8C2FDF91CF911F910F91EF90E7
:100EE0000895EF920F931F93CF93DF93D62FC72FC1
:100EF000182FBA01C9010E19010F0E948E06081B96
:100F0000019F012D11246D2F7C2F802FDF91CF9118
:100F10001F910F91EF900895622F0895E42FF0E054
:100F2000EE0FFF1FE259FE4F6081621B0895E42F10
:100F3000F0E0EE0FFF1FEC5BFE4F63A5621B089510
:100F4000322F50E0FA01EE0FFF1FEC5BFE4F93A52E
:100F5000905297FD9195440F551FFA01E259FE4FAB
:100F60002081231B330B290F311D97FD3A95620F0A
:100F70000895EF920F931F9310E09801220F331FF3
:100F8000200F311F359527956E2D620F1F910F9100
:100F9000EF9008950F93CF93DF93D72FC82FF901C8
:100FA00047FD419528E330E0241B310947FD339587
:100FB000229FA001239F500D500D1124EE9FC001D0
:100FC000EF9F900D900D1124840F951F0E942A060B
:100FD000982F990F692F680F600F7D2F8C2FDF914D
:100FE000CF910F9108950F93CF93DF93D72FC82FF1
:100FF000BA01C9010E948E06682F600F7D2F8C2FC9
:10100000DF91CF910F910895EF920F93CF93DF93DC
:10101000D72FC82FBA01C9010E190E948E06602F62
:10102000681B7D2F8C2FDF91CF910F91EF9008954A
:101030000F931F93522F10E0F801EE0FFF1FEC5B90
:10104000FE4FA3A5A052BB0B9D015203F001539F7D
:10105000F00D1124000F111FD801A259BE4F2C9181
:101060002057330B4203D001439FB00D11249F0141
:101070002A0F3B1F37FF02C021583F4F220F232F5B
:10108000221F330B620F1F910F9108950F931F932F
:10109000522F10E0F801EE0FFF1FEC5BFE4FA3A5EF
:1010A000A052BB0B9D015203F001539FF00D112480
:1010B000000F111FD801A259BE4F2C912057330B9E
:1010C0004203D001439FB00D11249F012A0F3B1F03
:1010D00037FF02C0215C3F4F96E0359527959A95E2
:1010E000E1F7620F1F910F9108950F931F93A42FA3
:1010F00010E0F801EE0FFF1FE259FE4F908190576C
:1011000097FD9195000F111FF801EC5BFE4F03A5B1
:101110000052110B2003A001219F500D112428E340
:1011200030E0291B310997FD33951A2F1203F00186
:10113000139FF00D11244E0F5F1F9A01220F331FD2
:10114000240F351F37FF02C021583F4F220F232F96
:10115000221F330B620F1F910F9108950F931F935E
:10116000CF93DF93D62F072F182FC42F822F0E94E3
:101170006F06982FEC2FF0E0EE0FFF1FE259FE4FA5
:1011800080818058980F97FD9195990F292F3CE009
:10119000239F212D1124622F6D0F702F812FDF913E
:1011A000CF911F910F910895E42FF0E0EE0FFF1FF4
:1011B000E259FE4F9081921B97FD9195292F38E1BE
:1011C000239F212D1124620F08954095282F429FBF
:1011D000412D1124842F089522E8241B08F420E0D7
:1011E000620F0895EF92FF920F93970195E0099F88
:1011F000200D311D1124211591E0390710F02FEF3A
:1012000030E02095382F320F08F43FEF832F0F91F5
:10121000FF90EF900895EF92FF920F93E00EF11C74
:10122000F90137FF03C0F195E195F10924E0EE0FD4
:10123000FF1F2A95E1F7E11531E0F30714F0EFEF16
:10124000F0E0DA0157FF03C0B195A195B10994E030
:10125000AA0FBB1F9A95E1F7AE17BF070CF4FD016B
:10126000EE0DFF1DE11591E0F90710F0EFEFF0E052
:101270002E2F2095382F320F08F43FEF832F0F9138
:10128000FF90EF900895EF92FF920F93CF93DF932B
:10129000972FEA01F901D701093430F4A01BB109F5
:1012A000A11521E0B20710F0AFEFB0E028966197EA
:1012B00040F0AF01485F5F4F4131510510F0AFEF93
:1012C000B0E02A2F2095382F320F08F43FEF832FFC
:1012D000F7FD33969F0135952795359527956091B4
:1012E000F903620F792FDF91CF910F91FF90EF906B
:1012F0000895EF92FF920F939701201B310921155A
:1013000041E0340710F02FEF30E0322F3095482FB6
:10131000430F08F44FEF842F620F0F91FF90EF906F
:101320000895EF92FF920F939701201B3109211529
:1013300091E0390710F02FEF30E02095382F320F71
:1013400008F43FEF832F0F91FF90EF900895909155
:101350001403982B9093140308950E946C0A089527
:101360000E94900A089597E0899F802D1124980F7C
:10137000933208F092E20895982F862F2091F80377
:101380002370211589F0911581F0973280F49F73B5
:10139000990F990F2091F8032370922B9093F803E3
:1013A000109218010E94A709089591E0F1CF96E2EA
:1013B000EFCF8091F803869586958F5F873208F08E
:1013C00081E061E00E94BC0908958091F803869550
:1013D00086958A9509F486E261E00E94BC09089529
:1013E000982F822F2091F8032370211559F09093A4
:1013F000F9036093FA03453B08F044EB4093FB0389
:101400000E94A7090895E8EFF3E0818190E021E0D0
:101410004381628108960E94F0090895E8EFF3E0A5
:10142000818121E0438162818850990B0E94F009FB
:101430000895E8EFF3E0628120E1620F08F46FEFB6
:10144000818121E0438190E00E94F0090895E8EF56
:10145000F3E0628120E1621B08F460E0818121E019
:10146000438190E00E94F0090895E8EFF3E04381A2
:1014700020E1420F08F44FEF818121E0628190E08A
:101480000E94F0090895E8EFF3E0438120E1421B58
:1014900008F440E0818121E0628190E00E94F0093F
:1014A0000895E8EFF3E0248130E1230F08F42FEFF3
:1014B000248381E00E94A7090895E8EFF3E02481E6
:1014C00030E1231B08F420E0248381E00E94A70977
:1014D00008951092FE020895CF93DF93EC01FC0172
:1014E000EE0FFF1FDF01AC0FBD1FA856BD4F1196B9
:1014F0008C911197861307C08C91841304C01296A7
:101500008C91821751F081E08093FE02EC0FFD1F59
:10151000E856FD4F618340832283DF91CF91089588
:10152000FF920F931F93CF93DF93182F062FF42E64
:10153000C0E0D0E02F2D402F612FCE010E946C0A19
:101540002196C232D105B1F7CDB7DEB7E5E00C94F4
:10155000CC2DFA01811511F009950895FB01FCCFFE
:10156000282F35EB2303C001112497FF04C08058B6
:101570009109892F089580589F4FFBCF8091EF03E9
:1015800080FF0DC06091140170E0660F771F603816
:101590007105B0F561157105A9F1862F089581FFD8
:1015A00007C06091140184E0689FB0011124EFCF5F
:1015B00082FF04C06091140188E0F6CF9091EE03A1
:1015C0009115D9F02091130180911401682F70E0DA
:1015D000921730F043E0660F771F4A95E1F7D7CFB7
:1015E000899FC001112433E0880F991F3A95E1F7D4
:1015F000622F70E00E94632DCACF68E070E0CDCF0B
:101600008FE7089581E008958091EF0380FF0CC07B
:101610006091120170E075956795759567956115F4
:10162000710549F1862F089581FF06C0609112016E
:1016300070E075956795F3CF6091120182FD0BC044
:101640009091ED039115A1F060911101809112012B
:10165000961738F0682F70E06038710500F38FE757
:101660000895899FC001112470E00E94632DF4CF7A
:1016700061E070E0D7CF81E00895E091CD03F09173
:10168000CE03309729F00190F081E02D099508955F
:1016900080E00895A3E0B0E0E0E5FBE00C94B32D1A
:1016A0009C01809196029091970282179307A1F076
:1016B0003093970220939602E091CD03F091CE03F0
:1016C000309751F083E089833B832A830084F1853E
:1016D000E02DCE01019609952396E2E00C94CF2DE2
:1016E000A3E0B0E0E6E7FBE00C94B32D9C01809111
:1016F00094029091950282179307A1F0309395027E
:1017000020939402E091CD03F091CE03309751F0F5
:1017100084E089833B832A830084F185E02DCE0118
:10172000019609952396E2E00C94CF2D9091170134
:10173000911112C0A4E5B2E0EFEF90E02D91821775
:1017400051F0EF3F19F4211101C0E92F9F5F96304E
:10175000A9F7EF3FC9F408959091060497FFEACFE7
:10176000E82FE695E695E695803FA8F7F0E0E65A83
:10177000FD4F877021E030E001C0220F8A95EAF723
:101780008281822B828308950E2E000CFF0BEE5A6D
:10179000FD4FF8CF90911701911521F0909106041B
:1017A00097FD0CC0E4E5F2E09191891302C0DF01DE
:1017B0001E9252E0EA35F507B9F70895E82FE6954D
:1017C000E695E695803FC8F7F0E0E65AFD4F877052
:1017D00021E030E0A90102C0440F551F8A95E2F7CD
:1017E000CA01809592818923828308952FB7F89446
:1017F0008091030390910403A0910503B091060327
:101800002FBF08950E94F60B2091F2033091F3034D
:10181000232B211521F08093A1039093A203209103
:10182000F4033091F503232B211521F080939F03BE
:101830009093A003E091CD03F091CE03309749F04F
:1018400082E08093F0030680F781E02D80EF93E043
:10185000099508952091F2039091F5033091F403D6
:10186000611509F458C04091F303242B292B232B35
:10187000211531F098E09093EE0391E09093ED0301
:10188000E3E3E80FE33150F4F0E0E359F14D0C9459
:10189000962D0E94BE0A81958093F3030E94020C4C
:1018A00008950E94BE0AF8CF0E94BE0A81958093D7
:1018B000F203F4CF0E94BE0AFACF0E94040B809379
:1018C000F403ECCF0E94040B8195F9CF0E94040B26
:1018D00081958093F503E2CF0E94040BFACF815DDE
:1018E000990B21E030E001C0220F8A95EAF7809140
:1018F000F103822B8093F103D1CF8091EF038160BC
:101900008093EF03CBCF8091EF038260F9CF80917A
:10191000EF038460F5CF8D3C59F48091F30387FF8A
:101920000DC01092F303211559F41092EE0308C074
:101930008E3C81F48091F30318169CF3211581F0FD
:101940008091F4039091F503892B8111A7CF109218
:10195000ED03A4CF8F3C41F427FFF0CF1092F203A8
:101960008091F3038115E0CF803D19F41216B4F392
:10197000E5CF893D29F413160CF71092F403DECF5E
:101980008A3D19F437FFDACFF8CF8B3D29F497FF62
:10199000D5CF1092F503D2CF8C3D19F41916CCF3A4
:1019A000CDCF9FE2980F983090F4815D990B41E084
:1019B00050E0BA0102C0660F771F8A95E2F7CB01AB
:1019C00080959091F10389238093F103B7CF8D3DEA
:1019D00031F48091EF038E7F8093EF03AFCF8E3D84
:1019E00021F48091EF038D7FF7CF8F3D09F0A6CFD3
:1019F0008091EF038B7FF0CF2FB7F89460910303B2
:101A00007091040380910503909106032FBF089500
:101A10009C014FB7F8948091030390910403A09127
:101A20000503B09106034FBF821B930B089587E710
:101A300097E7909301088093000888E19AE00FB639
:101A4000F894A895809360000FBE90936000FFCF3C
:101A5000809193020895FC019B01809189029091ED
:101A60008A028617970740F0672B29F48091E800D7
:101A70008E778093E800C90140E0009741F441115E
:101A800006C08091E80082FF2FC080E00895209179
:101A9000AA032115A9F12530A9F12091E80023FD21
:101AA0002DC02091E80022FDECCF2091E80020FF1E
:101AB000E4CF3091F3002091F200009719F0283024
:101AC000310558F041E02830310509F040E020911F
:101AD000E8002E772093E800D0CF41914093F100A9
:101AE00001972F5F3F4FE9CF8091AA03811541F005
:101AF000853041F08091E80083FFC3CF81E00895F5
:101B000082E0089583E008958091830287FF13C0E7
:101B10008091E80082FF06C08091E8008B77809377
:101B2000E80008958091AA038111F2CF0895809171
:101B3000AA038115D9F38091E80080FFF8CF809146
:101B4000E8008E77ECCF2091E4003091E50095E637
:101B5000A9012091EC00822F817020FF06C08091A6
:101B6000E80080FF06C080E008952091E80022FD93
:101B70001AC08091AA03811589F0853089F080917F
:101B8000EB0085FD0FC02091E4003091E500421785
:101B90005307F9F29A95E1F684E0089582E00895FA
:101BA00083E0089581E00895E8EDF0E080818E7F84
:101BB00080831092E2001092DA001092E100A0EE11
:101BC000B0E08C9181608C9380818F77808319BC89
:101BD000A7EDB0E08C918E7F8C9380818F7E808387
:101BE000109282020895AF92BF92DF92EF92FF921D
:101BF0000F931F93CF93DF935C01809100010E94AC
:101C0000B309C82F192F6091FC03669580910A03D0
:101C100090910B030E942006D82ED0E0CE01880FB1
:101C2000991F9C012C5B3E4F79011C1709F070F441
:101C300081E0123208F080E0DF91CF911F910F9187
:101C4000FF90EF90DF90BF90AF900895FE01EE54AB
:101C5000FE4F80819091010189238115C1F0F70128
:101C600023A52052330B42A54057550B6091F90331
:101C70007091FA038091FB030D2DF50109950E94E7
:101C80009C05462F672F282FCE010E94AD09F2E058
:101C9000EF0EF11C2196C9CFA0E0B0E0E2E5FEE036
:101CA0000C94A72D3C01809100010E94B309C82F1C
:101CB000192F6091FC03669580910A0390910B03A4
:101CC0000E942006F82ED0E0CE01880F991F9C01BB
:101CD0002C5B3E4F69011C1709F048F481E0123279
:101CE00008F080E0CDB7DEB7EEE00C94C32DFE0126
:101CF000EE54FE4F8081909101018923811579F185
:101D0000F60182A5282F2057330B590183A5E82F10
:101D1000E052FF0B4F01AA9C9001AB9C300D300D9F
:101D20001124EE9FC001EF9F900D900D1124820FA2
:101D3000931F0E942A06082F6091F9037091FA03FD
:101D40008091FB03EF2C9401A501F30109950E94FA
:101D50009C05462F672F282FCE010E94AD09F2E087
:101D6000CF0ED11C2196B7CFA4E0B0E0EAEBFEE0A5
:101D70000C94AD2D6C01809100010E94B3098B83FE
:101D8000F92E6091FC036695669580910A03909107
:101D90000B030E942006182F80E4810F0E946F061B
:101DA00080588983812F0E946F0680588A839B8187
:101DB000892F90E09C838B839B819F1548F081E065
:101DC000E2E2FE1608F080E02496E8E00C94C92DCB
:101DD000EB81FC81EE54FE4F8081909101018923BB
:101DE0008115A9F06091F9037091FA038091FB03CA
:101DF000E12E0B812A814981F60109950E949C05FB
:101E0000462F672F282F8B819C810E94AD098B81E3
:101E10009C810196CFCFA0E0B0E0E1E1FFE00C941F
:101E2000AE2DEC01FC01EE54FE4F8081909101013A
:101E30008923811549F1D090FA030091FB03109199
:101E4000F903E12EF12C0E945A06482FC7018C5449
:101E50009F4F68E671E00E94632D8E199F0997FDE0
:101E6000039695958795959587954370612F489F23
:101E7000600D11247D2D802F0E949C05462F672F19
:101E8000282FCE010E94AD09CDB7DEB7E7E00C9454
:101E9000CA2D1F93CF93DF93EC01FC01EE54FE4F4C
:101EA00080819091010189238115B1F00E945A0629
:101EB000182F0E945A0620E8829FC00111247FE754
:101EC000790F612F8091FB030E949C05462F672F9D
:101ED000282FCE010E94AD09DF91CF911F91089567
:101EE000EF92FF920F931F93CF93DF937C0180912A
:101EF00000010E94B309C82F192F6091FC03669559
:101F0000669521E0620F08F46FEF80910A039091CB
:101F10000B030E942006082FD0E0C11748F081E093
:101F2000123208F080E0CDB7DEB7E6E00C94CB2D9E
:101F3000FE01EE54FE4F80819091010189238115AD
:101F400091F06091F9037091FA038091FB03202FC7
:101F50004C2FF70109950E949C05462F672F282FCB
:101F6000CE010E94AD092196D8CFA0E0B0E0EBEB06
:101F7000FFE00C94AA2D7C01809100010E94B3091E
:101F8000C82FB92E2091FC0331E0230F08F42FEF66
:101F900030E040E050E06FEF7FEF80E090E00E94A3
:101FA000772D6901D0E0A22E9D2C2C2FCB1550F05F
:101FB00081E0F2E2BF1608F080E0CDB7DEB7EBE0DB
:101FC0000C94C62DFE01EE54FE4F808190910101CC
:101FD0008923811521F1809115038150082E000C71
:101FE000990B87FF1EC00A2D192D6091FC0321E07B
:101FF000620F08F46FEFC8010E942006AC016091E7
:10200000F9037091FA038091FB03F70109950E948F
:102010009C05462F672F282FCE010E94AD092196DF
:10202000C4CFFC01EB5EFC4F318932130AC0FC01C6
:10203000EE0FFF1FEB5EFC4F018D128D0C151D0581
:10204000A0F20197CECFA8E0B0E0E9E2F0E10C9475
:10205000A32D282E6A837B83809100010E94B309FF
:102060009983209115032C83E82FF0E0F887EF8304
:10207000CF01880F991F9C012C5B3E4F6901822D77
:1020800090E0FC013196FE83ED838F819981891761
:1020900040F081E0923208F080E02896E2E10C9472
:1020A000BF2DEF81F885EE54FE4F808190910101A4
:1020B00089238115F1F04090F9035090FA032D81A6
:1020C0003E812B5E3C4F3901322C10E0FC813F16E3
:1020D000D0F02091FB03129F112D1124B201812F0A
:1020E0000E949C05462F672F282F8F8198850E947C
:1020F000AD092F8138852F5F3F4F38872F8332E01E
:10210000C30ED11CC2CFF30181913F01F601A2A4FD
:10211000A81ABB0883A4F3018781881A9908AA9C8E
:102120009001AB9C300D300D1124889CC001899C1E
:10213000900D900D1124820F931F0E942A06082FE4
:102140006091FC0321E0620F08F46FEFF301EE0FE2
:10215000FF1FE551F340858996890E9420067C0186
:102160009401A501B201812FEA81FB8109952B0120
:10217000182F3394ABCF982F9093E900891771F003
:102180007091EC002091ED005091F00021FD09C00C
:102190009F5F973089F78093E9000895762F242F69
:1021A00050E03091EB003E7F3093EB003091ED003A
:1021B0003D7F3093ED003091EB0031603093EB00C8
:1021C0007093EC002093ED005093F0002091EE000E
:1021D00027FDDECF0895A0E0B0E0E1EFF0E10C9440
:1021E000AD2DC8EDD0E088818F7E8883E7EDF0E0EB
:1021F00080818160808384E082BF81E0809382025D
:1022000088818E7F888302EE10E0F80110821092A0
:10221000DA0081EEC82ED12CF601108288818F77EA
:10222000888388818068888388818F7D888319BCB2
:102230001092AA0310928102109240031092800221
:1022400090EEE92EF12CF70180818B7F80838881CD
:102250008160888342E060E080E00E94BB10F6016C
:1022600080818E7F8083F80180818160808380817E
:1022700088608083F70180818E7F80838881806180
:102280008883CDB7DEB7E8E00C94C92DE0910A044D
:102290009091090427E0E91302C080E00895AE2F71
:1022A000B0E02E9FF0011124E55FFB4F3181361322
:1022B00006C03081381303C03581341304C0FD01DA
:1022C0003196E770E8CF81E008958091FE02811594
:1022D00041F16E9A3EB13F7B2EB120644FB7F89426
:1022E00088E992E0FC010196508168E02EB9000077
:1022F00000C057FF3EB9550F000000C000C000C02D
:102300003EB900C06A9591F752E08E3F950751F7AC
:102310004FBF8FE594E00197F1F700C000001092E5
:10232000FE0208950F931F93CF93DF938B01EA0171
:102330009091AA03943059F58093E9008FEF909122
:10234000E80095FD06C095ED9A95F1F700008A9595
:10235000B1F78091E80085FF1AC00E94A30D81119A
:1023600011C08091E80085FD06C08091E8008E775D
:102370008093E800F2CFF80181918F018093F10002
:10238000219779F78091E8008E778093E800DF91BC
:10239000CF911F910F910895CF93DF93D82FC92F1D
:1023A00048E050E0682F792F81E00E94921188E088
:1023B000ED2FFC2FABE8B2E001900D928A95E1F78A
:1023C000DF91CF910895BC0140E250E084E00E948B
:1023D00092110895BC0146E050E084E00E94921101
:1023E0000895BC0143E050E084E00E9492110895FA
:1023F0009091070492FB222720F9281779F080FB9F
:1024000092F990930704609106047091070484E0A8
:1024100090E00E94482E82E00E94470308951F9397
:10242000CF93DF93962F122F632F8830D8F49630F6
:10243000C8F44730B8F4C42FD0E0CC0FDD1F2EE035
:10244000929FC00DD11D112494E5899FC00DD11D0F
:102450001124CE0189960E942A2E612FCE018A96E0
:102460000E942A2EDF91CF911F910895AF92BF92C3
:10247000CF92DF92FF920F931F93CF93DF93A12C04
:10248000B12CC0E06501D0E019C021E030E0C230DD
:1024900020F4F801859194919C014F2D6D2F8C2F84
:1024A0000E940F12F3940E5F1F4F87E0F812EDCFDA
:1024B000DF5F87E0C80ED11CD63039F08601000FEF
:1024C000111F0D591D4FF12CE0CFCF5F8AE2A80EEE
:1024D000B11CC830B9F6DF91CF911F910F91FF90D9
:1024E000DF90CF90BF90AF900895CF93DF93C9EC6A
:1024F000D2E060E0CE010E942A2E2196C11584E030
:10250000D807B9F7DF91CF910895CF93C82F65E22F
:10251000811101C06FEF85E290E00E942A2E66E0F3
:10252000C11101C06FEF86E290E00E942A2E61E1A6
:10253000C11101C06FEF87E290E00E942A2ECF9177
:10254000089580E00E94851260E088E290E00E9499
:102550002A2E0E9436120E94751281E00E94851276
:1025600008950F931F93CF93DF93883030F5663033
:1025700020F5473010F5C42FD0E0CC0FDD1F2EE042
:10258000629FC00DD11D112434E5839FC00DD11D64
:102590001124CE0189960E940C2E082F10E0102FD6
:1025A0000027CE018A960E940C2E9801282BC90183
:1025B000DF91CF911F910F91089580E090E0F8CFC7
:1025C000462F672F763038F4473028F4883018F4D7
:1025D0000E94B112089580E090E00895A0E0B0E07C
:1025E000E4EFF2E10C94AE2D7C01009104048091A3
:1025F0000304082BC7E0D0E010E0C8010C2E02C095
:10260000959587950A94E2F780FD09C02197A8F770
:10261000D12C8D2DCDB7DEB7E7E00C94CA2DDC2E82
:10262000B7018C2F0E94E0120E947E04019771F383
:10263000F0CF0F931F93CF93FC018581008111810F
:10264000811591F0611581F0C8010E94EE12C82F2A
:10265000682FC8010E94B202B8018C2F0E94E012BC
:10266000CF911F910F910895C8010E94E802C82FD1
:10267000F3CFCF93DF93D82FC92F0E94EE126D2F87
:102680007C2F0E94E0120E947E04DF91CF9108957A
:10269000FC0184818115A1F0808191810E94391310
:1026A000282F92959F70963099F060F4925F9F70FA
:1026B000923030F4203FB1F038F481E0283E38F019
:1026C00080E008959A5FF3CF81E0243FC9F7089531
:1026D00091E0213F09F090E081E0283E08F080E0A1
:1026E000892B089581E0089585E290E00E940C2EE8
:1026F000853289F486E290E00E940C2E863059F4EF
:1027000087E290E00E940C2E91E0813109F090E088
:10271000892F8170089580E0FCCFA0E0B0E0E3E96C
:10272000F3E10C94A62DC82F809110018C1322C0C8
:102730009091F803937020910F0130E081E092179F
:10274000130609F480E0809302018091FD039091CB
:102750000101981739F08093010140E060E080E0CA
:102760000E94B009C73288F4EC2FF0E0E058F14D38
:102770000C94962D81E0E7CF80910201811529F01C
:1027800040E060E080E00E94B00980E0AFC080914E
:1027900000010E94B309082FD92F6091F9037091AD
:1027A000FA038091FB030E949C05F62EE72ED82E9B
:1027B00010E0D01709F028F481E0D23208F496C076
:1027C000E4CFF801EE54FE4F8081909101018923FE
:1027D000811531F02D2D4F2D6E2DC8010E94AD09B0
:1027E0000F5F1F4FE6CF809100010E94B309D92FE0
:1027F000E090FA03D090FB032091FC0330E4F32E29
:102800003F2D329F312D1124F32E082F10E0D017C9
:1028100099F290F2F801EE54FE4F808190910101FF
:1028200089238115D9F0F801EE0FFF1FEC5BFE4FF5
:1028300082A58F9DC001112425E0959587952A9545
:10284000E1F76091F903680F7E2D8D2D0E949C05A4
:10285000462F672F282FC8010E94AD090F5F1F4F19
:10286000D6CF809100010E94B309082FD92FF09094
:10287000F9031091FA03E090FB036091FC03669565
:102880006695669580910A0390910B030E9420063D
:102890000E946F06805887FD8195880F282F3E2D56
:1028A000239F212D1124822F6F2D712F0E949C05B3
:1028B000F62EE72ED82E10E0D01709F008F47CCFC2
:1028C000F801EE54FE4F808190910101892381151A
:1028D00031F02D2D4F2D6E2DC8010E94AD090F5FD7
:1028E0001F4FEACF8DEB96E00E94700F9091000190
:1028F0009F5F9093000181110CC082E080931801CA
:1029000080910201811105C0C11103C083E0809351
:102910001801CDB7DEB7EFE00C94C22D8BEE96E038
:10292000E3CF89E197E00E94F30DE0CF87E397E0E2
:10293000FACF86E597E00E944C0ED8CF81E797E06A
:10294000FACF8CE897E0D0CF8EE897E0CDCF87E93B
:1029500097E0CACF80EA97E0C7CF89EB97E0EBCF4B
:102960008AEC97E0E0CF83EF97E0DDCF84E098E05A
:10297000E2CF88E198E00E94B40EB8CF86E498E0F8
:10298000FACF85E798E0F7CF809100010E94B30964
:10299000D92F90910201911120C06091FC0320E198
:1029A000620F08F46FEF80910A0390910B030E946D
:1029B00020066AE070E00E944F2D892B09F0FCCEC2
:1029C0000E945A0692E2899F90011124832F932F2F
:1029D000990F990B0E940B0FEFCE082F10E0ED2EF0
:1029E000F12C0E151F050CF0E7CEC8010E940B0F4D
:1029F0000F5F1F4FF6CF809100010E94B309D92FBE
:102A000090910201911120C06091FC0320E1620FBE
:102A100008F46FEF80910A0390910B030E94200647
:102A200065E070E00E944F2D892B09F0C5CE0E9411
:102A30005A06A2E28A9F90011124832F932F990FA7
:102A4000990B0E94490FB8CE082F10E0ED2EF12C03
:102A50000E151F050CF0B0CEC8010E94490F0F5F84
:102A60001F4FF6CF809100010E94B309082FD92F84
:102A7000E090FA03F090FB031091F9036091FC03DE
:102A800066956695669580910A0390910B030E9466
:102A900020060E946F0620E8280F27FD2195220FAF
:102AA0003CE0239F212D1124612F620F7E2D8F2D5D
:102AB0000E949C05F62EE72ED82E10E0D01709F0C4
:102AC00008F47ACEF801EE54FE4F80819091010116
:102AD0008923811531F02D2D4F2D6E2DC8010E94B7
:102AE000AD090F5F1F4FEACF8EEA98E0FDCE84ED6F
:102AF00098E0FACE809100010E94B309682E092F58
:102B000080910201811561F040E060E080E00E9468
:102B1000B009E1E4F3E08AE2DF011D928A95E9F76A
:102B200080910001811119C08091080390910903DF
:102B30000E94080D7C0181E0B9E1EB16F10408F474
:102B400080E080930703E9E1EE16F10430F00E9483
:102B5000F60B9093090380930803A12CB12C712CE0
:102B60008AEA582E6501D7E0F601EC5BFE4FE08063
:102B7000E61408F43FC0E01608F03CC0F12CF70161
:102B8000EE54FE4F8081909101018923811509F453
:102B900030C096012F5B3C4F4901D9011C91612F38
:102BA00025E5621B08F460E07091FA03352D310FC2
:102BB00008F43FEF4091FB03232F220F230F2E5FDA
:102BC000249F212D1124352D361B632F822F0E9427
:102BD0009C05462F672F282FC7010E94AD098091C1
:102BE0000703811531F021E0121B08F410E0D40135
:102BF0001C937394D150BFEFCB1ADB0AD111B4CF21
:102C0000E3E2AE16B10419F481E00232D7CDF7E069
:102C1000AF0EB11C27E0721608F4A4CFF5CF85EEF5
:102C200098E00E94B50F62CE8CEE98E0FACF8091CA
:102C3000150321E0382F321B08F430E0832F62EFB8
:102C400078E00E94231052CE62EF78E080E0F9CF66
:102C50008091150321E0382F321B08F430E0832FD8
:102C60006BE079E0EECF6BE079E0F0CF8091150377
:102C700021E0382F321B08F430E0832F63E479E041
:102C8000E0CF63E479E0E2CF8091150321E0382FB3
:102C9000321B08F430E0832F69E779E0D2CF69E78F
:102CA00079E0D4CF8091150321E0382F321B08F44E
:102CB00030E0832F61E979E0C4CF61E979E0C6CFE4
:102CC00080911701811559F18091060487FF27C073
:102CD0000E945F0380935B0240E250E06DEA73E084
:102CE0008AE592E00E944E2E892BC1F080E2EAE54F
:102CF000F2E0ADEAB3E001900D928A95E1F7E09140
:102D0000CD03F091CE03309749F086E080935A02CC
:102D10000480F581E02D8AE592E0099508950E94EE
:102D20005F038093520248E050E06FEC73E082E56D
:102D300092E00E944E2E892B89F388E0E2E5F2E0D2
:102D4000AFECB3E001900D928A95E1F7E091CD03ED
:102D5000F091CE03309711F30280F381E02D82E5EC
:102D600092E0DBCF811581F19CEF980F913A28F426
:102D70000E94CA0B0E946016089590E2980F983046
:102D800050F4877091E001C0990F8A95EAF7892F76
:102D90000E948603EFCF9BE5980F933028F480E0E4
:102DA00090E00E944A0B089598E5980F9B3128F413
:102DB00080E090E00E94700B089593E3980F9331A8
:102DC00018F460E00E942A0C0895811539F0909162
:102DD0000004892B809300040E94601608958115D9
:102DE00021F00E9486030E9460160895109200044C
:102DF00080911701811539F18091060487FF23C066
:102E0000ECE5F2E08EE1DF011D928A95E9F780E0C2
:102E100090E00E944A0B80E090E00E94700B1092BC
:102E200008040E94601686E0E0EFF3E0DF011D92E7
:102E30008A95E9F71092EE031092ED031092EF03DA
:102E40000E94020C0895E4E5F2E086E0DCCF0E94E7
:102E5000F6162FEF84E39CE0215080409040E1F78C
:102E600000C0000088E19AE00FB6F894A89580931E
:102E700060000FBE90936000FFCFAAE2B0E0E3E4F1
:102E8000F7E10C94B22D83E892E0FC0101962091C9
:102E9000F100208322E08B389207B9F780918402F9
:102EA000893009F456C0C8F4823009F4B3C08330C5
:102EB00009F482C0813071F18091E80083FFE7C09E
:102EC00080918302909184029A3008F0E0C0E92F4B
:102ED000F0E0E955F14D0C94962D8A3009F489C043
:102EE0008B3051F780918302813231F780918702D4
:102EF00090918802892B01F78091E800877F809369
:102F0000E8000E94840D80918502809317010E9441
:102F1000F616D2CF80918302813A71F68091E80053
:102F2000877F8093E8008091870290918802892BA7
:102F300061F060E080E090E070E00E942B0D8091F5
:102F4000E8008B778093E800B7CF68E08BE892E0E9
:102F5000F3CF80918302813209F0AECF8091870256
:102F6000909188028D7F892B09F0A6CF8091E8008F
:102F7000877F8093E8008091E80082FF18C09091DD
:102F8000F3008091F200029731F48091F1008130DA
:102F900011F0863021F48091F100809393028091AA
:102FA000E8008B778093E8000E94840D85CF8091A4
:102FB000AA038111E0CF80CF80918302813A09F08A
:102FC0007BCF8091870290918802892B09F074CF82
:102FD0008091E800877F8093E8008091E80080FF7F
:102FE000FCCF809117018093F1008091E8008E77EB
:102FF000D9CF80918302813209F05ECF8091E800C1
:10300000877F8093E8000E94840D809186028093E0
:103010007F0252CF80918302813A09F04DCF809197
:10302000E800877F8093E8008091E80080FFFCCF74
:1030300080917F02D8CF803889F0823841F5809125
:1030400087028F70873018F58093E9008091EB003C
:1030500085FB882780F91092E90006C08091400323
:10306000880F90918002892B9091E800977F909330
:10307000E8008093F1001092F1008091E8008E77D3
:1030800023C0811116C080918502813011F1809199
:10309000E80083FF0AC08091E800877F8093E80002
:1030A0008091EB0080628093EB00AA96E3E00C94A1
:1030B000CE2D823061F780918502811589F01092C2
:1030C000E9008091E800877F8093E8000E94840DEA
:1030D000DECF81E0933009F080E080934003EFCFB2
:1030E000809187028F702FEF280F263080F6809313
:1030F000E9002091EB0020FFE2CF933031F4809182
:10310000EB0080628093EB00DACF9091EB0090614E
:103110009093EB0021E030E0A90102C0440F551F5D
:103120008A95E2F74093EA001092EA008091EB0062
:103130008860E8CF8111ABCF109185021F77809115
:10314000E3008078812B8093E3008091E800877F03
:103150008093E8000E94840D8091E80080FFFCCFFE
:103160008091E30080688093E30083E0111101C047
:1031700082E08093AA038BCF8058823008F087CFFB
:1031800080918502909186028C3D53E0950799F5D8
:1031900083E08A838AE289834FB7F894DE0113962D
:1031A00020E03EE051E2E32FF0E05093570084919D
:1031B00020FF03C082958F703F5F8F708A30C8F008
:1031C000895C90E08D939D932F5F243161F74FBF11
:1031D0008091E800877F8093E8006AE270E0CE018A
:1031E00001960E942B0D8091E8008B778093E80078
:1031F0004ECF805DE6CF292F33272330310509F4E8
:103200004EC078F52130310509F47DC08BE590E0A2
:10321000E8ECF1E02230310509F039CF2091E800E7
:10322000277F2093E8002091890230918A0282173B
:10323000930708F49C0140E02115310509F068C0AE
:10324000411166C08091E80082FDCDCF8091AA0334
:10325000811549F2853039F28091E80083FFF2CF81
:10326000C2CF80918702909188022132310509F402
:103270003BC02232310509F00ACF8330910508F0B6
:1032800006CFFC01EE0FFF1FED5DFE4F0190F081B8
:10329000E02D805E9E4FDC018C9190E011C09C017E
:1032A0003327813089F022303105B1F0232B09F02A
:1032B000EECEEFE5F2E0E4918E2F90E0EFE5F2E064
:1032C000009709F4E4CEAACFE1E5F2E0E4918E2F75
:1032D00090E0E1E5F2E0F4CFE5E3F2E0E4918E2F57
:1032E00090E0E5E3F2E0ECCF8330910508F0CFCE3B
:1032F000FC01EE0FFF1FE75DFE4F0190F081E02D16
:1033000089E090E08BCF82E190E0E3E2F2E086CFCB
:103310008091AA03811509F466CF853009F463CF43
:103320008091E80083FD5FCF8091E80082FD8ACF25
:103330008091E80080FF80CF9091F3008091F200AF
:103340002115310519F08830910550F041E00897BA
:1033500009F040E08091E8008E778093E8006CCF20
:1033600044914093F1003196215031090196E8CF04
:10337000803809F08CCE8091E800877F8093E80048
:10338000809181028093F10078CE811180CE1091DE
:103390008502123008F07BCE8091E800877F809311
:1033A000E800109381020E94840D1115D1F084E091
:1033B0008093AA0342E061EC81E00E94BB1042E2EC
:1033C00061EC84E00E94BB1042E261EC82E00E946A
:1033D000BB1042E260EC83E00E94BB108091AA0324
:1033E00056CE8091E30087FDE2CF81E0E1CFA8E0F7
:1033F000B0E0EDEFF9E10C94B32D66EE7EEF80E0E6
:1034000090E00E94482E60E082E090E00E942A2E28
:1034100081E08093030461E083E090E00E942A2E23
:1034200060E074E184E090E00E94482E60E086E075
:1034300090E00E942A2E6FEF87E090E00E942A2EF3
:1034400040E050E0BA0188E090E00E943C2E60E04D
:1034500084E290E00E942A2E60E087E190E00E94E2
:103460002A2E60E08CE090E00E942A2E60E08DE041
:1034700090E00E942A2E19821A821B821C821D82D1
:103480001E821F82188648E050E068E170E0CE019D
:1034900001960E941A2E40E050E0BA0180E290E0CE
:1034A0000E943C2E80E00E9485120E94A11240E002
:1034B00050E0BA018FE090E00E943C2E40E050E0E6
:1034C000BA0183E190E00E943C2E2896E2E00C9441
:1034D000CF2DEBEFE80FEF3308F06CC0F0E0EF54C6
:1034E000F14D0C94962D0E94F71981E0089580917A
:1034F0009403807F8093940381E08093EC03F5CF65
:103500000E94F6162FEF84E39CE02150804090400B
:10351000E1F700C000000E94170D90919403892FDD
:103520008E7F90FF81608093940380FDDECF817F4A
:1035300080939403DACF90919403892F8D7F91FF2C
:1035400082608093940381FFD0CF80919403816047
:10355000EFCF90919403892F8B7F92FF84608093AB
:10356000940382FDF2CFC1CF90919403892F877F7E
:1035700093FF88608093940383FDE7CFB6CF0E94CA
:10358000F61690910604892F97FB87F9805880934F
:103590000604ABCF81E00E9490020E94F616A5CFF0
:1035A000895391E001C0990F8A95EAF7892FF3CFEB
:1035B0008D51F7CF80E00895CF93C82F811509F47E
:1035C0003EC08CEF8C0F813A08F0D7C08091EC039D
:1035D000813011F18230C1F1811133C0809100043A
:1035E000823229F48C2F0E94691A811128C080919F
:1035F00017018111A1C0E4E5F2E08AE592E0219192
:10360000C21709F4B4C08E179F07C9F78C2F0E9408
:10361000960B0E94601613C080910004823211F351
:10362000C43179F040F4CB3051F0C03101F782E081
:103630008093EC0304C0C93221F0C833C1F6CF91A6
:1036400008951092EC03D3CFCF3409F46BC0B0F4DB
:10365000C83290F4CE3178F5C73009F450C0C43187
:1036600071F78091EB03811551F31092EB031092E7
:10367000EA031092E903E3CFC932F2CFC13509F46E
:1036800053C0C23509F452C086EFC035C1F6E0918F
:10369000E903F091EA03309791F22081082E000CA3
:1036A000990B820F911D811521E092070CF440C007
:1036B0008FEF8083C4CFCD51C093EB03C430C9F0EA
:1036C00078F485E191E0C23031F086E191E0C330D9
:1036D00011F484E191E09093EA038093E903AFCF82
:1036E000C53051F081E191E0C630A9F31092EB03AF
:1036F000A6CF83E191E0EFCF82E191E0ECCF81E0D2
:103700008093160184E1809315018AE0809314016F
:103710008EE18093130188E08093120188E2809308
:1037200011018DCF8AE0B3CF8FEFB1CF81E0AFCF62
:1037300097FFBFCF108283CF8091060487FF5BCFB6
:10374000EC2FE695E695E695F0E0E65AFD4F82818E
:1037500090E04C2F477021E030E002C0220F331F71
:103760004A95E2F782239323892B09F44FCF8C2FBC
:103770000E94CA0B0E94601649CF80E28C0F8830ED
:1037800068F4C77081E090E001C0880FCA95EAF73D
:10379000C0910004C82BC09300043BCF8BE58C0F75
:1037A000833038F42C2F2452330BC9010E944A0B6A
:1037B00046CFE8E5EC0FEB3150F4F0E0EE0FFF1FE1
:1037C000E65EFD4F808191810E94700B38CF83E3CC
:1037D0008C0F833108F033CF61E08C2F0E942A0CCC
:1037E0002ECF0F931F93CF93C82F00E510E089339E
:1037F00011F000E010E08C2F0E94DC1A0115110579
:1038000039F48C2F0E94B216CF911F910F91089519
:103810008FE99FE00197F1F700C000000150110906
:10382000EDCFFF920F931F93CF93DF93C62FD42F2B
:10383000122F8115A9F06093F6030E94F60B909366
:103840007E0280937D02C77081E001C0880FCA9517
:10385000EAF70E94E516CDB7DEB7E5E00C94CC2D73
:103860008091F603681330C080917D0290917E02B2
:103870000E94080D883C910538F500E20D0FCD1728
:10388000A9F0C770FF24F3948F2D01C0880FCA954B
:10389000EAF70E94EF16083048F48D2F877001C0B8
:1038A000FF0C8A95EAF78F2D0E94E516812F0E9462
:1038B000F11B083080F6D77081E001C0880FDA95DF
:1038C000EAF70E94EF16C7CFC77081E001C0880FEA
:1038D000CA95EAF7F6CFA9E0B0E0E1E7FCE10C9485
:1038E000A32D5C01FC018481811509F4A4C061E071
:1038F000C5010E9419138C01F5013581311509F4B8
:1039000039C197578038910508F039C5003108F062
:1039100082C08FEF93E00E940C2E81117CC049EC95
:10392000E42E42E0F42E011148C0CE0101963C0184
:1039300088E0F30111928A95E9F76701FFEFCF1A4A
:10394000DF0AC7010E940C2E89831A82811509F4AF
:1039500062C0813009F073C087010E5F1F4FC6013E
:103960000E940C2E8A83811509F455C09FEF980F91
:10397000933090F523E0E20EF11CC8010E940C2E5A
:103980008B83811509F447C01C828301F8012081D3
:10399000211599F2213009F095C08181813009F01B
:1039A00050C06801F2E0CF0ED11CF80182810E9464
:1039B000F11B86010F5F1F4FE9CFE114F4E0FF0612
:1039C00051F1C7010E940C2E97012F5F3F4F7901E3
:1039D0008111F3CF0150A7CF8430A1F432E0E32E60
:1039E000F12CC8010F5F1F4F0E940C2EF301EE0D4A
:1039F000FF1D8083811579F08C3731F4FE01EE0DC7
:103A0000FF1D12827801C1CF3FEFE31AF30A67E08E
:103A1000E616F10431F7809105048770811559F09D
:103A2000F5018581811539F08091070482FF03C07B
:103A300082E00E9447032996E2E10C94BF2D7601B3
:103A4000A4CF823049F46801F2E0CF0ED11CF80116
:103A500082810E94DC1AADCF833049F46801F2E024
:103A6000CF0ED11CF80182810E94B216A2CF843001
:103A700019F00F5F1F4F9ECF82810E5F1F4F812C69
:103A8000912C98012F5F3F4F8053990B8A309105FD
:103A900060F0C401009709F48DCFEFE9FFE03197A2
:103AA000F1F700C000000197F5CFFAE0F89DA00102
:103AB000F99D500D11244C01840E951EF801818151
:103AC0008901DFCFE22FF0E0E55CFB4F34913987CD
:103AD000822F86958695869590E0FC01E55DFB4FEB
:103AE000E4912770F0E0022E02C0F595E7950A9464
:103AF000E2F7E1702E2E3324FC01E55EFB4FE491EA
:103B0000F0E0022E02C0F595E7950A94E2F7E17025
:103B10004E2E5524FC01E55FFB4FC490D12C02C012
:103B2000D594C7942A95E2F7C0FACC24DD24C0F8D6
:103B30002114310419F081EE0E94DC1A4114510461
:103B400019F086EE0E94DC1A89850E94F11B41144F
:103B5000510419F086EE0E94B2162114310419F0B6
:103B600081EE0E94B216CD2809F424CF8CE20E9487
:103B7000F11B20CFFC01E851FC47E730F10508F0CC
:103B8000F1C3E051F14D0C94962D26E241EE61EE29
:103B9000832F0E94111C3FCF27E245EE65EEF8CF40
:103BA00026E241EE60EEF4CF27E245EE64EEF0CF80
:103BB00026E241EE62EEECCF27E245EE66EEE8CF7C
:103BC00028E241E0EBCF80910604816080930604F7
:103BD000609106047091070484E090E00E94482EF2
:103BE0000E94F61618CF809107048860809307041E
:103BF000EFCF809106048260E9CF80910604846053
:103C0000E5CF809106048860E1CF80910704816050
:103C1000EDCF809107048260E9CF80910604806136
:103C2000D5CF809106048062D1CF80910604806454
:103C3000CDCF0E94F616809106048068C7CF809190
:103C400006048C60C3CF809107048360CFCF80913E
:103C500006048E7FBBCF80910704877FC7CF8091FA
:103C600006048D7FB3CF809106048B7FAFCF809108
:103C70000604877FABCF809107048E7FB7CF8091FA
:103C800007048D7FB3CF809106048F7E9FCF8091F4
:103C900006048F7D9BCF809106048F7B97CF0E9477
:103CA000F616809106048F7791CF80910604837F6A
:103CB0008DCF809107048C7F99CF8091060499273E
:103CC00082FF939590FB82F990FB83F97FCF8091DF
:103CD0000704982F909590FB80F990FB81F986CF8F
:103CE00090910604892F8F7B96FF80646FCF0E948E
:103CF000F61690910604892F97FB87F9805866CFB6
:103D000061E08EE090E00E942A2E62CF60E0F9CF61
:103D100090910604892F8F7E94FF806157CF9091F8
:103D20000604892F8E7F90FF816050CF9091070409
:103D3000892F877F93FF886059CF89E20EC389E27C
:103D40001BC307376CE7160709F06AC081E00E94C1
:103D5000960243E062E081E00E941C035CCE809109
:103D600000048272F801E052F847E531F10508F0ED
:103D700052C0E950F14D0C94962D8091F80391E0DA
:103D800089278093F8031092180181E00E94A70907
:103D900042CE45EE59E069ED79E00E94A90A3BCE9A
:103DA00049ED59E065EE79E0F8CF4EE05AE063E086
:103DB0007AE0F3CF43E05AE06EE07AE0EECF47E2FC
:103DC0005AE069E17AE0E9CF49E15AE067E27AE056
:103DD000E4CF43E45AE065E37AE0DFCF45E35AE01D
:103DE00063E47AE0DACF4DE55AE061E57AE0D5CFD9
:103DF00041E55AE06DE57AE0D0CF61E081E00E94D4
:103E0000BC0909CE61E083E0FACF61E08BE0F7CF37
:103E100061E080E1F4CF07378CE7180709F469C047
:103E200008379CE7190709F468C03115A9F00A356D
:103E3000ECE71E0709F48BC008F063C001302CE7E3
:103E4000120709F482C003303CE7130709F477C076
:103E500001151C4709F466C0F5018581E080F180F9
:103E6000811509F478C0C7010E94EE12182F682F3F
:103E7000C7010E94B202B701812F0E94E0120E9486
:103E80007E048C01F501D580C680C2942FE0C22249
:103E9000809105048770811501F1ED2CD114F1F0AA
:103EA000812F807F803461F080E2800F8830A8F01D
:103EB000812F807E803221F4023078F0C11469F0C5
:103EC0008091070482FF09C082E00E94470380912D
:103ED00005048770EE24E3948111E12CE12FE29533
:103EE000EF70103C08F0A2C0F0E0E45FF04D0C94DD
:103EF000962D81E00E94A2022CCF82E03115D1F3F1
:103F000026CF0B358CE7180721F180910704002498
:103F100082FF0394802D0C351C4709F09DCF0E9431
:103F2000F8119ACF0E94F616EFEFF4E32CE0E1507F
:103F3000F0402040E1F700C000000E94170D6FEF35
:103F40007FEF80E090E00E94482E0E94271781E0DA
:103F5000E6CF80E0E4CFC7010E94E802182F8BCFA4
:103F6000F12FFF70FF2E103118F0F29490EFF9222C
:103F7000D114B9F0F11469F080E2800F883010F0AC
:103F8000011109C0809100048F29809300040E94D0
:103F90006016802F43C0809108048F298093080405
:103FA000F6CF802F0E94B216F11409F43FC080E2D0
:103FB000800F883010F0011104C08F2D0E948603FD
:103FC00006C0F094809108048F21809308040E9419
:103FD00060162CC0212F2F70F22E107F103219F096
:103FE000F29480EFF822011549F0013009F46BC01A
:103FF000D11409F477C0C114C9F1CBCF8091070463
:1040000082FD30C0D11469F0F11439F080910004C0
:104010008F29809300040E94601680E00E94DC1AC1
:1040200005C080E00E94B216F110C7CFE114A9F0DC
:104030008091050480FD11C0F50115828695869555
:1040400086950E949602C5010E946B1C8091050412
:104050008695869586950E94A20260E0C5010E9421
:104060001913E9CCD11499F0C11004C08F2D0E940E
:10407000E516DCCF31E0C312D9CF809101049F2D2A
:104080009823F91699F28F2980930104CFCFC1109C
:10409000CDCF8F2D0E94EF16909101048F2D892393
:1040A000811529F08F2D80958923809301048091BB
:1040B00002049F2D9823911509F4B8CFF094F822AB
:1040C000F0920204B3CFD11429F066E0C61608F0CE
:1040D000ADCFCCCF85E0C81608F0A8CF8F2D0E94B9
:1040E000EF16A4CFC114D1F3093349F49FEFE7EEE3
:1040F000F3E09150E040F040E1F700C00000802F75
:104100000E94B21693CF812F869586958370811574
:1041100061F0813009F08ACFC8019370D11002C0DC
:1041200080E090E00E94700B81CFC8019370D110A5
:1041300002C080E090E00E944A0B78CF6D2D802F66
:104140000E942A0C73CF812F8370811134C0D1104B
:1041500027C0402F429546954770440F440F802F4B
:104160008F70042E01C0880F0A94EAF7202F207167
:1041700004FF07C02FE030E001C0220F4A95EAF7A4
:104180002095169516951370123081F0133061F05A
:1041900030910304113039F0822B83230E94900266
:1041A0000E943D0B43CF832B822BF8CF822B909123
:1041B00003048927F3CFD11451F110FFF1CF402F21
:1041C000429546954770440F440F802F8F70042E00
:1041D00001C0880F0A94EAF7202F207104FF07C05E
:1041E0002FE030E001C0220F4A95EAF7209516959E
:1041F00016951370123089F0133069F03091040471
:10420000113041F0822B83230E949302C9CF823068
:1042100038F2D5CF832B822BF7CF822B90910404D9
:104220008927F2CF1F70D11439F0812F0E94960296
:10423000802F0E94E516B4CF802F0E94EF16812FA9
:104240000E94A202ADCF023F71F170F4003FC9F0AD
:10425000013F91F0D11409F45AC0C11409F454C0BB
:10426000802F0E94DC1A9CCF033F21F1043F91F77D
:104270008091070482FD2AC0812F8F71D11401F330
:1042800016C0D11469F025E0C21608F089CF1F715D
:1042900081E090E0012E01C0880F0A94EAF7BECFBA
:1042A00036E0C316F2CF812F8F71D110C9CF0E9493
:1042B000960276CF80E0D11409F4A6CF1F7181E079
:1042C000012E01C0880F0A94EAF79ECFD11489F01D
:1042D0001F71812F0E9496028091070482FF07C000
:1042E000812F880F880F880F836080930504812FAA
:1042F000DECF81E00E94470362E0C61608F450CF8B
:1043000082E00E9447034CCF812F8F71D0CFC11420
:1043100079F0093349F48FEF97EEE3E08150904054
:10432000E040E1F700C00000802F0E94B21638CFB5
:10433000812F8F7185CF0631FCE71F0709F001CD72
:10434000809100048A7A91E0811101C090E09093FD
:10435000F703811509F4F1CC85E30E94960B0E94C6
:10436000601659CB86319C4709F0F9CC8091F70350
:10437000811509F4E4CC85E30E94CA0BF0CFF80163
:10438000E851FC47E730F10508F4FBCB1092F60347
:10439000C8019057839778F684E090E00E94142E2D
:1043A0009093070480930604F801E150F047E2324D
:1043B000F10508F008CCE85EF04D0C94962D809144
:1043C0004904803178F480914804811559F0E091D6
:1043D0000A0420910904309144044091430457E0B9
:1043E0002E1301C008956E2F70E05E9FF00111241E
:1043F000DF01A55FBB4F14968C911497811561F175
:1044000011968C911197831327C08C91841324C02B
:1044100015968C91159781111FC012968D919C91C4
:10442000A0914504B09146048A1B9B0B883C9105E2
:1044300098F4809149048F70806180934904EF5E05
:10444000FB4F80818F708061808383E494E00E94C1
:104450006B1C0E943D030895FB013196E770C0CFAD
:10446000ADE0B0E0E6E3F2E20C94A72D8C0186E02B
:10447000F801DE01189601900D928A95E1F7F80196
:10448000F580848193E4892E94E0992E609047040E
:10449000611018C0811599F0F11409F415C1C80113
:1044A0000E944813811509F40FC187E0F801A3E4C5
:1044B000B4E001900D928A95E1F70E94DF21FF247C
:1044C000F39456C07080A280B380D09048042091AD
:1044D000450430914604A501421B530BD11409F445
:1044E000C3C0483C510508F079C0811541F3809163
:1044F0004404C180E090490450E1E51608F059C039
:10450000C81215C080914304871111C0F1104BC02F
:104510008E2D8F7080618093490483E494E00E9423
:104520006B1C80914904F8018683F12C21C0F110A5
:104530003AC040E06C2D872D0E94461140E06C2D62
:10454000872D0E944611F82E8111EFCF888599851D
:104550000E943913292F22952F70903470F49F7088
:104560002230A0F09115B1F0F8019681903190F4CD
:104570008F2D2D96EEE00C94C32D2A5F2F702230E4
:1045800068F0C8010E946B1CFD2CF2CF911511F050
:10459000811571F3805E883058F3F3CF803F40F38C
:1045A000815F8330F9CF8091490481608093490411
:1045B000BCCFC8123BC080914304871137C0F110B3
:1045C00035C0E682C8010E946B1C87E0F801A3E4B5
:1045D000B4E001900D928A95E1F771CFE090490423
:1045E000F0E1EF1650F483E494E00E946B1C87E046
:1045F000F40111928A95E9F798CF811509F45FCFFC
:1046000090914404F8018181981310C08091430473
:1046100087110CC0F1100AC0E682C8010E946B1C11
:1046200087E0F40111928A95E9F749CFC8010E9409
:104630004813811509F448C0F11409F445C080916C
:104640004904803208F431CF8091430490914404AE
:104650009A838983BC82AB826D821E82EF82CE01F7
:1046600001960E946B1C21CF483C510508F0BFCF3A
:10467000811509F424CFF11439F19091440481811A
:10468000981318C080914304871114C08091490485
:1046900080FD9BCF803108F498CF8683807F803F58
:1046A00009F490CF8681982F907F905F8F70892B2F
:1046B000868388CFC8010E9448138111F6CE80916D
:1046C0004904816080934904C8010E946B1CF7CEA5
:1046D000ABE1B0E0EEE6F3E20C94B12D4E8B5F8BD4
:1046E000688F798F8A8F192F9B8F911110920804F0
:1046F0001D8A86E0FE017696DE011F9601900D92DE
:104700008A95E1F70A8D011539F00B8B1C8B61E05E
:10471000CE010F960E9419130B8B1C8B87E0FE01B4
:104720003F96DE01189601900D928A95E1F7CE0131
:1047300008960E943022811128C0209109043091EE
:104740000A0487E0FE013896DE01119601900D9271
:104750008A95E1F78C858115C1F0822F90E0019652
:104760008770992738171906D9F097E0929FD001E2
:104770001124A55FBB4FFE01319601900D929A95D1
:10478000E1F7809309040E943D0317E080910A0439
:1047900090910904891312C06B96E4E00C94CD2D1E
:1047A0000E94F6161092090410920A0487E0E3E4CE
:1047B000F4E0DF011D928A95E9F7E7CF189FC00169
:1047C0001124855F9B4F0E943022811529F380912F
:1047D0000A0490E001968770992780930A04D6CF47
:1047E000A6E0B0E0E6EFF3E20C94B12D0E94F60BE8
:1047F0008C018091AB039091AC038017910779F005
:1048000019821A820E94F60BBC0149815A8180E00C
:1048100090E00E9468231093AC030093AB032696AC
:10482000E4E00C94CD2D0F931F93CF93DF9391E091
:104830006927E62FF0E0E80FF11DE80FF11DEE0FFC
:10484000FF1FE45EFE4F00811181C8010E94EE123D
:10485000B8010E94E012EC01009729F00E94DC1AD6
:104860008C2F0E94B216DF91CF911F910F91089566
:1048700048E050E068E170E088EF93E00E941A2E73
:10488000109214030895E8EFF3E08DE280838091A5
:10489000190190911A01A0911B0181839283A38336
:1048A0008FE784838FEF85830E94382408954F9289
:1048B0005F926F927F928F929F92AF92BF92CF92B0
:1048C000DF92EF92FF921F93CF93DF93C090FF028E
:1048D000D0900003E0900103F09002038FB7F894AA
:1048E000409003035090040360900503709006030A
:1048F0008FBF530142018C189D08AE08BF080E946B
:10490000FC0C6093FF02709300038093010390936B
:104910000203A0916B03EBE6F3E04A2F50E02FEF88
:10492000C20ED21EE11CF11CC418D508E608F70817
:10493000A5132FC040936B0320913F03C0E02111CA
:1049400009C02091F803C22FC370C11519F0C22FFE
:10495000C695C69520911801223009F473C048F518
:1049600021113AC01092000160930A0370930B0367
:1049700080930C0390930D0389E2EBE6F3E0A5E14D
:10498000B3E001900D928A95E1F781E080931801E0
:1049900013C0218D328DC216D306E104F10420F438
:1049A00041505F5F3296C4CF280D391D328F218F61
:1049B000F8CF233009F451C0DF91CF911F91FF90C0
:1049C000EF90DF90CF90BF90AF909F908F907F90AF
:1049D0006F905F904F9008958C2F0E948D13C1159A
:1049E00059F38091000181500E94B309C82F192FFB
:1049F0000E943D0B81FF0BC0C33148F4133138F0E6
:104A00002FEF4FEF6FEF82E190E00E94AD09D0E011
:104A10001C1791F288F29091040480910304892B71
:104A20000E947D02813039F02FEF40E060E082305B
:104A300029F02196EDCF20E04FEF6FEFCE010E94DD
:104A4000AD09F7CFC09310018091F8038370809374
:104A50000F010E94651183E099CF809114038111A9
:104A60000E94382440910A0350910B0360910C037B
:104A700070910D032FB7F894809103039091040374
:104A8000A0910503B09106032FBF841B950BA60BC5
:104A9000B70B4097A105B10508F48ECF109218010D
:104AA0008BCFA6E0B0E0E7E5F5E20C94A82DFE017F
:104AB000319686E0DF011D928A95E9F787E3A82EFB
:104AC00081E0B82E8F014F01EE24E394F12C24E411
:104AD000C22E21E0D22EF50181915F018F3F09F4B2
:104AE0003EC0F894E82FE295EF70F0E021A18F70BE
:104AF000A70102C0440F551F8A95E2F7CA01922F01
:104B0000982B91A392A18095892382A3789400C0C9
:104B1000EDE3F1E031E0712C21912F3F79F0A22FEC
:104B2000A295AF70A05EB0E08C9190E02F7002C0B3
:104B3000959587952A95E2F780FF37C080E0782A1F
:104B4000330FCE16DF0641F7F50182918F3F11F04A
:104B50000E94830550EA5A95F1F7D8017C920F5FC5
:104B60001F4FBDE3AB16B1E0BB0609F0B4CF46E082
:104B700050E0B4018EE093E00E944E2E892BB9F0F4
:104B800086E0F401AEE0B3E001900D928A95E1F782
:104B900081E080937C020E94F60B90937B028093CD
:104BA0007A022696EDE00C94C42D832FC8CF809115
:104BB0007C028115B1F380917A0290917B020E9470
:104BC000080D059770F346E050E06EE073E084EA6C
:104BD00093E00E944E2E892B49F086E0EEE0F3E050
:104BE000A4EAB3E001900D928A95E1F710927C025D
:104BF000D8CFCDB7DEB7AE970FB6F894DEBF0FBEF5
:104C0000CDBF85B7806885BF85B7806885BF84B70D
:104C1000877F84BF0FB6F894A89580916000886163
:104C200080936000109260000FBE80E890E00FB6A5
:104C3000F89480936100909361000FBE81E895E045
:104C400090935102809350020E94D40D0E94EB1069
:104C50008091E20084608093E20078948091AA03BE
:104C6000811599F08091E9001091EC008F701795F3
:104C700011271795182B1092E9008091E80083FD09
:104C80000E943D171F701093E90082E084BD93E0FD
:104C900095BD9AEF97BD80936E000E9474138111A9
:104CA00002C00E94A11281E080939D0352985A9AFB
:104CB00053985B9A8FE891E00197F1F700C00000EC
:104CC00020919D034EE953E0FA018E2F841B821739
:104CD00008F459C007E311E0D8018D918D018F3F91
:104CE00011F00E948305B1E00D331B07A9F70DE316
:104CF00011E0F80181918F018F3F11F00E9483052F
:104D0000F1E004341F07A9F786E0E4EAF3E0DF01ED
:104D1000282F1D922A95E9F7EEE0F3E0DF011D92BE
:104D20008A95E9F780E090E00E94142E863E9E4F1F
:104D300021F40E947413811102C00E94F71982E0CD
:104D400090E00E940C2E8093940384E090E00E94F7
:104D5000142E90930704809306040E945125EFE3DC
:104D6000FCE93197F1F700C000000E9451258091C5
:104D7000A90381FF13C06FEF7FEF80E090E00E94F6
:104D8000482E0E94170D89B199274B999395990F39
:104D900082FB882780F9892B819397CF83E090E06D
:104DA0000E940C2E0E9490020E94690A1092150324
:104DB00040E150E06FEF70E08EE293E00E94642EDD
:104DC00010926B0340E150E06FEF70E084E893E0F5
:104DD0000E94642E80E090E00E94142E863E9E4F3A
:104DE00021F40E947413811104C00E94F7190E94DB
:104DF000432481E08093140348E050E068E170E0D0
:104E000088EF93E00E94FC2D109214038091F80328
:104E1000843010F40E94432485E091E09093CE0307
:104E20008093CD038091AA0310E403E0853009F458
:104E300055C10E94512585E993E09AA389A3A4EA6C
:104E4000B3E0B8A7AFA3FC0191918D9123E0EB39BA
:104E5000F20709F467C19817B9F3F12C412C512CD2
:104E6000AFA1B8A5BD90B8A7AFA3E9A1FAA1819160
:104E7000FAA3E9A38B1509F4D9C0282E2B246201CB
:104E8000E12CAA24A394822D8A21811509F4C3C0A0
:104E90003B2C3A20E982FA820E94F60B9C838B839A
:104EA000F1E0FD8391E0311001C090E09E834981E3
:104EB0005A816B817C818D810E946823311439F085
:104EC000F601EC5BFE4F80818F3F09F0A3C1612C9E
:104ED000062D10E080916B03860D9927991F099785
:104EE0006CF1E8E08E2E912C801A910AB801645979
:104EF0007C4FA4018CE693E00E945B2EB8016C58B5
:104F00007C4FA40184E793E00E945B2EA401440F30
:104F1000551FB801660F771F6C577C4F84E893E0EC
:104F20000E945B2EB80164587C4FA4018CE793E08B
:104F30000E945B2E88E0861980936B03611419F13F
:104F400040916B03872D90E0242F30E0F901E55963
:104F5000FC4FDC01AA0FBB1FA259BE4F5C915183CD
:104F6000880F991FDC01AC5BBE4F9B968C918187AB
:104F7000718AF901EE0FFF1FE559FC4F128E118E59
:104F80004F5F40936B03311409F445C08091F803DF
:104F90008C7F883609F03FC0F601EC5BFE4F8081C4
:104FA0008F3F09F438C0312C812C912C90E09C016A
:104FB000220F331FA90142595E4F5CA74BA7D901AD
:104FC000A159BE4FBEA7ADA7F601EF5BFC4FFAA7F4
:104FD000E9A78401612CF801EC5BFE4F80818F3FD3
:104FE00061F03F101BC16E1019C1A9A5BAA52C9183
:104FF00030E2230F08F42FEF2C9363940F5F1F4FC1
:10500000B7E06B12E8CF3394E7E08E0E911CFAE222
:105010008F169104F1F6E394AA0C2FEFC21AD20A6C
:1050200037E0E31230CFE9A1FAA1B292F39447E05E
:10503000440E511C56E0F51213CF0E94FC0C76C0B2
:105040008091AA03843009F439C00E9457248091CA
:105050003F0381110DC00E948D13109210018091A9
:10506000F803837080930F010E946511009318016B
:1050700021E020933F0310923E0348E150E00FB639
:10508000F894A895409360000FBE1093600083B71A
:10509000817F846083BF83B7816083BF7894889564
:1050A00083B78E7F83BF0FB6F894A8958091600078
:1050B000886180936000109260000FBE8091400371
:1050C000811561F00E945125E4EAF3E08AEA93E059
:1050D000219121110FC08E179F07D1F78091AA034C
:1050E000853009F4ADCF0E94F6160E943D0B109258
:1050F0003F039FCE80E189BD82E189BD09B400FEF6
:10510000FDCF8091D8008F7D8093D8008091E00002
:1051100082608093E0008091E00081FDFCCF0E94DE
:10512000F616DCCF981399CE0E94F0230E945724E4
:10513000D12CC12C80919D03D81608F4AAC0C110AF
:105140000E94FC0C86E0E0EFF3E0DE011196019096
:105150000D928A95E1F7C090F1031091F203F0905F
:10516000F303E090F4030091F5031092F203109220
:10517000F3031092F4031092F503812F8F29811508
:1051800009F4E2C08091A1039091A2030E94080D4E
:105190008BA39CA38091EE03811509F4C9C0909163
:1051A00015012BA13CA19217130608F0CDC08F3F2B
:1051B00019F08F5F8093EE03111559F00E94BE0A1B
:1051C00091E011160CF09FEF899F802D11248093A0
:1051D000F203F11459F00E94BE0A91E01F140CF082
:1051E0009FEF899F802D11248093F3038091F20318
:1051F000811509F4A9C0D090F303D11409F4A4C017
:105200000E94B00A8093F2038D2D0E94B00A809311
:10521000F3039AC0782E662463945ACE90E0EBA5EF
:10522000FCA54081FC01EE0FFF1FE259FE4F2081DB
:10523000421B550BADA5BEA52C91880F991FFC01F3
:10524000EC5BFE4F83A5281B330B449FB001459FA9
:10525000700D700D1124229FC001239F900D900DA1
:105260001124860F971F0E942A06382F893208F0D2
:10527000C4CE28E2231B08F420E0F801EF5BFC4FCA
:10528000213108F020E13081320F08F43FEF308304
:10529000B4CE0D2D10E089B199274B999395990FB4
:1052A00082FB882780F9892BD801A256BC4FEC914C
:1052B0009E2F93708917D1F1EE0FEE0FE82BEC9330
:1052C000EF70F0E0EC52FE4FC80184569C4F7C0119
:1052D0008081D7019C91890F8C9320E084305CF011
:1052E000F801E556FC4F80818F5F808360E08D2D53
:1052F0000E94132421E0F70180818D3F5CF4F801C6
:10530000E556FC4F80818150808361E08D2D0E94A5
:10531000132421E0D7018C91082E000C990B64E036
:1053200070E00E94632DF7018083C22AD39402CFDC
:10533000209116014AE0249F90011124ABA1BCA149
:105340002A173B0708F435CF8E2D802B811509F4E1
:1053500042C080919F039091A0030E94080D8DA3ED
:105360009EA38091ED03EDA1FEA1811509F425C254
:10537000E135F10580F18F3F19F08F5F8093ED03E8
:10538000E11459F00E94040B91E01E140CF09FEF01
:10539000899F802D11248093F403011559F00E94F8
:1053A000040B91E010160CF09FEF899F802D1124C3
:1053B0008093F5038091F403811569F0E090F50383
:1053C000E11449F00E94B00A8093F4038E2D0E94EC
:1053D000B00A8093F5038091F103C81219C080913F
:1053E000F203811511F0181313C02091F303211556
:1053F00011F02F110DC09091F503911511F090133C
:1054000007C03091F403311103C0822B892B811125
:105410000E94020C86E0FE013196A0EFB3E00190FD
:105420000D928A95E1F70E943D0B9091A303891795
:1054300021F08093A3030E94FC0C8091AA03843086
:1054400009F0F0CC83E08093E9008091E80082FFCE
:10545000E9CC8091E80090E085FF05C00E94A30D93
:10546000811599F091E08091E8008B778093E800B6
:10547000911509F4D7CC8981EFEFE80FE33170F58E
:10548000F0E0E65CF04D0C94962D00E210E09E01F9
:105490002F5F3F4F79018091E80085FD0AC0809120
:1054A000E8008B778093E8000E94A30D811599F3A3
:1054B000D9CF8091F100D7018D937D01015010402B
:1054C00051F7D0CF1A828CE08B831AC08A81833047
:1054D00049F138F4813061F08230D9F08FEF89835F
:1054E0000FC08430D9F71B821C821D821E8208C027
:1054F0000E94FC0C0E949C2D6B837C838D839E8379
:1055000040E250E0BE016F5F7F4F82E00E94921147
:1055100089CC88E290E00E940C2E1B821C821D82A6
:105520008E83EECF8B8190E0FE013496863091051C
:105530003CF7DC01AC55BC4F2C9121930196F6CF82
:105540008A81823071F0853049F68091F80391E0CC
:1055500089278093F8031092180180E00E94A70920
:10556000CFCF6B817C818D819E810E949C2D88E2B2
:1055700090E00E942A2EC4CF4C816B818A810E94C8
:10558000B1129827892798279E838D83B9CF2D81C3
:105590003E813227232732274C816B818A810E94EA
:1055A0000F12AECF0E943612ABCF9A81933009F022
:1055B00095CF883009F441C0893009F46BC08B81E4
:1055C0008330B9F198F48130D1F0823009F098CF6E
:1055D0008C819091F803292F237081111EC0211115
:1055E000109218019C7F9093F8038ACF843009F0C1
:1055F00087CF8C8120E04091FB036D810AC04C81F4
:1056000024EB429F412D11248091F90320E0609109
:10561000FA0390E00E94F00973CF211102C01092AA
:1056200018019C7F91609093F80360E00E94BC0990
:1056300067CF8C818093FC0390CF8B81833039F1CD
:1056400080F48130C1F0823009F05ACF8091F803A4
:10565000982F937086958695911101C080E08C8378
:105660004FCF843009F04CCF8091F9038C83809127
:10567000FA038D8345CF8091FB03BFEF8B9FC00161
:10568000112464EB70E00E944F2D6C8339CF809120
:10569000FC03E5CF0E94382433CF80E18A8330CFEA
:1056A00081E08A8387E310CF0A811B8110270127BD
:1056B00010278C816801C80ED11C7E01E5E0EE0E3A
:1056C000F11CC016D10609F41BCF80E00733F1E0CE
:1056D0001F0728F4C80187539D4F0E940C2ED70145
:1056E0008D937D010F5F1F4FECCF0A811B81102727
:1056F00001271027FE0131967F018C816F01C80EB2
:10570000D11CCE14DF0409F4FBCE0733F1E01F07F0
:1057100040F4D70114966C91C80187539D4F0E94A5
:105720002A2E0F5F1F4FBFEFEB1AFB0AEACF0E9432
:105730007512E6CE88E0B2CF0A811B8110270127BF
:1057400010278C816801C80ED11C7E01E5E0EE0EA9
:10575000F11CC016D10609F4D3CE80E0003AF2E085
:105760001F0720F4C80189960E940C2ED7018D9343
:105770007D010F5F1F4FEDCF0A811B81102701278D
:105780001027FE0131967F018C816F01C80ED11C5C
:10579000CE14DF0409F4B4CE003AF2E01F0738F467
:1057A000D70114966C91C80189960E942A2E0F5F2A
:1057B0001F4FBFEFEB1AFB0AEBCF3B9708F0DDCD95
:1057C0000ACE1F921FB61F9211248F939F93AF93FF
:1057D000BF9380913E03811113C080910303909188
:1057E0000403A0910503B09106034196A11DB11DCC
:1057F0008093030390930403A0930503B0930603DF
:10580000BF91AF919F918F911F901FBE1F901895D0
:1058100078941F921FB61F9211248F939F93AF937A
:10582000BF938091030390910403A0910503B0916D
:1058300006030196A11DB11D8093030390930403F9
:10584000A0930503B0930603BF91AF919F918F91F1
:105850001F901FBE1F9018951F920F920FB60F92A8
:1058600011242F933F934F935F936F937F938F9365
:105870009F93AF93BF93EF93FF938091E10082FFDB
:1058800009C08091E20082FF05C08091E1008B7F1A
:105890008093E1008091DA0080FF24C08091D800DD
:1058A00080FF20C08091DA008E7F8093DA008091A3
:1058B000D90080FF9BC080E189BD82E189BD09B428
:1058C00000FEFDCF81E08093AA03809182028111C6
:1058D00009C00E94D40D0E94EB108091E200846008
:1058E0008093E2008091E10080FF17C08091E20088
:1058F00080FF13C08091E2008E7F8093E200809150
:10590000E20080618093E2008091D8008062809301
:10591000D80019BC85E08093AA038091E10084FF40
:1059200029C08091E20084FF25C080E189BD82E129
:1059300089BD09B400FEFDCF8091D8008F7D809392
:10594000D8008091E1008F7E8093E1008091E20099
:105950008F7E8093E2008091E20081608093E2007C
:1059600080918102811509F447C084E08093AA03E5
:105970008091AA038091E10083FF27C08091E2001B
:1059800083FF23C08091E100877F8093E10082E064
:105990008093AA03109281028091E1008E7F809310
:1059A000E1008091E2008E7F8093E2008091E2002E
:1059B00080618093E20042E060E080E00E94BB10E2
:1059C0008091F00088608093F000FF91EF91BF918B
:1059D000AF919F918F917F916F915F914F913F9187
:1059E0002F910F900FBE0F901F90189519BC109219
:1059F000AA031092820276CF8091E30087FF02C053
:105A000083E0B4CF81E0B2CF1F920F920FB60F9216
:105A10001124EF92FF920F931F932F933F934F9375
:105A20005F936F937F938F939F93AF93BF93CF9326
:105A3000EF93FF9309EE10E0F8018081C091EC0034
:105A40008F70C795CC27C795C82B108280EFE82EA2
:105A5000F12CF7018081877F808378940E943D1725
:105A6000F8011082F701808188608083CF70F8018F
:105A7000C083FF91EF91CF91BF91AF919F918F9193
:105A80007F916F915F914F913F912F911F910F9156
:105A9000FF90EF900F900FBE0F901F901895AA1BCC
:105AA000BB1B51E107C0AA1FBB1FA617B70710F009
:105AB000A61BB70B881F991F5A95A9F7809590953B
:105AC000BC01CD01089597FB072E16F4009407D072
:105AD00077FD09D00E944F2D07FC05D03EF490952C
