:100000000C9491080C94AE080C94AE080C94AE08B5
:100010000C94AE080C94AE080C94AE080C94AE0888
:100020000C94AE080C94AE080C94AD2B0C94692B78
:100030000C94002D0C94AE080C94AE080C94AE08F1
:100040000C94AE080C94AE080C94AE080C94AE0858
:100050000C94AE080C94DC2C0C94AE080C94AE08F6
:100060000C94AE080C94AE080C94AE080C94AE0838
:100070000C94AE080C94AE080C94AE080C94AE0828
:100080000C94AE080C94AE080C94AE080C94AE0818
:100090000C94AE080C94AE080C94AE080C94AE0808
:1000A0000C94AE080C94AE080C94AE080631FF090F
:1000B00074A1010975150026FF00952075088102BD
:1000C0000976150026FF00952075089102C00501EC
:1000D0000902A10185020901A100050919012908E8
:1000E00015002501950875018102050109300931C6
:1000F0001581257F95027508810609381581257FB0
:10010000950175088106050C0A38021581257F9531
:100110000175088106C0C005010980A10185031988
:10012000012AB700150126B700950175108100C09E
:10013000050C0901A101850419012AA00215012657
:10014000A002950175108100C005010906A1018575
:1001500006050719E029E7150025019508750181B5
:10016000020507190029EF1500250195F075018199
:10017000020508190129059505750191029501757A
:10018000039101C00660FF0961A101096215002603
:10019000FF009520750881020963150026FF009570
:1001A0002075089102C005010906A101050719E0A3
:1001B00029E715002501950875018102950175084B
:1001C00081010507190029FF150026FF0095067516
:1001D00008810005081901290515002501950575F7
:1001E000019102950175039101C00000000000001B
:1001F00000000000000000000000000000000000FF
:1002000000000000000000000000000000007E0F61
:1002100000D4FFFFFFC700000078000000000000CE
:1002200000002A2B28000000000000000000000051
:10023000000000000029000000002C1E34202122B4
:1002400024342627252E362D3738271E1F2021221D
:10025000232425263333362E37381F040506070896
:10026000090A0B0C0D0E0F10111213141516171886
:10027000191A1B1C1D2F3130232D350405060708C4
:10028000090A0B0C0D0E0F10111213141516171866
:10029000191A1B1C1D2F3130354C7267626C69674F
:1002A00068742064697361626C65205B45455052D7
:1002B0004F4D5D3A207267626C696768745F636F67
:1002C0006E6669672E656E61626C65203D202575DE
:1002D0000A007267626C6967687420656E61626C9F
:1002E00065205B454550524F4D5D3A207267626C08
:1002F000696768745F636F6E6669672E656E6162B9
:100300006C65203D2025750A007267626C6967681C
:100310007420746F67676C65205B454550524F4D84
:100320005D3A207267626C696768745F636F6E66BE
:1003300069672E656E61626C65203D2025750A0037
:1003400044454255473A2064697361626C65642E86
:100350000A0044454255473A20656E61626C656407
:100360002E0A003F00433E20004F6E6573686F7495
:100370003A206163746976653A2025640A000A00B0
:100380002530325820006E6B726F5F7265706F722D
:10039000743A2025303258207C20000A0025303263
:1003A0005820006B6579626F6172645F7265706F6F
:1003B00072743A2025303258207C20007267626CBB
:1003C000696768745F636F6E6669672E73706565D1
:1003D00064203D2025640A007267626C6967687456
:1003E0005F636F6E6669672E76616C203D202564C1
:1003F0000A007267626C696768745F636F6E666932
:10040000672E736174203D2025640A007267626C58
:10041000696768745F636F6E6669672E68756520CB
:100420003D2025640A007267686C696768745F63C1
:100430006F6E6669672E6D6F6465203D2025640AC6
:10044000007267626C696768745F636F6E66696784
:100450002E76656C6F63696B6579203D2025640A93
:10046000007267626C696768745F636F6E66696764
:100470002E656E61626C65203D2025640A007267FE
:10048000626C696768745F636F6E66696720454573
:1004900050524F4D3A0A007267626C696768745F28
:1004A000696E6974207267626C696768745F636FF4
:1004B0006E6669672E6D6F6465203D20302E205773
:1004C000726974652064656661756C742076616C10
:1004D00075657320746F20454550524F4D2E0A00AC
:1004E0007267626C696768745F696E6974206565BC
:1004F000636F6E666967206973206E6F7420656E26
:1005000061626C65642E0A007267626C6967687468
:100510005F696E6974207374617274210A00726776
:10052000626C696768745F696E69742063616C6C82
:1005300065642E0A0073757370656E64696E67205A
:100540006B6579626F6172640D0A000A00253038AC
:1005500062003A200025303258000A722F632030A2
:10056000313233343536370A001E0F0500047F3F21
:100570001F643214643214783C1E1E140A050A00EB
:1005800025303258006C65645F7461736B3A2000EB
:100590007267626C69676874207365742073706534
:1005A0006564205B4E4F454550524F4D5D3A2025C6
:1005B000750A007267626C6967687420746F676798
:1005C0006C65205B4E4F454550524F4D5D3A207251
:1005D00067626C696768745F636F6E6669672E65D2
:1005E0006E61626C65203D2025750A0000010101E5
:1005F00001010101010102020202020202020203E0
:1006000003030303030303040404040404040505AF
:100610000505050606060606070707070708080872
:1006200008090909090A0A0A0B0B0B0C0C0C0D0D21
:100630000D0E0E0E0F0F0F101011111112121313B9
:100640001414151516161717181819191A1A1B1B32
:100650001C1D1D1E1E1F202021222223242425268E
:1006600026272829292A2B2C2D2D2E2F30313232C6
:10067000333435363738393A3B3C3D3E3F404142D2
:10068000434445464748494A4C4D4E4F50515354B8
:10069000555658595A5B5D5E5F616264656668696C
:1006A0006B6C6D6F7072737577787A7B7D7E8082EC
:1006B000838587888A8C8E8F91939596989A9C9E35
:1006C000A0A2A3A5A7A9ABADAFB1B3B5B7BABCBE45
:1006D000C0C2C4C6C9CBCDCFD1D4D6D8DBDDDFE212
:1006E000E4E7E9EBEEF0F3F5F8FAFDFF7267626C10
:1006F00069676874206D6F6465205B4E4F45455097
:10070000524F4D5D3A2025750A007267626C696729
:100710006874206D6F6465205B454550524F4D5D98
:100720003A2025750A007267626C696768742065F3
:100730006E61626C65205B4E4F454550524F4D5D7A
:100740003A207267626C696768745F636F6E66698E
:10075000672E656E61626C65203D2025750A00720A
:1007600067626C696768742064697361626C652094
:100770005B4E4F454550524F4D5D3A207267626C5B
:10078000696768745F636F6E6669672E656E616224
:100790006C65203D2025750A007267626C69676888
:1007A000742073657420687376205B4E4F45455006
:1007B000524F4D5D3A2025752C25752C25750A0064
:1007C0007267626C696768742073657420687376F9
:1007D000205B454550524F4D5D3A2025752C2575BF
:1007E0002C25750A007267626C69676874207261F3
:1007F000696E626F7720736574206873763A20257E
:10080000642C25642C25642C25750A00FFAA7F55CD
:10081000407267626C696768742074696D657220E4
:10082000656E61626C65642E0A007267626C69674E
:1008300068742074696D65722064697361626C65A7
:100840002E0A002223252628292A2C2D2F30323348
:100850003536383A3B3D3E4042434547494A4C4E87
:100860005051535557595A5C5E6062646668696BB3
:100870006D6F71737577797B7D7F81838587898AB9
:100880008C8E90929496989A9C9E9FA1A3A5A7A8BF
:10089000AAACAEAFB1B3B4B6B8B9BBBCBEBFC1C2EF
:1008A000C3C5C6C7C9CACBCCCDCED0D1D2D2D3D482
:1008B000D5D6D7D7D8D9D9DADADBDBDBDCDCDCDCA0
:1008C000DCDDDDDDDDDCDCDCDCDCDBDBDBDADAD96E
:1008D000D9D8D7D7D6D5D4D3D2D2D1D0CECDCCCBF0
:1008E000CAC9C7C6C5C3C2C1BFBEBCBBB9B8B6B40E
:1008F000B3B1AFAEACAAA8A7A5A3A19F9E9C9A989E
:10090000969492908E8C8A89878583817F7D7B796E
:10091000777573716F6D6B6968666462605E5C5A4F
:100920005957555351504E4C4A4947454342403E12
:100930003D3B3A3836353332302F2D2C2A292826A4
:100940002523226B65796D61705F636F6E666967E1
:100950002E7261773A20253032580A2E73776170F3
:100960005F636F6E74726F6C5F636170736C6F63E3
:100970006B3A2025750A2E636170736C6F636B5F31
:10098000746F5F636F6E74726F6C3A2025750A2EF8
:10099000737761705F6C63746C5F6C6775693A2024
:1009A00025750A2E737761705F7263746C5F72676E
:1009B00075693A2025750A2E737761705F6C616CDA
:1009C000745F6C6775693A2025750A2E73776170BC
:1009D0005F72616C745F726775693A2025750A2EC3
:1009E0006E6F5F6775693A2025750A2E737761709F
:1009F0005F67726176655F6573633A2025750A2EBD
:100A0000737761705F6261636B736C6173685F625F
:100A100061636B73706163653A2025750A2E6E6B96
:100A2000726F3A2025750A2E737761705F65736364
:100A30006170655F636170736C6F636B3A202575DD
:100A40000A0064656275675F636F6E6669672E7220
:100A500061773A20253032580A2E656E61626C65E6
:100A60003A2025750A2E6D61747269783A202575D1
:100A70000A2E6B6579626F6172643A2025750A2EC1
:100A80006D6F7573653A2025750A006565636F6E35
:100A90006669673A0A64656661756C745F6C617952
:100AA00065723A2025750A000A092D204D61676993
:100AB00063202D0A443A094465627567204D6573C9
:100AC0007361676520546F67676C650A583A094D12
:100AD0006174726978204465627567204D6F646542
:100AE00020546F67676C65202D2053686F77206BEB
:100AF00065797072657373657320696E206D6174BA
:100B000072697820677269640A4B3A094B657962A9
:100B10006F61726420446562756720546F67676C0B
:100B200065202D2053686F77206B6579707265732F
:100B300073207265706F72740A4D3A09446562756C
:100B400067204D6F75736520546F67676C650A5633
:100B50003A0956657273696F6E0A533A09537461A4
:100B60007475730A433A0941637469766174652048
:100B7000436F6E736F6C65204D6F64650A46312D4F
:100B80004631303A0953776974636820746F204C9A
:100B90006179657220302D392028463130203D2082
:100BA0004C30290A302D393A09537769746368202B
:100BB000746F204C6179657220302D390A4752419B
:100BC00056453A0953776974636820746F204C6105
:100BD00079657220302028616C7465726E6174656D
:100BE000290A423A094A756D7020746F20426F6F6E
:100BF000746C6F616465720A4553433A094A756DB6
:100C00007020746F20426F6F746C6F616465722026
:100C100028616C7465726E617465290A453A0950E1
:100C200072696E7420454550524F4D20536574745F
:100C3000696E67730A4241434B53504143453A0939
:100C4000436C65617220454550524F4D0A4E3A093A
:100C50004E4B524F20546F67676C650A000A092D8E
:100C600020436F6E736F6C65202D0A4553432F71BF
:100C70003A09717569740A6D3A096D6F7573656B20
:100C800065790A002573000A092D20537461747573
:100C900073202D0A686F73745F6B6579626F617280
:100CA000645F6C65647328293A20253032580A6BDA
:100CB0006579626F6172645F70726F746F636F6C7D
:100CC0003A20253032580A6B6579626F6172645F31
:100CD00069646C653A20253032580A6B65796D611C
:100CE000705F636F6E6669672E6E6B726F3A202558
:100CF0003032580A74696D65725F726561643332AF
:100D000028293A202530386C580A003F004E4B52B3
:100D10004F3A206F66660A004E4B524F3A206F6E74
:100D20000A000A6D6F7573653A206F66660A000ADD
:100D30006D6F7573653A206F6E0A000A6B65796294
:100D40006F6172643A206F66660A000A6B657962A9
:100D50006F6172643A206F6E0A000A6D6174726985
:100D6000783A206F66660A000A6D61747269783A93
:100D7000206F6E0A000A64656275673A206F6666C6
:100D80000A000A64656275673A206F6E0A000A0AF3
:100D90004A756D70696E6720746F20626F6F746C36
:100DA0006F616465722E2E2E2000433E2000436C3E
:100DB000656172696E6720454550524F4D0A00319A
:100DC0003A0964656C6179282A31306D73293A20BB
:100DD00025750A323A09696E74657276616C286D00
:100DE00073293A2025750A333A096D61785F73706B
:100DF0006565643A2025750A343A0974696D655F42
:100E0000746F5F6D61783A2025750A353A09776805
:100E100065656C5F6D61785F73706565643A202508
:100E2000750A363A09776865656C5F74696D655F48
:100E3000746F5F6D61783A2025750A00703A097009
:100E400072696E742076616C7565730A643A097311
:100E500065742064656661756C74730A75703A090F
:100E60002B310A646E3A092D310A6C743A092B3120
:100E7000300A72743A092D31300A4553432F713AC2
:100E800009717569740A0A7370656564203D206490
:100E9000656C7461202A206D61785F73706565648C
:100EA000202A2028726570656174202F2074696D76
:100EB000655F746F5F6D6178290A77686572652078
:100EC00064656C74613A20637572736F723D25645A
:100ED0002C20776865656C3D25640A53656520683C
:100EE0007474703A2F2F656E2E77696B6970656424
:100EF00069612E6F72672F77696B692F4D6F7573FC
:100F0000655F6B6579730A004D3E20004D25753A8B
:100F100025733E20003F0A003D2025750A003F0A48
:100F20000064656661756C74730A0025750A003F7C
:100F30000A000A092D2056616C756573202D0A0080
:100F4000710A000A092D204D6F7573656B65792054
:100F50002D0A004C25640A000000000053005400D4
:100F6000550000002A005F006000610000000000E2
:100F70005C005D005E000000000059005A005B004C
:100F800000000000620000006300215200005600D3
:100F90005700580000000000207854005500000061
:100FA00021785F00257861000000000024785D0052
:100FB000237800000000590026785B000000000044
:100FC0006200000001000100000027782878580026
:100FD000290A002575002F002575005D280025646D
:100FE0000020002564002000256400200025640006
:100FF0007C0025303258006D6F7573656B65792004
:101000005B62746E7C782079207620685D2872653A
:10101000702F61636C293A205B006164645F6B65CB
:10102000795F6269743A2063616E27742061646439
:101030003A20253032580A0064656C5F6B65795F31
:101040006269743A2063616E27742064656C3A208B
:10105000253032580A005B435D005B445D005B5302
:101060005D005B575D005B525D0009027B0004017F
:1010700000A0FA0904000001030101000921110187
:101080000001224400070581030800010904010052
:1010900002030000000921110100012222000705BE
:1010A0008203200001070503032000010904020058
:1010B000010300000009211101000122B60007050B
:1010C0008403200001090403000203000000092139
:1010D00011010001222200070585032000010705F8
:1010E00005032000011201000200000008984E983C
:1010F0004F00010102000116036D0061006F005FE7
:101100000064007300310039007200330000000CED
:101110000343005A004D0041004F00000004030942
:10112000040011241FBECFEFDAE0DEBFCDBF24E004
:10113000ACECB2E001C01D92AF37B207E1F712E0AC
:10114000A0E0B1E0EEE1FDE602C005900D92AC3CFE
:10115000B107D9F70E94272D0C94E7350C940000B5
:10116000FF93EF93E091CC02F091CD02309709F01C
:101170000995EF91FF910895FC018591803011F060
:10118000EFDFFBCF0895FF27E0E230E247FF0CC01E
:10119000419597FF09C0EDE2609570958095909517
:1011A000611D711D811D911D27FF02C0219530E336
:1011B00050E2AA27660F771F881F991FAA1FA4173E
:1011C00010F0A41B63955A95A9F7AA3008F0A95FFF
:1011D000A05DAF93F395611571058105910541F708
:1011E000ED3211F4EF93F395F21718F43F93F39562
:1011F000FBCF8F91B5DFFA95E1F70895E991F99169
:101200008591803021F0853219F0AADFF9CF089559
:1012100020E0E89455915532C1F3503311F46894AD
:1012200055915A3348F4505390F3220F022E220F57
:10123000220F200D250FF4CF0EF42195899199915D
:10124000533619F3533729F1533559F1BC01882727
:101250009927E8945C3621F4899199916894559185
:10126000543639F446EF7EF077FF0DC08FEF9FEFD5
:101270000AC055374AE039F0583540E121F052367E
:1012800042E009F00895FF93EF937DDFEF91FF9126
:10129000B7CFFF93EF93FC0181918030B9F360DF0A
:1012A000FBCFFF93EF9368DFF1CFDF93CF93CDB701
:1012B000DEB72596A3DFCF91DF910895482F2091C7
:1012C0007B049091420457E0291302C080E0089506
:1012D00030E0529FF001539FF00D1124ED5BFB4F66
:1012E0008181681306C08081481303C08581811104
:1012F000EECF2F5F3F4F2770E7CFE8EDF0E0808122
:101300008E7F80831092E2001092DA001092E1004A
:10131000A0EEB0E08C9181608C9380818F77808388
:1013200019BCA7EDB0E08C918E7F8C9380818F7E6D
:10133000808310922B0408952091E4003091E50001
:1013400095E6A9012091EC00822F817020FF06C054
:101350008091E80080FF06C080E008952091E800B9
:1013600022FD1AC080913804882389F0853089F0E5
:101370008091EB0085FD0FC02091E4003091E500E5
:1013800042175307F9F29150E1F684E0089582E0A4
:10139000089583E0089581E0089580913A0487FFDD
:1013A00013C08091E80082FF06C08091E8008B772F
:1013B0008093E80004C0809138048111F2CF089531
:1013C000809138048823D9F38091E80080FFF8CF1A
:1013D0008091E8008E77ECCF982F9093E900242F2E
:1013E000762F50E0891731F07091EC002091ED00DC
:1013F0005091F00021FD07C09F5F973071F78093F7
:10140000E90081E008953091EB003E7F3093EB00DE
:101410003091ED003D7F3093ED003091EB00316075
:101420003093EB007093EC002093ED005093F000AC
:101430002091EE0027FDE0CF80E00895B0E0A0E02D
:10144000E4E2FAE00C945334C8EDD0E088818F7E5A
:101450008883E7EDF0E080818160808384E082BF53
:1014600081E080932B0488818E7F888302EE10E0D8
:10147000F80110821092DA0081EEC82ED12CF6010C
:10148000108288818F7788838881806888838881AB
:101490008F7D888319BC1092380410923904109201
:1014A00037041092360490EEE92EF12CF70180817A
:1014B0008B7F808388818160888342E060E080E068
:1014C0000E94EC09F60180818E7F8083F801808183
:1014D00081608083808188608083F70180818E7F36
:1014E0008083888180618883CDB7DEB7E8E00C9483
:1014F0006F34FC0180914004909141048617970756
:10150000A0F06115710529F49091E8009E77909301
:10151000E80090E06115710551F4911108C08091C7
:10152000E80082FF34C080E00895BC01F2CF8091D2
:1015300038048823C1F18530C1F18091E80083FD32
:1015400030C08091E80082FDEACF8091E80080FF02
:10155000E1CF8091F3002091F200382F61157105E1
:1015600019F02830310558F091E02830310509F0A4
:1015700090E02091E8002E772093E800CBCF819176
:101580008093F100615071092F5F3F4FE7CF809149
:101590003804882341F0853041F08091E80083FFD2
:1015A000BECF81E0089582E0089583E008958091A0
:1015B0002D04089587E797E790930108809300082A
:1015C00088E19AE00FB6F894A895809360000FBE6A
:1015D00090936000FFCF9C014FB7F8948091240452
:1015E00090912504A0912604B09127044FBF821B3F
:1015F000930B08952FB7F8946091240470912504FB
:1016000080912604909127042FBF08952FB7F89456
:101610008091240490912504A0912604B091270480
:101620002FBF0895A3E0B0E0E8E1FBE00C9459344B
:1016300020911E0430911F0428173907A1F09093C0
:101640001F0480931E04E0911C04F0911D04309748
:1016500051F024E029839B838A830084F185E02D67
:10166000CE01019609952396E2E00C947534A3E02F
:10167000B0E0EDE3FBE00C94593420911A04309172
:101680001B0428173907A1F090931B0480931A04B8
:10169000E0911C04F0911D04309751F023E0298360
:1016A0009B838A830084F185E02DCE010196099504
:1016B0002396E2E00C947534E0911C04F0911D0433
:1016C000309729F00190F081E02D0995089580E090
:1016D000089580910E0480FF0CC06091210170E09C
:1016E00075956795759567956115710549F1862F13
:1016F000089581FF06C06091210170E0759567959E
:10170000F3CF6091210182FD0BC090910D049923CC
:10171000A1F06091200180912101961738F0682F87
:1017200070E06038710500F38FE70895899FC0016C
:10173000112470E00E941934F4CF61E070E0D7CF3B
:1017400081E0089580910E0480FF0DC060911F011B
:1017500070E0660F771F6038710570F561157105CF
:1017600069F1862F089581FF07C060911F0184E011
:10177000689FB0011124EFCF82FF04C060911F0168
:1017800088E0F6CF80910F04882399F020911E0104
:1017900060911F018217A0F7869FC001112433E0DA
:1017A000880F991F3A95E1F7622F70E00E94193473
:1017B000D2CF68E070E0D5CF8FE7089581E008953B
:1017C000282F35EB2303C001112497FF04C0805854
:1017D0009109892F089580589F4FFBCFFA018111FD
:1017E00001C0FB010995089508958091FF03982F8A
:1017F0009C7F29F4837084608093FF0308958C3A62
:10180000E8F38370886AF8CFAF92BF92DF92EF92CD
:10181000FF920F931F93CF93DF93082F162FE901A9
:10182000E42FF0E0E451FA4F611110C0E4915E2F13
:101830004E2F4983E8835A83DF91CF911F910F91F7
:10184000FF90EF90DF90BF90AF900895E62EF12CBF
:101850004491D42EE42FF0E026E0829FC0011124B1
:101860002FEF30E0B9010E940534802F90E0880FFF
:10187000991F55E5569FD001579FB00D11248A1B23
:101880009B0B982F990F890F5901AE18BF08AE9E78
:10189000D001AF9EB00DBE9EB00D11245B2F189FDE
:1018A00080011124012F11275901A01AB10AAE9EFF
:1018B0008001AF9E100DBE9E100D11245901A81A73
:1018C000B108AE9CC001AF9C900DBE9C900D112440
:1018D000892F9927281B390B2E9FC0012F9F900D10
:1018E0003E9F900D1124E92F62307105A1F050F454
:1018F0006115710509F49DCF6130710581F0EB2F01
:10190000512F97CF6430710569F080F06630710512
:1019100009F48FCFF4CFE42F4B2F592F8ACFE42F28
:10192000412F87CFEB2F542F492F83CF4B2F5D2D86
:10193000E12F7FCFF894E82FE295EF70F0E031A12E
:10194000282F2F7081E090E001C0880F2A95EAF7D8
:10195000982F9095932391A392A1892B82A3789499
:1019600008959091210492FF10C041E0282F247126
:10197000243009F040E031E0282F2871283009F0A8
:1019800030E0431711F02CE0822793FF10C041E0B4
:10199000282F2471243109F040E031E0282F2871EC
:1019A000283109F030E0431711F02CE08227309104
:1019B000220430FF10C051E0282F2171213009F09E
:1019C00050E041E0282F2871283009F040E05417FA
:1019D00011F029E0822731FF10C041E0282F21714A
:1019E000213109F040E031E0282F2871283109F039
:1019F00030E0431711F029E0822794FD877E089597
:101A000082389105B9F1B0F48133910509F47DC0B4
:101A100048F48932910509F46DC08A32910509F4C0
:101A20007BC008958533910509F45FC08933910522
:101A300009F10895833E9105D9F138F4803E91056E
:101A400029F1823E910579F10895863E9105D9F1FB
:101A5000873E910509F43EC0843E910541F52091F1
:101A6000220421FF24C08091210484FD19C087EE47
:101A700090E0089520912104237009F05AC020912C
:101A8000220423FF14C089E290E0089520912104EC
:101A900020FD38C03091220430FF09C024FF43C02C
:101AA00090E080E008952091210422FDF7CF089571
:101AB0002091210422FD3AC03091220430FD39C02A
:101AC00024FFF5CFEDCF2091210423FFF0CF24FD9B
:101AD000E7CFCDCF2091210423FD2EC030912204E9
:101AE00031FFEECF84EE90E008952091210425FF90
:101AF000DECFC9CF2091210425FD21C020912204F1
:101B000023FFD5CF89E390E0D2CF2091210426FF97
:101B1000CECF8AE290E008952091210426FFC7CF1E
:101B200081E390E0089583EE90E0089582EE90E0E6
:101B3000089580EE90E0089586EE90E0089585E3A4
:101B400090E008951F93CF93DF930E94000DEC0166
:101B5000C11580E5D807F0F5C11580E4D80708F075
:101B60009CC0C03ED10520F5CD3CD10508F082C017
:101B7000C83AD10578F4C53AD10508F073C0C13030
:101B8000D10519F1209709F1C430D105F0F4D0E066
:101B9000C0E01BC0C33CD105D0F7C85AD0E0CC0F81
:101BA000DD1FC55BDD4F0990D881C02DD4640DC009
:101BB000C11580E2D80708F0D1C0C11581E0D8076F
:101BC00008F05AC0C83ED10510F7CE01DF91CF9181
:101BD0001F910895C03682E5D80718F5C03482E514
:101BE000D80708F06BC0C03282E5D80708F05FC0A4
:101BF000C11582E5D80708F497C02C2F26952695A5
:101C000080E2289F900111248C2F8370C1E0D0E0E6
:101C100002C0CC0FDD1F8A95E2F7C22BD32BDD6803
:101C2000D4CFC03A82E5D80760F4C03882E5D8073F
:101C300008F459C0CF71D0E0DC2FCC27C46FD06A34
:101C4000C4CFC03C82E5D80708F462C0C03E82E53C
:101C5000D80708F09CCFDC2FCC27CC27DF71C06FD2
:101C6000D06AB3CFC55AD0E0C85BDD4FC881D0E0A1
:101C7000D064ABCFD065A9CF8D2F0E94B10C182FA7
:101C8000CE0199270E94000DC12FD0E0DC2FCC2778
:101C9000CC27DF71C82BD92B98CFCE0199270E9472
:101CA000000DCC27DF70C82BD92BD06A8ECFCF7117
:101CB000D0E0DC2FCC27C16FD06A87CF2C2F2695A0
:101CC0002695277080E2289F900111248C2F837025
:101CD000C1E0D0E002C0CC0FDD1F8A95E2F7C22B35
:101CE000D32BDC6872CF2C2F26952695277080E2A7
:101CF000289F900111248C2F8370C1E0D0E002C096
:101D0000CC0FDD1F8A95E2F7C22BD32BDA685DCFAB
:101D10008C2F8F710E94B10CC82FD0E0DC2FCC2704
:101D2000CC27DF71D06251CF8C2F8F710E94B10C04
:101D300055E0D695C7955A95E1F7CF70D0E0DC2FE6
:101D4000CC27282F30E084FF05C044E0220F331F4A
:101D50004A95E1F7C22BD32BD06937CF8D2F8F71E6
:101D60000E94B10C182FCE0199270E94000DC12F9F
:101D7000D0E0DC2FCC27CC27DF71C82BD92BD2CFDA
:101D8000809590913603982390933603089580911F
:101D9000360390910D03892B90910C03992391F0B8
:101DA000892B90912201992371F09091210497FF42
:101DB0000AC09EE128ED32E040E0915040F441112C
:101DC00010920C03089596E020ED32E0F5CFF90172
:101DD00051919F01552389F34F5FEFCF80917B0491
:101DE00090914204981301C008958F5F8770FACFD5
:101DF000292F963078F5853068F590E035E0239FFF
:101E0000800D911D1124682F677023E096958795AA
:101E10002A95E1F7FC01EE0FFF1FE80FF91FE850CC
:101E2000FD4F50E040E080E0219130E0062E02C0FE
:101E3000369527950A94E2F721703327042E01C0C6
:101E4000220F0A94EAF7822B4F5F5F4F4330510510
:101E500059F7089580E00895292F963098F5853038
:101E600088F590E035E0239F800D911D1124282FE7
:101E7000277041E001C0440F2A95EAF723E09695C8
:101E800087952A95E1F7FC01EE0FFF1FE80FF91F78
:101E9000E850FD4F30E020E070E05191DF011197F4
:101EA000CB01022E02C0969587950A94E2F78170C5
:101EB00081958527842385278C932F5F3F4F23307F
:101EC000310559F708958093430308959091430392
:101ED00021E030E0F90101C0EE0F8A95EAF7D9015F
:101EE00002C0AA0FBB1F6A95E2F7EA2B01C0220FBE
:101EF0004A95EAF7892F8E23E81305C0292B822FF4
:101F00000E94630F089520952923F9CF21E030E046
:101F100001C0220F8A95EAF720958091430382231E
:101F20000E94630F089590910B03809589238093FD
:101F30000B03282F277069F4891759F09091220418
:101F400092FF07C08695869586950E94860F10920F
:101F50000B03089521E030E001C0220F8A95EAF7D3
:101F600080914303822B0E94630F0895809337036F
:101F70000895829590E09C01220F331F220F331F9A
:101F80002C7C95958795959587958373282B30E0C4
:101F9000C901880F991F8A7A359527952575822B57
:101FA00008959FB7F894109229049FBF9091380428
:101FB000943009F048C02091E9002F703091EC0076
:101FC000932F917030FD90E8922B25E02093E9004B
:101FD0002091EB0020FF34C02091EE0027FF30C09D
:101FE00020912804222321F02091E80025FF28C019
:101FF0001092280426E03091E80035FF14C0809349
:10200000F1008091E80085FD27C08091E80080FF05
:10201000FCCF8091E8008E778093E8009F709093CA
:10202000E90080E0089530913804343049F430916B
:10203000EB0035FD05C0215041F481E08093280478
:102040009F709093E9008FEF0895EFE9FFE03197DB
:10205000F1F700C00000CFCF8FB7F89421E02093B4
:1020600029048FBFDBCF0F931F93CF93DF938B0197
:10207000EA0190913804943061F58093E9008FEF84
:102080009091E800815095FD06C095ED9A95F1F785
:1020900000008111F5CF8091E80085FF1AC00E94F1
:1020A0009C09811111C08091E80085FD06C08091D6
:1020B000E8008E778093E800F2CFF80181918F01DC
:1020C0008093F100219779F78091E8008E778093D3
:1020D000E800DF91CF911F910F91089543E050E008
:1020E000BC0184E00E943310089546E050E0BC013A
:1020F00084E00E943310089540E250E0BC0184E087
:102100000E9433100895CF93DF93EC0148E050E034
:10211000BC0181E00E94331088E0FE01AEE2B4E031
:1021200001900D928A95E1F7DF91CF91089580910A
:10213000FF0380FD0AC0EFE5F3E0118210821282F6
:10214000339653E0EB39F507C1F76E9A3EB13F7B0A
:102150002EB120644FB7F8948FE593E0FC015191C4
:10216000CF0168E02EB9000000C057FF3EB9550FFF
:10217000000000C000C000C03EB900C06A9591F7E1
:10218000F3E08B399F0751F74FBF8FE594E001973C
:10219000F1F700C000000895EF92FF920F931F9394
:1021A000CF93DF938C01CFE5D3E0F12CE12CF80144
:1021B00094816091010480910004FAE0EF16F1042B
:1021C000ECF49923E9F09E01409102040E94040C72
:1021D0002FEFE21AF20A239684E1E816F10439F7A8
:1021E0000E949710F801848190E0019681709927F0
:1021F0008483CDB7DEB7E6E00C947134992319F3EC
:102200009E0140E0E3CFB0E0A0E0E9E0F1E10C9412
:102210004F34EC014C81042F10E09801D8010E944A
:10222000D8359B01AC010E94A3354B015C01E0E273
:10223000F0E0E01BF10BA5E5B0E0AC019B010E94D2
:10224000A3356B017C019F01DF010E943A349B01A1
:10225000AC010E94AE359B01AC01280D391D4A1D11
:102260005B1DC701B6010E94B635F22E822F90E0A9
:1022700039E23F1598F143E0249F900111243595F0
:102280002795122F10959FE5C92E93E0D92E00E0D7
:1022900085E5E82EEF188E2D01FD8F2D9601412F3B
:1022A000609101040E94040C0F5F53E0C50ED11C25
:1022B000043189F70E9497109C8181E0992319F0DD
:1022C000903219F48FEF80931B0180911B01890FCD
:1022D0008C83CDB7DEB7ECE00C946B3425E530E0B1
:1022E000A901481B590BCA019A01220F331F280F5D
:1022F000391F37FFC4CF2F5F3F4FC1CF0F931F93BD
:10230000CF93DF93CFE5D3E0FE01118210821282DA
:10231000339683E0EB39F807C1F710E000E08091D5
:102320005D03082E000C990B081719078CF180919A
:102330001A01082E000C990B801791074CF19E0191
:102340004091020460910104809100040E94040CF9
:102350000F5F1F4F23960431110509F70E94971054
:102360008091190190915D03980F90935D032091E6
:102370001A01280F20931A01121614F493311CF03D
:10238000819580931901DF91CF911F910F9108954D
:10239000198218821A82DCCFB0E0A0E0E2EDF1E110
:1023A0000C945234FC018281DD24DA9480FD02C059
:1023B000DD24D3940FE513E0D0E0C0E024E1B22E99
:1023C000F80111821082128294E0E92EF12CC12CC6
:1023D00080915C038C0D8531C4F16B2D0E94F73325
:1023E000892F082E000C990B8C179D0791F4809172
:1023F00002048E9DA0018F9D500D11245595479587
:1024000055954795980160910104809100040E94C0
:10241000040CCD0CF1E0EF1AF108D1F621960D5F16
:102420001F4FC431D10561F60E94971080915C0363
:1024300091E0D91210C081110CC083E180935C033C
:10244000CDB7DEB7E9E00C946E3487FFCACF8C5E5F
:10245000C8CF8150F3CF90E00196BE010E9419349D
:10246000EDCFEF92FF921F93CF93DF93EC018FE5B7
:10247000E82E83E0F82E10E08C8197014091020451
:1024800060910104810F0E94040C145F83E0E80E48
:10249000F11C103F89F70E9497109A818C8190FF60
:1024A00008C08F5F8C83DF91CF911F91FF90EF90D9
:1024B00008958150F7CF9091FF0390FF0CC0EFE596
:1024C000F3E0818360834283339693E0EB39F9072D
:1024D000C1F70E9497100895A3E0B0E0E2E7F2E1AF
:1024E0000C9457348C0180915E0381110AC09E01C7
:1024F0002F5F3F4F4FEF6FEF0E94040C8A81809354
:102500005E03F8016481613069F080915E0340E010
:10251000662361F040E0623011F440915E0380E098
:1025200060E004C060915E0340E080E00E945B12C6
:10253000F801848190E0019663E070E00E94193414
:1025400084832396E4E00C947334A3E0B0E0EBEAD8
:10255000F2E10C9459349091FF0390FF0AC09E0160
:102560002F5F3F4F0E94040C4B8169818A810E943A
:102570005B122396E2E00C947534CF93DF93EC0169
:10258000EFEFF3E0438162818C810E94A5128C8180
:102590008F5F8C83DF91CF910895CF93DF93EC0110
:1025A000EC81F0E0ED5BF74F4491EFEFF3E06281F7
:1025B00081810E94A5128C818F5F8C83DF91CF91E6
:1025C000089590912201992359F19091210497FF48
:1025D00027C0E82FE695E695E695EE3180F4F0E029
:1025E000EA52FD4F282F277081E090E001C0880F4C
:1025F0002A95EAF7809592818923828308959091A4
:10260000200490FF19C01F928F9388E390E19F935D
:102610008F930E9455090F900F900F900F9008957F
:10262000E0EDF2E09191891303C0DF0111971C9254
:1026300092E0E63DF907B1F70895909122019923C0
:1026400049F19091210497FF25C0E82FE695E69582
:10265000E695EE3170F4F0E0EA52FD4F877021E02C
:1026600030E001C0220F8A95EAF78281822B8283B3
:1026700008959091200490FF1EC01F928F938AE1CD
:1026800090E19F938F930E9455090F900F900F90A8
:102690000F900895A0EDB2E0EFEF90E02D9182173A
:1026A00051F0EF3F19F4211101C0E92F9F5F9630DF
:1026B000A9F7EF3F09F408950E2E000CFF0BE2532B
:1026C000FD4FD5CF8091200483FF7EC087EF9FE030
:1026D0000E94BC08809115041F928F9382EF9FE0A7
:1026E0009F938F930E94550980EF9FE00E94BC0842
:1026F00080911604282F082E000C330B3F938F93E4
:102700008DEE9FE09F938F930E9455098BEE9FE083
:102710000E94BC0880911704282F082E000C330B50
:102720003F938F9388EE9FE09F938F930E9455096C
:1027300086EE9FE00E94BC0880911804282F082E86
:10274000000C330B3F938F9383EE9FE09F938F9307
:102750000E94550981EE9FE00E94BC0880911904F7
:10276000282F082E000C330B3F938F938EED9FE0A4
:102770009F938F930E9455098BED9FE00E94BC08A8
:1027800080910F041F928F9388ED9FE09F938F930A
:102790000E94550986ED9FE00E94BC0880910E04BE
:1027A0001F928F9383ED9FE09F938F930E94550913
:1027B00080ED9FE00E94BC088DB79EB74C960FB687
:1027C000F8949EBF0FBE8DBF0E94060B9C01909196
:1027D000160480911704982B21F030931304209352
:1027E00012049091180480911904982B21F03093D1
:1027F000110420931004E0911C04F0911D04309703
:1028000049F082E0809314040680F781E02D84E192
:1028100094E0099508954091160490911804209130
:102820001904662309F469C0942B922B2091170494
:10283000922B31F098E090930F0491E090930D0467
:102840008D3C41F40E94A20B8195809317040E9455
:10285000621308958E3C19F40E94A20BF6CF8F3CB0
:1028600031F40E94A20B819580931604F0CF803D35
:1028700019F40E94A20BF8CF893D29F40E94690B3C
:1028800080931804E4CF8A3D21F40E94690B81955E
:10289000F7CF8B3D31F40E94690B81958093190429
:1028A000D6CF8C3D19F40E94690BF8CF9FE2980FA8
:1028B000983070F4815D990B21E030E001C0220F67
:1028C0008A95EAF780911504822B80931504BFCF77
:1028D0008D3D31F480910E04816080930E04B7CF5A
:1028E0008E3D21F480910E048260F7CF8F3D09F078
:1028F000AECF80910E048460F0CF8D3C59F480916E
:10290000170487FF0DC01092170441110BC01092DD
:102910000F0408C08E3C81F48091170418169CF3B4
:10292000442381F08091180490911904892B09F0B7
:102930008ECF10920D048BCF8F3C49F447FFF0CF20
:1029400010921604809117048111ECCFE0CF803DE6
:1029500019F41416ACF3E4CF893D29F4191604F7E1
:1029600010921804DDCF8A3D19F497FFD9CFF8CF24
:102970008B3D29F427FFD4CF10921904D1CF8C3D81
:1029800019F41216CCF3CCCF9FE2980F983090F444
:10299000815D990B21E030E0B90102C0660F771F1D
:1029A0008A95E2F7CB018095909115048923809355
:1029B0001504B6CF8D3D31F480910E048E7F809347
:1029C0000E04AECF8E3D21F480910E048D7FF7CFA3
:1029D0008F3D09F0A5CF80910E048B7FF0CF8091C1
:1029E00020011F928F93809121011F928F938091DC
:1029F0001E011F928F9380911F011F928F938091D0
:102A00001C011F928F9380911D011F928F938FEB5A
:102A10009DE09F938F930E9455098DB79EB70E96A8
:102A20000FB6F8949EBF0FBE8DBF0895883228F56B
:102A30008E3108F072C08B3041F130F4873009F4E8
:102A4000CFC08EE19FE0E0C0833109F45FC08431E4
:102A5000C1F780E49FE00E94BC0880910C048823A9
:102A600009F4FEC010920C0410920B0410920A0498
:102A7000109209041092080420C08F3409F4C7C0D2
:102A8000D8F5893231F38833E1F683E49FE00E9480
:102A9000BC080E94EF141F9281E08F931F9288E080
:102AA0008F938CE39EE09F938F930E9455090F9024
:102AB0000F900F900F900F900F9020910C042223F5
:102AC00009F4C9C08091080490910904009711F499
:102AD00083E291E09F938F931F922F938CE09FE06E
:102AE0009F938F930E9455090F900F900F900F9016
:102AF0000F900F9081E00895813509F49CC008F48F
:102B00009CC0823509F09DCF81E082C082E39FE0C6
:102B10000E94BC080E94EF14D0CF8D5180930C040A
:102B2000833009F442C058F48130C1F08230A1F101
:102B300010920C048FE29FE00E94BC081BC08530FD
:102B400009F445C0D8F1863099F780E291E090937E
:102B50000B0480930A048BE691E008C08DE191E0BC
:102B600090930B0480930A0487E291E09093090408
:102B70008093080480910C04882309F49ECF1F924F
:102B80008F938BE29FE09F938F930E9455090F9044
:102B90000F900F900F9091CF8CE191E090930B04E8
:102BA00080930A0480E391E0E1CF8FE191E090937C
:102BB0000B0480930A048CE391E0D8CF8EE191E07E
:102BC00090930B0480930A0489E491E0CFCF81E2D3
:102BD00091E090930B0480930A0488E591E0C6CFBE
:102BE00081E080931D0184E180931C018AE0809341
:102BF0001F018EE180931E0188E08093210188E20D
:102C00008093200181E29FE00E94BC0856CF8AE0B9
:102C1000E0910A04F0910B043097D1F02081082E46
:102C2000000C990B820F911D8F3F910541F03CF0F4
:102C30008FEF808307C08FEFEBCF86EFE9CF97FF51
:102C4000F8CF108280811F928F9388E19FE09BCF05
:102C500085E19FE0D9CF88E09FE00E94BC084ACF81
:102C600080E0089510925B038091200480FF08C0EB
:102C70008AE298E09F938F930E9455090F900F90DE
:102C800008958091FF038E7F8093FF03809120043D
:102C900080FF0CC01F921F928FE597E09F938F9348
:102CA0000E9455090F900F900F900F900E943216BE
:102CB0000E9497100895CF93C82F6FEF811164E29F
:102CC00085E290E00E9450356FEFC11169E086E225
:102CD00090E00E9450356FEFC11168E087E290E00C
:102CE0000E945035CF910895CF93DF93C9E1D1E091
:102CF00060E0CE010E9450352196C11584E0D807CE
:102D0000B9F7DF91CF9108951F93CF93DF93122FDF
:102D10008430E0F46630D0F44530C0F4C42FD0E005
:102D2000CC0FDD1F9AE0699FC00DD11D11249CE3DB
:102D3000899FC00DD11D1124632FCE0189960E9459
:102D40005035612FCE018A960E945035DF91CF9188
:102D50001F910895B0E0A0E0E0EBF6E10C9453344D
:102D600098E5E92E9FE0F92ED12C8701C12C1CC0DB
:102D70004C2F81E021E030E08D1540F0FE01EE0F98
:102D8000FF1FE00FF11F859194919C016C2D8D2DFB
:102D90000E9484162196C530D10551F7C394065F71
:102DA0001F4F86E0C81619F0D0E0C0E0E1CFD39401
:102DB0008CE3E80EF11C84E0D812D7CFCDB7DEB794
:102DC000E8E00C946F3480E00E945B1660E088E2DB
:102DD00090E00E9450350E94AA160E94741681E06D
:102DE0000E945B16089585E290E00E942C358432A3
:102DF00089F486E290E00E942C35893059F487E20C
:102E000090E00E942C3591E0883009F090E0892F05
:102E10008170089580E0FCCF0F931F93CF93DF93D1
:102E2000843030F5663020F5453010F5C42FD0E001
:102E3000CC0FDD1F2AE0629FC00DD11D11243CE3A1
:102E4000839FC00DD11D1124CE0189960E942C357F
:102E5000082F10E0102F0027CE018A960E942C35F3
:102E60009801282BC901DF91CF911F910F910895EF
:102E700090E080E0F8CF462F763040F4653030F4B3
:102E8000843020F4672F0E940C17089590E080E0B2
:102E90000895CF92DF92FF920F931F93CF93DF930A
:102EA0006C010091430380913703082BC3E0D0E00D
:102EB00010E0FC2EC8010C2E02C0959587950A944F
:102EC000E2F780FD0CC02197A0F7F12C8F2DDF9148
:102ED000CF911F910F91FF90DF90CF900895B60191
:102EE0008C2F0E943B170E94A20D019761F3EECF39
:102EF000CF93DF93EC010E944917BE010E943B175C
:102F00000E94A20DDF91CF910895FC01248122231C
:102F1000C1F0808191810E94781792959F709630C0
:102F200091F058F4925F9F70923058F4803F19F0FE
:102F300030F4883E30F481E008959A5FF4CF843F06
:102F4000D1F380E00895883EB0F3813FD1F7F3CF0D
:102F5000A6E0B0E0EEEAF7E10C94583449835A83D6
:102F600049815A819923A1F0222391F0CA010E943C
:102F70004917182F682F89819A810E942C0F698127
:102F80007A81812F0E943B172696E3E00C947434DB
:102F9000CA010E94F80E182FF2CF90E080E00E9444
:102FA0003A35863E9E4F19F40E94F316089580E04C
:102FB0000895B0E0A0E0EFEDF7E10C944B34FC0194
:102FC0006280448081E08483E3E4F8E07490E2EC82
:102FD000F8E0E491009102040695015810E0000F1A
:102FE000111F012F1127CBE9D3E02FE5C22E23E0DB
:102FF000D22E3FEF832E33E0932EAA24AA94B12C35
:1030000055245A94E719EE2EF12C82E0861530F003
:10301000809100048883809101048983411016C047
:103020001B821A8296014A81698188810E94040C60
:10303000259683E0C80ED11C8C169D0631F70E94A0
:103040009710CDB7DEB7E0E10C9467348B8188230D
:10305000E9F081508B83859DC00111246C8170E063
:103060000E940534FB01FF27ED5BF74F8491E82FA9
:10307000E719E59DC0011124B7010E940534809134
:103080000204689FB00111247A83CCCF0E940235DC
:10309000B5010E9419348017910724F682E0861545
:1030A00088F40E940235B5010E94193488830E9479
:1030B0000235209101042695622F70E00E94193498
:1030C000280F29831A8280910204893C20F088EC21
:1030D0008C838B83A7CF8431D8F784E1F9CF6091BB
:1030E000FF036695669570E04BE050E08EE091E05E
:1030F0000E941235892B19F481E080935B030E94B2
:10310000060B90935503809354038091200480FF15
:1031100008C081E198E09F938F930E9455090F901A
:103120000F900895B0E0A0E0E8E9F8E10C944F3486
:1031300049015A016B017C010E94F50B8401A40135
:103140006A2D7B2D88E090E00E94623594014A2D23
:103150005B2DB601C70100E20E949B34622F84E21E
:1031600090E00E945035CDB7DEB7ECE00C946B34A4
:10317000A7E0B0E0EEEBF8E10C944934582E262E8F
:10318000442E2F839091FF0390FF4DC0E92FE695C9
:10319000E695AE2FB0E0A457BD4F8C9180935A03B3
:1031A0009C7F943009F043C09E012F5F3F4F852DD7
:1031B0000E94040C4B8169818A810E945B125092AB
:1031C000000420920104409202048F81882309F4B4
:1031D00091C02091FF036091030470910404352D88
:1031E000422D542D80910504909106040E9492185E
:1031F0008091200480FF17C0809102041F928F935A
:10320000809101041F928F93809100041F928F93ED
:1032100080EC97E09F938F930E9455090FB6F89426
:10322000DEBF0FBECDBF2796E2E10C94653482303D
:1032300019F440900204C3CF863019F45090000472
:10324000BECF8930D9F3893109F0B9CFE9518E2F3A
:1032500081708D838E2F809581708E83E695F0E04E
:10326000E45FF74F94919C83692E712C8FE5E82ED3
:1032700083E0F82ED12CC12C10E000E094E1892EDF
:10328000912C25EEA22E27E0B22EC601B4010E9499
:1032900005348D81352C81112BC0360E8091200490
:1032A00080FF13C01F929C819F931F928E818F93EA
:1032B0001F923F921F930F93BF92AF920E945509A6
:1032C0000FB6F894DEBF0FBECDBF9701442D622D1F
:1032D000832D0E94040C0F5F1F4FC60CD71C93E078
:1032E000E90EF11C0431110581F60E94971067CF99
:1032F000361AD4CF8091200480FF95CF1F924F9231
:103300001F922F921F925F9289E997E083CFEFEF90
:10331000F3E0438121E1421B08F440E021E06281B7
:1033200081810E94B8180895EFEFF3E0438121E115
:10333000420F08F44FEF21E0628181810E94B818AA
:103340000895EFEFF3E0628121E1621B08F460E091
:1033500021E0438181810E94B8180895EFEFF3E0E6
:10336000628121E1620F08F46FEF21E043818181E6
:103370000E94B8180895EFEFF3E0818121E04381C6
:1033800062818A500E94B8180895EFEFF3E08181BE
:1033900021E043816281865F0E94B8180895809180
:1033A0000304882319F08150809303042091FF03C4
:1033B0003091000440910104509102046091030493
:1033C0007091040480910504909106040E94921863
:1033D000089580910304833018F48F5F8093030471
:1033E0002091FF03309100044091010450910204A8
:1033F0006091030470910404809105049091060487
:103400000E94921808959091FF0390FF4AC0937014
:10341000811148C094609093FF032091FF036623BD
:1034200009F448C030910004409101045091020415
:103430006091030470910404809105049091060446
:103440000E9492188091200480FF10C08091FF0399
:10345000869586951F928F938AE097E09F938F932E
:103460000E9455090F900F900F900F906091FF03ED
:103470006695669570E04BE050E08EE091E00E942A
:103480001235892B11F10E94321681E08093570387
:1034900020E04091020460910104809100040E94A8
:1034A000B81808958B3210F0986AB5CF880F880F3E
:1034B000982BB1CF8091200480FFD8CF26952695F8
:1034C0001F922F938CEE96E0C9CF0E946F18DDCF2C
:1034D0008091FF0381608093FF038091200480FF2F
:1034E0000DC01F9281E08F9386E297E09F938F93A8
:1034F0000E9455090F900F900F900F908091FF033D
:1035000060E0869586950E94031A08958091FF03D6
:1035100086958695815009F48AE261E00E94031A3B
:1035200008958091FF03869586958F5F8B3208F012
:1035300081E061E00E94031A08959091FF0390FFDB
:1035400009C096959695981728F0961718F40E943A
:10355000911A089561E00E94031A0895EFEFF3E0D5
:1035600085E0808311828FEF82838383148275814B
:1035700025E030E04FEF5FEF60E0868197810E94A9
:1035800092180895CF93C82F8091220482FB992727
:1035900090F99C17F9F0C0FB82F9809322046091A6
:1035A00021047091220484E090E00E946E3582E054
:1035B0000E94930F8091200480FF0CC01F92CF9334
:1035C00089E693E09F938F930E9455090F900F9087
:1035D0000F900F90CF9108950F931F93CF93DF9388
:1035E00080912201882309F464C08091210487FF1F
:1035F00060C00E94C70E8093D70240E250E06EE0A8
:1036000073E086ED92E00E941F35892B09F44CC0CF
:1036100080E2E6EDF2E0AEE0B3E001900D928A9533
:10362000E1F7E0911C04F0911D043097E9F186E088
:103630008093D6020480F581E02D86ED92E0099515
:103640008091200482FF30C080FF0EC08091D7029D
:103650001F928F9386E893E09F938F930E94550962
:103660000F900F900F900F90C6EDD2E000E813E09E
:103670008091200480FF0BC08A811F928F931F933B
:103680000F930E9455090F900F900F900F90219665
:1036900082E0C43FD80761F78091200480FF04C016
:1036A0008EE793E00E94BC08DF91CF911F910F91AC
:1036B00008950E94C70E8093CE0248E050E06EE26B
:1036C00073E08EEC92E00E941F35892B69F388E04D
:1036D000EEECF2E0AEE2B3E001900D928A95E1F7F4
:1036E000E0911C04F0911D043097F1F20280F38107
:1036F000E02D8EEC92E009958091200482FFD4CFDA
:1037000080FF0EC08091CE021F928F9383EA93E0D8
:103710009F938F930E9455090F900F900F900F90D9
:10372000CEECD2E00DE913E08091200480FF0BC0C5
:103730008A811F928F931F930F930E9455090F90B8
:103740000F900F900F90219682E0C43DD80761F74B
:103750008091200480FFA8CF8BE993E0A3CF109243
:10376000360380912201882339F18091210487FF5B
:1037700023C0E8EDF2E08EE1DF011D928A95E9F7C2
:1037800090E080E00E94370B90E080E00E94120BF6
:1037900010920D030E94EC1A86E0E4E1F4E0DF01F0
:1037A0001D928A95E9F710920F0410920D04109261
:1037B0000E040E9462130895E0EDF2E086E0DCCF93
:1037C000AAE2B0E0E6EEFBE10C9458348AE394E020
:1037D0002091F100DC012D93CD01B4E082349B07F0
:1037E000B9F780913B04833009F472C0B8F481309A
:1037F00009F449C0823009F4B3C08091E80083FF26
:1038000091C280913A0490913B049A3008F08AC2A8
:10381000E92FF0E0E751FA4C0C942D348A3009F48A
:103820008EC08B3009F471C0893039F780913A0429
:10383000813219F780913E0490913F04009711F076
:103840000297D9F68091E800877F8093E800809105
:10385000E80082FF38C09091F3008091F200029757
:1038600031F48091F100813011F0863021F48091A3
:10387000F10080932D048091E8008B778093E8001D
:103880000E94CD09BACF80913A04813A09F0B5CFB0
:103890008091E800877F8093E80080913E049091BA
:1038A0003F04892B61F468E08EE294E070E00E94AE
:1038B000790A8091E8008B778093E8009ECF60E0E2
:1038C00090E080E0F3CF809138048111C0CF95CF94
:1038D00080913A04813A09F090CF80913E04909112
:1038E0003F04892B09F089CF8091E800877F80937E
:1038F000E8008091E80080FFFCCF80912201809356
:10390000F1008091E8008E77B9CF80913A0481323E
:1039100009F073CF80913E0490913F04892B09F008
:103920006CCF8091E800877F8093E8000E94CD09EA
:1039300080913C04809322010E94AF1B5ECF809156
:103940003A04813209F059CF8091E800877F809353
:10395000E8000E94CD0980913D0480932C044DCF56
:1039600080913A04813A09F048CF8091E800877F3E
:103970008093E8008091E80080FFFCCF80912C04C8
:10398000BECF803899F0823809F0CCC180913E04D6
:103990008F70873008F0C6C18093E9008091EB00FA
:1039A00085FB882780F91092E90006C080913604D3
:1039B00090913704911182609091E800977F9093E5
:1039C000E8008093F1001092F1008091E8008E777A
:1039D000A5C1882309F493C1823009F0A3C1809165
:1039E0003C04811196C180913E048F702FEF280F07
:1039F000263008F097C18093E9002091EB0020FF6A
:103A000088C1933031F48091EB0080628093EB00A9
:103A100080C19091EB0090619093EB0021E030E049
:103A200001C0220F8A95EAF72093EA001092EA007B
:103A30008091EB008860EACF811174C110913C0441
:103A40001F778091E3008078812B8093E300809141
:103A5000E800877F8093E8000E94CD098091E8000C
:103A600080FFFCCF8091E30080688093E30082E0D8
:103A7000111183E08093380455C18058823008F0DA
:103A800051C120913C0430913D042C3DE3E03E07C0
:103A9000A1F583E08A838AE289834FB7F894DE0137
:103AA000139620E03EE051E2E32FF0E05093570000
:103AB000E49120FF03C0E295EF703F5FEF708E2F1F
:103AC00090E0EA30C0F0C7968D939D932F5F24312C
:103AD00059F74FBF8091E800877F8093E8006AE242
:103AE00070E0CE0101960E94790A8091E8008B7700
:103AF0008093E80017C1C096E7CF80913E04909173
:103B00003F04432F55274330510509F44AC078F547
:103B10004130510509F47AC08BE790E0EAE6F0E124
:103B20004230510509F0FEC02091E800277F209324
:103B3000E80020914004309141048217930708F473
:103B40009C0140E02115310509F065C0411163C0B9
:103B50008091E80082FDC9CF80913804882329F242
:103B6000853019F28091E80083FFF2CFBECF413259
:103B7000510509F43CC04232510509F0D3C08430EC
:103B8000910508F0CFC0FC01EE0FFF1FE554FD4F7B
:103B90000190F081E02D89549D4FDC018C9190E0E3
:103BA0001AC0332721303105D1F02115310561F0DC
:103BB0002230310509F0B6C0E7EFF0E1E4918E2F35
:103BC00090E0E7EFF0E107C0EDE1F1E1E4918E2F45
:103BD00090E0EDE1F1E1009709F4A4C0A5CFEFE09A
:103BE000F1E1E4918E2F90E0EFE0F1E1F4CF843049
:103BF000910508F097C0880F991FFC01ED53FD4F08
:103C00000190F081E02D89E090E08ECF82E190E09C
:103C1000E5EEF0E189CF80913804882309F465CF7F
:103C2000853009F462CF8091E80083FD5ECF8091FA
:103C3000E80082FD8DCF8091E80080FF83CF9091D6
:103C4000F3008091F2002115310519F088309105BB
:103C500050F041E0089709F040E08091E8008E774D
:103C60008093E8006FCF44914093F100319621504A
:103C700031090196E8CF803809F054C08091E800FE
:103C8000877F8093E800809139048093F1009DCE76
:103C9000811148C010913C04123008F043C080915B
:103CA000E800877F8093E800109339040E94CD09D3
:103CB000112311F084E005C08091E30087FDFACF65
:103CC00081E08093380442E061EC81E00E94EC09DD
:103CD00042E261EC84E00E94EC0942E261EC82E0A5
:103CE0000E94EC0942E260EC83E00E94EC0942E2AF
:103CF00061EC85E00E94EC098091380413C080914A
:103D00003C04813079F481E0933009F080E08093C5
:103D100037041092E9008091E800877F8093E800E3
:103D20000E94CD098091E80083FF0AC08091E800DD
:103D3000877F8093E8008091EB0080628093EB00A6
:103D4000AA96E3E00C947434CF93C82F1F928F93FC
:103D500083E59FE09F938F930E94550981E001C006
:103D6000880FCA95EAF70E94B60F0E94AF1B0F900A
:103D70000F900F900F90CF9108950E94AF1B2FEFDF
:103D800084E39CE0215080409040E1F700C00000B7
:103D900088E19AE00FB6F894A895809360000FBE72
:103DA00090936000FFCF882321F00E94C00E0E94F4
:103DB000EC1A0895882339F090913603982B90934C
:103DC00036030E94EC1A0895882381F19CEF980F26
:103DD000913A28F40E94E1120E94EC1A089590E2B0
:103DE000980F983050F4877091E001C0990F8A9530
:103DF000EAF7892F0E94C00EEFCF9BE5980F933012
:103E000028F490E080E00E94370B089598E5980F21
:103E10009B3128F490E080E00E94120B089593E318
:103E2000980F933118F460E00E940B140895A6E0F7
:103E3000B0E0EDE1FFE10C9450348E010F5F1F4FB5
:103E400086E0F80111928A95E9F781E8C82E82E0B0
:103E5000D82EF12CE12CAA24A394B12CF601819147
:103E60006F018F3F09F443C0F894E82FE295EF709B
:103E7000F0E021A18F70A50102C0440F551F8A9563
:103E8000E2F7CA01922F982B91A392A180958923E2
:103E900082A3789400C0E7E8F2E0912C31E0219110
:103EA0002F3F09F44CC0A22FA295AF70B0E09096BE
:103EB0008C9190E02F7002C0959587952A95E2F736
:103EC00080FD3DC0832F982A330F52E0EC38F50770
:103ED00031F7F601319780818F3F11F00E949A0CE3
:103EE00080EA8A95F1F7F801EE0DFF1D9082EFEF61
:103EF000EE1AFE0AF6E0EF16F10409F0AFCF46E045
:103F000050E0B8018DE393E00E941F35892BD9F072
:103F100086E0F801ADE3B3E001900D928A95E1F7F8
:103F200081E080933C030E94060B90933B038093B7
:103F30003A0310E0812F2696EBE00C946C3480E07D
:103F4000C2CF10E01FC010913C03112391F3809168
:103F50003A0390913B030E94EB0A059750F346E029
:103F600050E06DE373E08EE493E00E941F35892BEF
:103F700041F386E0EDE3F3E0AEE4B3E001900D92AF
:103F80008A95E1F710923C03D5CFA8E0B0E0EBECC6
:103F9000FFE10C94593466EE7EEF90E080E00E94E1
:103FA0006E3560E082E090E00E94503581E08093C1
:103FB000370361E083E090E00E94503560E074E1F7
:103FC00084E090E00E946E3560E086E090E00E9420
:103FD00050356FEF87E090E00E94503540E050E0B0
:103FE000BA0188E090E00E94623560E084E290E0EF
:103FF0000E94503560E087E190E00E94503560E01B
:104000008CE090E00E94503560E08DE090E00E94EE
:10401000503519821A821B821C821D821E821F82C9
:10402000188648E050E068E170E0CE0101960E94F9
:10403000403540E050E0BA0180E290E00E946235F5
:1040400080E00E945B160E94E31640E050E0BA0157
:104050008FE090E00E94623540E050E0BA0183E1D9
:1040600090E00E9462352896E2E00C947534B0E04E
:10407000A0E0EDE3F0E20C945434EBEFE80FEF3303
:1040800008F04EC1F0E0ED50FA4C0C942D3483E072
:1040900090E00E942C351F928F938BE89AE09F93BB
:1040A0008F930E94550982E090E00E942C3583FB9B
:1040B000992790F91F929F9382FB992790F91F925D
:1040C0009F9381FB992790F91F929F93982F91704E
:1040D0001F929F931F928F9382E49AE09F938F93F6
:1040E0000E94550984E090E00E943A3593FB222714
:1040F00020F91F922F9387FB222720F91F922F93DD
:1041000086FB222720F91F922F9385FB222720F977
:104110001F922F9384FB222720F91F922F9383FB5A
:10412000222720F91F922F9382FB222720F91F922A
:104130002F9391FB222720F91F922F93292F217073
:104140001F922F9381FB222720F91F922F93282F54
:1041500021701F922F939F938F9383E499E09F93F5
:104160008F930E9455098DB79EB78A960FB6F89423
:104170009EBF0FBE8DBF81E01CC08EEA9DE00E94F5
:10418000BC080E94C51FF7CF88EA9AE00E94BC08CD
:10419000F2CF80912004807F809320048DE59CE005
:1041A0000E94BC088AEA9DE00E94BC0881E08093DE
:1041B0000704CDB7DEB7E7E00C9470348EE89DE0DD
:1041C0000E94BC080E94AF1B9FEF24E38CE091503B
:1041D00020408040E1F700C000000E94DA0A909180
:1041E0002004892F8E7F90FF81608093200480FFC0
:1041F00003C082E89DE0CACF85E79DE00E94BC082D
:1042000080912004817F80932004B5CF9091200479
:10421000892F8D7F91FF82608093200481FF08C0E9
:1042200088E69DE00E94BC08809120048160EBCF6D
:104230008AE59DE0ABCF90912004892F8B7F92FF80
:1042400084608093200482FF03C08BE49DE0EACF6A
:104250008BE39DE09BCF90912004892F877F93FF74
:1042600088608093200483FF03C08FE29DE0DACF53
:1042700082E29DE08BCF80E891E09F938F9384E86A
:104280009CE09F938F930E9455090F900F900F9081
:104290000F9071CF0E94FA0A062FF72EE82ED92E22
:1042A000C0912104C7FBCC27C0F910912C04D091F8
:1042B00022010E945C0BDF92EF92FF920F931F92FC
:1042C000CF931F921F931F92DF931F928F9387E8C4
:1042D0009CE09F938F930E9455098DB79EB70E96D1
:1042E0000FB6F8949EBF0FBE8DBF45CF0E94AF1B87
:1042F00090912104892F97FB87F98058809321049E
:1043000087FF03C088E19DE041CF8DE09DE03ECF77
:1043100080E00E94A41E2FCF8953FBCF8D51F9CF8F
:104320008BE09DE00E94BC0880E043CFCF93C82F74
:10433000882309F46DC08CEF8C0F813A08F07AC0A5
:10434000809107048130B9F1882359F1823009F452
:104350005CC01092070480912201882309F45AC09E
:104360008091210487FF56C0EC2FE695E695E695EF
:10437000F0E0EA52FD4F828190E04C2F477021E03F
:1043800030E002C0220F331F4A95E2F782239323C5
:10439000892B09F449C08C2F0E94E1120E94EC1A6B
:1043A00043C0809136038232B1F68C2F0E943720B1
:1043B00081112EC0D0CF809136038232B1F3C43147
:1043C000C9F048F4CB3059F0C031C1F083E693E036
:1043D0000E94BC0811C0C93269F0C833B9F78DE535
:1043E0009CE00E94BC0885E693E00E94BC0881E046
:1043F0008170DECF1092070480E0FACF82E08093D4
:10440000070488E30E941615F2CF8C2F0E94161520
:10441000CF910895E0EDF2E08191C81709F4BBCF88
:1044200082E0E63DF807C1F78C2F0E941D130E9421
:10443000EC1AEECF80E28C0F883068F4C77021E070
:1044400030E001C0220FCA95EAF780913603822B33
:1044500080933603ECCFEBE5EC0FE33040F4F0E073
:10446000E85BFD4F808190E00E94370BD1CFE8E5FB
:10447000EC0FEB3150F4F0E0EE0FFF1FE55BFD4F6A
:10448000808191810E94120BC3CF83E38C0F833113
:1044900008F0BECF61E08C2F0E940B14B9CF1F93A0
:1044A000CF93DF93182FD0E0C0E0893311F4C0E53B
:1044B000D0E0812F0E949621209739F4812F0E940D
:1044C000E41EDF91CF911F9108958FE99FE001973E
:1044D000F1F700C000002197EFCF0F931F93CF9308
:1044E000DF93C62FD42F022FFC0185818823A9F0EA
:1044F00060937E040E94060B90937D0480937C045D
:10450000C77081E001C0880FCA95EAF70E94DA1EE1
:10451000DF91CF911F910F91089580917E046813D0
:1045200032C080917C0490917D040E94EB0A883C0B
:10453000910548F510E21D0FCD17B9F080E28C0F00
:10454000883040F4C77081E001C0880FCA95EAF74F
:104550000E94D31E183048F481E09D2F977001C04F
:10456000880F9A95EAF70E94DA1E802F0E944F2248
:10457000183070F6D77081E001C0880FDA95EAF73D
:104580000E94D31EC5CFC77081E001C0880FCA95B5
:10459000EAF7F6CFA8E0B0E0E0EDF2E20C944B349D
:1045A0008C01DC0114968C911497882309F4B7C010
:1045B00021E04C9111965C91119712966C91129793
:1045C00013967C91139715969C910E94A8177C01D5
:1045D000F8018581882309F43BC1C70197578038CA
:1045E000910508F0E4C5FFE0FE1508F489C08FEFDF
:1045F00093E00E942C35811183C069E1A62EBB2473
:10460000B394E11047C0FE01339686E0DF011D92AE
:104610008A95E9F75AE0452E7501BFEFEB1AFB0AC0
:10462000C5010E942C3589831A82882309F468C049
:10463000813009F078C06501E2E0CE0ED11CC701DF
:104640000E942C358A83882309F45AC09FEF980F63
:10465000933070F5F3E0AF0EB11CC6010E942C350B
:104660008B83882309F44CC01C82DE0111967D01E6
:10467000F7012081222381F2213009F094C0918139
:104680008281913009F051C0F2E0EF0EF11C0E94DE
:104690004F2252C0A11424E0B20691F1C5010E943C
:1046A0002C35811101C0EA943FEFA31AB30AA9CFB8
:1046B00056018430D1F642E0E42EF12C56012FEF62
:1046C000A21AB20AC6010E942C35E1E0F0E0EC0F1C
:1046D000FD1FEE0DFF1D8083882391F08C3741F480
:1046E000E2E0F0E0EC0FFD1FEE0DFF1D1082BDCFEC
:1046F0003FEFE31AF30A650187E0E816F104F1F6EB
:1047000080910B03877059F0F8018581882339F077
:104710008091220482FF03C082E00E94930F2896BA
:10472000E0E10C9467345701A0CF923049F422E0C5
:10473000E20EF11C0E949621EFEFEE1AFE0A98CFCE
:10474000933031F432E0E30EF11C0E94E41EF4CF0A
:10475000943021F08FEFE81AF80AEECF92E0E90EDC
:10476000F11C30E020E0B7016F5F7F4FD701119659
:104770004C918053990B8A30910550F021503109AA
:10478000D8F2EFE9FFE03197F1F700C00000F6CF73
:10479000429EF001439EF00D11249C012E0F3F1FFD
:1047A000842F7B01E0CFE22FF0E0E65EFD4F5490D6
:1047B000822F86958695869590E0FC01E65FFD4FF9
:1047C00064902770712C022E02C0759467940A942D
:1047D000E2F731E063227724FC01E650FE4F84903B
:1047E000912C022E02C0959487940A94E2F7A1E0DE
:1047F0008A229924FC01E651FE4FC490D12C02C0BC
:10480000D594C7942A95E2F7B1E0CB22DD24611458
:10481000710419F081EE0E9496218114910419F01F
:1048200086EE0E949621852D0E944F2281149104CC
:1048300019F086EE0E94E41E6114710419F081EEF5
:104840000E94E41EC114D10409F476CF8CE21FCF7C
:10485000F701E851FC47E730F10508F094C4EE5C3D
:10486000F94C0C942D3426E241EE61EEC8010E9411
:104870006D2246CF27E245EE65EEF8CF26E241EE07
:1048800060EEF4CF27E245EE64EEF0CF26E241EE93
:1048900062EEECCF27E245EE66EEE8CF28E241E09B
:1048A000EBCF8091210481608093210495C0809199
:1048B00022048860809322048FC08091210482604A
:1048C000F3CF809121048460EFCF80912104886030
:1048D000EBCF809122048160EDCF80912204826031
:1048E000E9CF809121048061DFCF80912104806233
:1048F000DBCF809121048064D7CF0E94AF1B8091D1
:1049000021048068D1CF809121048C60CDCF80912B
:1049100022048360CFCF809121048E7FC5CF809108
:104920002204877FC7CF809121048D7FBDCF8091E6
:1049300021048B7FB9CF80912104877FB5CF8091EF
:1049400022048E7FB7CF809122048D7FB3CF8091D8
:1049500021048F7EA9CF809121048F7DA5CF8091E6
:1049600021048F7BA1CF0E94AF1B809121048F7700
:104970009BCF80912104837F97CF809122048C7FED
:1049800099CF8091210482FB992790F921E0922709
:1049900090FB82F990FB83F987CF80912204982FB6
:1049A000909591708E7F892B90FB81F983CF9091A8
:1049B0002104892F8F7B96FF806476CF0E94AF1BE6
:1049C00090912104892F97FB87F980586DCF61E082
:1049D0008EE090E00E945035609121047091220495
:1049E00084E090E00E946E350E94AF1B89CE60E0AB
:1049F000EFCF90912104892F8F7E94FF806154CF57
:104A000090912104892F8E7F90FF81604DCF9091EE
:104A10002204892F877F93FF88604CCF85E3AEC344
:104A20008091F602811104C089E20E94E112A8C3BC
:104A300085E3FBCFF7E7EF16FCE7FF0609F064C359
:104A400081E00E94AA0F43E062E081E00E94660FCD
:104A500057CE8091200480FF10C08091FF03809585
:104A600081701F928F9389E093E09F938F930E94B0
:104A700055090F900F900F900F902091FF0320FF8A
:104A80002BC02E7F2093FF0330910004409101043E
:104A90005091020460910304709104048091050414
:104AA000909106040E9492188091200480FF0FC00C
:104AB0008091FF0381701F928F938AE992E09F9308
:104AC0008F930E9455090F900F900F900F900E94A6
:104AD00032160E94971014CE21602093FF0380911C
:104AE000200480FF0DC01F9281E08F9382ED92E041
:104AF0009F938F930E9455090F900F900F900F90E6
:104B00008091FF0361E0869586950E94031AF8CD97
:104B100046E85AE161E97AE10E94EE0BF1CD41E904
:104B20005AE166E87AE1F8CF4BEB59E165EC79E1BF
:104B3000F3CF45EC59E16BEB79E1EECF41EA59E176
:104B40006EEA79E1E9CF4EEA59E161EA79E1E4CF31
:104B500047E859E164E979E1DFCF44E959E167E8E1
:104B600079E1DACF4FEC59E169EE79E1D5CF49EE41
:104B700059E16FEC79E1D0CF61E081E0C6CF65E02B
:104B800082E00E949D1ABCCD68E086E0FACF6EE01C
:104B900089E0F7CF64E18FE0F4CF67E185E1F1CF01
:104BA00061E088E1B2CF62E289E1EBCF61E083E2CC
:104BB000ACCF6AE285E2E5CF27E7E2162CE7F20602
:104BC00009F459C038E7E3163CE7F30609F457C087
:104BD000D80115968C911597ED90FC90882309F4D7
:104BE00088C0C7010E944917D82E682FC7010E94AC
:104BF0002C0FB7018D2D0E943B170E94A20D7C0146
:104C0000882EF801A580968092943FE093228091AF
:104C10000B03877009F1CA2CAA20F9F08F2D807F31
:104C2000803469F080E28E0D8830B0F08F2D807E68
:104C3000803229F4F1E0FE1578F4992069F0809132
:104C4000220482FF09C082E00E94930F80910B032F
:104C50008770CC24C3948111C12CBF2CB2942FE057
:104C6000B2222BE02B1508F4ACC0EB2DF0E0E75C92
:104C7000F94C0C942D3481E00E94860FE4CE82E042
:104C8000FBCFFBE5EF16FCE7FF0689F12CE5E2160A
:104C90002CE7F20611F13AE5E3163CE7F30609F0DA
:104CA00097CF81E021C090912004892F8E7F90FFC3
:104CB00081608093200480FF05C082E593E00E941C
:104CC000BC081ECD80E493E0FACF6FEF7FEF90E059
:104CD00080E00E946E350E94BD1E8091220482FBFE
:104CE000882780F991E089270E94C21A71CF80E05D
:104CF000FBCFC7010E94F80ED82E7BCF3F2D3F700F
:104D0000D32E8F2D807F19F0D29490EFD922AA2034
:104D1000B9F0DD2069F080E28E0D883010F081104E
:104D200009C080913603D82AD09236030E94EC1A2B
:104D30008E2D45C080910D03D82AD0920D03F6CF59
:104D40008E2D0E94E41EDD20E1F180E28E0D883080
:104D500010F0811004C08D2D0E94C00E06C0D094AA
:104D600080910D03D822D0920D030E94EC1A29C025
:104D70008F2D8F70D82E8F2D807F803219F0D29496
:104D800080EFD822882059F091E0891609F481C07B
:104D9000AA2009F48DC0992009F44FC0C9CF809191
:104DA000220482FD46C0AA20F1F1DD2039F0809175
:104DB0003603D82AD09236030E94EC1A80E00E9473
:104DC0009621AB2DA850BB0B149710F40E945C0BDE
:104DD000CC20A9F080910B0380FD11C0F801158251
:104DE0008695869586950E94AA0FC8010E94CA22C0
:104DF00080910B038695869586950E94860F20E00C
:104E0000D8014C9111965C91119712966C91129762
:104E100013967C91139714968C91149715969C91E8
:104E20000E94A8177CCC80E00E94E41EDD2049F29D
:104E300092CFAA20A1F0911004C08D2D0E94DA1EFD
:104E4000C0CFA1E09A12BDCF80910C039D2D982375
:104E5000D91609F4B6CFD82AD0920C03B2CF91104C
:104E6000B0CF8D2D0E94D31E90910C038D2D8923E0
:104E700029F08D2D8095892380930C038091F70272
:104E80009D2D982309F49DCFD094D822D092F7027B
:104E900098CFAA2029F0B5E0B91508F492CFCDCF6C
:104EA000E4E0E91508F48DCF8D2D0E94D31E89CF43
:104EB0009920D1F3F9E38F1209C02FEF37EE83E089
:104EC000215030408040E1F700C000008E2D0E944C
:104ED000E41E77CF8F2D86958695837061F08130A3
:104EE00009F06FCFC7019370A11002C080E090E07D
:104EF0000E94120B66CFC7019370A11002C080E020
:104F000090E00E94370B5DCF6A2D8E2D0E940B140E
:104F100058CF8F2D837091F5A11053CF4E2D429510
:104F200046954770440F440F8E2D8F70042E01C09C
:104F3000880F0A94EAF72E2D2071E4FE07C02FE0B7
:104F400030E001C0220F4A95EAF720953F2D3695B3
:104F500036953370323069F050F440913703313078
:104F600029F0822B84230E94B60F2BCF842B822B17
:104F7000FACF282B809137038227F5CF8695AA2078
:104F800011F08F2D8170882309F41BCF4E2D42958F
:104F900046954770440F440F8E2D8F70042E01C02C
:104FA000880F0A94EAF72E2D2071E4FE07C02FE047
:104FB00030E001C0220F4A95EAF720953F2D369543
:104FC00036953370323069F050F4409143033130FC
:104FD00029F0822B84230E94630FF3CE842B822B33
:104FE000FACF282B809143038227F5CF9F2D9F7006
:104FF000F92EAA2029F0892F0E94AA0F8E2D1ECFEC
:105000008E2D0E94D31E8F2D0E94860FDACE8E2DFC
:10501000A2EF8A16B1F1A81570F0B0EF8B16D1F09F
:10502000E1EF8E1691F0AA2009F45EC0911080CEB7
:105030008F2D8F712AC0F3EF8F1651F124EF82125A
:10504000F2CF8091220482FD2FC08F2D8F71AA2074
:10505000D9F21BC0AA2081F034E0391508F4B1CE92
:105060002F2D2F7181E090E001C0880F2A95EAF77B
:10507000909143038927AFCF85E0891508F4A1CE2D
:10508000EFCF8F2D8F71A110BFCF0E94AA0F99CEA5
:1050900080E0AA2009F49FCF9F2D9F7181E001C07D
:1050A000880F9A95EAF797CFAA2099F09F2D9F71C4
:1050B000F92E892F0E94AA0F8091220482FF07C037
:1050C000A8E0FA9EC0011124836080930B038F2D0A
:1050D000DCCF81E00E94930FB1E0B91508F071CEEA
:1050E00082E00E94930F6DCE992059F0893309F028
:1050F000EDCEEFEFF7EE23E0E150F0402040E1F796
:10510000E3CE8F2D8F7180CF82E0B8E7EB16BCE73E
:10511000FB0609F496CC83E0E8168CE7F80609F460
:10512000D4CD08F0AECDA1E0EA16ACE7FA0609F45A
:10513000D2CD08F0B8CDE114ECE7FE0609F048CD79
:105140000E94AF1B8FEF94E3ACE081509040A040F1
:10515000E1F700C000000E94DA0AE6E1EE16ECE793
:10516000FE0609F067CC809136038A7A91E009F453
:1051700090E09093F602811151CC89E20E941D13B8
:105180000E94EC1ABDCAF6E1EF16FCE7FF0609F42F
:1051900047CC809136038272F701E052F847E5313F
:1051A000F10508F009CDEB5BF94C0C942D34F701B7
:1051B000E851FC47E730F10508F451CB10927E042A
:1051C000C7019057839748F684E090E00E943A35F3
:1051D0009093220480932104F701E150F047E232DA
:1051E000F10508F05ECBE65AF94C0C942D34CF93C0
:1051F000DF9380910A03807F09F04DC080910903FD
:10520000882309F448C0E0917B0450914204C09186
:105210000503D0910403609106037091070347E0F2
:105220005E17C9F18E2F90E0E49FF0011124ED5B31
:10523000FB4F2481222391F1489FF001499FF00DFB
:105240001124DF01AD5BBB4F11962C9111972C13EC
:1052500025C02C912D1322C015962C911597211144
:105260001DC012962D913C91261B370B283C310511
:10527000A8F480910A038F70806180930A03E75B32
:10528000FB4F80818F708061808384E093E00E9477
:10529000CA220E94EE0EDF91CF910895FC01319653
:1052A000E770BECFA4E1B0E0E8E5F9E20C944F343A
:1052B0008C0186E0F801DE011F9601900D928A951F
:1052C000E1F7F8018481E58094E0A92E93E0B92EFE
:1052D00090910803911128C0882319F1EE20F1F074
:1052E000C8010E948517F82E8823C1F087E0F801D5
:1052F000D50101900D928A95E1F7809108038130E4
:1053000031F480910403909105030E9478170E9464
:10531000F7288F2D6496ECE00C946B34C8010E9442
:10532000CA22FF24F394F5CFD080C180828093807D
:10533000F09009032091060330910703A401421B5A
:10534000530BFF2009F4D9C0483C510508F092C026
:105350008823F9F29091050380910A03282F207F7A
:1053600009F056C0C91214C090910403D91210C09C
:10537000E11048C08F70806180930A0384E093E05D
:105380000E94CA2280910A03F8018683F12CC1CFC2
:10539000E11038C06C2D8D2D0E945E096C2D8D2D75
:1053A0000E945E09E82E8111F1CFDF86C88A8F85C1
:1053B00098890E947817292F22952F70243058F44D
:1053C0009F70223088F0992399F0F8019681907FA0
:1053D00079F4FE2C9ECF2A5F2F70223068F0C8012E
:1053E0000E94CA22EF2CF5CF992311F0882389F36C
:1053F000805E883070F3F3CF803F58F3815F833055
:1054000070F7E7CF80910A03816080930A03BECFD3
:10541000C91207C090910403D91203C0EE2009F409
:105420008DC0C8010E948517882309F477CFEE202C
:1054300009F474CF80910A03803288F0209104032C
:1054400030910503398728879B868A8690910803C7
:105450009C871D868E87CE0108960E94CA2287E00F
:10546000F801A4E0B3E001900D928A95E1F70E9463
:10547000F72857CF90910A03292F207F51F484E019
:1054800093E00E94CA2287E0F50111928A95E9F71C
:105490007DCF882309F43DCF809105038C1110C086
:1054A00080910403D8120CC0E1100AC09683C80191
:1054B0000E94CA2287E0F50111928A95E9F729CF67
:1054C000C8010E948517882309F428CFEE2009F42B
:1054D00025CF80910A03803210F22091040330918D
:1054E00005033A8329839C828B82909108039D83D4
:1054F0001E828F83CE010196B0CF483C5105D0F675
:10550000882309F40ECFFE2CEE2009F407CF8091FA
:1055100005038C1120C080910403D8121CC0809117
:105520000A0380FD0FC0982F907F61F08683903F23
:1055300031F0982F907F905F8F70892B8683C80100
:105540000E94CA2287E0F801A4E0B3E001900D9226
:105550008A95E1F7DECEC8010E94851781117FCFC1
:1055600080910A03816080930A03C8010E94CA22C5
:10557000D0CEABE1B0E0EFEBFAE20C9457344E8BB7
:105580005F8B688F798F8A8F9B8F192F9111109263
:105590000D031D8A86E0FE017696DE011F960190BE
:1055A0000D928A95E1F70A8D002341F021E04F85A5
:1055B000588969897A89C8010E94A8170B8B1C8BAE
:1055C00087E0FE013F96DE01189601900D928A95C4
:1055D000E1F7CE0108960E94522981110CC087E0A4
:1055E000FE013896DE01119601900D928A95E1F741
:1055F0008C8581110BC017E080917B04909142044F
:10560000891331C06B96E4E00C947334209142040A
:1056100030E0C90101968770992740917B044817B3
:10562000190699F097E0929FD001939FB00D112435
:10563000AD5BBB4FFE01319601900D929A95E1F75B
:10564000809342040E94EE0ED6CF0E94AF1B1092B0
:10565000420410927B0487E0E4E0F3E0DF011D9256
:105660008A95E9F7C8CF819FC00111248D5B9B4FBC
:105670000E945229882331F280917B0490E00196A8
:105680008770992780937B04B7CFA6E0B0E0EBE466
:10569000FBE20C9457340E94060B8C018091380376
:1056A000909139038017910781F019821A820E9424
:1056B000060B682F49815A81792F80E090E00E9483
:1056C000B92A10933903009338032696E4E00C942A
:1056D00073341F920F920FB60F9211242F933F93A2
:1056E0004F935F936F937F938F939F93AF93BF93EA
:1056F000CF93DF93EF93FF93D091E900DF70809118
:10570000EC00C82FC17080FDC0E81092E9008091C4
:10571000F000877F8093F00078940E94E01B109245
:10572000E9008091F00088608093F000CD2BCF706D
:10573000C093E900FF91EF91DF91CF91BF91AF91BD
:105740009F918F917F916F915F914F913F912F9199
:105750000F900FBE0F901F9018951F920F920FB6CB
:105760000F9211242F933F934F935F936F937F93E7
:105770008F939F93AF93BF93EF93FF938091E1003B
:1057800082FF15C08091E20082FF11C08091E1008C
:105790008B7F8093E10020912A042F5F822F62E3A8
:1057A0000E94EB33992309F4C0C020932A0480910E
:1057B000DA0080FF28C08091D80080FF24C080914B
:1057C000DA008E7F8093DA008091D90080FFE3C0F9
:1057D00080E189BD82E189BD09B400FEFDCF81E091
:1057E0008093380486E590E10E94BC0880912B04E8
:1057F000811109C00E947D090E941E0A8091E20069
:1058000084608093E2008091E10080FF1BC0809162
:10581000E20080FF17C08091E2008E7F8093E2005B
:105820008091E20080618093E2008091D8008062E4
:105830008093D80019BC85E0809338048EE590E110
:105840000E94BC088091E10084FF2FC08091E2009B
:1058500084FF2BC080E189BD82E189BD89B5982F85
:10586000917080FFFBCF8091D8008F7D8093D8000E
:105870008091E1008F7E8093E1008091E2008F7E35
:105880008093E2008091E20081608093E200809149
:105890003904882309F489C084E08093380482E6BF
:1058A00090E10E94BC08809138048091E10083FF60
:1058B0002BC08091E20083FF27C08091E100877FA9
:1058C0008093E10082E08093380410923904809143
:1058D000E1008E7F8093E1008091E2008E7F8093D3
:1058E000E2008091E20080618093E20042E060E0AB
:1058F00080E00E94EC098091F00088608093F000C5
:1059000086E690E10E94BC08FF91EF91BF91AF91B4
:105910009F918F917F916F915F914F913F912F91C7
:105920000F900FBE0F901F90189510922A0480912F
:105930002904882309F43BCF809138048430C1F4D2
:105940009091E9009F702091EC00822F817020FDE2
:1059500080E8892B95E09093E9009091EB0090FF0F
:1059600004C09091EE0097FD08C08F708093E9000D
:10597000109229041CCF1092F1009091E80095FD3F
:10598000FACF9091E80090FFF0CF9091E8009E77D9
:105990009093E800EACF19BC109238048AE590E1B0
:1059A0000E94BC0810922B042ECF8091E30087FD4B
:1059B00093E09093380473CF78941F921FB61F9290
:1059C00011248F939F93AF93BF9380912404909160
:1059D0002504A0912604B09127040196A11DB11DB4
:1059E0008093240490932504A0932604B093270465
:1059F000BF91AF919F918F911F901FBE1F901895DF
:105A00001F921FB61F9211248F939F93AF93BF9342
:105A100080912304811113C0809124049091250466
:105A2000A0912604B09127044196A11DB11D809339
:105A3000240490932504A0932604B0932704BF91D7
:105A4000AF919F918F911F901FBE1F901895CDB75A
:105A5000DEB7A7970FB6F894DEBF0FBECDBF85B7F0
:105A6000806885BF85B7806885BF84B7877F84BF1E
:105A70000FB6F894A89580916000886180936000CB
:105A8000109260000FBE80E890E00FB6F89480930B
:105A90006100909361000FBE81ED9FE09093CD0275
:105AA0008093CC020E947D090E941E0A8091E20030
:105AB00084608093E2007894809138048823A1F078
:105AC0001091E9001F709091EC00892F817090FD7A
:105AD00080E8182B1092E9008091E80083FD0E9475
