:100000000C94BB010C94F3010C94F3010C94F301D8
:100010000C94F3010C94F3010C94F3010C94F30190
:100020000C94F3010C94F3010C943B150C94F7140D
:100030000C9438160C94F3010C94F3010C94F30116
:100040000C94F3010C94F3010C94F3010C94F30160
:100050000C94F3010C9414160C94F3010C94F3011A
:100060000C94F3010C94F3010C94F3010C94F30140
:100070000C94F3010C94F3010C94F3010C94F30130
:100080000C94F3010C94F3010C94F3010C94F30120
:100090000C94F3010C94F3010C94F3010C94F30110
:1000A0000C94F3010C94F3010C94F3010000000094
:1000B0000000000000000000000000000000000040
:1000C0000000000000000000000000000000000030
:1000D0007E0F00D4FFFFFFC7000000780000000083
:1000E000000000002A2B2800000000000000000093
:1000F0000000000000000029000000002C1E342039
:10010000212224342627252E362D3738271E1F205E
:100110002122232425263333362E37381F040506A3
:100120000708090A0B0C0D0E0F10111213141516E7
:100130001718191A1B1C1D2F3130232D35040506E5
:100140000708090A0B0C0D0E0F10111213141516C7
:100150001718191A1B1C1D2F3130354C29001E0091
:100160001F0020002100220023002400250026007B
:1001700027002D002E002A0035002B0014001A0045
:100180000800150017001C0018000C0012001300D6
:100190002F00300031006100390004001600070014
:1001A00009000A000B000D000E000F0033003400A0
:1001B00028005E000000E1001D001B000600190081
:1001C0000500110010003600370000003800E5007F
:1001D00052005B00E000E300E2002C0000000000A1
:1001E0002C000000E600E7002152E400500051001E
:1001F0004F0035003A003B003C003D003E003F0010
:100200004000410042004300440045002A00350000
:100210002B0014001A000800150017001C0018001D
:100220000C00120013002F00300031006100390073
:1002300004001600070009000A000B000D000E0064
:100240000F003300340028005E000000E100207839
:1002500023782478190005001100100036003700BB
:1002600000003800E50052005B00E000E300E2001F
:100270002C00000000002C000000E600E7002152E6
:10028000E400500051004F000660FF0961A1010920
:1002900062150026FF00952075088102096315008C
:1002A00026FF00952075089102C005010906A101ED
:1002B000050719E029E71500250195087501810258
:1002C0009501750881010507190029FF150026FF12
:1002D00000950675088100050819012905150025F6
:1002E00001950575019102950175039101C00902FF
:1002F0004200020100A0FA0904000001030101000C
:1003000009211101000122440007058103080001B1
:10031000090401000203000000092111010001226B
:1003200022000705820320000107050303200001C6
:100330001201000200000008604560450100010252
:10034000000112034D0041004F00360030002D0027
:1003500035004D0000001A034D0041004F002D00F4
:100360006B006500790062006F006100720064003C
:1003700000000403090411241FBECFEFDAE0DEBF42
:10038000CDBF04B603FE18C08091E1019091E20157
:10039000A091E301B091E4018730904BA740B04BAE
:1003A00059F41092E1011092E2011092E3011092CF
:1003B000E401E0E0F8E3099511E0A0E0B1E0E2E754
:1003C000F5E302C005900D92A032B107D9F721E004
:1003D000A0E2B1E001C01D92A13EB207E1F70E9488
:1003E0005F160C94651A0C940000482F2091D901D7
:1003F0009091A00157E0291302C080E0089530E0F9
:10040000529FF001539FF00D1124EF55FE4F818153
:10041000681306C08081481303C085818111EECF27
:100420002F5F3F4F2770E7CFE8EDF0E080818E7FB0
:1004300080831092E2001092DA001092E100A0EEA8
:10044000B0E08C9181608C9380818F77808319BC20
:10045000A7EDB0E08C918E7F8C9380818F7E80831E
:100460001092890108952091E4003091E50095E60D
:10047000A9012091EC00822F817020FF06C080919D
:10048000E80080FF06C080E008952091E80022FD8A
:100490001AC080919601882389F0853089F0809177
:1004A000EB0085FD0FC02091E4003091E50042177C
:1004B0005307F9F29150E1F684E0089582E008953F
:1004C00083E0089581E008958091980187FF13C02B
:1004D0008091E80082FF06C08091E8008B778093CE
:1004E000E80004C0809196018111F2CF08958091B7
:1004F00096018823D9F38091E80080FFF8CF80919E
:10050000E8008E77ECCF982F9093E900242F762F78
:1005100050E0891731F07091EC002091ED0050917E
:10052000F00021FD07C09F5F973071F78093E900CD
:1005300081E008953091EB003E7F3093EB003091E5
:10054000ED003D7F3093ED003091EB003160309352
:10055000EB007093EC002093ED005093F00020919D
:10056000EE0027FDE0CF80E00895B0E0A0E0EBEBE7
:10057000F2E00C94D919C8EDD0E088818F7E888391
:10058000E7EDF0E080818160808384E082BF81E0DC
:100590008093890188818E7F888302EE10E0F801C4
:1005A00010821092DA0081EEC82ED12CF601108252
:1005B00088818F77888388818068888388818F7D10
:1005C000888319BC109296011092970110929501A0
:1005D0001092940190EEE92EF12CF70180818B7F2F
:1005E000808388818160888342E060E080E00E94AF
:1005F0008302F60180818E7F8083F8018081816093
:100600008083808188608083F70180818E7F8083F2
:10061000888180618883CDB7DEB7E8E00C94F51956
:10062000FC0180919E0190919F0186179707A0F091
:100630006115710529F49091E8009E779093E80088
:1006400090E06115710551F4911108C08091E800A6
:1006500082FF34C080E00895BC01F2CF8091960102
:100660008823C1F18530C1F18091E80083FD30C05D
:100670008091E80082FDEACF8091E80080FFE1CF21
:100680008091F3002091F200382F6115710519F067
:100690002830310558F091E02830310509F090E01C
:1006A0002091E8002E772093E800CBCF81918093B2
:1006B000F100615071092F5F3F4FE7CF80919601A4
:1006C000882341F0853041F08091E80083FFBECF60
:1006D00081E0089582E0089583E0089508950895E3
:1006E000089580918B0108952FB7F8948091DA01D5
:1006F0009091DB01A091DC01B091DD012FBF089545
:100700009C01FC0132969FEF80E04191461751F029
:100710009F3F19F4411101C0982F8F5F8630A9F7D0
:100720009F3F09F40895290F311D97FD3A95F9016E
:1007300062830895E0918601F0918701309729F056
:100740000190F081E02D0995089580E0089580E002
:100750000895F894E82FE295EF70F0E031A1282F8A
:100760002F7081E090E001C0880F2A95EAF7982F5A
:100770009095932391A392A1892B82A378940895B5
:1007800090916E0192FF10C041E0282F2471243017
:1007900009F040E031E0282F2871283009F030E0DE
:1007A000431711F02CE0822793FF10C041E0282F5F
:1007B0002471243109F040E031E0282F28712831DC
:1007C00009F030E0431711F02CE0822730916F01DF
:1007D00030FF10C051E0282F2171213009F050E086
:1007E00041E0282F2871283009F040E0541711F01B
:1007F00029E0822731FF10C041E0282F21712131EB
:1008000009F040E031E0282F2871283109F030E06C
:10081000431711F029E0822794FD877E08958238DE
:100820009105B9F1B0F48133910509F47DC048F424
:100830008932910509F46DC08A32910509F47BC0B3
:1008400008958533910509F45FC08933910509F155
:100850000895833E9105D9F138F4803E910529F140
:10086000823E910579F10895863E9105D9F1873E42
:10087000910509F43EC0843E910541F520916F0138
:1008800021FF24C080916E0184FD19C087EE90E0A5
:10089000089520916E01237009F05AC020916F01D4
:1008A00023FF14C089E290E0089520916E0120FD9D
:1008B00038C030916F0130FF09C024FF43C090E081
:1008C00080E0089520916E0122FDF7CF08952091D8
:1008D0006E0122FD3AC030916F0130FD39C024FF16
:1008E000F5CFEDCF20916E0123FFF0CF24FDE7CFB0
:1008F000CDCF20916E0123FD2EC030916F0131FFCD
:10090000EECF84EE90E0089520916E0125FFDECFBA
:10091000C9CF20916E0125FD21C020916F0123FFD9
:10092000D5CF89E390E0D2CF20916E0126FFCECFC4
:100930008AE290E0089520916E0126FFC7CF81E3FF
:1009400090E0089583EE90E0089582EE90E008959F
:1009500080EE90E0089586EE90E0089585E390E0C3
:1009600008951F93CF93DF930E940F04EC01C115EC
:1009700082E5D80708F03FC0C11590E5D90708F017
:10098000C2C0C83ED105C0F4C03ED10580F4C53A0E
:10099000D10548F4C430D10550F4C130D10539F047
:1009A000D0E0C0E004C0CD3CD105D0F3D065CE018D
:1009B000DF91CF911F910895C11580E4D80708F009
:1009C00053C0C11590E2D90708F0B7C0C11581E046
:1009D000D80730F38D2F0E94C003182FCE0199271E
:1009E0000E940F04C12FD0E0DC2FCC27CC27DF7171
:1009F000C82BD92BDCCFC03892E5D907A8F4C03674
:100A000082E5D80708F063C0C03492E5D90708F042
:100A100049C0C03282E5D80788F1CF71D0E0DC2F21
:100A2000CC27C16FD06AC3CFC03C92E5D90780F410
:100A30008C2F8F71C03AD24508F45EC00E94C0036B
:100A4000C82FD0E0DC2FCC27CC27DF71D062AFCF0E
:100A5000C03E82E5D80708F0A3CFDC2FCC27CC27F7
:100A6000DF71C06FD06AA3CFCE0199270E940F0417
:100A7000CC27DF70C82BD92BD06A99CF2C2F269585
:100A8000269590E2299F900111248C2F8370C1E05C
:100A9000D0E002C0CC0FDD1F8A95E2F7C22BD32B2A
:100AA000DD6885CF2C2F26952695277080E2289F1C
:100AB000900111248C2F8370C1E0D0E002C0CC0FD4
:100AC000DD1F8A95E2F7C22BD32BDC6870CF2C2F69
:100AD00026952695277090E2299F900111248C2F4E
:100AE0008370C1E0D0E002C0CC0FDD1F8A95E2F731
:100AF000C22BD32BDA685BCFC82FD0E0DC2FCC27FA
:100B0000C46FD06A54CF8C2F8F710E94C00355E000
:100B1000D695C7955A95E1F7CF70D0E0DC2FCC275A
:100B2000282F30E084FF05C044E0220F331F4A9590
:100B3000E1F7C22BD32BD0693ACF8D2F8F710E9452
:100B4000C003182FCE0199270E940F04C12FD0E0B7
:100B5000DC2FCC27CC27DF71C82BD92B77CF809502
:100B600090915C01982390935C0108958091D90144
:100B70009091A001981301C008958F5F8770FACFFC
:100B8000292F953078F58F3068F590E03FE0239F6E
:100B9000800D911D1124682F677023E0969587952D
:100BA0002A95E1F7FC01EE0FFF1FE80FF91FE45D46
:100BB000FE4F50E040E080E0219130E0062E02C080
:100BC000369527950A94E2F721703327042E01C049
:100BD000220F0A94EAF7822B4F5F5F4F4330510593
:100BE00059F7089580E00895292F953098F58F30B2
:100BF00088F590E03FE0239F800D911D1124282F60
:100C0000277041E001C0440F2A95EAF723E096954A
:100C100087952A95E1F7FC01EE0FFF1FE80FF91FFA
:100C2000E45DFE4F30E020E070E05191DF0111976C
:100C3000CB01022E02C0969587950A94E2F7817047
:100C400081958527842385278C932F5F3F4F233001
:100C5000310559F7089580936D01089590916D01C4
:100C600021E030E0F90101C0EE0F8A95EAF7D901E1
:100C700002C0AA0FBB1F6A95E2F7EA2B01C0220F40
:100C80004A95EAF7892F8E23E81305C0292B822F76
:100C90000E942B06089520952923F9CF21E030E00A
:100CA00001C0220F8A95EAF7209580916D01822379
:100CB0000E942B060895909151018095892380937D
:100CC0005101282F277069F4891759F090916F010D
:100CD00092FF07C08695869586950E944E061092D3
:100CE0005101089521E030E001C0220F8A95EAF712
:100CF00080916D01822B0E942B06089580936C01D8
:100D000008950F931F93CF93DF938B01EA01909186
:100D10009601943061F58093E9008FEF9091E8009F
:100D2000815095FD06C095ED9A95F1F7000081116F
:100D3000F5CF8091E80085FF1AC00E94330281112F
:100D400011C08091E80085FD06C08091E8008E7793
:100D50008093E800F2CFF80181918F018093F10038
:100D6000219779F78091E8008E778093E800DF91F2
:100D7000CF911F910F910895CF93DF93EC0148E03D
:100D800050E0BC0181E00E94810688E0FE01ACE8F1
:100D9000B1E001900D928A95E1F7DF91CF9108952E
:100DA00081E08093E00080E28093D8001092C90037
:100DB0008FE19EE40197F1F700C0000087E090EB1F
:100DC000DC018093E1019093E201A093E301B093F1
:100DD000E40188E19CE00FB6F894A8958093600048
:100DE0000FBE90936000FFCFCF93C82F6FEF81119C
:100DF00064E285E290E00E94241A6FEFC11164E082
:100E000086E290E00E94241A6FEFC11165E287E24A
:100E100090E00E94241ACF910895CF93DF93C1E808
:100E2000D2E060E0CE010E94241A2196C11584E030
:100E3000D807B9F7DF91CF9108951F93CF93DF9330
:100E4000122F8430E0F46530D0F44F30C0F4C42F5A
:100E5000D0E0CC0FDD1F9EE1699FC00DD11D112494
:100E600096E9899FC00DD11D1124632FCE0189966B
:100E70000E94241A612FCE018A960E94241ADF91C3
:100E8000CF911F910895B0E0A0E0E9E4F7E00C9461
:100E9000D9199CE5E92E91E0F92ED12C8701C12CBE
:100EA0001CC04C2F81E021E030E08D1540F0FE01A8
:100EB000EE0FFF1FE00FF11F859194919C016C2DA7
:100EC0008D2D0E941D072196CF30D10551F7C39477
:100ED000025E1F4F85E0C81619F0D0E0C0E0E1CFF8
:100EE000D39486E9E80EF11C84E0D812D7CFCDB7B1
:100EF000DEB7E8E00C94F51980E00E94F40660E0AB
:100F000088E290E00E94241A0E9443070E940D0785
:100F100081E00E94F406089585E290E00E94061A9E
:100F2000843289F486E290E00E94061A843059F4F3
:100F300087E290E00E94061A91E0853209F090E085
:100F4000892F8170089580E0FCCF0F931F93CF937A
:100F5000DF93843030F5653020F54F3010F5C42F25
:100F6000D0E0CC0FDD1F2EE1629FC00DD11D1124FA
:100F700036E9839FC00DD11D1124CE0189960E94B0
:100F8000061A082F10E0102F0027CE018A960E9423
:100F9000061A9801282BC901DF91CF911F910F915B
:100FA000089590E080E0F8CF462F753040F46F3020
:100FB00030F4843020F4672F0E94A507089590E054
:100FC00080E00895CF92DF92FF920F931F93CF930B
:100FD000DF936C0100916D0180916C01082BC3E0DF
:100FE000D0E010E0FC2EC8010C2E02C0959587952C
:100FF0000A94E2F780FD0CC02197A0F7F12C8F2D09
:10100000DF91CF911F910F91FF90DF90CF900895C6
:10101000B6018C2F0E94D4070E94B104019761F39E
:10102000EECFCF93DF93EC010E94E207BE010E9456
:10103000D4070E94B104DF91CF910895FC0124816F
:101040002223C1F0808191810E94110892959F70A6
:10105000963091F058F4925F9F70923058F4803F30
:1010600019F030F4883E30F481E008959A5FF4CFAF
:10107000843FD1F380E00895883EB0F3813FD1F7FB
:10108000F3CFA6E0B0E0E7E4F8E00C94DE19498382
:101090005A8349815A819923A1F0222391F0CA01F0
:1010A0000E94E207182F682F89819A810E94F40517
:1010B00069817A81812F0E94D4072696E3E00C94FF
:1010C000FA19CA010E94C005182FF2CF90916F0142
:1010D00092FB222720F9281779F080FB92F9909350
:1010E0006F0160916E0170916F0184E090E00E9449
:1010F000421A82E00E945B06089520915C01809173
:101100005301282B80915201882381F0282B30E055
:1011100084E291E0FC014191CF0141113F5FF1E098
:101120008A329F07B9F731111092520120932201A0
:1011300048E050E064E571E082E291E00E94581AD4
:10114000892BA9F088E0E2E2F1E0A4E5B1E00190AA
:101150000D928A95E1F7E0918601F0918701309731
:1011600031F00280F381E02D82E291E0099508954B
:1011700010925C01E4E2F1E086E0DF011D928A95C5
:10118000E9F7109253010E947D080895AAE2B0E0A9
:10119000ECECF8E00C94DE1988E991E02091F10084
:1011A000FC012193CF01F1E0803A9F07B9F78091CC
:1011B0009901833009F470C0B8F4813009F447C054
:1011C000823009F4B1C08091E80083FF84C280912D
:1011D0009801909199019A3008F07DC2E92FF0E0D2
:1011E000E959F54E0C94C2198A3009F48CC08B3041
:1011F00009F46FC0893039F780919801813219F76D
:1012000080919C0190919D01892BE9F68091E800E5
:10121000877F8093E8008091E80082FF38C090913A
:10122000F3008091F200029731F48091F100813057
:1012300011F0863021F48091F10080938B01809130
:10124000E8008B778093E8000E946402BCCF809115
:101250009801813A09F0B7CF8091E800877F8093A9
:10126000E80080919C0190919D01892B61F468E0D8
:101270008CE891E070E00E9410038091E8008B7789
:101280008093E800A0CF60E090E080E0F3CF809111
:1012900096018111C0CF97CF80919801813A09F0D2
:1012A00092CF80919C0190919D01892B09F08BCF69
:1012B0008091E800877F8093E8008091E80080FFBC
:1012C000FCCF80910A018093F1008091E8008E7735
:1012D000B9CF80919801813209F075CF80919C013E
:1012E00090919D01892B09F06ECF8091E800877F56
:1012F0008093E8000E94640280919A0180930A0121
:101300000E94B80860CF80919801813209F05BCFCC
:101310008091E800877F8093E8000E9464028091BA
:101320009B0180938A014FCF80919801813A09F007
:101330004ACF8091E800877F8093E8008091E800A1
:1013400080FFFCCF80918A01BECF803899F082382F
:1013500009F0C1C180919C018F70873008F0BBC13A
:101360008093E9008091EB0085FB882780F910923B
:10137000E90006C0809194019091950191118260DD
:101380009091E800977F9093E8008093F10010928D
:10139000F1008091E8008E779AC1882309F488C112
:1013A000823009F098C180919A0181118BC180919E
:1013B0009C018F702FEF280F263008F08CC180938E
:1013C000E9002091EB0020FF7DC1933031F4809142
:1013D000EB0080628093EB0075C19091EB0090610F
:1013E0009093EB0021E030E001C0220F8A95EAF7EC
:1013F0002093EA001092EA008091EB008860EACF27
:10140000811169C110919A011F778091E300807862
:10141000812B8093E3008091E800877F8093E80030
:101420000E9464028091E80080FFFCCF8091E3007D
:1014300080688093E30082E0111183E0809396013D
:101440004AC18058823008F046C120919A013091FB
:101450009B012C3D83E03807A1F583E08A838AE273
:1014600089834FB7F894DE01139620E03EE051E205
:10147000E32FF0E050935700E49120FF03C0E29582
:10148000EF703F5FEF708E2F90E0EA30C0F0C796AC
:101490008D939D932F5F243159F74FBF8091E800C2
:1014A000877F8093E8006AE270E0CE0101960E9497
:1014B00010038091E8008B778093E8000CC1C09600
:1014C000E7CF40919C0150919D01832F9927833054
:1014D000910501F160F48130910509F471C0029722
:1014E00009F0F9C082E490E0EEEEF2E031C0813222
:1014F000910509F459C08232910509F0ECC04115FB
:10150000510509F467C04130510509F0E4C0E8E82D
:10151000F2E01EC033272130310509F43DC021150A
:10152000310561F02230310509F0D5C0E2E4F3E085
:10153000E4918E2F90E0E2E4F3E007C0E2E7F3E00D
:10154000E4918E2F90E0E2E7F3E0009709F4C3C046
:101550002091E800277F2093E80020919E013091A0
:101560009F018217930708F49C0140E02115310583
:10157000B1F5411134C08091E80082FD9ACF80918D
:101580009601882309F495CF853009F492CF809194
:10159000E80083FFF0CF8DCFE6E5F3E0E4918E2FF6
:1015A00090E0E6E5F3E0D1CF4115510571F041300F
:1015B000510509F090C089E090E0E9E1F3E0C8CF7F
:1015C00082E190E0E0E3F3E0C3CF89E090E0E0E087
:1015D000F3E0BECF84E490E0EAEAF2E0B9CF809194
:1015E0009601882309F465CF853009F462CF809194
:1015F000E80083FD5ECF8091E80082FDBCCF809142
:10160000E80080FFB3CF9091F3008091F2002115A4
:10161000310519F08830910550F041E0089709F044
:1016200040E08091E8008E778093E8009FCF44915E
:101630004093F1003196215031090196E8CF80386E
:1016400009F049C08091E800877F8093E80080918D
:1016500097018093F1009DCE81113DC010919A01B8
:101660001230C8F58091E800877F8093E8001093DE
:1016700097010E946402112311F084E005C080915B
:10168000E30087FDFACF81E08093960142E061ECB0
:1016900081E00E94830242E261EC82E00E948302C8
:1016A00042E260EC83E00E9483028091960113C0C5
:1016B00080919A01813079F481E0933009F080E0E3
:1016C000809395011092E9008091E800877F8093D4
:1016D000E8000E9464028091E80083FF0AC08091C4
:1016E000E800877F8093E8008091EB008062809320
:1016F000EB00AA96E3E00C94FA190E94B8082FEFC9
:1017000084E39CE0215080409040E1F700C000005D
:1017100088E19CE00FB6F894A895809360000FBE16
:1017200090936000FFCF882321F00E94AF050E94B4
:101730007D080895882339F090915C01982B90934F
:101740005C010E947D080895882391F09CEF980F1A
:10175000913A78F4E4E2F1E09191891303C0DF015A
:1017600011971C9291E0EA32F907B1F70E947D08C7
:10177000089590E2980F9830D8F7877091E001C0F3
:10178000990F8A95EAF7892F0E94AF05EFCFCF9383
:10179000C82F8823A9F08CEF8C0F813A00F5E4E282
:1017A000F1E0DF018D91C81769F081E0AA32B80736
:1017B000C9F76C2F82E291E00E9480030E947D08AD
:1017C000CF9108958191C81303C0DF0111971C9236
:1017D00081E0EA32F807B1F70E947D08EACF80E2A3
:1017E0008C0F883068F7C77021E030E001C0220F0D
:1017F000CA95EAF780915C01822B80935C01DECF71
:101800001F93CF93DF93182FD0E0C0E0893311F4FA
:10181000C0E5D0E0812F0E94C70B209739F4812FBB
:101820000E94A40BDF91CF911F9108958FE99FE053
:101830000197F1F700C000002197EFCF0F931F939E
:10184000CF93DF93C62FD42F022FFC0185818823ED
:10185000A9F06093E0010E9474039093DF018093EC
:10186000DE01C77081E001C0880FCA95EAF70E94C7
:101870009A0BDF91CF911F910F9108958091E00114
:1018800068133DC02091DE013091DF014FB7F8941D
:101890008091DA019091DB01A091DC01B091DD0132
:1018A0004FBF821B930B883C910548F510E21D0F3A
:1018B0006D17B9F080E2860F883040F4C77081E080
:1018C00001C0880FCA95EAF70E94930B183048F4BC
:1018D00081E09D2F977001C0880F9A95EAF70E94CA
:1018E0009A0B802F0E94000C183018F6D77081E0F8
:1018F00001C0880FDA95EAF70E94930BBACFC77040
:1019000081E001C0880FCA95EAF7F6CFA8E0B0E001
:10191000ECE8FCE00C94D1198C01DC0114968C915C
:101920001497882309F4B8C021E04C9111965C917A
:10193000119712966C91129713967C9113971596A6
:101940009C910E9441087C01F8018581882309F45B
:101950003CC1C70197578038910508F0E8C4FFE003
:10196000FE1508F489C08FEF93E00E94061A8111DA
:1019700083C061E8A62E62E0B62EE11047C0FE01EA
:10198000339686E0DF011D928A95E9F75AE0452EED
:101990007501BFEFEB1AFB0AC5010E94061A898385
:1019A0001A82882309F468C0813009F079C0650182
:1019B000E2E0CE0ED11CC7010E94061A8A8388235A
:1019C00009F45AC09FEF980F933070F5F3E0AF0E13
:1019D000B11CC6010E94061A8B83882309F44CC0EF
:1019E0001C82DE0111967D01F7012081222381F204
:1019F000213009F095C091818281913009F052C067
:101A0000F2E0EF0EF11C0E94000C53C0A11424E080
:101A1000B20691F1C5010E94061A811101C0EA9433
:101A20003FEFA31AB30AA9CF56018430D1F642E0A2
:101A3000E42EF12C56012FEFA21AB20AC6010E9421
:101A4000061AE1E0F0E0EC0FFD1FEE0DFF1D8083B4
:101A5000882391F08C3741F4E2E0F0E0EC0FFD1FB9
:101A6000EE0DFF1D1082BDCF3FEFE31AF30A6501B3
:101A700087E0E816F104F1F680915101877061F07A
:101A8000D80115968C91882339F080916F0182FFDF
:101A900003C082E00E945B062896E0E10C94ED19F9
:101AA00057019FCF923049F422E0E20EF11C0E94D0
:101AB000C70BEFEFEE1AFE0A97CF933031F432E006
:101AC000E30EF11C0E94A40BF4CF943021F08FEFB1
:101AD000E81AF80AEECF92E0E90EF11C30E020E0BF
:101AE000B7016F5F7F4FD70111964C918053990BCF
:101AF0008A30910550F021503109D8F2EFE9FFE02A
:101B00003197F1F700C00000F6CF429EF001439EEE
:101B1000F00D11249C012E0F3F1F842F7B01E0CF7D
:101B2000E22FF0E0E452FF4F5490822F8695869585
:101B3000869590E0FC01E453FF4F64902770712C70
:101B4000022E02C0759467940A94E2F731E0632292
:101B50007724FC01E454FF4F8490912C022E02C0A4
:101B6000959487940A94E2F7A1E08A229924FC01D3
:101B7000E455FF4FC490D12C02C0D594C7942A9548
:101B8000E2F7B1E0CB22DD246114710419F081EE9B
:101B90000E94C70B8114910419F086EE0E94C70BB6
:101BA000852D0E94000C8114910419F086EE0E948C
:101BB000A40B6114710419F081EE0E94A40BC114EE
:101BC000D10409F476CF8CE21ECFF701E851FC472F
:101BD000E730F10508F093C3EF58F54E0C94C219A5
:101BE00026E241EE61EEC8010E941E0C45CF27E2BD
:101BF00045EE65EEF8CF26E241EE60EEF4CF27E247
:101C000045EE64EEF0CF26E241EE62EEECCF27E245
:101C100045EE66EEE8CF28E241E0EBCF80916E0121
:101C2000816080936E0195C080916F018860809380
:101C30006F018FC080916E018260F3CF80916E0141
:101C40008460EFCF80916E018860EBCF80916F014F
:101C50008160EDCF80916F018260E9CF80916E014C
:101C60008061DFCF80916E018062DBCF80916E0159
:101C70008064D7CF0E94B80880916E018068D1CF70
:101C800080916E018C60CDCF80916F018360CFCF4A
:101C900080916E018E7FC5CF80916F01877FC7CF06
:101CA00080916E018D7FBDCF80916E018B7FB9CF0A
:101CB00080916E01877FB5CF80916F018E7FB7CF06
:101CC00080916F018D7FB3CF80916E018F7EA9CF00
:101CD00080916E018F7DA5CF80916E018F7BA1CF0A
:101CE0000E94B80880916E018F779BCF80916E0122
:101CF000837F97CF80916F018C7F99CF80916E0108
:101D000082FB992790F921E0922790FB82F990FBC2
:101D100083F987CF80916F01982F909591708E7F76
:101D2000892B90FB81F983CF90916E01892F8F7B56
:101D300096FF806476CF0E94B80890916E01892F3B
:101D400097FB87F980586DCF61E08EE090E00E94AC
:101D5000241A60916E0170916F0184E090E00E94FE
:101D6000421A0E94B80888CE60E0EFCF90916E01D1
:101D7000892F8F7E94FF806154CF90916E01892FBF
:101D80008E7F90FF81604DCF90916F01892F877F6B
:101D900093FF88604CCF85E3BCC2F7E7EF16FCE702
:101DA000FF0609F46DC028E7E2162CE7F20609F4F5
:101DB00074C033E0E3163CE7F30609F48FC008F083
:101DC0006EC0E1149CE7F90609F47BC0A1E0EA16B5
:101DD000ACE7FA0609F488C0F8018581E080F1805B
:101DE000882309F48FC0C7010E94E207D82E682F0C
:101DF000C7010E94F405B7018D2D0E94D4070E94EF
:101E0000B1047C01882ED8011596AC9015971696D2
:101E10009C9092943FE0932280915101877009F148
:101E2000DA2CAA20F9F08F2D807F803469F080E2CF
:101E30008E0D8830B0F08F2D807E803229F4B1E095
:101E4000BE1578F4992069F080916F0182FF09C076
:101E500082E00E945B06809151018770DD24D3945B
:101E60008111D12CCF2CC2942FE0C222EBE0EC15D3
:101E700008F4B0C0EC2DF0E0E858F54E0C94C2190F
:101E800081E00E94720643E062E081E00E942E063B
:101E9000F3CD81E00E944E06F6CF82E0F2CFBBE5A3
:101EA000EB16BCE7FB0661F1ECE5EE16ECE7FE068F
:101EB000E9F0FAE5EF16FCE7FF0609F08DCF81E0C7
:101EC0001CC00E94B8082FEF34E38CE02150304052
:101ED0008040E1F700C000000E94D0066FEF7FEF66
:101EE00090E080E00E94421A0E947D0B80916F0179
:101EF00082FB882780F991E089270E9466086CCFD1
:101F000080E0FBCFC7010E94C005D82E74CFFF2D03
:101F1000FF70BF2E8F2D807F19F0B29490EFB92201
:101F2000AA20B9F0BB2069F080E28E0D883010F055
:101F3000811009C080915C01B82AB0925C010E94B6
:101F40007D088E2D45C080915301B82AB09253016F
:101F5000F6CF8E2D0E94A40BBB20E1F180E28E0D06
:101F6000883010F0811004C08B2D0E94AF0506C090
:101F7000B09480915301B822B09253010E947D0821
:101F800029C02F2D2F70B22E8F2D807F803219F017
:101F9000B29480EFB822882059F031E0831609F41A
:101FA00082C0AA2009F48EC0992009F44FC0C9CF7D
:101FB00080916F0182FD46C0AA20F1F1BB2039F06B
:101FC00080915C018B2980935C010E947D0880E0F8
:101FD0000E94C70BAC2DA850BB0B149710F40E94A5
:101FE0009A03DD20A9F08091510180FD11C0F80114
:101FF00015828695869586950E947206C8010E9474
:10200000860C809151018695869586950E944E0694
:1020100020E0D8014C9111965C91119712966C9129
:10202000129713967C91139714968C91149715968A
:102030009C910E94410830CD80E00E94A40BBB20FF
:1020400049F292CFAA20A1F0911004C08B2D0E94DA
:102050009A0BC0CF81E09812BDCF809152019B2D89
:102060009823B91609F4B6CF8B2980935201B2CFC9
:102070009110B0CF8B2D0E94930B909152018B2D1C
:10208000892329F08B2D809589238093520190918B
:102090002B018B2D892309F49DCF8B2D80958923CE
:1020A00080932B0197CFAA2029F095E0991508F489
:1020B00091CFCCCFA4E0A91508F48CCF8B2D0E9432
:1020C000930B88CF9920D1F3B9E38B12F9C0EFEFCE
:1020D000F7EE23E0E150F0402040E1F700C00000BF
:1020E000EFC08F2D837091F5A11074CF4E2D4295C6
:1020F00046954770440F440F8E2D8F70042E01C0FB
:10210000880F0A94EAF72E2D2071E4FE07C02FE015
:1021100030E001C0220F4A95EAF720953F2D369511
:1021200036953370323069F050F440916C013130A3
:1021300029F0822B84230E947E064CCF842B822B95
:10214000FACF282B80916C018227F5CF8695AA20A3
:1021500011F08F2D8170882309F43CCF4E2D4295CC
:1021600046954770440F440F8E2D8F70042E01C08A
:10217000880F0A94EAF72E2D2071E4FE07C02FE0A5
:1021800030E001C0220F4A95EAF720953F2D3695A1
:1021900036953370323069F050F440916D01313032
:1021A00029F0822B84230E942B0614CF842B822BB0
:1021B000FACF282B80916D018227F5CF3F2D3F70FC
:1021C000F32EAA2029F0832F0E9472068E2D3FCF76
:1021D0008E2D0E94930B8F2D0E944E06FBCE8E2DCE
:1021E00092EF8916B1F1981570F0A0EF8A16D1F030
:1021F000B1EF8B1691F0AA2009F45DC09110A1CE29
:102200008F2D8F712AC0E3EF8E1651F1F4EF8F12EC
:10221000F2CF80916F0182FD2FC08F2D8F71AA2088
:10222000D9F21BC0AA2081F024E0291508F4D2CEEF
:102230002F2D2F7181E090E001C0880F2A95EAF7D9
:1022400090916D018927AFCF35E0391508F4C2CEE2
:10225000EFCF8F2D8F71A110BFCF0E947206BACE23
:1022600080E0AA2009F49FCF9F2D9F7181E001C0DB
:10227000880F9A95EAF797CFAA2091F08F2D8F714A
:10228000F82E0E94720680916F0182FF07C0A8E0BD
:10229000FA9EC00111248360809351018F2DDDCF00
:1022A00081E00E945B06B1E0B91508F093CE82E0B0
:1022B0000E945B068FCE992039F0893309F407CF4D
:1022C0008E2D0E94A40B86CE8F2D8F7185CFB6E107
:1022D000EB16BCE7FB0609F060CD80915C018A7AC1
:1022E00091E009F490E090932A0169E2811165E39D
:1022F00082E291E00E9480030E947D08BDCBE6E16E
:10230000EE16ECE7FE06A1F580912A01811143CD7E
:1023100089E2E4E2F1E02AE231E09191891303C01D
:10232000DF0111971C922E173F07B9F7E5CFF70190
:10233000E851FC47E730F10508F44ECC1092E0017B
:10234000C7019057839708F0C2CF84E090E00E94C5
:102350000E1A90936F0180936E01F701E150F047E0
:10236000E232F10508F05ACCEC57F54E0C94C21944
:10237000F7E7EF16FCE7FF0609F48BCD82E028E7CC
:10238000E2162CE7F20609F485CD26CDCF93DF9334
:1023900080915001807F09F04DC080914F018823CA
:1023A00009F448C0E091D9015091A001C0914B01BE
:1023B000D0914A0160914C0170914D0147E05E1748
:1023C000C9F18E2F90E0E49FF0011124EF55FE4FEC
:1023D0002481222391F1489FF001499FF00D11249F
:1023E000DF01AF55BE4F11962C9111972C1325C0CC
:1023F0002C912D1322C015962C91159721111DC0DB
:1024000012962D913C91261B370B283C3105A8F4E0
:10241000809150018F70806180935001E955FE4F8B
:1024200080818F70806180838AE491E00E94860CB5
:102430000E94B605DF91CF910895FC013196E770B7
:10244000BECFA4E1B0E0E7E2F2E10C94D5198C0133
:1024500086E0F801DE011F9601900D928A95E1F762
:10246000F8018481E5809AE4A92E91E0B92E90913B
:102470004E01911128C0882319F1EE20F1F0C80116
:102480000E941E08F82E8823C1F087E0F801D501CC
:1024900001900D928A95E1F780914E01813031F4DF
:1024A00080914A0190914B010E9411080E94C6112F
:1024B0008F2D6496ECE00C94F119C8010E94860CF3
:1024C000FF24F394F5CFD080C18082809380F09078
:1024D0004F0120914C0130914D01A401421B530B3F
:1024E000FF2009F4D9C0483C510508F092C0882368
:1024F000F9F290914B0180915001282F207F09F033
:1025000056C0C91214C090914A01D91210C0E110EE
:1025100048C08F708061809350018AE491E00E94EE
:10252000860C80915001F8018683F12CC1CFE11017
:1025300038C06C2D8D2D0E94F5016C2D8D2D0E94C3
:10254000F501E82E8111F1CFDF86C88A8F85988941
:102550000E941108292F22952F70243058F49F7063
:10256000223088F0992399F0F8019681907F79F4D0
:10257000FE2C9ECF2A5F2F70223068F0C8010E9487
:10258000860CEF2CF5CF992311F0882389F3805E18
:10259000883070F3F3CF803F58F3815F833070F75A
:1025A000E7CF80915001816080935001BECFC91266
:1025B00007C090914A01D91203C0EE2009F48DC0E2
:1025C000C8010E941E08882309F477CFEE2009F481
:1025D00074CF80915001803288F020914A0130916F
:1025E0004B01398728879B868A8690914E019C876C
:1025F0001D868E87CE0108960E94860C87E0F80122
:10260000AAE4B1E001900D928A95E1F70E94C6110B
:1026100057CF90915001292F207F51F48AE491E007
:102620000E94860C87E0F50111928A95E9F77DCF2B
:10263000882309F43DCF80914B018C1110C080910B
:102640004A01D8120CC0E1100AC09683C8010E944A
:10265000860C87E0F50111928A95E9F729CFC80128
:102660000E941E08882309F428CFEE2009F425CF04
:1026700080915001803210F220914A0130914B013B
:102680003A8329839C828B8290914E019D831E8286
:102690008F83CE010196B0CF483C5105D0F68823F8
:1026A00009F40ECFFE2CEE2009F407CF80914B01E8
:1026B0008C1120C080914A01D8121CC08091500119
:1026C00080FD0FC0982F907F61F08683903F31F09E
:1026D000982F907F905F8F70892B8683C8010E940E
:1026E000860C87E0F801AAE4B1E001900D928A958A
:1026F000E1F7DECEC8010E941E0881117FCF8091D4
:102700005001816080935001C8010E94860CD0CE98
:10271000ABE1B0E0EEE8F3E10C94DD194E8B5F8B9A
:10272000688F798F8A8F9B8F192F91111092530187
:102730001D8A86E0FE017696DE011F9601900D92BD
:102740008A95E1F70A8D002341F021E04F855889F1
:1027500069897A89C8010E9441080B8B1C8B87E02C
:10276000FE013F96DE01189601900D928A95E1F7E1
:10277000CE0108960E94211281110CC087E0FE0153
:102780003896DE01119601900D928A95E1F78C85BD
:1027900081110BC017E08091D9019091A00189139C
:1027A00031C06B96E4E00C94F9192091A00130E05F
:1027B000C9010196877099274091D90148171906D8
:1027C00099F097E0929FD001939FB00D1124AF55DF
:1027D000BE4FFE01319601900D929A95E1F78093DC
:1027E000A0010E94B605D6CF0E94B8081092A001A1
:1027F0001092D90187E0EAE4F1E0DF011D928A95A9
:10280000E9F7C8CF819FC00111248F559E4F0E94C8
:102810002112882331F28091D90190E001968770CE
:1028200099278093D901B7CFA6E0B0E0EAE1F4E1BF
:102830000C94DD190E9474038C0180915D019091CC
:102840005E018017910781F019821A820E94740339
:10285000682F49815A81792F80E090E00E94881387
:1028600010935E0100935D012696E4E00C94F91943
:10287000AAE0B0E0EEE3F4E10C94D3198E010F5F0F
:102880001F4F8AE0F80111928A95E9F79BE0E92E43
:1028900091E0F92E680120E1622E21E0722E882459
:1028A0008394912CF70181917F018F3F09F446C0F9
:1028B000F894E82FE295EF70F0E021A18F70A40169
:1028C00002C0440F551F8A95E2F7CA01922F982B38
:1028D00091A392A18095892382A3789400C0E0E11E
:1028E000F1E021E030E0B12CA12C41914F3F09F4FF
:1028F0004CC0A42FA295AF70B0E090968C9190E060
:102900004F7002C0959587954A95E2F780FD3DC0CE
:10291000C901A82AB92A220F331F51E0EF31F50768
:1029200021F7F701319780818F3F11F00E94A903B1
:1029300080EA8A95F1F7F601B182A082F2E0CF0E2B
:10294000D11C6E147F0409F0ADCF4AE050E0B8010D
:1029500082E691E00E94581A892BE1F08AE0F801A2
:10296000A2E6B1E001900D928A95E1F781E08093B3
:1029700061010E9474039093600180935F0110E0F5
:10298000812F2A96EEE00C94EF1990E080E0C1CF01
:1029900010E02AC010916101112389F320915F0199
:1029A000309160014FB7F8948091DA019091DB018A
:1029B000A091DC01B091DD014FBF821B930B059705
:1029C000F0F24AE050E062E671E08CE791E00E94AC
:1029D000581A892BE9F28AE0E2E6F1E0ACE7B1E0CF
:1029E00001900D928A95E1F710926101C9CF1F9273
:1029F0000F920FB60F9211242F933F934F935F9333
:102A00006F937F938F939F93AF93BF93CF93DF93F6
:102A1000EF93FF93D091E900DF708091EC00C82F15
:102A2000C17080FDC0E81092E9008091F000877FBE
:102A30008093F00078940E94C6081092E90080917B
:102A4000F00088608093F000CD2BCF70C093E90038
:102A5000FF91EF91DF91CF91BF91AF919F918F91B6
:102A60007F916F915F914F913F912F910F900FBE8A
:102A70000F901F9018951F920F920FB60F9211246E
:102A80002F933F934F935F936F937F938F939F9376
:102A9000AF93BF93EF93FF938091E10082FF09C052
:102AA0008091E20082FF05C08091E1008B7F8093DE
:102AB000E1008091DA0080FF24C08091D80080FF7F
:102AC00020C08091DA008E7F8093DA008091D90057
:102AD00080FF9DC080E189BD82E189BD09B400FE0F
:102AE000FDCF81E08093960180918901811109C019
:102AF0000E9414020E94B5028091E20084608093DB
:102B0000E2008091E10080FF17C08091E20080FF29
:102B100013C08091E2008E7F8093E2008091E200FA
:102B200080618093E2008091D80080628093D80019
:102B300019BC85E0809396018091E10084FF2BC051
:102B40008091E20084FF27C080E189BD82E189BDD8
:102B500089B5982F917080FFFBCF8091D8008F7D31
:102B60008093D8008091E1008F7E8093E100809176
:102B7000E2008F7E8093E2008091E200816080938A
:102B8000E20080919701882309F447C084E0809394
:102B90009601809196018091E10083FF27C080918A
:102BA000E20083FF23C08091E100877F8093E100F2
:102BB00082E080939601109297018091E1008E7FD0
:102BC0008093E1008091E2008E7F8093E20080910B
:102BD000E20080618093E20042E060E080E00E94D9
:102BE00083028091F00088608093F000FF91EF9164
:102BF000BF91AF919F918F917F916F915F914F9115
:102C00003F912F910F900FBE0F901F90189519BCF8
:102C1000109296011092890174CF8091E30087FD94
:102C200093E090939601B5CF78941F921FB61F92B0
:102C300011248F939F93AF93BF938091DA0190916A
:102C4000DB01A091DC01B091DD010196A11DB11D58
:102C50008093DA019093DB01A093DC01B093DD0156
:102C6000BF91AF919F918F911F901FBE1F9018959C
:102C70001F921FB61F9211248F939F93AF93BF9300
:102C800080918801811113C08091DA019091DB015C
:102C9000A091DC01B091DD014196A11DB11D809391
:102CA000DA019093DB01A093DC01B093DD01BF91C9
:102CB000AF919F918F911F901FBE1F901895CDB718
:102CC000DEB7A6970FB6F894DEBF0FBECDBF85B7AF
:102CD000806885BF85B7806885BF84B7877F84BFDC
:102CE0000FB6F894A8958091600088618093600089
:102CF000109260000FBE80E890E00FB6F8948093C9
:102D00006100909361000FBE87EA93E090932101E8
:102D1000809320010E9414020E94B5028091E2007B
:102D200084608093E2007894809196018823A1F0DA
:102D30001091E9001F709091EC00892F817090FD37
:102D400080E8182B1092E9008091E80083FD0E9432
:102D5000C6081F701093E90082E084BD93E095BD22
:102D60009AEF97BD80936E000E948C07811102C07C
:102D70000E947C070BE011E0D8018D918D018F3FFF
:102D800011F00E94A903B1E000311B07A9F700E18F
:102D900011E0BFE1EB2EB1E0FB2EF80181918F0134
:102DA0008F3F11F00E94A903E016F106B1F78AE007
:102DB000ECE7F1E0DF01282F1D922A95E9F7E2E622
:102DC000F1E0DF011D928A95E9F790E080E00E9432
:102DD0000E1A863E9E4F21F40E948C07811168C016
:102DE00066EE7EEF90E080E00E94421A60E082E0B2
:102DF00090E00E94241A81E080936C0161E083E0FE
:102E000090E00E94241A60E074E184E090E00E9467
:102E1000421A60E086E090E00E94241A6FEF87E09B
:102E200090E00E94241A40E050E0BA0188E090E06F
:102E30000E94361A60E084E290E00E94241A60E06A
:102E400087E190E00E94241A60E08CE090E00E940C
:102E5000241A60E08DE090E00E94241A19821A8200
:102E60001B821C821D821E821F82188648E050E051
:102E700068E170E0CE0101960E94141A40E050E033
:102E8000BA0180E290E00E94361A80E00E94F406C7
:102E90000E947C0740E050E0BA018FE090E00E9481
:102EA000361A40E050E0BA0183E190E00E94361A01
:102EB00082E090E00E94061A8093700184E090E026
:102EC0000E940E1A90936F0180936E010E94381435
:102ED000EFEFF6E721E0E150F0402040E1F700C0DD
:102EE00000000E94381480917C0180FF08C06FEFC1
:102EF0007FEF90E080E00E94421A0E94D00683E0BB
:102F000090E00E94061A0E947E0680E091E0909375
:102F1000870180938601F6E84F2EF1E05F2EABE744
:102F20006A2EA1E07A2E8091960100E112E18530AF
:102F300009F497C00E94381471E7A72E71E0B72EEC
:102F4000ECE78E2EE1E09E2ED401F5012191319126
:102F50008D919D916E167F0609F48DC02817390753
:102F6000A9F3312CF401019111914F01D501CD90BC
:102F7000DD905D01C016D10661F1C026D126212C5D
:102F8000EE24E394F12CC6018E219F21892BB9F008
:102F900029A23AA20E9474039CA38BA3B1E0BDA313
:102FA00091E098012E213F21232B09F490E09EA36C
:102FB00049A15AA16BA17CA18DA10E9488132394E1
:102FC000EE0CFF1CEFE02E12DECFF50132971183DD
:102FD00000833394F5E03F12C5CF8FB7F89440914A
:102FE000DA015091DB016091DC017091DD018FBF4E
:102FF00048C080919601843021F11092880188E1C7
:1030000090E0A0E40FB6F894A895809360000FBEFE
:10301000A093600083B7817F846083BF83B78160A2
:1030200083BF7894889583B78E7F83BF0FB6F8945B
:10303000A895809160008861809360001092600084
:103040000FBE80919501882361F00E943814ECE74F
:10305000F1E081919191892B09F075C14E165F06BF
:10306000C1F780919601853009F4C3CF0E94B8085A
:103070000E949A035FCF2817390709F072CF0E9488
:1030800014140E949A0390917B01891769F0809330
:103090007B018FB7F8944091DA015091DB01609188
:1030A000DC017091DD018FBF80919601843009F0C1
:1030B0003ACF83E08093E9008091E80082FF33CF2C
:1030C0008091E80090E085FF0BC00E94330240E24F
:1030D000E42EF12C8E010F5F1F4F8823D9F091E071
:1030E0008091E8008B778093E800992309F41BCF47
:1030F000E981E150E33138F5F0E0EA55F54E0C9402
:10310000C2198091F100D8018D938D01B1E0EB1AC5
:10311000F10829F38091E80085FDF3CF8091E80064
:103120008B778093E8000E943302882399F3D7CFEE
:103130001A828CE08B8324C08A81823009F419C101
:1031400028F4813061F08FEF89831AC0833009F150
:103150008430C9F71B821C821D821E8211C02FB7CA
:10316000F8946091DA017091DB018091DC0190911B
:10317000DD012FBF0E94C8196B837C838D839E83E2
:1031800040E250E0BE016F5F7F4F82E00E94810607
:10319000CACE2B81822F90E0FE013196225F8530CE
:1031A000910570F7DC01AA0FBB1FA458BE4F3C91DC
:1031B00011964C9143833483019632962813EFCFB6
:1031C000DFCF8A81823019F08530D1F2BCCF6B819C
:1031D0007C818D819E810E94C81988E290E00E94C6
:1031E000241ACECF4C816B818A810E94A507982733
:1031F000892798279E838D83C3CF2D813E813227D7
:10320000232732274C816B818A810E941D07B8CF0A
:103210000E944307B5CF80E18A83B2CF81E08A83E1
:103220008FE788CFEA80FB80FE24EF24FE248E0106
:103230000F5F1F4FCC80C00ED12ED11CC7018F57FE
:103240009D4F0C151D0509F49BCFEFE7EE16E1E04D
:10325000FE0658F40E94061AD80114968C93FFEFCC
:10326000EF1AFF0A0F5F1F4FE9CFF8011482F7CF63
:103270000A811B81102701271027CE0101966C01BE
:10328000EC80E00EF12EF11CC8018F579D4F0E15FA
:103290001F0509F475CF0F37A1E01A0720F4F601D6
:1032A00064810E94241AFFEFCF1ADF0A0F5F1F4FBD
:1032B000EBCF0E940D0764CF84E0AECFEA80FB80A5
:1032C000FE24EF24FE248E010F5F1F4FCC80C00E22
:1032D000D12ED11CC7018996C016D10609F450CF52
:1032E00028E5E21622E0F20658F40E94061AD801F8
:1032F00014968C93FFEFEF1AFF0A0F5F1F4FEACF70
:10330000F8011482F7CF0A811B81102701271027AB
:10331000CE0101966C01EC80E00EF12EF11CC8018B
:1033200089960E151F0509F42BCF0835A2E01A0760
:1033300020F4F60164810E94241AFFEFCF1ADF0AFD
:103340000F5F1F4FECCF09BD19BD09B400FEFDCFC3
:103350008091D8008F7D8093D8008091E0008260BA
:103360008093E0008091E00081FDFCCF0E94B808CE
:1033700078CE88E290E00E94061A1B821C821D8291
:103380008E83FECEEE0FFF1F0590F491E02D099481
:1033900069279627692778278727782708952F9206
:1033A0003F924F925F926F927F928F929F92AF92D5
:1033B000BF92CF92DF92EF92FF920F931F93CF9322
:1033C000DF93CDB7DEB7CA1BDB0B0FB6F894DEBFB9
:1033D0000FBECDBF09942A88398848885F846E84DF
:1033E0007D848C849B84AA84B984C884DF80EE8029
:1033F000FD800C811B81AA81B981CE0FD11D0FB632
:10340000F894DEBF0FBECDBFED010895F999FECF50
:1034100092BD81BDF89A992780B50895A8E1B0E0E2
:1034200042E050E00C944A1ADC01A40FB51F415051
:10343000504048F0CB01840F951F2E910E94251A11
:1034400041505040D0F70895262FF999FECF92BDF4
:1034500081BDF89A019700B4021639F01FBA20BD59
:103460000FB6F894FA9AF99A0FBE08950396272F8B
:103470000E94251A0E94241A252F0E94251A242F03
:103480000C94251A0196272F0E94251A0C94241AB1
:10349000DC01CB01FC01F999FECF06C0F2BDE1BD14
:1034A000F89A319600B40D9241505040B8F7089503
:1034B000FB01DC0104C08D910190801921F4415081
:1034C0005040C8F7881B990B0895F894FFCFA509C1
:1034D000CD096B0BCD096B0B000A210A6B0B1F0B7F
:1034E0002C0BFB0DFF0DF00DF70D030E070E0B0E51
:1034F000870F870FC10FC10FEA0FEA0FEA0FEA0F1C
:103500007110DE10EF10EF10480EBD0E500E1A0EA7
:103510001E0E540E220E580E640E2E0EB60E320ED5
:10352000680E360E6C0E940E3A0E700E9B0E400E08
:10353000760E7E0E260E5C0E2A0E600E440E7A0E5D
:103540008A0EA40EB40E140E4C0EC40E98189C18BD
:10355000E118F218FD180819A318A318A318A31846
:10356000A3180B190E191219381959195C195E197B
:023570008319BD
:103572007103BC066E0370036F03013031323337BF
:10358200F0F1F4F5F6F790919293959496973400B2
:00000001FF
