:1000000061C07BC094C079C078C077C076C075C02D
:1000100074C073C099C871C070C86FC06EC005014C
:100020000906A101050719E029E715002501950832
:10003000750181029501750881030507190029FFE3
:10004000150026FF0095067508810005081901298D
:10005000051500250195057501910295017503911E
:1000600003C0060331004B0000001E034D00610079
:100070006B006F0074006F004B0075007200610030
:1000800075006300680069000000040309040902A8
:100090002200010100A0FA0904000001030101008F
:1000A0000921010100012244000705810308000124
:1000B0001201100100000008090001000100010206
:1000C0000001237811241FBECFE5D2E0DEBFCDBFF3
:1000D00020E0AEE6B0E001C01D92AC3EB207E1F711
:1000E00010E0A0E6B0E0EAE0F3E102C005900D9276
:1000F000AE36B107D9F705D7FAC882CFA82FB92FE6
:1001000080E090E041E050EA609530E009C02D9138
:1001100082279795879510F084279527305EC8F33E
:100120006F5FA8F30895EADF8D939D930895CF93B1
:10013000CFB7CF93C395B39BE9F7B39B0BC0B39BEA
:1001400009C0B39B07C0B39B05C0B39B03C0B39B5F
:1001500001C0D8C00F92DF93C091C600DD27C653FF
:10016000DF4F012EB39B03C0DF910F90E6CF2F939B
:100170000F931F934F932FEF4F6F06B303FB20F99D
:100180005F933F9350E03BE065C016B301265029D2
:1001900053FDC89556B3012703FB25F92F7306B30A
:1001A000B1F05027102713FB26F906B22230F0F0E9
:1001B00000C016B3012703FB27F90126502906B218
:1001C0002430E8F54F77206816B30000F6CF5027AB
:1001D0004F7D206206B2102F000000C006B300263B
:1001E0005029102713FB26F906B2E2CF4F7B06B346
:1001F000206400C0DACF01265029187106B269F1D7
:100200004E7F2160012F16B328C0002650294D7F54
:1002100006B22260102F29C0012650294B7F06B25A
:100220002460012F2DC016B301265029477F286076
:10023000000006B22EC04F7E06B3206130C04227B8
:1002400006B3499300265029102706B24FEF13FB3F
:1002500020F9297F16B379F2187159F10126502936
:1002600006B2012703FB21F9237F06B371F20026B2
:1002700050293150D0F006B2102713FB22F9277E07
:1002800016B351F201265029012703FB06B223F9C8
:100290002F7C49F2000006B3102713FB24F9002637
:1002A000502906B22F7939F270CF10E21ABF002719
:1002B0001CC03B503195C31BD04010E21ABF0881CF
:1002C000033C21F10B3411F12091C4001981110F6D
:1002D0001213EDCF4A81441F093679F10D3211F026
:1002E000013E29F74F7009F0042F0093C9003F9198
:1002F0005F914F911F910F912F91DF910F90CAB78E
:10030000C5FD18CFCF91CFBFCF9118952091C900CF
:10031000222369F31091C700112309F046C034303D
:100320000AF445C03093C7002093C5001091C60061
:100330003BE0311B3093C6003AC00091C70001304A
:10034000A4F50AE54F7049F43091610034FD30C0E6
:1003500000936100C1EAD0E02FC0433059F044302F
:1003600091F03091AC0034FD23C00093AC00CDEA95
:10037000D0E022C03091E00034FD1AC00093E000CC
:10038000C1EED0E019C03091B80034FD11C0009327
:10039000B800C9EBD0E010C0052710E000C021C0B4
:1003A000052710E0C89508BB14C03AE501C032ED3E
:1003B000032EC0E0D0E032E017B31861C39A08B34F
:1003C00017BB58E120E84FEF20FF052708BB279512
:1003D00017951C3F28F700004552B0F720FF05276E
:1003E000279508BB17951C3FB8F629913A9561F7F8
:1003F000077E1091C800110F08BBC250D04011F009
:100400001093C40010E21ABF086017B3177E402F84
:10041000477E54E05A95F1F708BB17BB48BB67CF3E
:10042000982F92959F7061F420E0982F892F8695E0
:10043000869511F02E5F982F892F8695820F08954B
:1004400024E0F4CF80919D0090919F00892B8093B0
:100450007000E0919B00F0919C00309731F0028099
:10046000F381E02D80E790E009950895672B39F43A
:10047000811108C0E2ECF0E085919491089580E04C
:1004800090E0089581E0FCCF803E9105D1F1C8F461
:100490008133910509F481C048F48932910509F44A
:1004A00071C08A32910509F47FC00895893391059E
:1004B000E1F082389105C9F08533910509F45DC0FA
:1004C0000895843E9105D1F148F4823E910531F1C1
:1004D000833E910541F181EE90E00895863E9105BD
:1004E000C1F1873E9105F1F10895209197002370A5
:1004F00009F064C02091980023FF14C089E290E0C5
:1005000008952091970020FD45C03091980030FF5C
:1005100009C024FD24C083EE90E008952091970047
:1005200022FDF7CF08952091970022FD44C030911D
:10053000980030FD43C024FFF5CF11C020919800F2
:1005400021FFF0CF8091970084FD09C087EE90E0F5
:1005500008952091970023FFE5CF24FFF7CF80E097
:1005600090E008952091970023FD2BC030919800D2
:1005700031FFE1CF84EE90E008952091970025FFB0
:10058000D1CFBCCF2091970025FD1EC020919800AF
:1005900023FFC8CF89E390E008952091970026FFBC
:1005A000C1CF8AE290E008952091970026FFBACF4C
:1005B00081E390E0089582EE90E0089580EE90E06F
:1005C000089586EE90E0089585E390E00895909177
:1005D000970092FF10C041E0282F2471243009F0C9
:1005E00040E031E0282F2871283009F030E043172F
:1005F00011F02CE0822793FF10C041E0282F2471D6
:10060000243109F040E031E0282F2871283109F029
:1006100030E0431711F02CE082273091980030FF32
:1006200010C051E0282F2171213009F050E041E045
:10063000282F2871283009F040E0541711F029E0E4
:10064000822731FF10C041E0282F2171213109F0AC
:1006500040E031E0282F2871283109F030E04317BD
:1006600011F029E0822794FD877E089580E00895A7
:100670002FB7F89480918E0090918F00A0919000F8
:10068000B09191002FBF089580918700089508953B
:1006900008950895FC019381933039F130F491303D
:1006A000A1F09230D1F080E008959132E9F19232D8
:1006B000D1F784819581892BB1F78EE190E0809309
:1006C0007D0090937E0084E4089580EB90E0809319
:1006D0007D0090937E0082E108958EE890E0809303
:1006E0007D0090937E0082E208958281813061F0E6
:1006F000823091F08111D7CF8AE890E080937D001D
:1007000090937E0084E008958AE690E080937D00D7
:1007100090937E008EE1089582E690E080937D00C4
:1007200090937E0086E0089584819581892B09F05D
:10073000BACF80EA90E080937D0090937E0089E0BC
:100740000895A3E0B0E0E6EAF3E05CC52091A000E4
:1007500088E0820F8093A00030E0C90166E070E07D
:1007600020D58C018FEFE82EF12CC801B7012AD5D6
:10077000FB01220F331FCB0165E570E012D5422F3C
:10078000481B842F63E004D5A82FB0E0CD01B7014A
:1007900008D59701291B3109C901B70102D5292FB5
:1007A000E330F10521F1C7018A1B9B0BB701F9D496
:1007B000A701491B5109CA01B701F3D40C3F53E00B
:1007C000150760F4E130F10509F441C0892F20E0FC
:1007D000329709F43DC080E02FEF0BC0E430F10503
:1007E00009F438C03697B9F3822F2FEF35C08FEF59
:1007F00020E099832A838B83BA9A38B33B7F28B34E
:1008000024604FB7F894CE010196BE016C5F7F4F14
:10081000FC0101965081E8E028BB000000C057FFB2
:1008200038BB550F00C000C000C000C038BB00C0BE
:10083000EA9591F78617970759F74FBF82E894E03A
:100840000197F1F700C000002396E6E0F7C480E0CE
:100850009FEFCFCF292F8FEF90E0CBCFA8E0B0E074
:10086000E3E3F4E0D3C466EE7EEF80E090E02BD5C6
:1008700060E082E090E00DD581E080939E0061E031
:1008800083E090E006D560E074E184E090E01BD561
:1008900060E086E090E0FDD46FEF87E090E0F9D46F
:1008A00060E070E0AB0188E090E005D560E084E2B4
:1008B00090E0EFD460E087E190E0EBD460E08CE082
:1008C00090E0E7D460E08DE090E0E3D419821A82F2
:1008D0001B821C821D821E821F82188648E050E007
:1008E00068E170E0CE010196C5D460E070E0AB0134
:1008F00080E290E0E0D460E070E0AB018FE090E057
:10090000DAD460E070E0AB0183E190E0D4D42896C3
:10091000E2E098C4ACE0B0E0EFE8F4E071C44F83EB
:10092000588769877A878B87E92E9C879111109267
:100930009F0086E0FE013796DE01119601900D9230
:100940008A95E1F78B85811509F461C0C980DA8049
:1009500080919E0065DD182FB60188DD69817A815E
:10096000812F84DDE11431F0833228E7920709F00A
:1009700049C0E7DE09811A8180919E0051DDB801EE
:1009800075DD82DD8C01903208F048C011115FC026
:10099000803E910508F03EC08D3C910508F04BC0AB
:1009A0008130910539F00497813A910508F444C0EB
:1009B00000E010E0A12FAF70FA2E103118F0F29481
:1009C00090EFF922E11409F498C0F11409F47FC002
:1009D00080E2800F883010F0011147C080919D00A7
:1009E0008F2980939D002EDD011549F1077081E06C
:1009F00001C0880F0A95EAF700919D00082B00932B
:100A00009D0063C083309C4709F0B4CF27DF2C964C
:100A1000E8E012C4805E91090897C8CF103500F154
:100A2000C801805A9245809718F6802F8F71CFDDCC
:100A300000E0182F01C01065103208F4BBCF098107
:100A40001A8180919E00ECDCB80110DDE0CF812F8F
:100A5000BEDDC82E802F90E017DD8C011C29ECCF65
:100A6000802F90E011DD8C01E7CF80919F008F29CE
:100A700080939F00E7DC8CEF800F813AC0F582E71E
:100A8000E82E80E0F82EF7018081801719F1319669
:100A9000B0E0E837FB07C1F7EFEF80E0D7019C91AA
:100AA000901799F0BFEFEB1AFB0AEF3F19F4911181
:100AB00001C0E82F8F5F863089F7EF3F31F0FE2FBE
:100AC000FF0FFF0BE059FF4F0283BCDCB8CF0111D1
:100AD000D2CFB5CFE2E7F0E08191801302C0DF0111
:100AE0001E9220E0E837F207B9F7ACDCD5CF80E200
:100AF000800F883008F0A3CF79CF011561F18CEF1A
:100B0000800F813AB8F4E2E7F0E08191801302C0EF
:100B1000DF011E9220E0E837F207B9F793DCF11409
:100B200009F48DCF9F2D909580919F00892380930C
:100B30009F00CBCF80E2800F883088F79DEF01FDCA
:100B400097EF00FF959502FD929580919D00892376
:100B500080939D0077DCF11409F471CF9F2D90955F
:100B600080919D00892380939D00AFCFA6E0B0E0E7
:100B7000EBEBF5E049C37CDD8C018091990090910D
:100B80009A008017910769F019821A8271DDBC0101
:100B900049815A8180E090E0BDDE00939900109376
:100BA0009A002696E4E04CC386B3809581709091BC
:100BB0009600981321C0809194008115E1F0209156
:100BC0009200309193004FB7F89480918E009091ED
:100BD0008F00A0919000B09191004FBF821B930BAA
:100BE000059748F080919600909195008913809325
:100BF00095001092940008958093960081E0809370
:100C0000940036DD80939200909393000895CF93E3
:100C1000DF939091C70093500AF474C08091C5008F
:100C2000803108F46DC02091C600CCE0D0E0C21B3A
:100C3000D109C653DF4F8D3209F0F5C0983009F065
:100C40005FC083EC8093A1008AE5809361001092DD
:100C50007C002881822F807609F4A7C0803251F46D
:100C60008981893099F140F4823029F1833059F13A
:100C7000813079F090E017C08A3009F492C08B304F
:100C8000C9F78C819D81892BA9F78A8180936200A5
:100C9000F1CF2C813D81232B69F72FE730E02093A2
:100CA0007D0030937E008F81811128C08E8189174D
:100CB00028F5982F23C088E790E080937D009093DB
:100CC0007E0091E0F0CF82E690E0F7CF8A819B81B1
:100CD0008115924069F48C819D81892B49F481E0D2
:100CE00080937B008E819F818093790090937A001E
:100CF0009FEF27FD9E8180E880937C0090936000A9
:100D00001092C7008091610084FF3EC08091600016
:100D10008F3FD1F1C82F893008F0C8E0982F9C1B75
:100D2000909360009091A10028E892279093A100F1
:100D30008115E9F080917D0090917E0020917C00EA
:100D400026FF8DC0FC012C2F42EA50E03491DA01DD
:100D50003C934F5F5F4F31962150C1F701962FEFC3
:100D60002C0F820F911D80937D0090937E006C2F3D
:100D700082EA90E0D8D984E08C0FC83019F09FEF58
:100D8000909360008093610084E196B3987131F490
:100D90008150D9F71092C8001092C400DF91CF9112
:100DA00008958B818093780065CF9A811092AA0074
:100DB000E981EC30A0F4F0E0E758F64F09942CE814
:100DC00030E081E005C01092AB002AEA30E082E01A
:100DD00020937D0030937E0016C09093C8002AEACD
:100DE00030E0F6CF9B81913019F4CE0153DC08C07E
:100DF0009230D9F39330C9F39132B9F39232A9F317
:100E000090E490937C00982F4ECF90938C00E7CF86
:100E10009BE49093AD009093E1009093B900DFCFF5
:100E20002AEA30E0CECF80917C0087FF69CF8091A5
:100E3000790090917A00892B71F080917B0081304C
:100E400051F48881809387001092790010927A0083
:100E50001092600055CF8EE18093610051CFDC018C
:100E60002C2F42EA50E0FA013D9130834F5F5F4FF3
:100E70002150C9F773CF1F93CF93DF93EC0115E097
:100E80008091AC0084FD0DC0C2DE80E990E5019741
:100E9000F1F700C00000115099F7DF91CF911F9139
:100EA00008958091AC0084FD16C08AE58093AC0063
:100EB000EEEAF0E0CE010896DE0121962C91219316
:100EC0008C179D07C9F768E08EEA90E02CD98CE07A
:100ED0008093AC00E2CF8091AD0098E889278093A1
:100EE000AD00E6CFCF93DF93EC01C5DF88E0FE01D4
:100EF000AFE7B0E001900D928A95E1F7DF91CF91D5
:100F0000089500D000D000D0CDB7DEB780E890E0E3
:100F10000FB6F89486BD96BD0FBE86E393E080932E
:100F20006E0090936F00AC9A8BB780628BBF8BE49E
:100F30008093AD008093E1008093B9008AE58093AF
:100F4000AC008093E0008093B800BB9A8FEFA89527
:100F5000ECE1F0E13197F1F700C000008150B9F702
:100F6000BB98789482E08ABD84E083BF80E489BD29
:100F700080E189BFB898C09A1092950010929600AF
:100F800080E090E072D1863E9E4F09F067DC82E0FF
:100F900090E063D18093890084E090E066D18093F3
:100FA00097009093980083E090E057D180939E0043
:100FB000C8DB83E690E080939B0090939C0027E839
:100FC00034E882E0215030408040E1F700C000006A
:100FD00008E180918D00811509F43FC010928800CE
:100FE000E8E1F0E020E40FB6F894A895E093410022
:100FF0000FBE2093410085B7877E806185BF85B78E
:10100000806285BF7894889585B78F7D85BF0FB640
:10101000F894A89581B5886181BD11BC0FBEC4DD6F
:10102000809195008115A9F2F89497B3C39A892FFE
:10103000886187BB88B3802788BB33E482E4E1E022
:1010400031508040E040E1F700C0000088B38027C5
:1010500088BB97BBC3987894BCCFD9DD80918C00B6
:10106000811509F4B6CF8091AC0084FFB2CF9CDD2E
:1010700080918A001091950018131FC077DDE091D0
:101080009B00F0919C0080E0309721F00190F0816E
:10109000E02D099590918B00981709F49ACF8093D1
:1010A0008B008FB7F89440918E0050918F00609123
:1010B0009000709191008FBF8CCF812780FF0FC06F
:1010C00019821A82D5DABC018B839C83F1E0FD83FF
:1010D000912F91709E8349815A8181E01BDC10938E
:1010E0008A008FB7F89440918E0050918F006091E4
:1010F0009000709191008FBFC2CF1F921FB61F92B8
:1011000011248F939F93AF93BF9380918800811197
:1011100013C080918E0090918F00A0919000B091AB
:1011200091004196A11DB11D80938E0090938F0078
:10113000A0939000B0939100BF91AF919F918F9138
:101140001F901FBE1F90189578941F921FB61F9274
:1011500011248F939F93AF93BF9380918E009091B2
:101160008F00A0919000B09191000196A11DB11D3A
:1011700080938E0090938F00A0939000B093910085
:10118000BF91AF919F918F911F901FBE1F90189597
:10119000002480FD060E660F11F08695D1F7802D94
:1011A00008950024552704C0080E591F880F991F61
:1011B000009729F076956795B8F37105B9F7802DFA
:1011C000952F0895AA1BBB1B51E107C0AA1FBB1F87
:1011D000A617B70710F0A61BB70B881F991F5A95C3
:1011E000A9F780959095BC01CD0108952F923F926B
:1011F0004F925F926F927F928F929F92AF92BF9227
:10120000CF92DF92EF92FF920F931F93CF93DF93D2
:10121000CDB7DEB7CA1BDB0B0FB6F894DEBF0FBE2F
:10122000CDBF09942A88398848885F846E847D847C
:101230008C849B84AA84B984C884DF80EE80FD807E
:101240000C811B81AA81B981CE0FD11D0FB6F894F4
:10125000DEBF0FBECDBFED010895E199FECF9FBB6C
:101260008EBBE09A99278DB30895A8E1B0E042E0E3
:1012700050E02FC0DC01A40FB51F4150504040F09A
:10128000CB01840F951F2E9105D041505040D8F7C7
:101290000895262FE199FECF9FBB8EBBE09A019760
:1012A0000DB2021639F01CBA2DBB0FB6F894E29AB3
:1012B000E19A0FBE08950396272FECDFEADF252F72
:1012C000E9DF242FE7CF0196272FE4DFE2CFDC010F
:1012D000CB01FC01E199FECF06C0FFBBEEBBE09A5B
:1012E00031960DB20D9241505040B8F70895F894E0
:1012F000FFCF69CD74CD73CD72CD71CD6ECD72CD72
:0A1300006ECD5DCD82CD8CCD83CD86
:0E130A00FF5A014403720747034803490300DA
:00000001FF
