:100000000C94DE030C94FB030C94FB030C94FB0395
:100010000C94FB030C94FB030C94FB030C94FB0368
:100020000C94FB030C94FB030C948F1F0C94632023
:100030000C94FB190C94FB030C94FB030C94FB0332
:100040000C94FB030C94FB030C94FB030C94FB0338
:100050000C94FB030C94821A0C94FB030C94FB038A
:100060000C94FB030C94FB030C94FB030C94FB0318
:100070000C94FB030C94FB030C94FB030C94FB0308
:100080000C94FB030C94FB030C94FB030C94FB03F8
:100090000C94FB030C94FB030C94FB030C94FB03E8
:1000A0000C94FB030C94FB030C94FB03A9000100CC
:1000B00001000100A800AC00AE00AB00AA000100E6
:1000C0000100010044454255473A2064697361626A
:1000D0006C65642E0A0044454255473A20656E61BE
:1000E000626C65642E0A000A0025303258006C6587
:1000F000645F7461736B3A20004F6E6573686F7450
:100100003A206163746976653A2025640A000A0022
:1001100025303862003A200025303258000A722F0C
:10012000632030313233343536370A003F00433EE6
:1001300020004C25640A000A092D2053746174754F
:1001400073202D0A686F73745F6B6579626F6172DB
:10015000645F6C65647328293A20253032580A6B35
:100160006579626F6172645F70726F746F636F6CD8
:100170003A20253032580A6B6579626F6172645F8C
:1001800069646C653A20253032580A6B65796D6177
:10019000705F636F6E6669672E6E6B726F3A2025B3
:1001A0003032580A74696D65725F7265616433320A
:1001B00028293A202530386C580A002573000A098E
:1001C0002D20436F6E736F6C65202D0A4553432FAE
:1001D000713A09717569740A000A092D204D616729
:1001E0006963202D0A443A094465627567204D65AC
:1001F000737361676520546F67676C650A583A09C5
:100200004D6174726978204465627567204D6F6432
:100210006520546F67676C65202D2053686F7720C9
:100220006B65797072657373657320696E206D619B
:100230007472697820677269640A4B3A094B657970
:10024000626F61726420446562756720546F6767EE
:100250006C65202D2053686F77206B65797072650F
:100260007373207265706F72740A4D3A0944656247
:100270007567204D6F75736520546F67676C650AED
:10028000563A0956657273696F6E0A533A09537488
:10029000617475730A433A094163746976617465E0
:1002A00020436F6E736F6C65204D6F64650A463135
:1002B0002D4631303A0953776974636820746F2092
:1002C0004C6179657220302D392028463130203D2F
:1002D000204C30290A302D393A0953776974636804
:1002E00020746F204C6179657220302D390A475295
:1002F0004156453A0953776974636820746F204CFE
:100300006179657220302028616C7465726E617449
:1003100065290A423A094A756D7020746F20426F50
:100320006F746C6F616465720A4553433A094A758C
:100330006D7020746F20426F6F746C6F61646572B2
:100340002028616C7465726E617465290A453A09EA
:100350005072696E7420454550524F4D205365745C
:1003600074696E67730A4241434B53504143453AA7
:1003700009436C65617220454550524F4D0A4E3A13
:10038000094E4B524F20546F67676C650A006B65CE
:10039000796D61705F636F6E6669672E7261773A1F
:1003A00020253032580A2E737761705F636F6E7448
:1003B000726F6C5F636170736C6F636B3A2025754D
:1003C0000A2E636170736C6F636B5F746F5F636F32
:1003D0006E74726F6C3A2025750A2E737761705FA8
:1003E0006C63746C5F6C6775693A2025750A2E73AF
:1003F0007761705F7263746C5F726775693A20250C
:10040000750A2E737761705F6C616C745F6C6775D1
:10041000693A2025750A2E737761705F72616C747A
:100420005F726775693A2025750A2E6E6F5F677572
:10043000693A2025750A2E737761705F677261765D
:10044000655F6573633A2025750A2E737761705F67
:100450006261636B736C6173685F6261636B73701D
:100460006163653A2025750A2E6E6B726F3A2025FE
:10047000750A2E737761705F6573636170655F6382
:100480006170736C6F636B3A2025750A0064656256
:1004900075675F636F6E6669672E7261773A2025B4
:1004A0003032580A2E656E61626C653A2025750AF5
:1004B0002E6D61747269783A2025750A2E6B657904
:1004C000626F6172643A2025750A2E6D6F757365CF
:1004D0003A2025750A006565636F6E6669673A0A9A
:1004E00064656661756C745F6C617965723A20252C
:1004F000750A003F004E4B524F3A206F66660A0065
:100500004E4B524F3A206F6E0A000A6D6F7573653D
:100510003A206F66660A000A6D6F7573653A206F40
:100520006E0A000A6B6579626F6172643A206F66C9
:10053000660A000A6B6579626F6172643A206F6EB9
:100540000A000A6D61747269783A206F66660A0063
:100550000A6D61747269783A206F6E0A000A6465E8
:100560006275673A206F66660A000A64656275679D
:100570003A206F6E0A000A0A4A756D70696E67202C
:10058000746F20626F6F746C6F616465722E2E2EB3
:100590002000433E2000436C656172696E67204510
:1005A0004550524F4D0A000A002530325820006E47
:1005B0006B726F5F7265706F72743A2025303258BB
:1005C000207C20000A002530325820006B657962BB
:1005D0006F6172645F7265706F72743A2025303299
:1005E00058207C200064656C5F6B65795F6269747C
:1005F0003A2063616E27742064656C3A202530329E
:10060000580A006164645F6B65795F6269743A20BF
:1006100063616E2774206164643A20253032580A81
:100620000073757370656E64696E67206B657962BF
:100630006F6172640D0A005B575D005B535D005B88
:10064000525D005B445D005B435D000A0334006261
:10065000007900330000001E0345006C0069006152
:10066000007300200053006A00F600670072006506
:100670000065006E0000000403090409025B00032A
:100680000100A0FA09040000010301010009211181
:10069000010001224400070581030800010904014B
:1006A000000103000000092111010001226D000773
:1006B0000582032000010904020002030000000972
:1006C00021110100012222000705830320000107F8
:1006D0000503032000011201000200000008EEEEF5
:1006E00019200100010200010631FF0974A101096E
:1006F00075150026FF009520750881020976150002
:1007000026FF00952075089102C005010980A1010E
:10071000850319012AB700150126B7009501751048
:100720008100C0050C0901A101850419012AA0025C
:10073000150126A002950175108100C0050109066A
:10074000A1018506050719E029E71500250195088F
:10075000750181020507190029EF1500250195F0A3
:100760007501810205081901290595057501910298
:10077000950175039101C005010906A1010507193D
:10078000E029E7150025019508750181029501759D
:100790000881010507190029FF150026FF009506AD
:1007A0007508810005081901290515002501950521
:1007B00075019102950175039101C00011241FBEBE
:1007C000CFEFDAE0DEBFCDBF12E0A0E0B1E0E4E7BA
:1007D000F6E402C005900D92A635B107D9F723E0E3
:1007E000A6E5B2E001C01D92A434B207E1F70E9471
:1007F0003C140C94BA220C940000FF93EF93E09108
:100800005602F0915702309709F00995EF91FF9148
:100810000895FC018591803011F0EFDFFBCF089542
:10082000FF27E0E230E247FF0CC0419597FF09C087
:10083000EDE26095709580959095611D711D811D0B
:10084000911D27FF02C0219530E350E2AA27660FD1
:10085000771F881F991FAA1FA41710F0A41B639568
:100860005A95A9F7AA3008F0A95FA05DAF93F39558
:10087000611571058105910541F7ED3211F4EF9392
:10088000F395F21718F43F93F395FBCF8F91B5DFF3
:10089000FA95E1F70895E991F9918591803021F079
:1008A000853219F0AADFF9CF089520E0E894559138
:1008B0005532C1F3503311F4689455915A3348F4CA
:1008C000505390F3220F022E220F220F200D250FDE
:1008D000F4CF0EF4219589919991533619F353373A
:1008E00029F1533559F1BC0188279927E8945C36E2
:1008F00021F48991999168945591543639F446EFD1
:100900007EF077FF0DC08FEF9FEF0AC055374AE0AA
:1009100039F0583540E121F0523642E009F00895AF
:10092000FF93EF937DDFEF91FF91B7CFFF93EF93AD
:10093000FC0181918030B9F360DFFBCFFF93EF932F
:1009400068DFF1CFDF93CF93CDB7DEB72596A3DF76
:10095000CF91DF910895811111C0633078F4443054
:1009600068F484E0689FF0011124E40FF11DEE0F9C
:10097000FF1FE455FF4F85919491089581E090E029
:1009800008950E94AB04089581E008950E94C40474
:10099000089581E008950E94C40408950E94CB0444
:1009A000089508950E94D1040895A6E0B0E0EBED0B
:1009B000F4E00C942A2249835A839E8330915D028D
:1009C00089819A8131111AC03E81332399F0222303
:1009D00089F00E94990A182F682F89819A810E94B4
:1009E000760A69817A81812F0E949B112696E3E025
:1009F0000C9446220E94870A182FF3CF0E94990A6E
:100A000069817A81F1CFFC01262F40815181628179
:100A10007381848195810E94D5040895CF93DF93DB
:100A2000EC0161E00E940305BE010E94C604DF9153
:100A3000CF910895CF93DF93EC0160E00E9403050E
:100A4000BE010E94D204DF91CF91089581E0089504
:100A50000E9426050895CF93C82F0E944B098C2F22
:100A60000E9428052FEF84E39CE0215080409040B5
:100A7000E1F700C00000CF91089581E00E942B05AE
:100A80000E94A61A089580E00E942B050E94B71AC2
:100A900008950F931F93CF93DF938C0161E00E9421
:100AA0000305EC01B8010E94CE04811106C080E06C
:100AB000DF91CF911F910F910895B801CE010E944F
:100AC0006A178823A1F3B801CE010E942A16882351
:100AD00071F3B801CE010E940016882341F3F8019A
:100AE0008581882369F0C330FCE7DF0781F160F47A
:100AF000C130ECE7DE0769F1C0F4C115DC4791F0C5
:100B0000C8010E94C904D4CFCB35ECE7DE0739F128
:100B1000CC35FCE7DF0701F1CA35DC4789F70E94D5
:100B2000F30EEECF0E943D05C2CF90910D03892FA9
:100B30008E7F90FF816080930D0380FF05C086ED5E
:100B400090E00E940904B3CF84EC90E0FACF0E94B9
:100B5000FB0E0E944305ABCF0E94E90ED1CF0E944D
:100B6000F70ECECF0E94D8190E94F10508950E9479
:100B7000F5050E94DD190895829590E09C01220FF1
:100B8000331F220F331F2C7C95958795959587955C
:100B90008373282B30E0C901880F991F8A7A359515
:100BA00027952575822B0895089581E0089508956D
:100BB000CF93DF93D82F0E94D505C82F882319F033
:100BC0008D2F0E94D7058C2FDF91CF910895089526
:100BD000CF93C82F0E94D4058C2F0E94D805CF91A7
:100BE000089580E00E94E80508950E94B3170E94CE
:100BF000E8050895CF930E94B317C82F809158023B
:100C00008C1789F1C09358020E94671A60935902A9
:100C100070935A0280935B0290935C0280910D0363
:100C200082FF1EC080FF1CC08EEE90E00E9409046F
:100C300080910D0380FF14C01F92CF9389EE90E046
:100C40009F938F930E94A20480910D030F900F90A9
:100C50000F900F9080FF04C087EE90E00E9409047F
:100C60008C2F0E94E805CF910895ADE0B0E0EBE352
:100C7000F6E00C942B22488759876A877B878C87FC
:100C80009D8791110E94E60D1F8286E0FE01389635
:100C9000DE01119601900D928A95E1F78D81811107
:100CA0000DC029813A814B815C816D817E818F816C
:100CB0000E94300D2D96E2E00C944722CE01019661
:100CC0000E940E058111EDCFF5CFFC01248121306A
:100CD00021F4808191810E94CB0A0895CF93C82F7F
:100CE0008823C1F08CEF8C0F813AB0F48C2F0E94D6
:100CF000BD1581110FC08C2F0E94C318882329F0C5
:100D00008C2F0E9485190E947A0E8C2F0E946E19DA
:100D10000E947A0ECF91089580E28C0F883048F4BB
:100D2000C77081E001C0880FCA95EAF70E94C90D1B
:100D3000EFCFEBE5EC0FE33040F4F0E0EB5BFE4F80
:100D4000808190E00E945718E5CFC85ACB3110F748
:100D5000EC2FF0E0EE0FFF1FE15FFE4F80819181ED
:100D60000E947C18D7CF882339F19CEF980F913AD5
:100D700028F40E9485190E947A0E089590E2980F37
:100D8000983050F4877091E001C0990F8A95EAF786
:100D9000892F0E94CF0DEFCF9BE5980F933028F459
:100DA00090E080E00E9457180895885A8B3120F413
:100DB00090E080E00E947C1808951F93CF93DF930A
:100DC000182FEB010E946E06209739F4812F0E94A4
:100DD000B306DF91CF911F9108958FE99FE00197AE
:100DE000F1F700C000002197EFCF70E060E0893399
:100DF00011F460E570E00E94DD060895882321F07B
:100E00000E94C90D0E947A0E0895882321F00E9445
:100E1000CF0D0E947A0E0895B0E0A0E0E2E1F7E085
:100E20000C9424226C01D62FC72FFC01158106815A
:100E300002950F700E94BF0DE82E8823F9F0E12E75
:100E40001123E1F08C2F807F803461F080E28D0FE0
:100E5000883008F18C2F807E803221F4D230D8F097
:100E60000023C9F080912C0382FF15C082E00E940C
:100E7000AA0E0E94BF0D91E0E82EE926BC2EB29486
:100E80009FE0B922FBE0FB15B8F1EB2DF0E0E45454
:100E9000FD4D0C941522E12CF1CF0C2F0F70C07F6B
:100EA00011F00295007F112399F0002359F080E2A0
:100EB0008D0F883010F0D11107C0802F0E94C90D0E
:100EC0000E947A0E8D2F5AC0802F0E94D90DF8CF24
:100ED0008D2F0E94B306002379F080E28D0F8830B9
:100EE00010F0D11104C0802F0E94CF0D03C0802FBD
:100EF0000E94DF0D0E947A0EEB2DE850FF0B349715
:100F000020F40E94B3170E94E805EE2089F00E94A9
:100F1000BB0D80FD0DC0F60115820E94B50D0E942B
:100F2000D409C6010E9416090E94B50D0E94E40969
:100F3000CDB7DEB7E9E00C9440222C2F2F70F22EB3
:100F4000C07FC03219F0F29480EFF822DD2341F027
:100F5000D130D1F1112309F444C00023F1F0B2CF14
:100F600080912C0382FD15C0112359F0FF2029F038
:100F70008F2D0E94C90D0E947A0E80E00E946E069D
:100F8000BBCF80E00E94B306FF2009F4B5CF8F2DC0
:100F9000ABCF112369F0011104C08F2D0E94FE0612
:100FA000ABCF013009F0A8CF8F2D0E94FD0DA4CF4B
:100FB0000111A2CF8F2D0E9405078F2D0E94090ECF
:100FC0008F2D0E94ED0D98CF112321F0063008F0EF
:100FD00093CFE3CF053008F08FCF8F2D0E94050708
:100FE0008BCF0023D1F3D93349F43FEF87EE93E061
:100FF000315080409040E1F700C000008D2F0E94EA
:10100000B3067ACF8C2F86958695837069F08130F0
:1010100009F072CF8D2F9C2F9370111102C080E0C8
:1010200090E00E947C1868CF8D2F9C2F9370111137
:1010300002C080E090E00E9457185ECF8C2F837032
:10104000A1F5111159CF4D2F429546954770440F88
:10105000440F2D2F2F7030E0042E02C0220F331FBB
:101060000A94E2F790E080E0D4FF09C08FE090E0BE
:1010700002C0880F991F4A95E2F780959095C69512
:10108000C695C370822B932BC23049F058F4C130FF
:1010900019F00E94A40930CF0E949B092DCF0E9415
:1010A000AD092ACF0E94980927CF8695112311F008
:1010B0008C2F8170882309F41FCF4D2F42954695C0
:1010C0004770440F440F2D2F2F7030E0042E02C0C4
:1010D000220F331F0A94E2F790E080E0D4FF09C0AA
:1010E0008FE090E002C0880F991F4A95E2F7809543
:1010F0009095C695C695C370822B932BC23049F04C
:1011000058F4C13019F00E940F0AF6CE0E94060A68
:10111000F3CE0E94180AF0CE0E94BC09EDCECF702B
:10112000112329F08C2F0E94D4098D2F37CF8D2FBA
:101130000E9405078C2F0E94E409DECED23F41F1C8
:1011400060F4D03FB9F0D13F81F0112309F446C0DB
:101150000111B8CE8C2F8F711FC0D33F01F1D43F46
:10116000A1F780912C0382FD24C08C2F8F71112355
:1011700011F312C0112341F0053008F0BDCE8C2FC1
:101180008F710E94F609B8CE063008F0B5CEF7CFC1
:101190008C2F8F711111CFCF0E94D409ADCE1123A6
:1011A00029F08C2F8F710E94C809A6CE0E94C30916
:1011B000A3CE112349F0CF718C2F0E94D40963E094
:1011C0008C2F0E948C0E98CE81E00E94AA0E0230D5
:1011D00008F492CE82E00E94AA0E8ECE002359F02F
:1011E000D93309F00BCFEFEFF7EE23E0E150F040F9
:1011F0002040E1F701CF8C2F8F719DCF0F931F936C
:10120000CF93DF93EC01688179818D810E94D60AAA
:101210008C010E94210A0E949709B801CE010E9408
:101220000C07DF91CF911F910F910895CF93DF931A
:10123000EC018C81882399F0CE010E94490581112F
:1012400011C00E94BF0D882351F08D81882339F091
:1012500080912C0382FF03C082E00E94AA0EDF91DE
:10126000CF910895CE010E94FE08CE010E941A057A
:10127000F6CF90E080E00E94571890E080E00E9456
:101280007C180E94E60D0E947A0E08950E949C1917
:101290000E94390908950E94D60D0E9446090895BA
:1012A00092959F70963091F058F4925F9F709230B3
:1012B00058F4803F19F030F4883E30F481E008950E
:1012C0009A5FF4CF843FD1F380E00895883EB0F375
:1012D000813FD1F7F3CFFC012481222339F08081B3
:1012E00091810E94CB0A0E945009089580E00895E0
:1012F000A6E0B0E0EEE7F9E00C942B222696E2E0BF
:101300000C944722A7E0B0E0E8E8F9E00C942B2227
:101310002796E2E00C94472208950E948C090895D4
:101320000E948D0990936902809368020895089540
:101330000E94900908952091680230916902822BE1
:10134000932B0E94900908952091680230916902C0
:10135000822393230E94900908952091680230917E
:101360006902822793270E94900908950E948C09A0
:1013700008950E94B60908950E94B90990936702E2
:1013800080936602089590E080E00E94BC09089571
:1013900021E030E0A90102C0440F551F8A95E2F711
:1013A000CA010E94BC09089521E030E002C0220F6A
:1013B000331F8A95E2F78091660290916702822B33
:1013C000932B0E94BC09089521E030E002C0220F57
:1013D000331F8A95E2F720953095809166029091AF
:1013E0006702822393230E94BC09089521E030E024
:1013F00002C0220F331F8A95E2F780916602909116
:101400006702822793270E94BC09089520916602F3
:1014100030916702822B932B0E94BC090895209182
:10142000660230916702822393230E94BC090895CB
:101430002091660230916702822793270E94BC099F
:1014400008950895262F277091E001C0990F2A95DD
:10145000EAF723E0769567952A95E1F7660F771FFF
:10146000660F771FFA01E60FF71F50E040E0682F84
:1014700070E08191DF0111979B01042E02C0369527
:1014800027950A94E2F721702195282729232827F8
:101490002C934F5F5F4F4430510559F70895A82FA3
:1014A000A77023E0969587952A95E1F7880F991FF5
:1014B000880F991FFB01E80FF91F50E040E080E022
:1014C000219130E00A2E02C0369527950A94E2F762
:1014D00021703327042E01C0220F0A94EAF7822BD1
:1014E0004F5F5F4F4430510559F70895262F9330D1
:1014F00068F4843058F434E0939FB0011124680FED
:10150000711D4EE552E0822F0E94220A0895933009
:1015100070F4843060F444E0949F900111246EE5EF
:1015200072E0820F932F911D0E944F0A089580E070
:101530000895B0E0A0E0EFE9FAE00C9424227C01E9
:101540000091660210916702809168029091690291
:10155000082B192BCFE0D0E0CC24C394D12CBC2E87
:10156000C6010C2E02C0880F991F0A94E2F780234F
:101570009123892B49F4219790F7B12C8B2DCDB76E
:10158000DEB7E9E00C944022B7018C2F0E94A7112E
:10159000019789F3F3CFCF93DF93EC010E94990A6F
:1015A000BE010E94A711DF91CF9108951F93CF93A1
:1015B000DF93EB0190915D02992339F0CB010E94FA
:1015C000CB0ADF91CF911F910895882369F0CB0159
:1015D0000E94990A182F682FCE010E94760ABE0138
:1015E000812F0E94A711EDCFCB010E94870A182FEF
:1015F000F6CF1F93CF93DF93C0916A0217E08091DB
:101600006B028C1304C0DF91CF911F910895D0E03D
:101610001C9FF0011D9FF00D1124E459FD4F208106
:101620003181428153816481758186810E94820962
:101630002196C770E4CF2091A4023091A502409179
:10164000A6025091A7026091A8027091A902809110
:10165000AA020E9482090895CF93DF938091AA0283
:10166000807F09F04DC08091A902882309F448C009
:10167000E0916A0250916B02C091A502D091A40240
:101680006091A6027091A70247E05E17C9F18E2F04
:1016900090E0E49FF0011124E459FD4F24812223BE
:1016A00091F1489FF001499FF00D1124DF01A459E9
:1016B000BD4F11962C9111972C1325C02C912D13F1
:1016C00022C015962C91159721111DC012962D91AF
:1016D0003C91261B370B283C3105A8F48091AA02C7
:1016E0008F7080618093AA02EE58FD4F80818F70C9
:1016F0008061808384EA92E00E9416090E94F90AC0
:10170000DF91CF910895FC013196E770BECF482F4D
:1017100020916A0290916B0257E0291302C080E089
:10172000089530E0529FF001539FF00D1124E459C9
:10173000FD4F8181681306C08081481303C08581F5
:101740008111EECF2F5F3F4F2770E7CFA4E1B0E0CC
:10175000ECEAFBE00C9421228C0186E0F801DE012A
:101760001F9601900D928A95E1F7F8018481E5803A
:1017700094EAA92E92E0B92E9091A80291111FC06F
:101780008823D1F0EE20A9F0C8010E946B09F82E41
:10179000882379F087E0F801D50101900D928A95B0
:1017A000E1F7C5010E9465060E942C0B0E941B0BED
:1017B0005FC0C8010E941609FF24F39459C0C0807D
:1017C000D18082809380F090A9022091A60230916E
:1017D000A702A401421B530BFF2009F4F9C0483CA7
:1017E000510508F0A7C0882309F442C09091A502D2
:1017F0008091AA02282F207F09F05CC09D1116C09D
:101800009091A402C91212C0E1104EC08F70806185
:101810008093AA020E941B0B84EA92E00E941609A0
:101820008091AA02F8018683F12C22C0E1103CC00D
:101830006D2D8C2D0E94870B6D2D8C2D0E94870B9A
:10184000E82E8111F1CFCF86D88A8F8598890E94A2
:10185000CB0A292F22952F70243078F49F702230E4
:10186000A8F09923B9F0F8019681907F99F4FE2CA5
:101870008F2D6496ECE00C943D222A5F2F7022306D
:1018800068F0C8010E941609EF2CF1CF992311F0DE
:10189000882369F3805E883050F3F3CF803F38F3BC
:1018A000815F833070F7E3CF8091AA0281608093DB
:1018B000AA02BACF9D1113C09091A402C9120FC001
:1018C000E1100DC08683C8010E94160987E0F80167
:1018D000A4EAB2E001900D928A95E1F767CFC801C2
:1018E0000E946B09882309F464CFEE2009F461CFCC
:1018F0008091AA02803288F02091A4023091A50242
:10190000398728879B868A869091A8029C871D86A6
:101910008E87CE0108960E94160987E0F801A4EA96
:10192000B2E001900D928A95E1F70E942C0B0E9483
:101930001B0B42CF9091AA02292F207FA1F4682D82
:101940009A8A898AA6017A899E2D0E94780984EA5A
:1019500092E00E94160987E0F50111928A95E9F755
:101960000E941B0B61CF882309F482CF8091A502CE
:101970008D1110C08091A402C8120CC0E1100AC0E1
:101980009683C8010E94160987E0F50111928A9595
:10199000E9F76ECFC8010E946B09882309F409CFCB
:1019A000EE2009F406CF8091AA02803208F4B5CF68
:1019B0002091A4023091A5023A8329839C828B82D4
:1019C0009091A8029D831E828F83CE010196A3CFA2
:1019D000483C5105B8F5882309F4EECEFE2CEE20E4
:1019E00009F4E7CE8091A5028D111EC08091A4025A
:1019F000C8121AC08091AA0280FD0DC0982F907F56
:101A000051F08683903F09F45ECF982F907F905FCE
:101A10008F70892B57CF87E0F801A4EAB2E00190DC
:101A20000D928A95E1F724CFC8010E946B098111BC
:101A300074CF8091AA0281608093AA02C8010E949B
:101A4000160916CF682D9A8A898AA6017A899E2D51
:101A50000E94780987E0F50111928A95E9F7A6CEF0
:101A6000AEE0B0E0E6E3FDE00C942A222887398757
:101A70004A875B876C877D878E87CE0108960E9498
:101A8000A60B8823B1F06C85662341F02885398543
:101A90004A855B857D858E850E94820917E080914D
:101AA0006A0290916B0289133DC02E96E3E00C947C
:101AB000462287E0FE013896DE01119601900D92D4
:101AC0008A95E1F78C85882349F320916B0230E0F9
:101AD000C90101968770992740916A024817190633
:101AE00099F097E0929FD001939FB00D1124A459D3
:101AF000BD4FFE01319601900D929A95E1F78093CA
:101B00006B020E94F90ACACF0E944B0910926B0225
:101B100010926A0287E0E4EAF2E0DF011D928A9502
:101B2000E9F7BCCF819FC001112484599D4F0E94C9
:101B3000A60B882309F4B9CFE0916A021E9FF00139
:101B40001124E459FD4F2081318142815381648108
:101B5000758186810E94820980916A0290E00196D7
:101B60008770992780936A029ACF8091D3028695D5
:101B70008695869508958091D302877008959091F7
:101B8000D302977081E009F480E008958091FF020C
:101B900008959091FF02892B8093FF02089580950C
:101BA0009091FF0298239093FF0208951092FF02F4
:101BB00008959091FE02892B8093FE0208958095EE
:101BC0009091FE0298239093FE0208951092FE02D7
:101BD000089508950E94E90D08959091D402292F47
:101BE000282331F0809589238093D4020E94EA0D46
:101BF000089508950E94F90D08959091D502292F16
:101C00002823281729F0982B9093D5020E94FA0DCB
:101C100008959091D502292F282331F080958923AA
:101C20008093D5020E94FA0D08958091D5028823F1
:101C300029F01092D50280E00E94FA0D0895CF930A
:101C4000C091FF028091FE02C82B8091D5028823AB
:101C500031F0C82B0E94A11881110E94150E8C2F03
:101C6000CF910895CF93DF93C0910201D0910301EA
:101C70000E941F0E8883C0910201D091030148E0A9
:101C800050E06BEC72E0CE010E945222892B59F099
:101C900088E0FE01ABECB2E001900D928A95E1F78D
:101CA000CE010E94C017DF91CF910895CF93DF93AB
:101CB000C0910001D09101010E941F0E8983C09143
:101CC0000001D091010140E250E06BEA72E0CE01E8
:101CD0000E945222892B59F080E2FE01ABEAB2E069
:101CE00001900D928A95E1F7CE010E940A18DF91CA
:101CF000CF91089580910E01882339F080912B03B4
:101D000087FF03C00E94560E08950E94320E089568
:101D100008950E94880E089590912C0392FF11C09F
:101D200098E0899F90011124622B6093D3020E9456
:101D3000D4098091D3028695869586950E94890E56
:101D400008950E94D40908951092D30280E00E9461
:101D5000890E08959091D302809589238093D302B0
:101D6000282F277069F4891759F090912C0392FF5E
:101D700007C08695869586950E94E4090E94A40E68
:101D80000895CF93C82F80912C0382FB992790F957
:101D90009C17E9F0C0FB82F980932C0380912B0300
:101DA00090912C030E941C0F82E00E94AA0E809149
:101DB0000D0380FF0CC01F92CF9389EF90E09F939B
:101DC0008F930E94A2040F900F900F900F90CF91CD
:101DD000089580912C0382FB882780F991E0892760
:101DE0000E94C10E089581E00E94C10E089580E016
:101DF0000E94C10E08956FEF7FEF90E080E00E9497
:101E0000A422089590E080E00E94702221E0863EA6
:101E10009E4F09F020E0822F089582E090E00E941A
:101E20006822089583E090E00E946822089584E08B
:101E300090E00E9470220895BC0184E090E00E942E
:101E4000A4220895AB01BC018FE090E00E9498228B
:101E50000895AB01BC0183E190E00E9498220895AF
:101E600060E070E0CB010E94290F089560E070E00F
:101E7000CB010E94220F0E94300F0895A8E0B0E02D
:101E8000E4E4FFE00C942B2266EE7EEF90E080E02D
:101E90000E94A42260E082E090E00E94862281E01D
:101EA00090E0909369028093680261E083E090E0A3
:101EB0000E94862260E074E184E090E00E94A42207
:101EC00060E086E090E00E9486226FEF87E090E07D
:101ED0000E94862240E050E0BA0188E090E00E9433
:101EE000982260E084E290E00E94862260E087E130
:101EF00090E00E94862260E08CE090E00E948622C2
:101F000060E08DE090E00E94862219821A821B8296
:101F10001C821D821E821F82188648E050E068E104
:101F200070E0CE0101960E94762240E050E0BA01B6
:101F300080E290E00E9498220E94360F2896E2E00C
:101F40000C9447220E943E0F0895682F8EE090E087
:101F50000E9486220895A6E0B0E0E1EBFFE00C9439
:101F600029220E945B1A8C01809100039091010349
:101F70008017910781F019821A820E945B1A682FDC
:101F800049815A81792F80E090E00E9435061093B4
:101F90000103009300032696E4E00C9445220E947E
:101FA000671A6093090370930A0380930B0390935D
:101FB0000C036093050370930603809307039093CB
:101FC00008030895089508950E94E20F0895089562
:101FD0000E94E70F08958DE59CE10E9449140E943C
:101FE000E30F0E94E40F089581E008950E94F40F2A
:101FF00008950E94F40F0895089508950E94FC0F1B
:102000000E94FD0F08950E949E120E94E705089508
:102010000E94521A0E949F130E9403100E94E80F10
:102020000895A6E0B0E0E7E1F0E10C9422220E94DE
:10203000F60F811108C00E94AB0F0E94FA05269688
:10204000EBE00C943E220E94B5131091020380E055
:102050000E94C41218130EC01091030381E00E9465
:10206000C412811307C01091040382E00E94C412BD
:10207000181709F380910D0381FD0E94CA120E9476
:10208000F90FC82E82E0A82E83E0B82E10E0992424
:102090009394812F0E94C412082FF50181915F0152
:1020A000081729F1D02ED826F12CEE24E3948D2D9B
:1020B0008E21A9F0CC2099F0F9821A830E945B1A34
:1020C0009C838B839D8291E0802F8E2109F490E088
:1020D00049815A816B817C818D810E943506F39400
:1020E000EE0CF4E0FF12E3CFF501319700831F5FA0
:1020F000133079F60E94CF0FA0CF1F93CF93DF93B9
:102100000E94AC11EC01C11580E5D807F0F5C115AE
:1021100080E4D80708F09CC0C03ED10520F5CD3C36
:10212000D10508F082C0C83AD10578F4C53AD10586
:1021300008F073C0C130D10519F1209709F1C430FE
:10214000D105F0F4D0E0C0E01BC0C33CD105D0F70E
:10215000C85AD0E0CC0FDD1FC85BDE4F0990D88194
:10216000C02DD4640DC0C11580E2D80708F0D1C0DD
:10217000C11581E0D80708F05AC0C83ED10510F754
:10218000CE01DF91CF911F910895C03682E5D80727
:1021900018F5C03482E5D80708F06BC0C03282E57C
:1021A000D80708F05FC0C11582E5D80708F497C0CA
:1021B0002C2F2695269580E2289F900111248C2FA4
:1021C0008370C1E0D0E002C0CC0FDD1F8A95E2F73A
:1021D000C22BD32BDD68D4CFC03A82E5D80760F498
:1021E000C03882E5D80708F459C0CF71D0E0DC2FA1
:1021F000CC27C46FD06AC4CFC03C82E5D80708F4AE
:1022000062C0C03E82E5D80708F09CCFDC2FCC2707
:10221000CC27DF71C06FD06AB3CFC55AD0E0C258A7
:10222000DE4FC881D0E0D064ABCFD065A9CF8D2F71
:102230000E944E12182FCE0199270E94AC11C12F77
:10224000D0E0DC2FCC27CC27DF71C82BD92B98CF3F
:10225000CE0199270E94AC11CC27DF70C82BD92B57
:10226000D06A8ECFCF71D0E0DC2FCC27C16FD06A7F
:1022700087CF2C2F26952695277080E2289F9001E6
:1022800011248C2F8370C1E0D0E002C0CC0FDD1F81
:102290008A95E2F7C22BD32BDC6872CF2C2F2695C0
:1022A0002695277080E2289F900111248C2F83703F
:1022B000C1E0D0E002C0CC0FDD1F8A95E2F7C22B4F
:1022C000D32BDA685DCF8C2F8F710E944E12C82FEE
:1022D000D0E0DC2FCC27CC27DF71D06251CF8C2F00
:1022E0008F710E944E1255E0D695C7955A95E1F729
:1022F000CF70D0E0DC2FCC27282F30E084FF05C042
:1023000044E0220F331F4A95E1F7C22BD32BD0694B
:1023100037CF8D2F8F710E944E12182FCE01992723
:102320000E94AC11C12FD0E0DC2FCC27CC27DF716D
:10233000C82BD92BD2CF462F733030F4643020F421
:10234000672F0E94C104089590E080E008950E94E4
:102350009B110E947D10089582389105B9F1B0F467
:102360008133910509F47DC048F48932910509F45F
:102370006DC08A32910509F47BC0089585339105BB
:1023800009F45FC08933910509F10895833E9105F1
:10239000D9F138F4803E910529F1823E910579F119
:1023A0000895863E9105D9F1873E910509F43EC016
:1023B000843E910541F520912C0321FF24C080919A
:1023C0002B0384FD19C087EE90E0089520912B0324
:1023D000237009F05AC020912C0323FF14C089E216
:1023E00090E0089520912B0320FD38C030912C03FC
:1023F00030FF09C024FF43C090E080E008952091A1
:102400002B0322FDF7CF089520912B0322FD3AC024
:1024100030912C0330FD39C024FFF5CFEDCF209152
:102420002B0323FFF0CF24FDE7CFCDCF20912B034B
:1024300023FD2EC030912C0331FFEECF84EE90E0CF
:10244000089520912B0325FFDECFC9CF20912B03C8
:1024500025FD21C020912C0323FFD5CF89E390E0F7
:10246000D2CF20912B0326FFCECF8AE290E00895B1
:1024700020912B0326FFC7CF81E390E0089583EEE0
:1024800090E0089582EE90E0089580EE90E0089547
:1024900086EE90E0089585E390E0089590912B03F7
:1024A00092FF10C041E0282F2471243009F040E051
:1024B00031E0282F2871283009F030E0431711F05F
:1024C0002CE0822793FF10C041E0282F2471243193
:1024D00009F040E031E0282F2871283109F030E080
:1024E000431711F02CE0822730912C0330FF10C0ED
:1024F00051E0282F2171213009F050E041E0282FD0
:102500002871283009F040E0541711F029E08227A3
:1025100031FF10C041E0282F2171213109F040E046
:1025200031E0282F2871283109F030E0431711F0ED
:1025300029E0822794FD877E089508950E94020F66
:10254000811102C00E94A20F0E940D0F80930D0303
:102550000E94170F90932C0380932B030E949D12CF
:102560000E94120F90E00E9498098091660290915B
:1025700067020E94B909089508950E94BC12089547
:1025800008950E94C0120895E82FF0E0E05DFC4F2E
:1025900080810895B0E0A0E0E0EDF2E10C94252206
:1025A0008DE191E00E94090480E3E82E83E0F82E9B
:1025B000D0E0C0E098E1C92E91E0D92E00E111E011
:1025C000DF93CF93DF92CF920E94A20485E191E046
:1025D0000E940904F70181917F010E94BC051F92AE
:1025E0008F931F930F930E94A2048EE091E00E94AC
:1025F000090421968DB79EB708960FB6F8949EBF32
:102600000FBE8DBFC330D105D9F6CDB7DEB7E8E038
:102610000C94412280EA8A95F1F7089500C008954C
:102620000E940A130895F894E82FE295EF70F0E005
:1026300031A1282F2F7081E090E001C0880F2A95EA
:10264000EAF7982F9095932391A392A1892B82A3C7
:102650007894089581E90E94131380E90E9413136E
:1026600084E90E94131386E60E94131387E90E94EF
:10267000131386EC0E94131384E30E94131308952E
:10268000B0E0A0E0E6E4F3E10C942522EC01D62EC4
:10269000062F10E0C8018B579E4F7C01FC01808102
:1026A0008F3F09F445C0F894E82FE295EF70F0E011
:1026B00091A18F7021E030E001C0220F8A95EAF7E6
:1026C000892F822B81A382A12095282322A378948D
:1026D0000E940E13E1E8F1E045E851E031E0C12C41
:1026E00021912F3F51F1A22FA295AF70B0E09096AB
:1026F0008C9190E02F7002C0959587952A95E2F70E
:1027000080FD1BC0832FC82A330F4E175F0741F788
:10271000F70180818F3F11F00E94131361E0C11017
:1027200001C060E08D2D0E941013C00FD11FC88220
:10273000CDB7DEB7E8E00C94412280E0E4CF0E9400
:102740002A1383E0E0E3F3E0DF01982F1D929A95CE
:10275000E9F7EDE2F3E0DF011D928A95E9F783E006
:102760000E94F4130E94BD120895A3E0B0E0EBEBC9
:10277000F3E10C942A2219821A821B8260E0CE01B6
:1027800001960E94401361E0CE0101960E94401321
:1027900062E0CE0101960E94401343E050E0BE018A
:1027A0006F5F7F4F8DE293E00E94522221E00097FD
:1027B00009F420E0892B49F089819A81AB818093CB
:1027C0002D0390932E03A0932F0343E060E373E067
:1027D0008DE293E00E94F513182F0E94C112812F01
:1027E0002396E3E00C9446220895B0E0A0E0EBEFDE
:1027F000F3E10C9425226C017B01042FC22F2223CC
:1028000079F081E0809310030E945B1A90930F038C
:1028100080930E0380E0CDB7DEB7E8E00C94412250
:10282000D0911003DD23B1F380910E0390910F033B
:102830000E94731A059770F310E0A801B601C70152
:102840000E945222892B31F0A801B601C7010E94D3
:102850005F22CD2F109210038C2FDDCF0E94D91C48
:102860000E9408100E94E61C08950E94EB1C0E9422
:1028700011100E940D1D08950E94F4190E94BF1CA2
:102880000E94EB0F0E942E140E9435140E94FE0F2E
:10289000FBCF90935702809356020895CF93C82F91
:1028A0001F928F9382E391E09F938F930E94A204E3
:1028B00081E090E002C0880F991FCA95E2F70E945C
:1028C00098090E944B090F900F900F900F90CF9195
:1028D0000895B0E0A0E0EFE6F4E10C942622EBEFDF
:1028E000E80FEF3308F03EC1F0E0E853FD4D0C94E3
:1028F00015220E94120F1F928F9386ED94E09F93F2
:102900008F930E94A2040E940D0F83FB992790F9D8
:102910001F929F9382FB992790F91F929F9381FBAF
:10292000992790F91F929F93982F91701F929F93D0
:102930001F928F938DE894E09F938F930E94A2043F
:102940000E94170F93FB222720F91F922F9387FBDA
:10295000222720F91F922F9386FB222720F91F920E
:102960002F9385FB222720F91F922F9384FB222788
:1029700020F91F922F9383FB222720F91F922F9378
:1029800082FB222720F91F922F9391FB222720F907
:102990001F922F93292F21701F922F9381FB2227A3
:1029A00020F91F922F93282F21701F922F939F930E
:1029B0008F938EE893E09F938F930E94A2048DB72C
:1029C0009EB78A960FB6F8949EBF0FBE8DBF81E06A
:1029D0001CC086E995E00E9409040E94A20FF7CF6F
:1029E00089ED91E00E940904F2CF80910D03807F70
:1029F00080930D038EEB91E00E94090482E995E03B
:102A00000E94090481E080931103CDB7DEB7E7E0AF
:102A10000C94422286E795E00E9409040E943D053D
:102A2000D6CF90910D03892F8E7F90FF8160809388
:102A30000D0380FF03C08AE695E0D4CF8DE595E0D5
:102A40000E94090480910D03817F80930D03BFCF05
:102A500090910D03892F8D7F91FF826080930D03EC
:102A600081FF08C080E595E00E94090480910D0374
:102A70008160EBCF82E495E0B5CF90910D03892F73
:102A80008B7F92FF846080930D0382FF03C083E3FA
:102A900095E0EACF83E295E0A5CF90910D03892FD1
:102AA000877F93FF886080930D0383FF03C087E1D6
:102AB00095E0DACF8AE095E095CF88E891E09F93A2
:102AC0008F938BEB91E09F938F930E94A2040F90C2
:102AD0000F900F900F907BCF0E94671A062FF72E52
:102AE000E82ED92EC0912B03C7FBCC27C0F910913B
:102AF0002A03D0910E010E94B317DF92EF92FF924A
:102B00000F931F92CF931F921F931F92DF931F92D9
:102B10008F9387E391E09F938F930E94A2048DB7D8
:102B20009EB70E960FB6F8949EBF0FBE8DBF4FCFC7
:102B30000E944B0990912B03892F97FB87F98058AE
:102B400080932B0387FF03C080E095E04BCF85EF98
:102B500094E048CF80E00E944E1439CF8953FBCFD8
:102B60008D51F9CF83EF94E00E94090480E04DCFAE
:102B700080E008950E94B8150895CF93C82F8091E2
:102B80001103882331F0813099F01092110380E015
:102B90000DC00E94C60D8232D1F78C2F0E94B8154D
:102BA000811119C08C2F0E9469148170CF910895F2
:102BB0000E94C60D823289F38C2F0E94BA158111B2
:102BC00019C0C431C9F050F4CB3061F08CE291E00F
:102BD0000E94090413C081E090E0E7CFC93261F0A0
:102BE000C833A1F78EEB91E00E9409048EE291E0D8
:102BF0000E94090481E0D9CF1092110380E0D5CF63
:102C0000CF93DF93EB0186319C4711F50E94C60DEF
:102C10009D81992399F08A7A91E009F490E090934C
:102C20001203811109C089E20E946E190E947A0E76
:102C300080E0DF91CF91089585E3F6CF8091120374
:102C4000811104C089E20E948519F0CF85E3FBCF92
:102C500081E0EFCFCF93DF93EC01FB0185818823E7
:102C600009F4D2C09E0130572332310508F0B2C0BA
:102C70000E94170F90932C0380932B03FE01E150C9
:102C8000F047E232F10520F4E95FFC4D0C94152287
:102C900080912B03816080932B0393C080912C0340
:102CA000886080932C038DC080912B038260F3CFCA
:102CB00080912B038460EFCF80912B038860EBCF52
:102CC00080912C038160EDCF80912C038260E9CF4D
:102CD00080912B038061DFCF80912B038062DBCF5B
:102CE00080912B038064D7CF0E944B0980912B03E6
:102CF0008068D1CF80912B038C60CDCF80912C0345
:102D00008360CFCF80912B038E7FC5CF80912C0322
:102D1000877FC7CF80912B038D7FBDCF80912B0301
:102D20008B7FB9CF80912B03877FB5CF80912C0308
:102D30008E7FB7CF80912C038D7FB3CF80912B03F3
:102D40008F7EA9CF80912B038F7DA5CF80912B0300
:102D50008F7BA1CF0E944B0980912B038F779BCF54
:102D600080912B03837F97CF80912C038C7F99CF09
:102D700080912B0382FB992790F921E0922790FB09
:102D800082F990FB83F987CF80912C03982F90953F
:102D900091708E7F892B90FB81F983CF90912B03CB
:102DA000892F8F7B96FF806476CF0E944B0990918C
:102DB0002B03892F97FB87F980586DCF81E00E9404
:102DC000A50F80912B0390912C030E941C0F0E9451
:102DD0004B0980E0DF91CF91089580E0F0CF909192
:102DE0002B03892F8F7E94FF806155CF90912B0309
:102DF000892F8E7F90FF81604ECF90912C03892F79
:102E0000877F93FF88604DCF81E0E4CF0F931F93BE
:102E1000CF93DF93C42FD22FFC0185818823C9F083
:102E2000409315030E945B1A90931403809313033D
:102E300080E28C0F883040F4C77081E001C0880FB9
:102E4000CA95EAF70E94FE06DF91CF911F910F917C
:102E5000089510911503141332C0809113039091BB
:102E600014030E94731A883C910548F5C0E2CD0F07
:102E70001D17B9F080E2810F883040F4177081E0AF
:102E800001C0880F1A95EAF70E940507C83048F478
:102E900081E09D2F977001C0880F9A95EAF70E94F4
:102EA000FE06802F0E94F506C83070F6D77081E0CC
:102EB00001C0880FDA95EAF70E940507C5CF80E2C6
:102EC0008C0F883008F6C77081E001C0880FCA9562
:102ED000EAF7F2CF0F93DB0188519C4787309105C9
:102EE000A0F5FC01E75DFC4D0C94152206E221EEF5
:102EF00041EE6AE17CE7CD010E94061780E00F9168
:102F0000089507E225EE45EE6BE17CE7F4CF06E29B
:102F100021EE40EE68E17CE7EECF07E225EE44EEDD
:102F200069E17CE7E8CF06E221EE42EE6CE17CE766
:102F3000E2CF07E225EE46EE6DE17CE7DCCF08E26A
:102F400021E045EE6EE17CE7D6CF15968C91882383
:102F500019F010921503D3CF81E0D1CF90931B03CA
:102F600080931A030895E0911A03F0911B033097A0
:102F700029F00190F081E02D0995089580E00895F1
:102F8000EF92FF920F931F93CF93DF93EC01E091A9
:102F90001A03F0911B033097C1F10280F381E02DF9
:102FA000099580910D0382FF30C080FF0DC088819C
:102FB0001F928F938CEC95E09F938F930E94A204B5
:102FC0000F900F900F900F907E0186E0E80EF11C9D
:102FD00006EC15E080910D0380FF0BC08A811F92E3
:102FE0008F931F930F930E94A2040F900F900F9046
:102FF0000F902196CE15DF0569F780910D0380FFB4
:1030000004C084EC95E00E940904CDB7DEB7E6E089
:103010000C944322EF92FF920F931F93CF93DF9371
:10302000EC01E0911A03F0911B033097D9F186E08F
:1030300088830480F581E02DCE01099580910D03F0
:1030400082FF30C080FF0DC089811F928F938FEA6D
:1030500095E09F938F930E94A2040F900F900F9082
:103060000F907E018EE1E80EF11C09EA15E08091D7
:103070000D0380FF0BC08A811F928F931F930F93C4
:103080000E94A2040F900F900F900F902196CE15E2
:10309000DF0569F780910D0380FF04C087EA95E0A2
:1030A0000E940904CDB7DEB7E6E00C944322A3E00A
:1030B000B0E0EDE5F8E10C942B222091180330915B
:1030C000190328173907A1F0909319038093180367
:1030D000E0911A03F0911B03309751F023E029830C
:1030E0009B838A830084F185E02DCE0101960995AA
:1030F0002396E2E00C944722A3E0B0E0E2E8F8E196
:103100000C942B22209116033091170328173907AE
:10311000A1F09093170380931603E0911A03F091A6
:103120001B03309751F024E029839B838A8300841A
:10313000F185E02DCE01019609952396E2E00C94ED
:10314000472220910201309103012E5F3F4F809171
:103150000E01882379F080912B0387FF0BC020910B
:103160000001309101012E5F3F4F9EE180E09150C0
:1031700018F4089596E0FACFF90141919F01442394
:10318000B1F38F5FF4CF882321F190910E01992341
:1031900011F190912B0397FF1EC0E82FE695E6955D
:1031A000E695EE31B0F42091000130910101E20F7B
:1031B000F32FF11D228130E0877041E050E002C022
:1031C000440F551F8A95E2F72423352381E0232BF2
:1031D00091F480E008952091020130910301F901FA
:1031E0003296285F3F4F9191981721F0E217F3072D
:1031F000D1F7EFCF81E008959C01FC0132969FEF5B
:1032000080E04191461751F09F3F19F4411101C0F0
:10321000982F8F5F8630A9F79F3F09F40895290FF3
:10322000311D97FD3A95F90162830895FC013296AC
:1032300008962191261303C0DF0111971C92E8170D
:10324000F907B9F70895E62FE695E695E695EE318C
:1032500070F4E80FF92FF11D677021E030E001C034
:10326000220F6A95EAF78281822B828308958091EA
:103270000D0380FF0CC01F926F9383E096E09F9335
:103280008F930E94A2040F900F900F900F900895BB
:10329000E62FE695E695E695EE3178F4E80FF92FFE
:1032A000F11D677021E030E001C0220F6A95EAF756
:1032B0002095828128232283089580910D0380FF29
:1032C0000CC01F926F9385EE95E09F938F930E94A1
:1032D000A2040F900F900F900F900895682F809187
:1032E0000E01882359F080912B0387FF07C080913E
:1032F0000001909101010E9423190895809102011B
:10330000909103010E94FC180895682F80910E018E
:10331000882359F080912B0387FF07C0809100011B
:10332000909101010E9448190895809102019091A5
:1033300003010E941619089580910E01882379F0E7
:1033400080912B0387FF0BC0E0910001F0910101F8
:1033500032968EE1DF011D928A95E9F70895E0919A
:103360000201F0910301329686E0F4CF08950E94A5
:10337000B6190895811106C081E080931C030E9454
:10338000B719089582E0F9CF83E080931C030E946F
:10339000B71908950E94BA19089581E080931C031B
:1033A0000E94B71908950E94CD19089508950895AF
:1033B0000E94D7190895089508950E94D619089576
:1033C000CF930E94DB190E94B5130E94DC19C0E064
:1033D0008C2F0E94C412811105C0CF5FC330C1F78A
:1033E000CF91089581E0FCCF85B7806885BF85B710
:1033F000806885BF08951F921FB61F9211248F9376
:103400009F93AF93BF9380911D03811113C080914F
:10341000330390913403A0913503B0913603419664
:10342000A11DB11D8093330390933403A093350302
:10343000B0933603BF91AF919F918F911F901FBEA4
:103440001F90189580913B03843031F10E94B205A2
:1034500010921D0388E190E020E40FB6F894A8953F
:10346000809360000FBE2093600083B7817F8460EB
:1034700083BF83B7816083BF7894889583B78E7F3D
:1034800083BF0FB6F894A8958091600088618093FF
:103490006000109260000FBE08950E944B090E94C8
:1034A000B705089582E084BD93E095BD9AEF97BD7E
:1034B00080936E0008952FB7F89480913303909114
:1034C0003403A0913503B09136032FBF08952FB771
:1034D000F894609133037091340380913503909197
:1034E00036032FBF08959C014FB7F89480913303A2
:1034F00090913403A0913503B09136034FBF821BE6
:10350000930B089578941F921FB61F9211248F93E6
:103510009F93AF93BF938091330390913403A09115
:103520003503B09136030196A11DB11D809333037D
:1035300090933403A0933503B0933603BF91AF91BA
:103540009F918F911F901FBE1F90189587E797E757
:10355000909301088093000888E19AE00FB6F894F0
:10356000A895809360000FBE90936000FFCF88E124
:103570009AE00FB6F894A895809360000FBE9093E0
:103580006000FFCF80912903089508959B01BA013F
:1035900090913B039430E9F48F708093E9009FEFA2
:1035A0008091E800915085FD06C085ED8A95F1F780
:1035B00000009111F5CF8091E80085FF0AC050E02E
:1035C00040E0C9010E94831D8091E8008E778093BE
:1035D000E800089543E050E0BC0182E00E94C61A72
:1035E000089540E250E0BC0182E00E94C61A0895AE
:1035F000CF93DF93EC0148E050E0BC0181E00E94F2
:10360000C61A88E0FE01A1E2B3E001900D928A950E
:10361000E1F7DF91CF91089587E496E00E940904D5
:1036200080913A03811109C00E94131F0E94701FEC
:103630008091E20084608093E200089583E496E044
:103640000E94090410923A0308958FE396E00E94C5
:1036500009040E94CD1908958BE396E00E940904A5
:103660006091370381E0611101C080E00E94C419BC
:10367000089587E396E00E94090490913B0381E05E
:10368000943009F080E0609137030E94CA190895D0
:1036900020911F032F5F822F62E30E94092299234A
:1036A00019F020931F03089510921F0380912003A7
:1036B0008823F1F080913B038430C1F49091E900BC
:1036C0009F702091EC00822F817020FD80E8892B73
:1036D00093E09093E9009091EB0090FF04C09091EB
:1036E000EE0097FD08C08F708093E90010922003D0
:1036F00008951092F1009091E80095FDFACF909115
:10370000E80090FFF0CF9091E8009E779093E8005A
:10371000EACF42E061EC81E00E948F1E42E261EC60
:1037200082E00E948F1E42E261EC83E00E948F1EC5
:1037300090913B0381E0943009F080E06091370381
:103740000E94BA19089580913D03833009F461C045
:1037500030F48130D1F1823009F49EC008958A306E
:1037600009F48AC08B3009F46FC0893009F050C069
:1037700080913C03813209F04BC0809140039091CD
:103780004103029708F044C08091E800877F80934E
:10379000E8008091E80082FF37C09091F3008091AB
:1037A000F200029731F48091F100813011F08630FF
:1037B00021F48091F100809329038091E8008B77B8
:1037C0008093E8000E94C31E23C080913C03813A8D
:1037D000F9F48091E800877F8093E80080914003AE
:1037E00090914103892B61F468E081E293E070E0FD
:1037F0000E94D21D8091E8008B778093E8000895A5
:1038000060E090E080E0F3CF80913B038111C1CF75
:10381000089580913C03813AD9F7809140039091BB
:103820004103892BA9F78091E800877F8093E80006
:103830008091E80080FFFCCF80910E018093F10021
:103840008091E8008E77BCCF80913C03813201F7F4
:103850008091400390914103892BD1F68091E8003B
:10386000877F8093E8000E94C31E80913E0380936F
:103870000E010E944B09089580913C03813241F66C
:103880008091E800877F8093E8000E94C31E8091AA
:103890003F0380932A03089580913C03813A09F005
:1038A000B7CF8091E800877F8093E8008091E8009F
:1038B00080FFFCCF80912A03C1CF9FB7F89410926C
:1038C00020039FBF90913B03943009F048C02091A2
:1038D000E9002F703091EC00932F917030FD90E84B
:1038E000922B23E02093E9002091EB0020FF34C0CD
:1038F0002091EE0027FF30C020911E03222321F0EB
:103900002091E80025FF28C010921E0326E0309188
:10391000E80035FF14C08093F1008091E80085FD38
:1039200027C08091E80080FFFCCF8091E8008E776F
:103930008093E8009F709093E90080E008953091B3
:103940003B03343049F43091EB0035FD05C0215084
:1039500041F481E080931E039F709093E9008FEF04
:103960000895EFE9FFE03197F1F700C00000CFCFF5
:103970008FB7F89421E0209320038FBFDBCF84B76B
:10398000877F84BF0FB6F894A89580916000886106
:1039900080936000109260000FBE80E890E00FB648
:1039A000F89480936100909361000FBE0E94D31938
:1039B00008950E94131F0E94701FE2EEF0E08081C4
:1039C0008460808378940E94EE21089584E091E0E1
:1039D0000E94AE17089580913B03853071F4809169
:1039E0000D0380FF04C081E296E00E9409048091EB
:1039F0003B03853019F00E944D1A08950E94221A47
:103A000080913903882399F30E94E019882379F380
:103A10000E946D1D0E944B09EACF08959A014091C2
:103A20004203509143030E94161D0895492F5527C4
:103A30004330510521F168F44130510509F443C088
:103A40004230510509F444C090E080E050E040E08D
:103A500026C04132510551F142325105A9F7633078
:103A6000710590F7FB01EE0FFF1FE65BFD4F4081F4
:103A70005181695B7D4FFB01808190E010C09927E7
:103A80008130910581F0009729F00297E9F6EBE487
:103A9000F6E002C0E7E7F6E0849190E0AF01F901BB
:103AA000518340830895E7E5F6E0F6CF6330710572
:103AB00058F6660F771FFB01E05BFD4F4081518197
:103AC00089E090E0ECCF82E190E046ED56E0E7CF70
:103AD0008BE590E04BE756E0E2CF80E189BD82E1E3
:103AE00089BD09B400FEFDCF8091D8008F7D809301
:103AF000D8008091E00082608093E0008091E00037
:103B000081FDFCCF0895AF92BF92CF92DF92FF92DA
:103B10000F931F93CF93DF936C01EB018A010E94F7
:103B2000E21EF82E811123C00115110539F0F801AC
:103B300080819181C81BD90BC80ED91EB12CA12C34
:103B40002097A9F08091E80085FD22C08091E800CF
:103B50008E778093E80001151105A1F0F8018081AE
:103B60009181A80EB91EB182A08285E0F82E8F2D1A
:103B7000DF91CF911F910F91FF90DF90CF90BF9079
:103B8000AF9008950E94E21E8823D1F2F82EEFCF65
:103B9000F60181916F018093F1002197FFEFAF1A39
:103BA000BF0ACECFFC018091420390914303861758
:103BB0009707A0F06115710529F49091E8009E77B0
:103BC0009093E80090E06115710551F4911108C0DF
:103BD0008091E80082FF34C080E00895BC01F2CFFC
:103BE00080913B038823C1F18530C1F18091E800C9
:103BF00083FD30C08091E80082FDEACF8091E8002B
:103C000080FFE1CF8091F3002091F200382F611501
:103C1000710519F02830310558F091E02830310550
:103C200009F090E02091E8002E772093E800CBCFB8
:103C300081918093F100615071092F5F3F4FE7CF71
:103C400080913B03882341F0853041F08091E8006A
:103C500083FFBECF81E0089582E0089583E0089558
:103C6000FC01809142039091430386179707A0F0CF
:103C70006115710529F48091E8008E778093E80042
:103C800090E06115710551F4911108C08091E80030
:103C900082FF35C080E00895BC01F2CF80913B03E4
:103CA0008823C9F18530C9F18091E80083FD31C0D6
:103CB0008091E80082FDEACF8091E80080FFE1CFAB
:103CC0008091F3002091F200382F6115710519F0F1
:103CD0002830310558F091E02830310509F090E0A6
:103CE0008091E8008E778093E800CBCF8491809319
:103CF000F1003196615071092F5F3F4FE6CF8091FF
:103D00003B03882341F0853041F08091E80083FF38
:103D1000BDCF81E0089582E0089583E00895982F53
:103D2000973028F08F708093E90081E00895909398
:103D3000E900242F762F50E0981731F07091EC00B5
:103D40002091ED005091F00021FD02C09F5FE8CF6F
:103D50003091EB003E7F3093EB003091ED003D7FE2
:103D60003093ED003091EB0031603093EB007093B5
:103D7000EC002093ED005093F0002091EE0027FD21
:103D8000E5CF80E0089580913C0387FF13C08091C8
:103D9000E80082FF06C08091E8008B778093E800FE
:103DA00004C080913B038111F2CF089580913B03C1
:103DB0008823D9F38091E80080FFF8CF8091E80054
:103DC0008E77ECCF2091E4003091E50095E6A901D3
:103DD0002091EC00822F817020FF06C08091E800C6
:103DE00080FF06C080E008952091E80022FD1AC0FF
:103DF00080913B03882389F0853089F08091EB0026
:103E000085FD0FC02091E4003091E5004217530773
:103E1000F9F29150E1F684E0089582E0089583E09C
:103E2000089581E008950E94821F0E948A1FE0EE9B
:103E3000F0E0808181608083E8EDF0E080818F7721
:103E4000808319BCA7EDB0E08C918E7F8C9380812C
:103E50008F7E808310923A0308950F931F93CF9320
:103E6000DF930E94821F0E948A1FC8EDD0E08881E4
:103E70008F77888388818068888388818F7D888315
:103E800019BC10923B031092370310923903109221
:103E9000380300EE10E0F80180818B7F80838881F9
:103EA0008160888342E060E080E00E948F1EE1EE46
:103EB000F0E080818E7F8083E2EEF0E0808181609F
:103EC0008083808188608083F80180818E7F8083F9
:103ED000888180618883DF91CF911F910F91089530
:103EE000E8EDF0E080818F7E8083E7EDF0E0808177
:103EF0008160808384E082BF81E080933A030E94E6
:103F00002D1F0895E8EDF0E080818E7F8083109270
:103F1000E20008951092DA001092E10008951F92D5
:103F20000F920FB60F9211242F933F934F935F93ED
:103F30006F937F938F939F93AF93BF93EF93FF9371
:103F40008091E10082FF0BC08091E20082FF07C0F8
:103F50008091E1008B7F8093E1000E94481B80915B
:103F6000DA0080FF19C08091D80080FF15C08091D1
:103F7000DA008E7F8093DA008091D90080FF96C0AE
:103F800080E189BD82E189BD09B400FEFDCF81E0F9
:103F900080933B030E940C1B8091E10080FF19C0BD
:103FA0008091E20080FF15C08091E2008E7F8093B7
:103FB000E2008091E20080618093E2008091D8006D
:103FC00080628093D80019BC85E080933B030E94F7
:103FD0002C1B8091E10084FF2BC08091E20084FFC4
:103FE00027C080E189BD82E189BD89B5982F917094
:103FF00080FFFBCF8091D8008F7D8093D800809187
:10400000E1008F7E8093E1008091E2008F7E8093BB
:10401000E2008091E20081608093E20080913703AA
:10402000882309F449C084E080933B030E94391B34
:104030008091E10083FF29C08091E20083FF25C0C9
:104040008091E100877F8093E10082E080933B03D1
:10405000109237038091E1008E7F8093E100809180
:10406000E2008E7F8093E2008091E2008061809385
:10407000E20042E060E080E00E948F1E8091F0004C
:1040800088608093F0000E94251BFF91EF91BF9103
:10409000AF919F918F917F916F915F914F913F91E0
:1040A0002F910F900FBE0F901F90189519BC109272
:1040B0003B030E941E1B70CF8091E30087FD93E0BD
:1040C00090933B03B3CF1F920F920FB60F92112420
:1040D0002F933F934F935F936F937F938F939F9310
:1040E000AF93BF93CF93DF93EF93FF93D091E9000A
:1040F000DF708091EC00C82FC17080FDC0E8109285
:10410000E9008091F000877F8093F00078940E940E
:10411000A7201092E9008091F00088608093F00061
:10412000CD2BCF70C093E900FF91EF91DF91CF913C
:10413000BF91AF919F918F917F916F915F914F91BF
:104140003F912F910F900FBE0F901F901895AAE2EC
:10415000B0E0EDEAF0E20C942A228CE393E02091A7
:10416000F100FC012193CF01F3E084349F07B9F7FC
:104170000E94A31B8091E80083FF1EC180913C0335
:1041800090913D039A3008F017C1E92FF0E0E05D0F
:10419000FC4D0C941522803899F0823809F00CC13E
:1041A000809140038F70873008F006C18093E9004A
:1041B0008091EB0085FB882780F91092E90006C00A
:1041C0008091380390913903911182609091E800B9
:1041D000977F9093E8008093F1001092F100809116
:1041E000E8008E77E5C0882309F4D3C0823009F057
:1041F000E3C080913E038111D6C0809140038F704F
:104200002FEF280F263008F0D7C08093E9002091C7
:10421000EB0020FFC8C0933031F48091EB00806246
:104220008093EB00C0C09091EB0090619093EB0005
:1042300021E030E001C0220F8A95EAF72093EA00DE
:104240001092EA008091EB008860EACF8111B4C03F
:1042500010913E031F778091E3008078812B80933B
:10426000E3008091E800877F8093E8000E94C31EEE
:104270008091E80080FFFCCF8091E300806880930C
:10428000E30082E0111183E080933B0395C08058E6
:10429000823008F091C080913E0390913F038C3DA5
:1042A00023E09207A1F583E08A838AE289834FB7EE
:1042B000F894DE01139620E03EE051E2E32FF0E0B7
:1042C00050935700E49120FF03C0E295EF703F5FE9
:1042D000EF708E2F90E0EA30C0F0C7968D939D93DB
:1042E0002F5F243159F74FBF8091E800877F80937B
:1042F000E8006AE270E0CE0101960E94D21D809132
:10430000E8008B778093E80057C0C096E7CF6091B4
:10431000400370914103AE014F5F5F4F0E940E1D3D
:10432000BC01892B09F448C09091E800977F9093D5
:10433000E80089819A810E94301EE1CF8038E1F542
:104340008091E800877F8093E80080913703809315
:10435000F10045CF811130C090913E03923060F55D
:104360008091E800877F8093E800909337030E9454
:10437000C31E80913703882311F084E005C080912B
:10438000E30087FDFACF81E080933B030E94891B05
:1043900013C080913E03813079F481E0933009F0BD
:1043A00080E0809339031092E9008091E800877FD4
:1043B0008093E8000E94C31E8091E80083FF0AC03A
:1043C0008091E800877F8093E8008091EB00806215
:1043D0008093EB00AA96E3E00C944622CF93809161
:1043E0003B038823A1F0C091E900CF709091EC00CD
:1043F000892F817090FD80E8C82B1092E900809190
:10440000E80083FD0E94A720CF70C093E900CF9100
:104410000895991B79E004C0991F961708F0961B20
:10442000881F7A95C9F780950895EE0FFF1F0590B4
:10443000F491E02D09942F923F924F925F926F92E8
:104440007F928F929F92AF92BF92CF92DF92EF9224
:10445000FF920F931F93CF93DF93CDB7DEB7CA1BA5
:10446000DB0B0FB6F894DEBF0FBECDBF09942A88D0
:10447000398848885F846E847D848C849B84AA8478
:10448000B984C884DF80EE80FD800C811B81AA8105
:10449000B981CE0FD11D0FB6F894DEBF0FBECDBFD0
:1044A000ED010895FB01DC0104C08D91019080199C
:1044B00021F441505040C8F7881B990B0895FB0127
:1044C000DC0102C001900D9241505040D8F7089590
:1044D000F999FECF92BD81BDF89A992780B50895CC
:1044E000A8E1B0E042E050E00C94AC22DC01A40F63
:1044F000B51F4150504048F0CB01840F951F2E91BD
:104500000E94872241505040D0F70895262FF999F4
:10451000FECF92BD81BDF89A019700B4021639F022
:104520001FBA20BD0FB6F894FA9AF99A0FBE0895F3
:104530000396272F0E9487220E948622252F0E9401
:104540008722242F0C9487220196272F0E948722EE
:104550000C948622DC01CB01FC01F999FECF06C048
:10456000F2BDE1BDF89A319600B40D924150504031
:10457000B8F70895F894FFCF4D074D079D079D07A5
:1045800002087C077C077C071E088F089E089E088F
:104590000A15F51411157914B215B215F014B215E7
:1045A000B2153D15B2154D159815B215B215B215C7
:1045B000B2156C15B215B2155D15B2152815B215E8
:1045C000B215B015B015B015B015B015B015B015C1
:1045D000B015B015AA15B2150A15E914B215B21521
:1045E000B215B215B215B215B215B215B215B21593
:1045F000AA15B215B215F014B215AE15AE15AE155A
:10460000AE15AE15AE15AE15AE15AE15AA158216C1
:10461000F6168A16541658168E165C1692169E16A4
:104620006816EF166C16A2167016A616CE1674161D
:10463000AA16D5167A16B016B8166016961664160F
:104640009A167E16B416C416DE16ED164E1686168B
:10465000FD1687178D1776178117931799179F17D0
:10466000CB20F320DC21F320DC2126214721DC2193
:044670009E21AA21BC
:10467400D602F602C21AF81AF11AC51AEA1A01E2A7
:1046840000E900EA00B500B600B700CD008301CC14
:10469400008A0192019401210223022402250226A8
:1046A4000227022A02B300B4006F0070009F01CBFE
:1046B400019F02A002818283E200E900EA00B500C2
:1046C400B600B700CD008301CC008A0192019401A9
:1046D4002102230224022502260227022A02B30011
:1046E400B4006F0070009F01CB019F02A002818281
:1046F400836697C6349190940A092D205665727387
:10470400696F6E202D0A5649443A20307845454554
:10471400452822456C69617320536AC3B667726584
:10472400656E2229205049443A203078323031399C
:104734002822346279332229205645523A2030788F
:10474400303030310A4255494C443A2020285365D0
:10475400702020382032303234290A4F5054494FC7
:104764004E533A204C5546412045585452414B45EE
:104774005920434F4E534F4C4520434F4D4D414ECE
:1047840044204E4B524F20343039360A4743433A83
:1047940020382E352E30204156522D4C4942433A72
:1047A40020322E312E30204156525F415243483A36
:1047B40020617672350A00446D2277070A07E806FD
:0647C4008D06A606BF06EB
:00000001FF
