:020000040800F2
:1020000000040020392200083B2200083B2200087F
:102010003B2200083B2200083B2200083B2200082C
:102020003B2200083B2200083B220008E9A00008F0
:102030003B2200083B2200083B220008FDA00008CC
:102040003B2200083B2200083B2200083B220008FC
:102050003B2200083B2200083B2200083B220008EC
:102060003B2200083B2200083B2200083B220008DC
:102070003B2200083B2200083B2200083B220008CC
:102080003B2200083B2200083B2200083B220008BC
:1020900061A100083B2200083B2200083B22000807
:1020A0003B2200083B2200083B2200083B2200089C
:1020B0003B2200083B2200083B2200083B2200088C
:1020C0003B2200083B2200083B2200083B2200087C
:1020D0003B2200083B2200083B2200083B2200086C
:1020E0003B2200083B2200083B2200083B2200085C
:1020F0003B2200083B2200083B2200083B2200084C
:102100003B2200083B2200083B2200083B2200083B
:102110003B2200083B2200083B2200083B2200082B
:102120003B2200083B2200083B2200083B2200081B
:102130003B2200083B2200083B2200083B2200080B
:102140003B2200083B2200083B2200083B220008FB
:102150003B2200083B2200083B2200083B220008EB
:1021600072B6264880F30888254880F309882548F8
:1021700025490860022080F31488BFF36F8F04F0B4
:1021800027FA04F03FFF4FF0553020491B4A914297
:102190003CBF41F8040BFAE71D49194A91423CBF84
:1021A00041F8040BFAE71B491B4A1C4B9A423EBFFD
:1021B00051F8040B42F8040BF8E700201849194ABB
:1021C00091423CBF41F8040BFAE704F057FF04F0DA
:1021D00053FF154C154DAC4203DA54F8041B8847E5
:1021E000F9E706F093FD124C124DAC4203DA54F8B5
:1021F000041B8847F9E704F040BF000000040020FA
:10220000000C00200020000808ED00E00000002085
:102210000004002094BA0008000C0020E80E002002
:10222000E80E0020001A002060210008602100084C
:10223000602100086021000892E700F000F8FEE746
:102240002DE9F04FC1F80CD0C3689D46BDE8F08F72
:10225000002383F311882846A047002004F0D8FF0C
:10226000FEE704F031FF00DFFEE7000070B58607EF
:1022700047D0541E002A3ED00346CAB201E0013CBA
:1022800039D303F8012B9D07F9D1032C2CD9CDB2FA
:1022900005EB05250F2C1A4605EB054534D9A4F1AD
:1022A000100C2CF00F0603F1100EB6444FEA1C1C64
:1022B000C2E90055C2E9025510327245F8D10CF15D
:1022C000010214F00C0F03EB021204F00F0C13D0F8
:1022D000ACF1040323F003030433134442F8045B1A
:1022E0009342FBD10CF003042CB1C9B21C4403F897
:1022F000011BA342FBD170BD64461346002CF4D1F0
:10230000F9E703461446C0E7A446E1E7844641EAFC
:10231000000313F0030349D1403A23D30B68036051
:102320004B6843608B688360CB68C3600B69036153
:102330004B6943618B698361CB69C3610B6A03623B
:102340004B6A43628B6A8362CB6AC3620B6B036323
:102350004B6B43638B6B8363CB6BC3634030403108
:10236000403ADBD230320BD30B6803604B684360DA
:102370008B688360CB68C36010301031103AF3D2A1
:102380000C3205D351F8043B40F8043B043AF9D22F
:10239000043208D0D2071CBF11F8013B00F8013B02
:1023A00001D30B8803806046704700BF082A13D30F
:1023B0008B07B1D010F00303AED0C3F10403D21ADF
:1023C000DB071CBF11F8013B00F8013BA4D331F837
:1023D000023B20F8023B9FE7043AD9D3013A11F8B7
:1023E000013B00F8013BF9D20B7803704B78437046
:1023F0008B78837060467047032A30B415D941EA60
:102400000004A40784460B4604D0541E0FE0043A8F
:10241000032A08D91946604653F8044B5CF8045B5C
:10242000A542F4D0F1E760461946541E7AB1431E26
:102430000139021901E09A4209D013F8010F11F88D
:1024400001CF6045F7D0A0EB0C0030BC70470020F6
:1024500030BC704753B94AB9002908BF00281CBFD7
:102460004FF0FF314FF0FF3000F00CB8ADF1080C29
:102470006DE904CE08F028F8DDF804E0DDE9022378
:1024800004B07047704700BF0246030906BF1846F4
:10249000134604209A081EBF13460230C0B25B08E0
:1024A0001CBF0130C0B27047030943EA001040B2BC
:1024B0008300C0F3850000F0330023F033030343AF
:1024C0005BB25800C3F3460303F0550300F0AA00C3
:1024D000184370470123034A834010781843107053
:1024E000704700BFAF1900200123034A83401078D2
:1024F00020EA030010707047AF19002037B5ADF81F
:102500000400C0F3072005281FD89DF80430062BCF
:102510001BD8C0EBC00003440120002403F00702D5
:102520009040C3F3CC030A4A03EB4303C0B2134405
:1025300013F8015F21FA04F242F300026A400240FC
:1025400001345540032C1D70F2D103B030BD00BFE3
:102550008B19002013B5ADF80400C0F3072005283F
:102560001CD89DF80430062B18D80021C0EBC00001
:10257000034408460A4A03F00704C3F3CC0303EB01
:10258000430313445A5CE24002F001028A400131E5
:1025900010430329C0B2F5D102B010BD0020FBE703
:1025A0008C19002030B50124084D04FA01F12B7874
:1025B00004FA00F00843C1B21840814204FA02F460
:1025C00006BF2343DBB2A3432B7030BDAF190020FD
:1025D000054B064A1B7812789A4200D170470133A6
:1025E00003F00703F8E700BFB6190020B519002073
:1025F00010B509490B7823EA000010F007040870B1
:1026000009D1984207D0054B5B785B0703D5C0081A
:10261000FFF76AFF0C7010BDB0190020B21900203E
:10262000F0B5144B144E1878144B35781B781843BA
:10263000DDB1134B1B78CBB1124B134993F900302A
:10264000002B124BB2BF1E27062719460C4600224C
:1026500014F8013B0BB10132D2B23B1B0B4413F017
:10266000FF03F5D102B133702843F0BD06270749B7
:10267000ECE700BFAB190020AC190020B419002012
:10268000E40E0020B219002082120020A2120020C5
:10269000024A137823EA000313707047AB19002035
:1026A000E7284FD8DF2807D8312864D00ED829284A
:1026B00057D02A2866D07047A0F1E003072B41D8F5
:1026C000DFE803F01540232831403C41392804D08D
:1026D000822802D035283FD07047324B1A789207B3
:1026E0001FD15B7813F0080F18BF292070472D4ABF
:1026F0001378D9074DD4527812F0010F22D013F07D
:10270000100F14BF0020E3207047264B1B7813F0F6
:10271000040FF3E7234A137859073CD45278D207C1
:10272000EDD5E02070471F4B5A7891070AD51B78EA
:1027300013F0100F14BF0020E7207047194B1B78CF
:102740001A07F5D47047174A1378190725D4527819
:102750009107EDD5E4207047124B1B7813F0200F42
:10276000C2E7104B1A78920619D45B7813F0080F61
:1027700018BF392070470B4B1B7813F0400F18BF60
:102780002A207047074B1B7813F0400F18BF3120E9
:10279000704739207047E2207047E62070473520A7
:1027A000D0E700BFB219002010B52F4C21784B079D
:1027B00013D500F01402A2F1040C00F01803DCF1B0
:1027C000000242EB0C02A3F1080CDCF1000343EB26
:1027D0000C039A4218BF80F00C000B0713D500F0D1
:1027E0001402A2F1140C00F01803DCF1000242EB19
:1027F0000C02A3F1180CDCF1000343EB0C039A422A
:1028000018BF80F00C006478E30713D500F01102C4
:1028100002F1FF3C00F01803DCF1000242EB0C0275
:10282000A3F1080CDCF1000343EB0C039A4218BF40
:1028300080F00900A30711D500F0110200F0180381
:10284000A2F111046242A3F1180C6241DCF1000311
:1028500043EB0C039A4218BF80F00900CB0648BF37
:1028600000F0E70010BD00BFB219002038B5FFF737
:1028700017FFB0F5A44F044643D2B0F5A04F80F047
:10288000AE80DF2816D8CC2800F28C80A7280AD882
:10289000A42879D8012804D0031F9BB2A12B28BFFC
:1028A0000024204638BDA0F1A8039BB21A2B71D991
:1028B0000024F6E7B0F5804F19D2B0F5005F80F044
:1028C000A080E728EDD9A0F580739BB2B3F5F85F3F
:1028D000EED2C0F30720FFF767FF0546E0B2FFF72F
:1028E000DFFE2D0205F4F85540EA050450E0C0B2C1
:1028F000FFF7D6FE04F47064204340F4204084B215
:10290000CFE7B0F5A54F22D245F25F23984253D8C6
:1029100045F23F2398420FD845F21F23984244D8EE
:10292000012300F00304C0F38502A34043EA4213ED
:1029300043F40D439CB2B4E7012300F00304C0F359
:102940008202A34043EA421343F40C43F2E745F208
:10295000BF2398420AD845F29F23984200F01F00F7
:1029600035D84AF2F40343EA00249AE7A0F5A543D8
:10297000403B9BB21F2B9BD8040204F4F85444F450
:10298000204444F0F0048CE7A0F1240444F4804493
:10299000A4B286E7234B5834E4B233F8144044F42D
:1029A00088447EE740F4A044F2E74AF2F10300F0E5
:1029B0001F0443EA042474E7012300F00304C0F376
:1029C0008202A34043EA421343F40A43B2E7FFF70B
:1029D000EBFE040204F4F85444F4005461E700F000
:1029E0001F00FFF7E1FE03B2C20648BF1B01C4F39C
:1029F00043144FEA042448BF1BB21C4344F4104460
:102A0000C6E7C0F30420FFF7CFFE0546E0B2FFF7AC
:102A100047FE2D0205F4F855054345F40055ACB2C8
:102A20003FE700BFB0B900080020704737B50C4C35
:102A30008DF8070023780B48002B50F8D43F4FF057
:102A40000102DD690DF107010CBF4FF4FA73002399
:102A5000A847B0FA80F340B25B09237003B030BDE1
:102A6000BC1200203C0C002030BFFDE70346DA68B2
:102A70000846511C10B4D96019698A4207D21C68F3
:102A80001CB15968234610BC18479B68985410BC69
:102A900070470000014B1B68184700BF140C002052
:102AA0002DE9F047DDF820A005461AF0030F0F4688
:102AB00014461E46D0F80C8010D03C44BC420FD1C6
:102AC0001AF0020F16D1BDE8F08720212846FFF743
:102AD000CDFF09F10109B145F7D3EEE79146FAE7D9
:102AE000284614F8011DFFF7C1FFE7E7202128461B
:102AF000FFF7BCFFEB68A3EB0803B342F6D3E2E7B2
:102B00002DE9F04F0D468BB01E46DDE91483944647
:102B1000169C02A9FDB9270518D4302201258DF88D
:102B2000082024F01004A2076FD404F0010243B17E
:102B3000002A6AD0BCF1000F02D114F00C0F00D0B3
:102B4000013B002A61D02A46302728E0102EEAD126
:102B500024F01004E7E714F0200F14BF4FF0410EEB
:102B60004FF0610E2A4689460025AEF10A0EB2FBEF
:102B7000F6FA06FB1A2B5FFA8BF7BBF1090F94BF2D
:102B800030377744FFB2964205F1010509F8017B21
:102B9000C9D8202DC7D05246E9E757540132934295
:102BA00001D9202AF9D1302701E05754013290454C
:102BB00001D9202AF9D1082E03D1954238BF24F03B
:102BC000100442F210073C423CD027051FD4F2B15A
:102BD000904501D093421AD1954201D2013A16D0C4
:102BE0002B4FF740FF0724D595424DD2102E02F10E
:102BF000FF3212D1A70632D4202A13D1202200940A
:102C0000FFF74EFF0BB0BDE8F08F2A46CBE7102E42
:102C1000F0D0022E0DD1202AF0D002F12805622634
:102C20006D4403E0782602F128056D4405F8206C18
:102C30000132202AE2D0302602F128056D4405F841
:102C4000206C0132202AD9D0BCF1000F0ED02D26E5
:102C500002F128056D4405F8206C0132CFE7202AE7
:102C6000CCD002F1280558266D44DFE7660704D56D
:102C700002F128052B266D44EDE72507BFD502F1AB
:102C8000280520266D44E6E7102EC4D1B2E700BF28
:102C90000400010030B50F4C94F80434BBB9302265
:102CA00082F311880C490D48CA698B605568284326
:102CB000506055680A48284350600A4A136102224E
:102CC0000A7183F31188012084F8040430BD0220C6
:102CD000FCE700BF68130020701700202301674540
:102CE000AB89EFCD002002400B4A92F8043483B147
:102CF000302383F311880949C869036943F08003CD
:102D0000036101200023087183F3118882F80434E1
:102D100070470220704700BF681300207017002022
:102D20000A4B73B51D68CB430646ADF80630084B19
:102D30000222186871190368DC680DF10603A047C8
:102D4000B0FA80F0400902B070BD00BF180C00203E
:102D50009017002038B50D4B0C461D680C4B0544F0
:102D6000186803685B689847436901205A5B002331
:102D7000084D094928700B702B700D781DB118464D
:102D80000B70238038BDD3439BB2FAE7180C0020A8
:102D9000901700205C1300205D1300207FB50346D0
:102DA0002749C3F3074213F47F4F895CC0B2C3F3D2
:102DB000072642D00624FF2344439A1BB4FBF3F4B6
:102DC0006FF05403634303EB400303EB4303DBB2B5
:102DD00003FB06F5C3F1FF0373432D121B12C5F16C
:102DE000FF05C3F1FF034A434D434B43C2F30722A0
:102DF000C5F30725C3F30723062C19D8DFE804F031
:102E00000406110F141804000D461946002061F342
:102E1000070065F30F2062F3174004B070BD0B4646
:102E2000294615461A46F1E71D460B461146F9E7B5
:102E30000B4611462A461D46E8E70A460D46E5E7D9
:102E400070B70008012830B501D8C0B230BDB0F568
:102E5000F75F88BFFF224FF001049EBF420908328E
:102E6000D2B2A3185910C3F34705C3F34F035B4312
:102E70009BB2984206D2013DEAB29442F1D9013C9C
:102E8000E0B2E3E7FF2902D00135ECB2F5E70846EE
:102E9000DCE70000074B188800EB402200EB8200C3
:102EA00000F55850193080B2188000EB1020C0B2E5
:102EB000704700BF100C002010F0400216BFC34343
:102EC0000346DBB210B503F00F0102B10131094C2A
:102ED000C3F3011304EB4302527814F813304A434E
:102EE00003EB2213DBB2020644BF5B42DBB283F08A
:102EF000800010BD68B7000810B5044610B9C90FAE
:102F0000C80110BD80EAE072A2EBE07212B20029A3
:102F100001EB02030CDB891A490191FBF3F1C1F1CA
:102F200020014BB2D8B2002CBCBF4042C0B2E8E78F
:102F30005B01521A93FBF2F3C3F160035BB2F1E75A
:102F4000144B84B003EB4103E42193F82A30019041
:102F50004B43C2EB13231C33002BC0F30720B8BF35
:102F60005B42A0EBC3031BB223EAE373434300209D
:102F70001B128DF80530019BDAB262F30700C3F330
:102F8000072262F30F20C3F3074363F3174004B033
:102F9000704700BF10B90008144B84B003EB410325
:102FA000E42193F82A3001904B43C2EB13231C33E6
:102FB000002BC0F30740B8BF5B42A0EBC3031BB2BA
:102FC00023EAE373434300201B128DF80630019B74
:102FD000DAB262F30700C3F3072262F30F20C3F3F0
:102FE000074363F3174004B0704700BF10B90008EF
:102FF00030B5C0F3072585B0EB1A01901046DCB25E
:10300000FFF77AFFC0EB801300EB8300044400203D
:10301000E4B26C4324128DF80540019BDAB262F3EE
:103020000700C3F3072262F30F20C3F3074363F3E0
:10303000174005B030BD30B5C0F3074585B0EB1A79
:1030400001901046DCB2FFF757FFC0EB801300EB96
:10305000830004440020E4B26C4324128DF806403F
:10306000019BDAB262F30700C3F3072262F30F2079
:10307000C3F3074363F3174005B030BD30B585B0E7
:10308000C0F3072501909DF820001C1A1046FFF799
:1030900033FF2C44E4B2241A0020E4B26C4324121F
:1030A0008DF80540019BDAB262F30700C3F30722F3
:1030B00062F30F20C3F3074363F3174005B030BD3D
:1030C00030B585B0C0F3074501909DF820001C1A6B
:1030D0001046FFF711FF2C44E4B2241A0020E4B29A
:1030E0006C4324128DF80640019BDAB262F30700AC
:1030F000C3F3072262F30F20C3F3074363F31740C0
:1031000005B030BD84B0019000208DF80420019BF3
:10311000DAB262F30700C3F3072262F30F20C3F3AE
:10312000074363F3174004B07047000084B0019078
:1031300000200B4B03EB410393F82A309B1A8DF8C8
:103140000430019BDAB262F30700C3F3072262F393
:103150000F20C3F3074363F3174004B0704700BF69
:1031600010B9000884B0019000200B4B03EB410321
:1031700093F82B309B1A8DF80430019BDAB262F37E
:103180000700C3F3072262F30F20C3F3074363F37F
:10319000174004B0704700BF10B90008144B143139
:1031A00030B503EB4104E57803EB4103A5F12004BE
:1031B00064B29B78002CB8BFC5F1200585B0B8BFBC
:1031C0006CB29A1A01902244C0B210448DF80400E7
:1031D0000020019BDAB262F30700C3F3072262F317
:1031E0000F20C3F3074363F3174005B030BD00BFA2
:1031F00010B9000884B0019000209DF8102003EB66
:10320000430302EB53038DF80430019BDAB262F3FF
:103210000700C3F3072262F30F20C3F3074363F3EE
:10322000174004B070471FB592B2019048B2002811
:1032300002FB02F2BCBF494248B2C0F1380000FBB9
:10324000002080B21C46FFF7FDFD00EB4000044467
:1032500000208DF80440019BDAB262F30700C3F34B
:10326000072262F30F20C3F3074363F3174004B050
:1032700010BD1FB5019010461C46FFF73DFE031917
:1032800000208DF80430019BDAB262F30700C3F32B
:10329000072262F30F20C3F3074363F3174004B020
:1032A00010BD1FB501909DF818001C1A1046FFF7BD
:1032B00023FEE4B2241A00208DF80440019BDAB208
:1032C00062F30700C3F3072262F30F20C3F307433F
:1032D00063F3174004B010BD84B0019003F11400F3
:1032E000104B03EB4003D8789B782038703B4B435E
:1032F00002FB003200209DF80430002AB8BF7F3264
:1033000003EBE2138DF80430019BDAB262F307009D
:10331000C3F3072262F30F20C3F3074363F317409D
:1033200004B0704710B9000884B0019003F1140094
:10333000104B03EB4003D8789B782038703B4B430D
:1033400002FB003200209DF80430002AB8BF3F3253
:1033500003EBA2138DF80430019BDAB262F307008D
:10336000C3F3072262F30F20C3F3074363F317404D
:1033700004B0704710B900081FB5164C143304EBA5
:103380004304E378A478203B5343A4F1700252B283
:10339000002ABCBFC4F1700462B2C2F1380201FB62
:1033A000023111EB4101019048BF7F31C0B200EB07
:1033B000E1108DF804000020019BDAB262F30700EF
:1033C000C3F3072262F30F20C3F3074363F31740ED
:1033D00004B010BD10B9000830B50D4685B001909D
:1033E000C4B21046FFF768FD124901EB450191F8A0
:1033F0002A30C218D2B2A2F180035BB2002BBCBF4C
:10340000C2F1800253B20C2200205B00DBB25343B6
:1034100004EB13248DF80440019BDAB262F3070039
:10342000C3F3072262F30F20C3F3074363F317408C
:1034300005B030BD10B90008114B84B003EB410357
:1034400093F82A1001908B1A5BB2002BBCBF521A62
:1034500053B21822DBB25343C0B200EB13208DF8F5
:1034600004000020019BDAB262F30700C3F30722D5
:1034700062F30F20C3F3074363F3174004B07047B0
:1034800010B90008C94384B00190C9B2C0F3074025
:103490004143002009128DF80610019BDAB262F355
:1034A0000700C3F3072262F30F20C3F3074363F35C
:1034B000174004B0704784B0C9B20190C1F18201D5
:1034C000C0B20029A8BF40188DF804000020019B5D
:1034D000DAB262F30700C3F3072262F30F20C3F3EB
:1034E000074363F3174004B0704784B003EB8302D3
:1034F000BDF81030019013449BB2FF2B28BFFF236F
:10350000DB43C0F30740DBB20344FF2B28BFFF239C
:1035100000208DF80630019BDAB262F30700C3F396
:10352000072262F30F20C3F3074363F3174004B08D
:10353000704700291FB5B8BF4942002AB8BF5242A0
:1035400009B2090112B2FF294FEA0212A8BFFF21F6
:10355000FF2AA8BFFF22BDF8184009B2234412B2C7
:103560009BB29142D4BF5B189B189BB2FF2B28BF24
:10357000FF23DB430190DBB2C0F307400344FF2B82
:1035800028BFFF2300208DF80630019BDAB262F3DA
:103590000700C3F3072262F30F20C3F3074363F36B
:1035A000174004B010BD00001FB5482B0190C0F3B8
:1035B000074030D8BDF81840E31A9BB2FF2B28BF54
:1035C000FF23083189B2102905D902F1080189B217
:1035D000112928BFFF23DB43DBB21844002AB8BF00
:1035E0000332FF2828BFFF208DF8060000200B497A
:1035F000497801EBA2028DF80420019BDAB262F354
:103600000700C3F3072262F30F20C3F3074363F3FA
:10361000174004B010BDFF23D3E700BF50190020AE
:1036200084B0BDF81020C0F30741D31A9BB2FF2B22
:1036300028BFFF23DBB2DA43D2B21144FF2928BFEF
:10364000FF210190034400208DF804308DF806100E
:10365000019BDAB262F30700C3F3072262F30F2083
:10366000C3F3074363F3174004B0704784B0BDF859
:1036700010200190D31A9BB2FF2B28BFFF23DB43FE
:10368000C0F30740DBB20344FF2B28BFFF23002019
:103690008DF80630019BDAB262F30700C3F307220C
:1036A00062F30F20C3F3074363F3174004B070477E
:1036B00000F032B800F04EB808B5074B074A187052
:1036C000074B1B78C3F30103137000F099FC03222E
:1036D000044B1A7008BD00BF0F0C00200E0C002018
:1036E000501900203A0C0020C0EBC000C3B20020EB
:1036F000DA1DD2B2222A63F30700134628BF222321
:1037000082B063F30F2002B0704700000022014B2B
:103710001A7070474C130020F0B50C4D00EB4007B9
:10372000EE1996F801C044008C4505D1EF5D974233
:1037300002D1B6789E4207D001272044044E2C18AF
:10374000377061702A54A370F0BD00BFE6120020EC
:103750004C13002070B5134605460E460024204643
:10376000324629460134FFF7D7FF222CF7D170BD2E
:1037700000B110470847000030B5072301254FF47A
:1037800000511B4A05FA03F40442116118D00524C4
:1037900000BF00BF00BF00BF00BF00BF013CF7D1AA
:1037A000516100BF00BF00BF00BF00BF00BF00BF2E
:1037B00000BF00BF00BF00BF00BF013BE2D230BD71
:1037C00000BF00BF00BF00BF00BF00BF00BF00BF01
:1037D00000BF00BF00BF00BF0524516100BF00BF94
:1037E00000BF00BF00BF00BF013CF7D1E5E700BF4D
:1037F000000C014000EB4003C3EB031300EB83001C
:1038000083B200B2002807DA803800B2002800DA5C
:10381000FF3040F30720704703F18000F9E7000014
:10382000164B1B78D90707D5154B187840007F2811
:103830001FD800B3C0B270479A0703D5104B187851
:103840008000F4E75B0703D50D4B1878C000EEE766
:103850000C4B1B785BB10C4A0949127808789342EB
:10386000F4D25843C000B0FBF2F080B2DFE708208A
:10387000E0E77F2070470120704700BF9E190020BD
:103880000A0C0020A0190020090C0020144B1B7802
:10389000D90705D5134B18788008F0B1C0B270472E
:1038A0009A0703D50F4B18784008F6E75B0705D554
:1038B0000C4B18787F28F0D97F2070470A4B1B7873
:1038C0004BB10A4A07491278087893423CBF5843E3
:1038D000B0FBF2F0EEE70120E0E70120704700BF07
:1038E0009E190020080C00209F190020070C0020C2
:1038F00010B52B4CE278A3781343627913432279F5
:10390000134305D00822274B1A700122264B1A7048
:10391000A0F1CD03122B0FD8DFE803F00A0F121726
:103920002A2A2A2A2A2A2A2A1A1E222731373C0022
:10393000FFF776FF4042E07010BDFFF771FFFAE736
:10394000FFF76EFF4042A070F6E7FFF769FFFAE766
:10395000FFF79CFF2071EFE7FFF798FF4042F9E780
:10396000FFF794FF40426071E6E7FFF78FFFFAE749
:1039700001236278D138834013436370DCE70B4A3C
:10398000137843F001031370D6E7084A137843F025
:103990000203F8E7054A137843F00403F3E700BF96
:1039A000A1190020A01900209F1900209E190020B5
:1039B00030B5414BCD2893F9035093F9024093F968
:1039C000041093F9052012D1002D01DA0022DA70DB
:1039D000D9789A780A4351B20AB9384A11701A79DB
:1039E0005B7913435AB20BB9354B1A7030BDCE28F0
:1039F00002D1002DEADCEBE7CF2804D1002CE7DA76
:103A000000229A70E4E7D02802D1002CF8DCDFE72E
:103A1000D92804D10029DBDD00221A71D8E7DA2881
:103A200002D10029D4DAF7E7DB2804D1002ACFDA63
:103A300000225A71CCE7DC2802D1002AF8DCC7E763
:103A4000D1380E28C4D801A252F820F0893A0008D3
:103A5000893A0008893A0008893A0008893A00083A
:103A6000893A0008893A0008893A0008D1390008E3
:103A7000D1390008D1390008D1390008973A000837
:103A8000A33A0008AD3A000801215A78814022EAA1
:103A900001025A709CE70B490A7822F001020A7071
:103AA00096E708490A7822F00202F8E705490A7801
:103AB00022F00402F3E700BFA1190020A0190020A2
:103AC0009F1900209E190020024B186808B1036856
:103AD00018477047801900200B4B07B51A8882429F
:103AE0000ED01880094B1B6853B103228DF80500D6
:103AF000000A8DF806001B698DF8042001A898477C
:103B000003B05DF804FB00BFE21200208019002022
:103B10000B4B07B51A8882420FD01880094B1B68DF
:103B20005BB104228DF80500000A8DF806001B69C0
:103B30008DF804200DEB0200984703B05DF804FBFC
:103B4000E012002080190020302370B583F3118823
:103B5000124B13481349DC6903680A68E41AA2424D
:103B6000114A0AD9A3F58333E03B036010680F4B79
:103B700004F583340344E03413600C6016680021BC
:103B800081F311884FF47A7509480023E4FB05019D
:103B9000084AFEF75FFC304470BD00BFB817002034
:103BA000B4170020B0170020AC17002088598F02EE
:103BB0009F860100A0860100BFF34F8F0549064B89
:103BC000CA6802F4E0621343CB60BFF34F8F00BFBB
:103BD000FDE700BF00ED00E00400FA0590F8772053
:103BE00090F8763090F8781043EA022390F8792024
:103BF00041EA02211A0A032A14D00CD8012A28D03B
:103C0000022A0CD17B23144A1448002A4260036024
:103C100008BF10467047212A0DD0222A12D0002357
:103C20001A46F1E7DBB2022BF9D80D4A0D4952F8DA
:103C300023205B5CE8E70329F1D80B4B53F82120E4
:103C40000923E1E70329EAD8084B53F82120084B60
:103C5000EFE71223074AD7E7A8B50008D8120020DB
:103C600060B600085CB600084CB600083CB6000818
:103C700035B6000823B600087047000090F87A2097
:103C800090F87B00084942EA0022022A0B7807D10B
:103C9000012B01D0062B05D14A78044B1A707047CE
:103CA000024A1370704700BFD4120020D3120020C4
:103CB000014B1878704700BFD312002070470000F6
:103CC000036881689A680A449A60426813605A607F
:103CD00000234FF0FF320360014B9A61704700BF31
:103CE000B8170020034610B51B68984203D09C68A3
:103CF0008A689442F8D25A680B604A601160596031
:103D000010BD0000302383F311880D4B5B6813F462
:103D1000006312D0EFF309834FF08072203BDA6129
:103D200083F30988074A1168D268896892689142CA
:103D30008CBF054A054A9A61704783F31188704722
:103D400000ED00E0B817002063220008662200089A
:103D5000C368C269013BC36043691344826943611C
:103D6000934224BF436A436100238362036B03B120
:103D700018477047034640691A69824201D1DB68DF
:103D80001BB950F8043B0B60704700231846FAE754
:103D900003691960C268013AC260C269134482694A
:103DA0000361934224BF436A036100238362036B70
:103DB00003B118477047036810B55B680C46984715
:103DC000C36813B153F8340010BD00696043FBE7CA
:103DD00090F87630074A10B580F87E3043F08003C3
:103DE000D364436804461B680BB101219847032341
:103DF000237010BD005C004070B50124468904FAB0
:103E000001F53543458100EB8100C568A8698260F2
:103E1000002203604260C2602BB16A8A013B1344F6
:103E2000B3FBF2F39CB2084A048252F8213023F427
:103E3000904323F0700383F4405343F4004343F072
:103E4000800342F8213070BD005C0040004870479C
:103E5000BCB40008F7B505460079052840D0042019
:103E600028711F204FF6FF7CEC69E060206940F06C
:103E7000010020610AB910462AE021F00100ADF8E6
:103E800004C000F1006001F0010613F8017B083660
:103E90006E44013A06F8047C01F1010101D0CF071C
:103EA000F1D4BDF804700780E668F607FCD4E66834
:103EB00006F01F0E16F0100FC4F80CE007D17607BD
:103EC00003D4008880B28742D4D0032000E00620CB
:103ED000236923F00103236102232B7103B0F0BD9A
:103EE0000120FBE70720704710B503790446052B36
:103EF00014D005231F220371C369DA601A6942F0E6
:103F000002021A61FFF757FFE36900F10060586190
:103F100000201A6942F040021A6110BD0120FCE73E
:103F20000379052B09D1C369DA68D20707D41A6966
:103F300022F036021A61022303710020704709B192
:103F400001230B600120704710B503790446052B4F
:103F500012D0FFF730FF00F100631A1F03F57F73E3
:103F600052F8041F013105D19A42F9D100200223F1
:103F7000237110BD0520FAE70120FAE7164BF0B5D2
:103F80009F5C0023032A1D464FF008021C461E4674
:103F900008BF016111F0800F4FEA04144FEA0313C8
:103FA0004FEA06164FEA05150CBF44F00F043B43D9
:103FB00011F4004F0CBF46F00F063D43013A4FEAA3
:103FC0004101E7D1426832402A4342600268224000
:103FD00013430360F0BD00BFA8B4000808B5302348
:103FE00083F31188012100F00F039940032220F090
:103FF0000F00FFF7C3FF002383F3118808BD000003
:1040000070B5174E337853B3164C23783BB906225C
:104010004FF400511448FFF7B1FF01232370302300
:1040200083F311880025114C2078FFF7A5FB6078F9
:10403000FFF7A2FB0135A078FFF79EFB222D04F1CC
:104040000304F1D14FF4A86300BF00BF00BF00BF5D
:1040500000BF00BF013BF7D183F31188337070BDFF
:104060004C130020E5120020000C0140E612002055
:104070000F4B10B51B6D040103F1804303F5C043E2
:1040800003EB0010E358114403F1005303F54053D0
:104090005B004260002AA1EB020400DC10BD207826
:1040A0006478023A40EA042043F8040BF2E700BFC8
:1040B000005C004038B50C46012511460289A54038
:1040C0001543058100EB8400C26800255069128AFF
:1040D00003609A4228BF1A46816002614560C5604C
:1040E0002046FFF7C5FF084A52F8243023F4F04376
:1040F00023F0400383F0300343F4004343F0800394
:1041000042F8243038BD00BF005C004037B5406B3A
:10411000C36F1C682278042A16D1027A022A13D1AE
:104120001D7901232289AB4013420DD101A94430EE
:10413000FFF720FE024638B129462046019B03B016
:10414000BDE83040FFF7B6BF03B030BD38B590F8DA
:1041500064300446002B41D0063BDAB20F2A37D830
:104160000F2B35D8DFE803F03A34340826353434E1
:104170003434343434343A3A90F87A3090F87B203E
:10418000C56E43EA02239D4214D2C3681B8AB5FB65
:10419000F3F203FB12556DB9302383F311882B46DC
:1041A0002A462946FFF786FF85F311880A2384F8FB
:1041B00064300DE0142384F86430302383F31188D5
:1041C000002320461A461946FFF716FE81F3118890
:1041D00038BD036F03B198470023E8E748F2800138
:1041E0000D4A136823F4F04323F0400383F01003D7
:1041F0000B431360136823F4904323F0700383F49C
:1042000080530B43136063681B6813B1062120467B
:1042100098470623CBE700BF005C004010B590F83C
:1042200064300446142B36D024D8062B05D001D890
:104230001BB110BD093B022BFBD848F280011C4A80
:10424000136823F4F04323F0400383F010030B437F
:104250001360136823F4904323F0700383F48053B6
:104260000B43136063681B6813B10621204698470F
:10427000062319E0152BDCD10B2380F864303023A2
:1042800083F3118800231A461946FFF713FF002312
:1042900083F31188CDE7C3689B695B68002BC8D1A5
:1042A000036F03B19847002384F86430C1E700BF6F
:1042B000005C004000EB8103F0B5DE68274A3368FC
:1042C000146D03F00303032B18BFB3FA83F304F157
:1042D0008044726918BF5B0904F5C0440CBF4FF4F9
:1042E000C0635B024FEA011C04EB011572B10022AE
:1042F0006A60328AD0F88470013222F001023A44B6
:10430000C0F8842043F020034CF80470B269DAB19D
:10431000748A43F40053621E3E2C93BF42F00102A4
:104320000F4E520901328BBF46EA8222520292B2EC
:1043300002F47C42EA600134D0F8842024F00104C5
:104340001444C0F88440AA608A0002F1804202F559
:10435000B84210680B4310601360F0BD005C004071
:104360000080FFFF002180220A4B0B481965596429
:10437000DA644268D2688A4214BF4FF43E424FF476
:104380003C421A644023C0F88430044BC360FFF7FA
:1043900091BF00BF005C00406018002084B400089A
:1043A0002DE9F04FDFF8ACB0814685B09BF80000F6
:1043B000FFF79AF9284F294BC4B21D883B79C0F307
:1043C000072A5B085D43264BC5F3072503EB44062C
:1043D00003F16E08E3B29A4507D8BAF1210F8CBFFA
:1043E0000020012005B0BDE8F08F18F804309BF8DC
:1043F000012013422AD0BB78787897F803C096F84A
:104400002B2096F82A1040EA0320203A70392B46D8
:1044100040EA0C40C8478DF80400C0F30723C0F3FE
:1044200007408DF806008DF80530019BADF8083087
:104430001B0C8DF80A300298FEF7B0FCC0F307435E
:10444000C2B2C0F307212046FFF732F90236013429
:10445000C0E700BF0B0C00205019002058130020AB
:1044600010B900082DE9F04FDFF8D0B089B0029004
:104470009BF80000FFF738F9314F324BC4B21D886A
:104480003B79C0F3072A5B085D432F4BC5F3072533
:1044900003EB440603F16E08E3B29A4507D8BAF17C
:1044A000210F8CBF0020012009B0BDE8F08F18F863
:1044B00004309BF8012013423DD096F82A1096F85C
:1044C0002B2070391FFA81F909FB09F0203A92B2CA
:1044D00002FB020080B20392FEF7B4FC0095034693
:1044E00097F801C0B87897F803E0039A4CEA0020E7
:1044F00012B20FFA89F1DDF808C040EA0E40E04739
:104500008DF81400C0F30723C0F307408DF81600A0
:104510008DF81530059BADF818301B0C8DF81A304E
:104520000698FEF73BFCC0F30743C2B2C0F3072175
:104530002046FFF7BDF802360134ADE70B0C002032
:10454000501900205813002010B900082DE9F04F31
:10455000DFF8BCA089B081469AF80000FFF7C4F8E4
:10456000DFF8B0802C4BC5B21E8898F80430C0F339
:1045700007249B085E43C6F3072606F14000C0B23D
:10458000FEF79AFC803843B230460393FEF794FC62
:10459000DFF888B0A0F180077FB2EBB29C4206D86A
:1045A000212C8CBF0020012009B0BDE8F08F1BF842
:1045B00005209AF801100A4228D0009698F80220A7
:1045C00098F8010098F803C040EA022003993A469F
:1045D00040EA0C40C8478DF81400C0F30723C0F32D
:1045E00007408DF816008DF81530059BADF8183092
:1045F0001B0C8DF81A300698FEF7D0FBC0F307436A
:10460000C2B2C0F307212846FFF752F80135C4E7CC
:104610000B0C002050190020581300207EB9000810
:10462000F7B51A4B0446034493F86E20184B5B7899
:104630001A4229D0174B9E78DD785978FEF72AFC6C
:104640004FF4B47201F1B403B3FBF2F702FB17337A
:104650005B1A48BF03339B1000F0030003FB0011FB
:104660008DF801608DF800108DF802500098FEF76B
:1046700095FBC0F30743C2B2C0F30721204603B045
:10468000BDE8F040FFF714B803B0F0BD10B9000862
:104690000B0C00205019002013B5144B04460344A2
:1046A00093F86E20124B5B781A421DD0FEF7F2FB96
:1046B0000146FEF7EFFB0F4A40F35703D2787F33F2
:1046C0008DF800108DF801308DF802200098FEF76B
:1046D00065FBC0F30743C2B2C0F30721204602B016
:1046E000BDE81040FEF7E4BF02B010BD10B90008ED
:1046F0000B0C0020501900202DE9FF47DFF89490A3
:10470000074699F80000FEF7EFFF234E234A33795E
:1047100015889B0803FB0555DFF884A0C0F3072824
:10472000C5F30725C4B2E1B2884507D8B8F1210F17
:104730008CBF0020012004B0BDE8F0871AF80430D7
:1047400099F80120134223D0B2787378F07843EAC5
:10475000022343EA00402A46B8478DF80400C0F31C
:104760000723C0F307408DF806008DF80530019B44
:10477000ADF808301B0C8DF80A300298FEF70EFBDE
:10478000C0F30743C2B2C0F307212046FEF790FFF3
:104790000134C8E70B0C00205019002058130020EA
:1047A0007EB900082DE9F04FDFF8DC90374D074661
:1047B00085B099F80000FEF797FF2B794FF6FF764A
:1047C0000133FF2B28BFFF23B6FBF3F6DFF8C0B0A1
:1047D000DFF8C0A0C0F30728C4B2E1B2884507D80B
:1047E000B8F1210F8CBF0020012005B0BDE8F08F8B
:1047F0001BF8043099F80120134232D09AF80030A7
:104800002548013B5BB21A062DD5324629796B78D3
:104810000131FF2928BFFF215143AA78E87843EAF4
:104820000223C1F30F2143EA0040B8478DF804008A
:10483000C0F30723C0F307408DF806008DF805305C
:10484000019BADF808301B0C8DF80A300298FEF77A
:10485000A5FAC0F30743C2B2C0F307212046FEF712
:1048600027FF0134B9E7C25C8A420AD103F10C0286
:104870000AEB420292F801C092784CEA0222964278
:10488000C4D8013BBFE700BF0B0C0020501900202B
:104890007EB900081F180020301800202DE9F04FC5
:1048A000474B8DB0064618780391FEF71DFF454B28
:1048B000C4B21B78DFF810A10293444BC0F3072960
:1048C00003EB44056E330493E3B2994507D8B9F17D
:1048D000210F8CBF002001200DB0BDE8F08F049B9C
:1048E000374A1B5D5278134225D00322384909A864
:1048F000FDF70CFD37460023DFF8C8B006EB0B08C8
:104900000299FAB2914219D89AF8032053431B1224
:104910008DF82630099BADF828301B0C8DF82A3015
:104920000A98FEF73BFAC0F30743C2B2C0F307216F
:104930002046FEF7BDFE01340235C5E718F8012F09
:1049400095F82A1098F80800891A95F82B2089B252
:10495000121A92B202FB02F001FB010080B207932F
:1049600006920591FEF76EFA02469AF8040007F1E6
:104970000C0C0130FF2828BFFF200BEB4C0C9CF8DF
:1049800001E09CF802C0079B4EEA0C2E0EFB00F0E3
:104990008DF8263005991346069AC0F30F20009033
:1049A000DDF80CC0099812B209B2E047C0F3072342
:1049B0008DF825308DF82400C0F3074301379FE7B9
:1049C0000B0C00201F1800205019002010B90008FF
:1049D000511900202DE9F04F07460E46154687B0C5
:1049E000317881B93B6853B93A6942B1B96831B19C
:1049F000FB68934228BF02F1FF330022CA54F868D3
:104A000007B0BDE8F08F252906F1010603D038462E
:104A1000FEF72CF8E4E7002406E02D2B1BD0302B0A
:104A200025D144F001041646324612F8013B2B2BE7
:104A300014D0F2D8202B14D0232B15D02A2B39D107
:104A400055F8048B1646B8F1000FBCBF44F00204C1
:104A5000C8F100081FE044F00204E4E744F0040455
:104A6000E1E744F00804DEE744F01004DBE7A3F1DB
:104A700030010929E2D84FF0000805E00A21164666
:104A800001FB0833A3F13008324612F8013BA3F1D1
:104A900030010929F2D933782E2B41D17278731C59
:104AA000A2F13001092944F4006430D84FF0000A23
:104AB0000A2607E04FF00008EDE70B4606FB0A2246
:104AC000A2F1300A194611F8012BA2F13000092891
:104AD000F3D91E46334613F8012B6C2A2AD022D86C
:104AE000682A2ED06A2A36D016F8011B78298ED86B
:104AF000632933D8622900F03281632900F0A08055
:104B0000252984D0582982D144F020046EE02A2A35
:104B100005D155F8043B023623EAE37ADAE71E466C
:104B20004FF0000AD6E7742A01D07A2ADCD144F487
:104B300000740BE072786C2AF9D144F4C064023638
:104B4000D2E77278682A03D044F080041E46CBE78F
:104B500044F0C004F3E744F48064F7E70122A1F1D4
:104B60006403DBB29A40804B1A4013D1732900F0E2
:104B7000908070297FF44BAF55F8041B44F4005427
:104B800044F00104002940F0E0800A23052277491F
:104B9000009487E0642901D0692921D144F480443C
:104BA0000A2324F01004220548BF24F00104600405
:104BB00004F4806226D5002A7FF412AFA10517D530
:104BC000296800294FEAD1720294CDF80480CDF80B
:104BD00000A0B8BF49423846FDF792FF0435FFE612
:104BE0006F2900F0BE80DBD97829D9D11023DAE70C
:104BF000620602D595F90010E3E72006E0D5B5F985
:104C00000010DEE7002A7FF4EBAEA10524F00C00D3
:104C100006D50290CDF80480CDF800A02968DAE727
:104C2000620607D5297800220290CDF80480CDF8DD
:104C300000A0D0E7296814F0800F18BF89B2F2E70E
:104C400014F0020423D04FF00109384615F8041B74
:104C5000FDF70CFF002C3FF4C3AEC145BFF4C0AE5E
:104C600020213846FDF702FF09F10109F5E720216F
:104C70003846FDF7FBFE09F10109C845F7D8B8F140
:104C8000000F08F1010908BF4FF00209DDE7A14656
:104C9000F1E755F804BBBBF1000F07D143460622EC
:104CA000334900943846FDF7FBFE99E6BAF1000F50
:104CB00014BF52466FF00042D9465A4499F800108A
:104CC00009B14A450DD114F40063A9EB0B09049313
:104CD00002D0D14528BFD14614F0020415D14A466E
:104CE00009E009F10109E9E7202138460592FDF7BD
:104CF000BDFE059A01324245F6D3A8EB0902C8452C
:104D000038BF002209F1010991440BF1FF3204E0A0
:104D100038460592FDF7AAFE059A12F8011F39B12F
:104D2000049B002BF4D0AAEB02001BEB000FEFD189
:104D3000002C3FF455AEC8457FF652AE20213846D0
:104D4000FDF794FE09F10109F5E70A2338460193BE
:104D500002941023CDF800A0FDF7D2FE40E6022316
:104D600021E708231FE700BF2108120074A80008EC
:104D70006DA80008302310B583F311881B4C1C4B21
:104D80000021202204F10C006360FDF76FFA217806
:104D9000012925D1174BDA6942F40002DA61DA6998
:104DA0001A6942F400021A611A6922F400021A61B7
:104DB000114A1B691164D021104B83F813134FF46F
:104DC0000021C3F880111960E02183F814134FF417
:104DD0008011C3F88011196000231364FFF7C2FA31
:104DE00002232370002383F3118810BD6018002074
:104DF00000B9000800100240005C004000E100E043
:104E000010B4C26F034610680178042914D1197ACE
:104E1000022911D15179012244898A4022420BD1C1
:104E2000DA691C6AA24201D19C692CB99B6A10BC48
:104E3000043B0432FEF7E0BF10BC7047406BFFF745
:104E4000DFBF000010B5064A064C117824784B1CD1
:104E500003F00F039C421EBF034C1370605410BD3F
:104E60005D1800205C1800204C18002038B504465E
:104E700018462379052B0CD003231F252371E369E2
:104E800001F10061DD60FDF741FA0223002023718A
:104E900038BD0120FCE70000034608469918B1F52B
:104EA000806F03D802491944FDF730BA704700BF3C
:104EB00068130020002307B5022204200DF106012B
:104EC000ADF80630FFF7E8FFBDF8060003B05DF867
:104ED00004FB002307B501220DF107018DF807300F
:104EE000FFF7DAFF9DF8070003B05DF804FB072821
:104EF00038B517D8052915D8062A13D80E2354001B
:104F000003FB0144542303FB004404F12900FFF791
:104F1000E0FF050204F12A00FFF7DBFFADB22843F2
:104F200080B238BD0020FCE7252008B5FFF7D1FF8F
:104F3000252801D0002008BD2620FFF7CAFF102831
:104F4000F8D12720FFF7C5FFA0F1260358425841AA
:104F5000F1E713B50024022220460DF10601ADF859
:104F60000640FFF799FF4FF6E663BDF806209A4228
:104F700004D102B0BDE81040FFF7D6BF204602B012
:104F800010BD08B52820FFF7A4FF08BD2DE9F347A1
:104F900000236E4606254FF03008DFF81891464F83
:104FA0000093ADF8043059F8041B4B1C4DD088F326
:104FB00011884FF0010A21F00F0001F00F010AFAE9
:104FC00001F421460622FEF7D9FF4461002484F350
:104FD000118800BF00BF00BF00BF00BF00BF00BFFF
:104FE00000BF00BF00BF00BF00BF00BF00BF00BFC9
:104FF00000BF00BF00BF07235246304850F8041BD3
:10500000B1F1FF3F3CD021F00F0CDCF808C001F0FB
:105010000F012CFA01F111F0010F0CBF1146002114
:10502000013B2143520013F0FF03CCB2D2B2E5D1D1
:1050300059F8040C431C01D0FEF7D0FF7A687B6856
:105040009B1AB3F5076FFAD33470013D15F0FF05D5
:1050500006F10106A7D1062269461948FDF7CCF9E9
:10506000184C78B1062269461548FDF74FF901231F
:105070002370FEF769FD144B186002B0BDE8F0879D
:105080000021CDE72378002BF7D00F4B1D68FEF7EA
:105090005BFD401B0428F0D9062209490B48FDF7A7
:1050A000ABF920B1062206490848FDF72FF9002385
:1050B0002370E2E7CCB80008001000E0E4B8000874
:1050C00018180020AC120020A81200205819002047
:1050D00008B5064B4FF4806200211846FDF7C6F86C
:1050E0004FF48162C0F8002408BD00BF681300209F
:1050F0002DE9F04FA24B87B01B78A24E834200905F
:105100003FD1A14A3378127803F003039B1A18BFEA
:1051100001239E4D6A78AB7073799A4205D00022C4
:10512000114610466B70FEF7C5FA009A262A31D850
:10513000DFE812F0290042006F00AC00FB00FF0026
:105140000101050107010B010D010F0111011301FF
:105150001501170119011B011D012101230158012E
:105160008601B501FE010002020289028D028F0252
:1051700099029C02A302A502AC02AE02B502B702DC
:10518000BE020123C5E7AB7823B1002211461046C9
:10519000FEF790FA00207D4B1A7801321A7040B960
:1051A00002217B4A9B7811701BB9009B0BB903232A
:1051B000137007B0BDE8F08F2878FEF795FA7549AF
:1051C0000322ADF81000C6B2C0F3072405A8FDF70E
:1051D0009DF80598FDF7E2FDDFF8BCA15FFA80F9C4
:1051E000C0F30728C0F30747F3B29C4204D8212C30
:1051F0008CBF00200120CEE71AF806306A781342EF
:1052000005D03B464A4641463046FEF751FA013644
:10521000EAE72878FEF768FA3379DFF87C819B08A3
:1052200096F8029096F803A0ADF81000C0F307249A
:105230000193C7B2A8F1440BFBB29C42D7D918F82E
:1052400007306A7813421FD0019B1BF817208DF896
:1052500015905A4373788DF816A003EB62138DF8FE
:1052600014300598FDF79AFDC0F30721C0F30743FA
:105270008DF80C008DF80D108DF80E30C2B2DBB237
:105280003846C9B2FEF714FA0137D5E72878FEF799
:105290002BFA424BADF80C00C7B2C0F307241888B4
:1052A000337996F80380DB085843C0F30720FDF7F5
:1052B00003FEA0F180035BB2002BBCBFC0F18000F5
:1052C00043B25B00DBB208FB03F396F801A096F84B
:1052D00002901B128DF814A08DF815908DF81630E1
:1052E0000598FDF75BFDDFF8B0A0C0F30729C0F318
:1052F00007488DF811908DF812808DF81000C6B215
:105300005FFA89F95FFA88F8FBB29C427FF66FAFCB
:105310001AF807306A78134205D0434632464946A8
:105320003846FEF7C5F90137EEE71D48FFF7E4F907
:1053300031E71C48FAE71C48FFF732F82BE71B4817
:10534000FAE71B48FFF78EF825E71A48FAE71A48EC
:10535000ECE71A48EAE71A48E8E71A48E6E71A4885
:10536000F0E71A48E8E71A48E6E71A48EAE71A4871
:10537000FFF7ECF80FE71948FAE71948F8E700BF1C
:105380000F0C0020501900200E0C00200B0C0020E8
:105390003A0C0020511900207EB900085813002053
:1053A000412F0008992F0008F12F0008373000081E
:1053B0007D300008C1300008053100082D3100089B
:1053C000653100089D310008F531000827320008DA
:1053D00073320008A3320008D932000829330008CC
:1053E000793300082878FEF77FF9AA78ADF8140021
:1053F000C3B2C0F30724D2B93379AE4A1033FF2BBE
:1054000028BFFF23128853430A22C3F30F23B3FBA1
:10541000F2F102FB11339BB2002B7FF4E8AEFDF7F3
:1054200039FD222358430012FFF7FAF8DFE61D4644
:10543000A542BFF6DCAE2846FFF7F2F80135F7E7E4
:105440002878FEF751F9AA78ADF81400C3B2C0F37A
:105450000724DAB93379974A1033FF2B28BFFF238B
:10546000128853430522C3F30F23B3FBF2F202EB7E
:1054700082029B1A9BB2002B7FF4B9AEFDF70AFDA6
:10548000222358430012FFF707F9B0E61D46A54254
:10549000BFF6ADAE2846FFF7FFF80135F7E72878ED
:1054A000FEF722F984490322ADF80C00C7B2C0F31D
:1054B000072404A8FCF72AFF7E4B96F80180188881
:1054C00033797E4EDB085843C0F30720FDF7F4FC28
:1054D0000C22A0F180035BB2002BBCBFC0F18000A6
:1054E00043B25B00DBB2534308EB13288DF8108006
:1054F0000498FDF753FCC0F307238DF81400C0F3A4
:1055000007408DF815308DF81600FBB29C427FF6EF
:105510006EAEF35D6A78134208D038469DF81630B7
:105520009DF814209DF81510FEF7C2F80137ECE73E
:105530006348FBE66348F9E62878FEF7D5F8C3B27E
:105540000193AB78ADF80C00C0F3072A4BB10022F1
:1055500011461046FEF7AEF82A2200215A48FCF701
:1055600085FE2B787BB9594C2588FEF7EDFA401B58
:1055700080B218288CBF01220022554B1A7002D924
:10558000FEF7E2FA208000252E464FF0070B514B24
:1055900005EB03094C4BEF1819F8018B019B4345B0
:1055A00040D8C2453ED94B4B434493F86E204A4BFA
:1055B0005B781A4234D03C78484904F1AA03FF2BA7
:1055C00028BFFF2303EB43038A780233C978DBB299
:1055D0004B43A4F1550121EAE1711B0AC1F1AA0173
:1055E0008DF810108DF811208DF812300498FDF709
:1055F000D5FBC0F30721C0F307438DF814008DF8E5
:1056000015108DF81630C2B2DBB24046C9B2FEF7B3
:105610004FF82F4B1B781BB1013C24EAE4743C701B
:105620000136F6B20BF1FF3313F0FF0B07F1010760
:10563000B2D1232D02D1BAF1210FD9E5062E05F101
:105640000705A2D9F7E72648FFF7ACF8A3E52548F8
:10565000FAE7254B25491878013820EAE070C0B2F6
:10566000FFF71CF997E521490020F9E71E4B204977
:105670001878013820EAE070F1E71D49F4E71A4B89
:105680001C491878013820EAE070E8E71949EBE78F
:10569000154B19491878013820EAE070DFE7164900
:1056A000E2E7114B15491878013820EAE070D6E797
:1056B0001249D9E758130020511900207EB900087B
:1056C000D933000839340008E818002056130020A8
:1056D0005413002010B900080B0C002050190020B2
:1056E00085340008B73400081F180020EB34000888
:1056F00033350008A9350008213600086D3600084A
:10570000084B1B784BB1084B93F90030002B04DA9F
:105710001E2200210548FCF7A9BD062200210448ED
:10572000F9E700BFE40E0020B21900208212002029
:10573000A21200202DE9F341302383F31188344C69
:1057400000252646D4F850311A681178042953D11F
:1057500094F8DC1002294FD11979012312898B406A
:10576000134249D1D4F82831D4F82C21934243D1A3
:105770004FF4AA7101FB0561D1F82421002A3BD026
:10578000D4F84021002A37D0043AD21A34D04FF04E
:1057900000081A60D1F8242104F58C70013AC1F890
:1057A0002421D4F83421C4F840811344D4F83021A2
:1057B000C4F82831934228BFD4F83C3101A928BF4E
:1057C000C4F82831FEF7D6FAD4F8503107461A7ECD
:1057D00052B101981A694146121A3844FCF746FD45
:1057E000D4F850311B690193D4F850013A4601793D
:1057F000019B0068FEF75EFC04F5AA742DB100233E
:1058000083F3118802B0BDE8F08101259AE700BF5B
:105810003C0C002070B500EB8103054650690E4634
:105820001446DA6018B114220021FCF71FFDA069AC
:1058300018B114220021FCF719FD31462846BDE8B5
:105840007040FEF737BD000010B50A4C23699A6816
:1058500091420CD85A6881600360426010609A6877
:105860005860521A9A604FF0FF33A36110BD1B6855
:10587000891AECE7B817002038B5044608480D46E9
:1058800003680BB1FEF71CFA064B0561C3600023E9
:10589000214643610248BDE83840FFF7D5BF00BF4D
:1058A00094170020515A000838B590F87430044617
:1058B00003F07F02212A7FD113F0800F90F875202A
:1058C00035D0022A31D0032A24D0012A74D190F88D
:1058D000782090F8793052EA03220DD0022A90F80D
:1058E000762010D04F4B1A7094F87B20A36694F862
:1058F0007A3043EA02230BE04B4B836608230120F6
:10590000E366226738BD022AECD1484B8366062342
:105910000022F4E790F8782090F8791052EA0122FA
:105920004AD1434BA3660123F2E7424BFAE70A2A26
:1059300039D00B2A10D0092A46D190F8782090F857
:10594000791042EA012222F00202002A3CD13A4BAD
:105950003A4A83660223D2E790F8783090F87920AB
:1059600053EA02231CD190F87650314B1D70BDB91B
:10597000304B1A78A2B1302282F311881878304B5C
:105980004FF47A72A0FB03030021002300F2E730FA
:10599000FCF760FD21468000FFF76EFF85F311885C
:1059A0000023A366B4E7274990F877200978214BB4
:1059B000CD091A70F4D1DDE703F09F02812A03D1EB
:1059C00094F87520062A08D01F4A92F8B610C1B97B
:1059D00092F80A22AAB9002094E794F87920616825
:1059E00094F878304D6843EA0223204694F87720F3
:1059F00094F87610A8470028EDD04368A3660368A2
:105A000086E703F06003202BE5D194F87530212B55
:105A100005D81F2BDFD90D4BA366072378E7222B70
:105A2000BED0D8E7BD120020CB120020C512002046
:105A3000E40E0020E4120020D41200207D3C000877
:105A4000A0860100B21900203C0C0020000C0020B0
:105A500038B50C46302383F311880B78042B03D020
:105A6000002383F3118838BD124B1B78DB09F7D173
:105A7000114D2B78002BF3D0104B1B78002BEFD05F
:105A80000B899B0705D40823012120460C4AFEF709
:105A900011FB28780B4B4FF47A72A0FB0303002113
:105AA000002300F2E730FCF7D5FC21468000FFF729
:105AB000E3FED5E7B2190020E4120020E40E002036
:105AC000CB120020A08601000023826803750369C1
:105AD0001B6899689142FBD25A680360426010606B
:105AE00058607047F8B505460E4600270468AC427A
:105AF00000D1F8BDE3683343E36023691E420AD056
:105B00006068A368C2691343027DC3610A2A04D195
:105B10008269134206D12468E9E70B2AFBD1826926
:105B20009A43F8D18761FFF7CFFFF4E708B508463D
:105B3000302383F311880A7D0023052A06D8DFE885
:105B400002F00B050503120E826913604FF0FF335C
:105B50008361FFF7B9FF002383F3118808BD8269D1
:105B60009368013393604268036813605A60EDE7FD
:105B70000346006820B100221A608161FFF7A4BFCC
:105B8000704700002DE9F04190F86430044613B1ED
:105B9000002380F86430A24B04F174021B6D04F101
:105BA0007C0603F1804303F5C04303EB01139B68BC
:105BB00003F1005303F540535B001968043322F8E6
:105BC000021BB242F9D163689B6823BB94F874301E
:105BD00013F0600547D048F28001914A136823F41E
:105BE000F04323F0400383F010030B43136013686A
:105BF00023F4904323F0700383F480530B4313602A
:105C000063681B6813B1062120469847062384F871
:105C10006430BDE8F081204698470028D6D094F83B
:105C20007B2094F87A3043EA0223E26E9A4288BFDE
:105C3000E36694F97430E56E002B4FF0300380F288
:105C40005C81002D00F04B81092284F8642083F3ED
:105C500011880021E36E2046A26EFEF72BFA002386
:105C600083F31188D5E794F8752003F07F0343EAA6
:105C7000022340F20232934200F00D811FD8B3F5A7
:105C8000807F4BD00BD8012B42D0022B00F0AC8090
:105C9000002BA0D10222A666E2662367BFE7B3F518
:105CA000817F00F0C780B3F5407F94D194F87630BF
:105CB000012B90D1B4F87C3043F0020337E0B3F508
:105CC000006F3ED01CD8B3F5A06F36D0A3F5C063EB
:105CD000012B80D894F87920616894F878304E6868
:105CE00043EA0223204694F8762094F87710B047D0
:105CF00000283FF470AF4368A3660368E3661AE0C8
:105D0000B3F5106F22D040F6024293427FF463AFA6
:105D1000444BA3660223E3660023BEE794F8763083
:105D2000012B7FF458AFB4F87C3023F00203A4F8C1
:105D30007C30A566E566256771E73B4BA566E566A1
:105D4000ABE704F17F03A3660123D7E72378042B95
:105D500039D1302383F31188A36804F10C0603F0D2
:105D60000113A36004F1280856F8047F6FB1786925
:105D700020B16FF001010C30FFF7FAFEB86920B1D5
:105D80006FF001010C30FFF7F3FE46453560EBD1B3
:105D9000402301220021C4F88430930003F18043A2
:105DA00003F5B84318680132082A18601960F4D165
:105DB00081F3118884F87F100321636821701B68C8
:105DC0000BB12046984794F876304BB184F87F3079
:105DD0000423237063681B6813B10221204698478F
:105DE0000023A366E36658E794F9782094F87830A6
:105DF000002A03F00F030A4ADBB252F8233008DA14
:105E000013F030033FF4E7AE102B14BF074B084BE1
:105E10007FE713F440533FF4DEAEB3F5805FF4E761
:105E2000005C0040DCB40008D13D0008D8B4000894
:105E3000DAB4000894F87630002B7FF4CCAE94F8F6
:105E4000782012F00F03CBD09B0003F1804312F0B7
:105E5000800F03F5B8431A6810D002F03002302AE0
:105E6000BED01A6822F4F04222F0400282F02002F2
:105E700042F4004242F080021A60B1E702F440525C
:105E8000B2F5405FACD01A6822F4F04222F0400232
:105E900042F42042EEE794F87630002B7FF49BAE7C
:105EA00094F8783013F00F019AD01F4A13F0800F46
:105EB00052F8213015BF23F4F04323F4904323F02C
:105EC000400323F0700314BF83F0100383F4805366
:105ED00043F4004343F0800342F8213080E714226A
:105EE00084F8642083F311882B462A46002120463B
:105EF000FDF782FF81F311888BE63DB1152284F80E
:105F0000642083F31188E36EA26EEFE70B2284F81E
:105F1000642083F311882B462A4629462046FEF743
:105F2000C9F885F3118874E6005C004003460068F8
:105F3000834206D002681A60536000238361FFF732
:105F4000C3BD704700EB81032DE9F7439C6A05460A
:105F50000E466CB3302383F311880821201DFFF710
:105F6000C1FD05EB8603D3F80C8004F14409D8F891
:105F700014301F6877B1236D226E01332365A36D42
:105F800048461344E26DA365934224BFA36EA36504
:105F9000FFF7CCFF484601A9FDF7ECFE024650B1E1
:105FA000019B31462846FEF785F8002383F31188CC
:105FB00003B0BDE8F083002FF7D0B8F81030013BF4
:105FC0003B42F2D1E36F1B7E002BEED105F1740250
:105FD000E7E7113110B550F821402CB3302383F39B
:105FE000118804216018FFF77DFDE26F04F10C00B9
:105FF0001368527903EB8203DB689B695A68E36993
:106000001A60A2690132A261A26A1344626AE36162
:10601000934224BF236BE361FFF788FF2046FEF71E
:10602000EFFE002383F3118810BD38B504466FF0EE
:1060300001052068844200D138BD036823605C609C
:106040008561FFF741FDF4E72DE9F0470646084674
:10605000052900F2BE80DFE801F08DBC248D8D03A0
:10606000302686F3118800245B4D01215B48FFF741
:1060700039FD85F8E84085F8204184F3118886F3DE
:106080001188012105F50B70FFF72CFD85F83C42C6
:1060900085F8744284F311880520BDE8F047FEF7C7
:1060A000D1BE302383F311880027012130464C4AAA
:1060B000494CFFF7AFFB042130464A4AFFF7AAFBE1
:1060C000A1464FF4AA7A3D46304694F8B41004F144
:1060D0004402FFF79FFB94F8B510304604F16802C4
:1060E000FFF798FB94F8B61021B1304604F18C020A
:1060F000FFF790FB0AFB0798C8F8EC50D4F804317E
:1061000004F1E000C4F8F430C4F8F030C4F80851E9
:10611000C4F80C51FFF789FFD4F8383184F8E850FF
:10612000C8F82431D4F83C3104F58C70C4F82C3113
:10613000C4F82831C4F84051C4F84451FFF775FF42
:1061400004F1D800012184F82051FFF7CBFC04F1C1
:10615000D400FEF755FE04F5AA744FB185F31188FB
:10616000214B1B7813B10520FEF76CFE022094E74B
:106170000127A9E7FEF766FE302787F3118801257E
:10618000154C02211548FFF7ADFC04F1E00084F83E
:10619000E850FFF74AFF04F58C7084F82051002680
:1061A000FFF743FF86F3118887F31188022104F576
:1061B0000B70FFF797FC04F50D7084F83C52FFF765
:1061C00034FF04F51B7084F87452FFF72EFF86F33A
:1061D0001188BDE8F08700BF3C0C0020140D0020A2
:1061E00084B5000860B500085E180020054BD9682A
:1061F00008751868026853601A6001220275D86039
:10620000FCF71EB8B817002030B50E4B0446DD6809
:106210004B1C87B012D00C4B6846039300230495A7
:106220000593FFF711FB2046FFF7E0FF009B13B13A
:106230006846FDF745FDA86907B030BDFFF7D6FFFA
:10624000F9E700BFB81700202D5B000870B53023B8
:1062500004460D46164683F3118812480378042B32
:1062600003D0002383F3118870BD01230289A3406A
:1062700013420FD000EB8400C3680B4A5B69D268FD
:106280004FF47A7143F80C2F03209361FFF7BCFFA2
:106290000130E6D033462A4621460248FDF70AFF80
:1062A000DFE700BF60180020B817002010B50446D3
:1062B000014608220120FFF7C9FF082221460248B3
:1062C000FCF724F810BD00BFCB12002001462022AD
:1062D0000420FFF7BBBF000010B5044601460622AC
:1062E0000420FFF7B3FF062221460248FCF70EF810
:1062F00010BD00BFC5120020014603220420FFF795
:10630000A5BF000070B504460D46104EE3683BB1D2
:10631000236900201A1DA262E2691344E3620EE0C1
:10632000237A6BB9F36875B162681C605A602946BC
:10633000136004206360FFF767FF0028E6DA70BD92
:106340006FF00100FBE74FF0FF30F8E7B8170020CF
:1063500070B530230D460446114683F31188866AD2
:106360002EB9FFF7CFFF10B186F3118870BDA36A75
:106370001D70A36AE26A01339342A36204D3E16908
:1063800020460439FDF704FD002080F31188EDE775
:106390004FF0FF324430FFF7DBBF4430FFF7D8BF88
:1063A0002DE9F84F04460F4691469A464FF03008C3
:1063B00088F311880026B346A56A4DB95146204698
:1063C000FFF7A0FF20B185F311883046BDE8F88FB4
:1063D000A06AE56AA9EB06032D1A9D4228BF1D4657
:1063E000402D17D939464022FBF790FFA36A40376A
:1063F00040334036E26AA3629A4204D8E1692046FB
:106400000439FDF7C5FC8BF311884E45DDD288F3C6
:106410001188D1E739462A46FBF778FFA36A2F4453
:106420002B442E44E6E74FF0FF334430FFF7B8BF6C
:106430004430FFF7B5BF000070B504460D46104E5E
:10644000E3683BB162690020131D1268A362134424
:10645000E3620EE0237A6BB9F36875B162681C6081
:106460005A602946136004206360FFF7CDFE0028C0
:10647000E6DA70BD6FF00100FBE74FF0FF30F8E7A0
:10648000B817002070B53023044683F31188866A5C
:106490003EB9FFF7D1FF054618B186F311882846AB
:1064A00070BDA36AE26A13F8015B9342A36202D350
:1064B0002046FDF74DFC002383F31188EFE74FF0F2
:1064C000FF310C30FFF7DEBF0C30FFF7DBBF2DE9EB
:1064D000F84F04460F4691469A464FF0300888F32D
:1064E00011880026B346A56A4DB951462046FFF7EC
:1064F000A3FF20B185F311883046BDE8F88FA16A6B
:10650000E56AA9EB06036D1A9D4228BF1D46402D82
:1065100015D938464022FBF7F9FEA36A40374033CD
:106520004036E26AA3629A4202D82046FDF710FC88
:106530008BF311884E45DFD288F31188D3E73846B4
:106540002A46FBF7E3FEA36A2F442B442E44E8E7D8
:106550004FF0FF330C30FFF7BABF0C30FFF7B7BF77
:1065600038B5302300F10C0583F31188174B4169CE
:10657000DC6891B9236A44618361256221E08B6004
:106580000B7D7BB1062B14D10B684A6888691360B8
:106590005A60FDF7A7FB8B699968A3688A689342E4
:1065A000EDD806E04A680B68084613605A60FFF7AA
:1065B0008BFA28462146FDF795FB0620A561FFF7DB
:1065C00015FE002080F3118838BD00BFB8170020E9
:1065D000704782B0ADF80410C1F30721052908D82F
:1065E0009DF80420062A04D8072802D802B0FEF736
:1065F0007EBC002002B070477FB507240F4BADF87A
:1066000004001E780E4B1B781E4346FA04F3DB078A
:1066100005D4013CF9D20025284604B070BDBDF870
:106620000430E5B2ADF80C3003992846FFF7D1FFEE
:10663000FCF71CF980B20128EBD0EDE7AF19002080
:10664000AE19002013B502884379ADF804200198F3
:1066500073B169B1FFF7D0FF044601460198FBF71B
:106660004DFF2046019902B0BDE81040FFF7B1BFD1
:10667000FBF770FF0446F4E71FB5ADF8040001987E
:10668000FFF7BAFFBDF80430ADF80C300399FFF7FF
:10669000A0FF05B05DF804EBFCF7E8B808B50346C9
:1066A0000079A8B11888FFF7E7FFC3B2C0F3033041
:1066B000062813D094BF0E30063000F00F000128DA
:1066C00010D8F02B10D004D8E72B8CBF002001206D
:1066D00008BDF42B14BF00200120F9E7E72B03D9F4
:1066E000F12BF7E70020F3E70120F1E77FB5084B36
:1066F0000A46019300230293039304936FF000432F
:10670000014601A80593FEF765F907B05DF804FBA3
:10671000952A00080FB407B504A951F8040B01919C
:10672000FFF7E4FF03B05DF804EB04B0704700002E
:10673000F8B53A4B1B78002B3FD0394B93F900301A
:10674000002B3ADAFBF76CFF364C2022607036499A
:106750002046FBF751FE00285FD020222146324818
:10676000FBF7D4FD314B1B68002B56D00622304D71
:106770009B682046227098472B7859074DD5DA0739
:1067800003D561782B48FFF7C5FF1E24254E2A4FFD
:106790002B78DB0703D53846B178FFF7BBFF013C08
:1067A00014F0FF0406F10106F2D12B78D80734D596
:1067B000BDE8F8402148FFF7ADBFFBF731FF204CA3
:1067C000082220701F492046FBF716FE28B3082236
:1067D00021461C48FBF79AFD144B1B68EBB1144D86
:1067E0005B68204698472B78590716D5DA0703D5FA
:1067F00021781548FFF78EFF0624114E0E4F2B7897
:10680000DB0703D53846B178FFF784FF013C14F06D
:10681000FF0406F10106F2D1C7E7F8BDE40E00203F
:10682000B219002080120020601900208019002079
:10683000AA1900207AA800088FA80008F4B200085E
:10684000A01200208419002095A8000828B1034B4D
:106850001A7810431870FFF76BBF7047AB19002010
:1068600008B528B1FBF714FFBDE80840FFF760BF8B
:1068700008BD00000E490B7803F0030282F001020C
:1068800062F301030B7000210A4B19700A490B785F
:1068900003430B70094B1B78DB0707D50849094BED
:1068A000002818BF19460848FFF734BF704700BFDB
:1068B000501900203A0C00201E180020AA190020B0
:1068C000AEA80008B0A80008B7A80008124B1A78B4
:1068D000920720D0D8B126281BD800F03F021878A4
:1068E00062F38700187000200C4B18700C48037876
:1068F0000B4303700B4B1B78DB070CD50A480B4B83
:1069000000290CBF014619460948FFF703BF0122C1
:10691000E5E72622E3E77047501900203A0C0020F3
:106920001E180020AA190020AEA80008B0A8000870
:10693000EEA800080121044B1878800801302728B0
:1069400028BF0846FFF7C2BF50190020054B0121A0
:106950001878C0F38500013810F0FF0008BF26202A
:10696000FFF7B4BF5019002037B51D46104B144631
:106970001A78920719D0B42CC2B2204628BFB4208E
:106980000C4C5A709970D87023782B4323700A4BA3
:106990001B78DB0709D50B46009008490848002DF5
:1069A00008BF01460748FFF7B5FE03B030BD00BF82
:1069B000501900201E180020AA190020B0A80008B5
:1069C000AEA8000808A90008034901234878CA783E
:1069D00008308978FFF7C8BF501900200449012307
:1069E0004878CA780838897880B2FFF7BDBF00BF01
:1069F00050190020054801238178C2781031FF2901
:106A000028BFFF214078C9B2FFF7AEBF5019002060
:106A1000054801238178C278103921EAE171407874
:106A2000C9B2FFF7A1BF00BF5019002005480123DC
:106A3000C27881781032FF2A28BFFF224078D2B274
:106A4000FFF792BF5019002005480123C2788178D2
:106A5000103A22EAE2724078D2B2FFF785BF00BF57
:106A6000501900200A4B024618710A4803780B435C
:106A70000370094B1B78DB0708D50848084B002931
:106A80000CBF014619460748FFF744BE704700BFD8
:106A9000501900201E180020AA190020AEA80008D6
:106AA000B0A800082BA90008044B01211879103068
:106AB000FF2828BFFF20C0B2FFF7D4BF5019002025
:106AC000044B01211879103820EAE070C0B2FFF7BA
:106AD000C9BF00BF501900201FB50A4B0A4A1B78D6
:106AE0000A4902930A4B0B481B7801930A4B1B7807
:106AF00000930A4B12781B780978FFF70BFE05B05C
:106B00005DF804FB070C0020390C0020380C002035
:106B1000080C00204AA90008090C00200A0C0020DB
:106B20002D4B10B51B782D4C13F0080F39D02C4885
:106B3000FFF7F0FD61782B48FFF7ECFD2A48FFF7DF
:106B4000E9FD94F902102948FFF7E4FD2848FFF712
:106B5000E1FD94F903102548FFF7DCFD2448FFF719
:106B6000D9FD94F904102148FFF7D4FD2048FFF720
:106B7000D1FD94F905101D48FFF7CCFD1D48FFF726
:106B8000C9FD1D4B1D481978FFF7C4FD1C48FFF7D0
:106B9000C1FD1C4B19481978FFF7BCFD1A48FFF7D7
:106BA000B9FDFCF7D1FFA378E27880B2134318BF98
:106BB000164B627918BF1880237913431CBF144BFE
:106BC0001880144B1B6833B102222270DB68034823
:106BD000BDE81040184710BDAA190020A1190020D7
:106BE000C7A90008EAA90008EFA90008F1A9000850
:106BF0004DAF0008F4A90008A0190020F7A900086B
:106C0000FAA900089E190020FCA9000848190020D4
:106C1000461900208019002010B500240E4B1C706E
:106C2000FEF76EFD2046FCF757FF2046FCF770FF8D
:106C30000A4B1C70FFF77CFD214606220848FBF733
:106C400015FB084B1C70084B1C70084B1C70BDE8F2
:106C50001040FFF765BF00BFAB190020B41900203A
:106C6000A1190020A01900209F1900209E190020C2
:106C700010B5014604460548FFF74CFD0123044AC0
:106C8000A3401370BDE81040FFF7C6BFFFA900087E
:106C9000AE19002010B41B4B01461B78DBB11A4B18
:106CA00093F90030002B16DAEF284FEAD0030AD808
:106CB000164A00F007011A4401238B4091780B43D8
:106CC000937010BC7047124B1B78DB07F9D5114845
:106CD00010BCFFF71FBD00224FF0FF330E4810F825
:106CE000014FA142EDD0B3F1FF3F01D104B953B23E
:106CF0000132062AF3D15A1CE3D0084A1344997092
:106D0000DFE700BFE40E0020B2190020801200204F
:106D1000AA19002004AA0008A1120020A012002035
:106D200010B4174B01461B78EBB1164B93F90030AA
:106D3000002B18DAEF284FEAD0020CD8124B00F0E3
:106D400007011344012202FA01F19A7822EA0102B2
:106D50009A7010BC70470D4B1B78DB07F9D50C48B7
:106D600010BCFFF7D7BC002318460A4A12F8014F9F
:106D700001338C42DBB208BF1070062BF6D1E8E776
:106D8000E40E0020B219002080120020AA19002071
:106D900022AA0008A112002008B50346A0B3021FD2
:106DA000D2B2A02A05D8FFF7BBFFBDE80840FFF725
:106DB000BFBC00F12002D2B2072A07D800F00703B7
:106DC00001209840C0B2FBF763FCEEE700F15B02E4
:106DD000D2B2022A04D8BDE808400020FCF77CBEED
:106DE00000F15802D2B21A2A04D8BDE808400020A7
:106DF000FCF78EBE3333DBB2122B05D8FCF7D8FD7F
:106E0000BDE80840FFF78CBE08BD0000292810B57A
:106E1000624C57D02BD8132861D017D8072800F020
:106E200095800B2836D05E48A3E001215D4B1B689E
:106E3000002BF8D01A781144FF2900F3A58000290F
:106E4000C0F2A480C9B25848197058E0142839D04B
:106E5000A0F11E03092BE6D81D38C0B220700138FE
:106E600005286DD8DFE800F0414E545A6066382896
:106E700010D0A0F14F03032BD5D85038022800F2D0
:106E8000818001A353F820F0796F00087F6F00081C
:106E90002B6E00084548FFF73DFCFFF71DFE012261
:106EA00008214348FFF736FC2178002970D0BDE85F
:106EB0001040404B40481A68404B002A08BF1A4611
:106EC000FFF728BC3E48FFF725FC2378002B64D051
:106ED0000023344A23701360364A1360E4E73948CC
:106EE000FFF718FCFFF7F8FDDEE72E4B364A1A6075
:106EF000304B364A1A6021780029D5D03448FFF744
:106F000009FCD1E7274B334A1A602A4B324AF1E792
:106F1000244B324A1A60274B314AEBE7214B314A66
:106F20001A60244B304AE5E71E4B304A1A60214B69
:106F30002F4ADFE71B4B2F4A1A601E4B2E4AD9E718
:106F4000002317482370FFF7E5FBD4E701221E4B0F
:106F50002A481A7014221F4B1A700A221F4B1A70EB
:106F60001E22204B1A700822204B1A702822214B17
:106F70001A70FFF7CFFB97E76FF0090156E74FF064
:106F8000FF3153E70A2151E7FF215CE700215AE76F
:106F90001B48BDE81040FFF7BDBB10BDB812002074
:106FA0008AAB0008B4120020E8A8000844AA000830
:106FB00054AA0008B012002097AB000840AA0008AD
:106FC00020AB000823AB0008380C002031AB0008D0
:106FD00046A90008390C00203AAB00080A0C002032
:106FE00046AB0008090C002053AB0008080C002039
:106FF00062AB0008070C002075AB00088DAB0008E1
:10700000A0AB0008194B1A6842F001021A601A6816
:107010009007FCD51A6802F0F9021A6000225A6043
:107020005A6812F00C0FFBD11A6842F480321A60D1
:107030001A689103FCD55A6842F4E8125A601A683B
:1070400042F080721A601A689201FCD51221084A37
:107050005A60084A11605A6842F002025A605A683F
:1070600002F00C02082AFAD1704700BF001002405B
:1070700000641D00002002407047FEE7F0B50820C4
:107080000026104991E81C001D46043AAC4210D875
:10709000E21CD21ADD1E22F00302A54288BF0022A4
:1070A0001344CA689A4209D8013801F11001E9D1A4
:1070B000F0BD52F8047F45F8047BE7E743F8046B22
:1070C000F0E700BFE0B400080C4B10B41868D968B2
:1070D000026853601A600122D860002302758A6832
:1070E0000B750B691B689C689442FBD85A680B604F
:1070F0004A6010BC11605960FBF7A2B8B8170020B5
:10710000044B1A68DB6892689B689A4201D9FFF7C2
:10711000DBBF7047B8170020164A38B500F10C01E4
:107120000346D068302282F31188DC689A69A14254
:1071300002621BD0446A82B98460D8680268DA604F
:107140005160026A58619A610162FEF7BDFCFFF767
:10715000D7FF002080F3118838BD1568AA4203D0FC
:10716000AD68AC4238BF2C46D268E4E700225A61D1
:10717000EFE700BFB8170020F8B5302383F311887C
:107180001F4A1378012B1BD04FF400211D4B4FF4E5
:107190008010C3F88010C3F88011002183F8131306
:1071A000C3F88000C3F8800183F814130321164B41
:1071B000196403F5DA33D96921F40001D961DB6977
:1071C000002701230824114D5760137055F8046FF0
:1071D0006EB1706920B16FF001010C30FEF7C8FC90
:1071E000B06920B16FF001010C30FEF7C1FC013C29
:1071F0002F60EBD1FFF784FF84F31188F8BD00BF47
:107200006018002000E100E0005C004068180020E9
:10721000302383F31188034BDB6898610F20FEF75E
:10722000E5BF00BFB817002008B50146302383F33F
:1072300011880820FEF7E8FF002383F3118808BDBA
:107240002DE9F34700250124DFF868A01A4EDAF88B
:107250000030AB4203D8204602B0BDE8F08730686A
:10726000164B40F2E7371968036829445B69984771
:10727000012888BF0024D6F80090DFF84480D9F8B0
:10728000003048469B6901A99847012802D00FD8D1
:107290000135DCE7BC46002101984FF47A72E0FB2F
:1072A00008C100236046FBF7D5F8FFF7BDFFE6E70E
:1072B0000024EDE71C0C002090170020200C00207B
:1072C000A08601002DE9F74FFFF7BAFF0446A0B3EF
:1072D000FBF7E0FCDFF8C480054600274646384649
:1072E00038F8021BFBF71CFD0446F0B10237B7F576
:1072F000806FF4D140F2014000244FF0120CDFF80F
:107300009C80274BDFF89C9001381AD16C46CDE960
:107310000039384634F8021BFBF702FD18B102377A
:10732000B7F5816FF5D14400E4B2012D01D1FBF72F
:10733000DBFC4FF48163C6F80034204603B0BDE89F
:10734000F08F18F8012B82EA0301A1FB0C2A0CFB39
:1073500009AA4FEA49134FEA411B12EB0B0243EA19
:10736000D1634AEB030A531849EB0A024FEAC11BE7
:107370004FEAC91A4FEA012E13EB0B034AEA516A8E
:107380004FEA092942EB0A0249EA116913EB0E039D
:1073900042EB0909F144E318B6E700BF6813002087
:1073A00025232284E49CF2CB044BD3F80034B3F5BC
:1073B000006F01D3FFF786BF0120704768130020DC
:1073C00010B5084C0146D4F80004FBF7A9FC40B105
:1073D000D4F800340233C4F80034BDE81040FFF79D
:1073E000E3BF10BD681300208318B3F5806F2DE94B
:1073F000F34704460E4615463DD8464F07443946E6
:107400003046FAF7F9FFB0B32A4631463846FAF764
:107410007DFFFBF73FFC824680B34FF000084FF042
:107420000009012D30782ED0E3072CD4B4F5804F1D
:1074300038D2737840EA0323012B24D8002B0CBFE9
:107440006FF07F036FF05F03002043EA542363F380
:107450000700630863F30F2080B2FFF7B1FF012834
:1074600006D1023D02340236002DDAD1FFF79CFF2F
:10747000BAF1010F02D002B0BDE8F08702B0BDE85A
:10748000F047FBF731BC3F2C0CD844F04003DBB293
:1074900043EA0020FFF794FF0128E9D1013D0134C0
:1074A0000136E1E7052D2F4628BF0527C4F3024327
:1074B00043EAC703CDE900893A4631468DF80030EA
:1074C0000DF10300230A8DF801308DF80240FAF720
:1074D0001DFFBDF80000FFF773FF0128C8D1BDF8FC
:1074E0000200FFF76DFF0128C2D1012D0DD0BDF8BC
:1074F0000400FFF765FF0128BAD1032D05D9BDF8B7
:107500000600FFF75DFF0128B2D1ED1B3C443E446D
:10751000AAE700BF68130020002337B50C460222FB
:107520000DF10601ADF806300546FDF7B5FCBDF8D6
:1075300006309C4207D0022228460DF10601ADF824
:107540000640FFF751FF03B030BD00000E4A10B5F2
:1075500053780446C3F38001814213D060F3820361
:10756000537004201188FFF7D7FF0220FBF740F883
:10757000064B1B78DB0705D52146BDE810400448C3
:10758000FFF7C8B810BD00BFB2190020AA1900202B
:10759000A4AB000837B50C460546FDF79AFCA0429F
:1075A00007D0012228460DF107018DF80740FFF7AB
:1075B0001BFF03B030BD072838B51D4616D8052976
:1075C00014D8062A12D80E23540003FB0144542376
:1075D00003FB0044290A04F12900FFF7DBFFE9B2AD
:1075E00004F12A00BDE83840FFF7D4BF38BD0000E1
:1075F0002DE9F0470024DFF84880474600265FFA6F
:1076000084F911E0022CD4BF37F815300123EAB217
:10761000514648460135FFF7CEFF072DF2D101361E
:10762000062E07F10E0703D000255FFA86FAE9E778
:107630000134082C08F15408DFD1BDE8F08700BF01
:107640006CB6000810B540F2C92420460021013470
:10765000FFF7A0FFB4F5806FF7D110BD10B5041E81
:107660000CBFFF2125212520FFF794FF002C0CBF24
:10767000FF2110212620FFF78DFF002C08BFFF21DE
:10768000BDE8104018BF26212720FFF783BF08B5AB
:107690000020FFF7E3FF28200021FFF77BFFFFF723
:1076A000A7FFFFF7CFFFBDE808400120FFF7D6BFD7
:1076B00013B50446082269461820FDF7EDFB0822A1
:1076C00069462046FAF798FE38B10822214618206C
:1076D00002B0BDE81040FFF787BE02B010BD000049
:1076E00008B50348FFF7E4FF0022024B1A7008BDFB
:1076F000501900201E1800200B4B10B51B78DB071B
:1077000002D50A48FFF706F8094C2D23204603222C
:1077100000F8013B0749FAF7F9FD4FF67F73A380A4
:10772000BDE81040FFF7DCBFAA190020B9AB000884
:107730005019002068A700082DE9F743594C5A4F0B
:10774000D4F80080FCF700FA8146A0EB0806FCF7AD
:10775000FBF92060002497F800C0054661462046EA
:1077600008F57F43FF33A3EB090EE3B2634512D361
:1077700000B139704D4B1B7823BB4D4B1B7813F078
:10778000030400D09C084B4E3378032B49D8DFE824
:1077900003F01B28757B04F10C0207EB42025378BF
:1077A00092F80280013443EA08239E4529BF9B19C1
:1077B00001F1FF315370C3F307233ABF0120C9B26F
:1077C0009370D2E70024DEE700223B4B36491A7063
:1077D0003A4B29223A481D60FAF798FD012333708D
:1077E0001FE02046FDF784FCDCB1334B18780138EC
:1077F000C0B2FBF779FFC4B2C0F30725FCF764F908
:10780000830709D5122C07D8122D05D9FF23122082
:107810001A461946FBF74CFF2A4E2B4FE3B2AB42F8
:1078200002D303B0BDE8F0833B7830781843FAF711
:107830002BFE431E062B0ED8DFE803F01E1A16138C
:107840000F070400FF231A4609E0FF2300227A21D4
:107850002046FBF72DFF0134E0E70023FF22FF2144
:10786000F6E7BF238022FAE70022FF231146EFE765
:107870000023FF221946EBE70023E4E7204603B08C
:10788000BDE8F043FBF718BF104B1B780BB1FFF7B7
:1078900027FF0A4B1C68FCF757F9001B0F28C0D9BB
:1078A00000239CE750130020121900205F180020CD
:1078B000501900203A0C00200B0C00205813002017
:1078C0001F180020AF190020AE1900201E1800203C
:1078D00037B5042200250DEB020104460195FDF7A2
:1078E000DBFA019B33B1042220460DEB0201019526
:1078F000FFF77AFD03B030BD10B5FBF7CBF90446B6
:1079000018B9BDE81040FBF7EFB9FFF799FCFDF798
:10791000DFFB012CF5D010BD07B5FFF7EDFF4FF6EB
:10792000E6610020FFF7F8FD00210220FFF732FE9C
:1079300001211E4B03201970FFF72CFE4FF4A051BC
:107940000420FFF7E9FD00210620FFF723FEFF21B9
:107950000720FFF71FFE0820FFF7BAFF00212420B1
:10796000FFF718FE00211720FFF714FE00210C205E
:10797000FFF710FE00210D20FFF70CFE0022002370
:107980006846CDE90023FFF793FE2020FFF7A0FF14
:107990000020FFF763FEFFF77AFE0F20FFF798FF46
:1079A0001320FFF795FF03B05DF804FBAE1900202C
:1079B000F0B5431F8BB03E2B00F21F81DFE813F0C0
:1079C00098008900A3003F001D011D0185001D01D5
:1079D0001D01CC001D01DB0004011D011D011D0165
:1079E0001D01EF001D011D01EA001D01B8001D0170
:1079F0001D011B011B011B011B011B011B011B01A5
:107A00001B011B0114011D0198007F001D011D01B8
:107A10001D011D011D011D011D011D011D011D0176
:107A200014011D011D0185001D0118011801180117
:107A30001801180118011801180118011401032078
:107A4000FDF747FA01466F48FEF764FE0220FDF796
:107A500040FAC0F3C0030193C0F38003014600F075
:107A600001020093C0F340036748FEF753FEFDF7A1
:107A700021FAC0F3C0230893C0F3C0130793C0F3E7
:107A800080130693C0F340130593C0F300130493CF
:107A9000C0F3C0030393C0F380030293C0F34023F9
:107AA0000193C0F300230146009300F00102C0F3EC
:107AB00040035648FEF72EFE01200BB0F0BD54489F
:107AC000FEF728FEFFF728FFF6E75248FEF722FEF2
:107AD000F2E7514A5148137823F00F031370FEF771
